:400000000080002011000000AD090000AD09000008B5044B1A6803F53F5302331A6000F0C7FC00BFFA46004010B5054C237833B9044B13B10448AFF300800123237010BD48
:400040002081FF1F00000000441F0000084B10B51BB108480849AFF300800848036803B910BD074B002BFBD0BDE81040184700BF00000000441F00002481FF1F0881FF1F4B
:400080000000000008B5002001F09CF840F2DC5001F0D6FB40F2DC5001F0D8FB40F2DC5001F07AFB40F2DC5001F07CFB002000F025FC012000F022FC032000F01FFC022062
:4000C00000F01CFC40F2DC5001F0D8FA40F2DC5001F0DAFA08BD00BF08B53B4B1B68002BFBD0394B1B6813F0010F12D0364A136823F00103136001F071F8B0FA80F0400936
:4001000001F060F8314B00221A605A6000F090F9E3E72D4B1B6813F0100F07D02A4A136823F01003136000F025FBD6E7264B1B6813F0200F07D0244A136823F02003136089
:4001400000F046FBC9E7204B1B6813F0400F07D01D4A136823F04003136000F06BFBBCE7194B1B6813F0800F07D0174A136823F08003136000F090FBAFE7134B1B6813F0B9
:40018000040F07D0104A136823F00403136000F085FAA2E70C4B1B6813F0020F9DD00A4A136823F002031360084A136801331360052B06DD536823B90122044B5A60FFF706
:4001C00061FF00F0BFFA88E77C81FF1F3C81FF1F08B541F2883000F085FF0024354B1C60204600F0EFFF344B5C6062B600F0D8FD324800F0D3FF01F097FB01F0FFFA40F21E
:40020000DC5001F0C9FA40F2DC5001F0CBFA01F049FB40F2DC5001F013FB40F2DC5001F015FB01F097FA01F0BBF8254801F026F9204600F063FB00F0E5FE224800F0F4FF62
:40024000012000F05BFB01F031F81F4801F046F9022000F053FB01F07FF91C4801F0E6F9032000F04BFB01F003FD194801F00EFE01F062FA40F2DC5001F000FA40F2DC50CD
:4002800001F002FA134801F039FB01F0BDFB40F2DC5001F071FB01F027FC4FF4FA7001F0DBFB01F091FC4FF47A7001F045FCFFF713FF00BF7C81FF1F3C81FF1FD902000070
:4002C000F5020000110300002D03000049030000650300008103000008B500F0A3FD00F06BFF034A136843F00103136008BD00BF7C81FF1F08B501F067F801F0CDF8034AC3
:40030000136843F01003136008BD00BF7C81FF1F08B500F08BFE00F095FF034A136843F02003136008BD00BF7C81FF1F08B500F0D1FF01F0E1F8034A136843F04003136008
:4003400008BD00BF7C81FF1F08B501F019F901F07BF9034A136843F08003136008BD00BF7C81FF1F08B501F0C5FC01F09DFD034A136843F00403136008BD00BF7C81FF1F1B
:4003800008B501F08DF901F0C7FA074A136801331360042B07D90022034B1A60034A136843F00203136008BD4481FF1F7C81FF1F08B51248E3230370114B1B8843701B0A4E
:4003C0008370104B1B88C3701B0A03710E4B1B8843711B0A83710D4B1B88C3711B0A0372C389437243F307238372038AC37243F3072303730D2100F07DFD08BD4881FF1F7C
:40040000B881FF1FB681FF1FBA81FF1FB481FF1F08B5B0F57A7F03D3B0F5FA6F03D804E04FF47A7001E04FF4FA6001F027F908BD38B513E100F00AFD974B588210F47F4F7F
:4004400040F02681C0B218755B7D1B2B00F20681DFE813F01C0023002800320037004100460051005600600004017D0082008D0092009D00A200AD00B200BD00C200CA00DD
:40048000CF00D700DC00E600F600FB00EA2840F0E5800122804B5A75E0E07F4B188302225A75DBE07C4C238B43EA0020208301F073F903236375D1E0774B588304225A75A8
:4004C000CCE0754C638B43EA0020608301F06AF905236375C2E0704B988306225A75BDE06D4CA38B43EA0020A0830725657501F0A7F96575B2E0684BD88308225A75ADE023
:40050000654CE38B43EA0020E08301F09FF909236375A3E0022808D003280BD001280ED14FF4FA7001F008FB0DE04FF47A7001F003FB08E040F2DC5001F0FEFA03E04FF4CD
:40054000FA7001F0F9FA0B22534B5A7586E0524B58840C225A7581E04F4C638C43EA00206084002100F0E2F90D23637576E04A4B98840E225A7571E0474CA38C43EA002041
:40058000A084012100F0D2F90F23637566E0424BD88410225A7561E03F4CE38C43EA0020E084022100F0C2F91123637556E03A4B188512225A7551E0374C238D43EA00202E
:4005C0002085032100F0B2F91323637546E0324B588514225A7541E02F4B5A8D42EA0020588515225A7539E02B4B988516225A7534E0294B9A8D42EA0020988517225A7580
:400600002CE0254BD88518225A7527E0224CE38D43EA0020E085FFF7FBFE192363751DE010F0400F04D04FF47A7001F0A5F903E04FF4FA6001F0A0F91A22174B5A750DE0FE
:40064000154B18861B225A7508E0134C238E43EA0020208601F018F80023637500F00EFC00287FF4E7AE00F0DDFB10F0200F7FF4E1AE00F003FC20B900F0D4FB10F0200FB0
:4006800008D0054A536B43F001035363002038BD012038BD002038BD4881FF1F08B542E001F03CFB80B202B212F47F4F44D1234B1B78052B37D8DFE803F0030A151B262CE2
:4006C00000B2FF282FD101221C4B1A702BE000B29E2803D10222194B1A7024E00022174B1A7020E0164B18870322144B1A701AE013490B8F43EA022292B20A87CA810422FD
:400700000E4B1A700FE00E4B188705220B4B1A7009E00B490B8F43EA022292B20A870A820222064B1A7001F011FB0028B8D101F0E1FA10F0200FB3D108BD00BF0C81FF1F04
:400740004881FF1F08B5FFF733FE012001F02EFBA520002100F014F9A520012100F010F9A520022100F00CF9A520032100F008F908BD00BF08B521E0134B93F83A3013B1A0
:40078000012B09D016E000F027FE0F4BC0B29887012283F83A2011E000F01EFE0A4A938F43EA002080B29087084B1880002382F83A3003E00022044B83F83A2000F004FE30
:4007C00010F0200FD8D108BD4881FF1FB881FF1F08B524E0154B93F83E3013B1012B0AD019E000F02BFC114BC0B2A3F84000012283F83E2013E000F021FC0C4AB2F8403015
:4008000043EA002080B2A2F84000094B1880002382F83E3003E00022044B83F83E2000F005FC10F0200FD5D108BD00BF4881FF1FB681FF1F08B524E0154B93F8423013B1D3
:40084000012B0AD019E000F04DFD114BC0B2A3F84400012283F8422013E000F043FD0C4AB2F8443043EA002080B2A2F84400094B1880002382F8423003E00022044B83F8D4
:40088000422000F027FD10F0200FD5D108BD00BF4881FF1FBA81FF1F08B524E0154B93F8463013B1012B0AD019E000F071FE114BC0B2A3F84800012283F8462013E000F04D
:4008C00067FE0C4AB2F8483043EA002080B2A2F84800094B1880002382F8463003E00022044B83F8462000F04BFE10F0200FD5D108BD00BF4881FF1FB481FF1F08B50328D2
:4009000012D8DFE800F002060A0EFF2000F06EFD08BDFF2000F09CFB08BDFF2000F0ECFC08BDFF2000F03EFE08BD00BF08B540F6FC73984200D91846104A00F01F03403B67
:400940001370C0F346105070032916D8DFE801F002070C110948022100F05EFD08BD0748022100F08BFB08BD0448022100F0DAFC08BD0248022100F02BFE08BD9481FF1F8A
:40098000A52812D108B503290ED8DFE801F00205080B00F02BFD08BD00F05AFB08BD00F0ABFC08BD00F0FEFD08BD7047FEE700BF08B5104E104D16E029686B68AC68002290
:4009C00004E051F8040B43F8040B0432A242F8D1E868002203E0002143F8041B04328242F9D11035013E002EE6D101F071FAFFF7EFFBFEE701000000F81F000008B5124A3F
:400A0000124B1A60124A136843F40073136000230AE0032B03D80F4A52F8231000E00E490E4A42F8231001332F2BF2D90C4B1A780C4B1A70094A0C4B1A6000F0C3F80022EF
:400A40000A4B1A6008BD00BF0004FA050CED00E014ED00E000000000AD0900000080FF1FBC7600400481FF1F08ED00E00081FF1FFEE700BFF0B40022174611E050F8276002
:400A8000F3B226F0FF0608E001EB420511F812406D78A5550132013BDBB2002BF4D10137282FEBD9F0BC7047064B1B78DBB203F00701054A11701B09013213704422034BB5
:400AC0001A707047CF0100496E5800407658004008B50A46002101F02CFA08BD38B517222A4B1A8018232A4A1370192502321580023213704FF49C7226490A8002310B7061
:400B000002310A80244A13700222244B1A7008224FF040231A70032103F500731970204B1B78DBB21F490B701F4B1A8041F25122023B1A8000240CE01C4B1B7803F001038C
:400B400043EA440404F003044FF4F07000F0B8FA013D0DB1032CEFD115B90320FFF788FF134B4FF480721A8007221A70002211490A704820023108701A700222033B1A7008
:400B80000D4A137843F00F03137038BD8040004082400040884000408E4000400043004008010049A146004022420040254200400440004006400040A243004008B501F05A
:400BC000ADF908BD38B572B63D4A137843F00403137000240CE03B4963001A1952000A4423445B00C8589188FFF772FF0134E4B20A2CF0D9002410E03249A3001A195200F9
:400C00000A4452F8440F23445B000B445168B3F84C20FFF7D3FF0134E4B2062CECD94FF090402949FFF726FF284A137843F0020313701032137843F002031370244C237877
:400C400043F040032370A2F58632513A137843F0100313701F4820490822FFF7AFFF1F481F490A22FFF7AAFF1E481F490822FFF7A5FF1E481E490A22FFF7A0FF1D481E4919
:400C80000822FFF79BFF1D481D490822FFF796FF1C4A137843F0080313701B4D61232B70FFF71CFF81232B700122184B1A70FFF7FBFE174821460E22FFF780FF38BD00BF53
:400CC000E8460040481F0000A400004803500140A043004002510040FC130048C051004004140048F2510040101400481051004018140048225100402414004832510040E7
:400D00002C140048224300400048004004000840B043004008B50C200C4900F0F9F90C20072100F009FA0023094A13707221094A11702021A2F58072117006219A321170F9
:400D4000472110321170AC3A137008BD1D0F00009881FF1F8B65004010B500F0B9F904460C4A137843F020031370A2F58072137843F0100313704FF48052074B1A60074A0D
:400D8000137843F01003137000F08CF9204600F0A3F910BD9B65004000E100E09964004008B5054B5B7823B9FFF7B4FF0122024B5A70FFF7D1FF08BD9881FF1F4FF48052F7
:400DC000134B1A60134A9378DBB2D178C9B2127912F0FF0F01D18B4211D00F4AD05CC0B20133DBB2312B00D900230A4A9370137913F0FF0F06D00022064B1A7102E0074B3B
:400E00001878C0B24FF48052054B1A60704700BF80E100E09881FF1FBC81FF1F4465004000E100E0074B187800F07F00064B5B7913F0FF0F04D040F080000022024B5A7199
:400E4000704700BF6B6400409881FF1F10B54FF48053074A1360074A147800211170064A13602402FFF7AAFF204380B210BD00BF80E100E09881FF1F00E100E04FF48052A1
:400E8000134B1A60134A9378D278DBB2934206D1104B1B7913F0FF0F14D0322013E00D4A9378D278DBB2934205D20A4AD3789078181AC0B207E0074AD3789078181A3230F7
:400EC000C0B200E000204FF48052034B1A60704780E100E09881FF1F00E100E0034B1B7813F0040FFAD1024B187070476964004049650040084B5B7833B97047305DFFF71E
:400F0000EDFF0134E4B203E070B50D4606460024AC42F3D370BD00BF9881FF1F1C4B1B78DBB213F01E0F05D01A4803F01E0201780A43027003F0200303F0FF022BB3164BD6
:400F40001978C9B2154B1B78DBB21548C154154B1B7813F0FF0F02D00121134B19700F490B780133DBB20B700B78DBB2312B02D900210A4B1970094B1B780C490978DBB2ED
:400F80008B4202D10121074B1970002AC6D170476B6400409881FF1F446500409B81FF1FBC81FF1F9C81FF1F9D81FF1F9A81FF1F7222074B1A70202202331A700622653B6F
:400FC0001A70472210331A7000224F331A7070478564004008B500F07BF8094A137843F0200313700232137843F010031370063A137843F01003137000F06EF808BD00BF56
:401000009564004008B5054B1B7823B9FFF7D0FF0122024B1A70FFF7DDFF08BD9F81FF1F014B1878704700BF45640040024B187800F07F00704700BF6764004010B5FFF7A4
:40104000F5FF0402FFF7ECFF204380B210BD00BF024B1B780BB1024B187070479F81FF1F41640040034B1B7813F0040FFAD1024B187070476164004041640040084B1B780B
:4010800033B97047305DFFF7EDFF0134E4B203E070B50D4606460024AC42F3D370BD00BF9F81FF1F054A137843F0080313701032137843F008031370704700BFA2430040E6
:4010C0000230800803D000BF01380046FCD17047EFF3108072B6704780F31088704700BF01BE704710B5044605E0084B1868FFF7E7FFA4F50044B4F5004FF6D8034B586805
:4011000000FB04F0FFF7DCFF10BD00BF1081FF1F70B504460E46074B1D681F2802D90020FFF7DEFF04F01F04103455F8240045F8246070BD08ED00E038B504460D460729BC
:4011400002D90020FFF7CCFF1F2C02D90020FFF7C7FF04F01F0000F1604000F564406D01EDB2057038BD00BF014B1B681864704708ED00E04001C0B2014B1870704700BF6A
:4011800000E400E00122014B1A60704700E100E00122014B1A60704780E100E010B50446FFF7F6FF2046FFF7DFFF0720FFF7E2FFFFF7E8FF10BD00BF0122014B1A607047EE
:4011C00080E200E0044A137803F0FD03400000F0020018431070704720510040024B1878C0F34000704700BF21510040014B1B681866704708ED00E04001C0B2014B187014
:40120000704700BF08E400E04FF48072014B1A60704700BF00E100E04FF48072014B1A60704700BF80E100E010B50446FFF7F4FF2046FFF7DBFF0720FFF7DEFFFFF7E4FF87
:4012400010BD00BF4FF48072014B1A60704700BF80E200E07222084B1A70202203331A700622A3F263131A70472210331A7000224C331A70704700BF8465004008B5FFF74C
:4012800027FF094A137843F0200313700332137843F010031370A2F20712137843F010031370FFF719FF08BD9465004008B5054B1B7823B9FFF7CEFF0122024B1A70FFF78C
:4012C000DDFF08BDA181FF1F014B1878704700BF47650040024B187800F07F00704700BF6765004010B5FFF7F5FF0402FFF7ECFF204380B210BD00BF024B1B780BB1024B61
:4013000018707047A181FF1F40640040034B1B7813F0040FFAD1024B187070476064004040640040084B1B7833B97047305DFFF7EDFF0134E4B203E070B50D460646002486
:40134000AC42F3D370BD00BFA181FF1F7222074B1A70202203331A70062299331A70472210331A700022B03B1A7070478C64004008B5FFF7ADFE094A137843F020031370D4
:401380000332137843F010031370073A137843F010031370FFF7A0FE08BD00BF9C64004008B5054B1B7823B9FFF7D0FF0122024B1A70FFF7DDFF08BDA381FF1F014B1878C7
:4013C000704700BF4F640040024B187800F07F00704700BF6F64004010B5FFF7F5FF0402FFF7ECFF204380B210BD00BF024B1B780BB1024B18707047A381FF1F48640040A2
:40140000034B1B7813F0040FFAD1024B187070476864004048640040084B1B7833B97047305DFFF7EDFF0134E4B203E070B50D4606460024AC42F3D370BD00BFA381FF1FF6
:40144000014B1B689866704708ED00E04001C0B2014B1870704700BF0AE400E04FF48062014B1A60704700BF00E100E04FF48062014B1A60704700BF80E100E010B5044675
:40148000FFF7F4FF2046FFF7DBFF0720FFF7DEFFFFF7E4FF10BD00BF4FF48062014B1A60704700BF80E200E0014B1B689864704708ED00E04001C0B2014B1870704700BFB7
:4014C00002E400E00422014B1A60704700E100E00422014B1A60704780E100E010B50446FFF7F6FF2046FFF7DFFF0720FFF7E2FFFFF7E8FF10BD00BF0422014B1A607047A0
:4015000080E200E07222074B1A702022FF3B1A700622A1331A70472210331A700022AE3B1A7070478965004008B5FFF7D1FD094A137843F020031370FF3A137843F010037B
:4015400013700332137843F010031370FFF7C4FD08BD00BF9965004008B5054B1B7823B9FFF7D0FF0122024B1A70FFF7DDFF08BDA581FF1F014B1878704700BF4A6500408F
:40158000024B187800F07F00704700BF6A64004010B5FFF7F5FF0402FFF7ECFF204380B210BD00BF024B1B780BB1024B18707047A581FF1F4B640040034B1B7813F0040F52
:4015C000FAD1024B187070476D6400404B640040084B1B7833B97047305DFFF7EDFF0134E4B203E070B50D4606460024AC42F3D370BD00BFA581FF1F014B1B68186570471F
:4016000008ED00E04001C0B2014B1870704700BF04E400E01022014B1A60704700E100E01022014B1A60704780E100E010B50446FFF7F6FF2046FFF7DFFF0720FFF7E2FF7E
:40164000FFF7E8FF10BD00BF1022014B1A60704780E200E0024A137843F080031370704772640040014B1880704700BF0C680040014B1880704700BF8C680040014B1880B3
:40168000704700BF4C680040014B1880704700BF6C680040014B1870704700BF84640040014B1878704700BF64640040014B188880B27047AC68004008B501E0FFF7F6FFD4
:4016C000FFF7EEFF10F0100FF8D108BD08B5184A137803F0C00343F0090313702432137843F0010313700132137843F00103137044F62060FFF7B6FF44F62060FFF7B8FF59
:4017000040F2DC50FFF7BAFF40F2DC50FFF7BCFF0420FFF7BFFFFFF7DBFC064A137843F010031370FFF7D8FCFFF7C6FF08BD00BF726400409464004008B5054B1B7823B971
:40174000FFF7C4FF0122024B1A70FFF783FF08BDA781FF1F054A137843F0020313701032137843F002031370704700BFA2430040024A137843F08003137070477865004097
:40178000014B1880704700BF12680040014B1880704700BF92680040014B1880704700BF52680040014B1880704700BF7268004008B5114A137803F0C00343F0090313709E
:4017C000DF3A137843F0010313700132137843F00103137044F62060FFF7D2FF44F62060FFF7D4FF40F2DC50FFF7D6FF40F2DC50FFF7D8FF08BD00BF7865004008B5054B0D
:401800001B7823B9FFF7D4FF0122024B1A70FFF7AFFF08BDA881FF1F024A137843F08003137070477E640040014B1880704700BF1A680040014B1880704700BF9A68004025
:40184000014B1880704700BF5A680040014B1880704700BF7A68004008B5114A137803F0C00343F0090313701F32137843F0010313700132137843F00103137044F62060AD
:40188000FFF7D2FF44F62060FFF7D4FF40F2DC50FFF7D6FF40F2DC50FFF7D8FF08BD00BF7E64004008B5054B1B7823B9FFF7D4FF0122024B1A70FFF7AFFF08BDA981FF1FF4
:4018C000014B1B689867704708ED00E04001C0B2014B1870704700BF0EE400E04FF48042014B1A60704700BF00E100E04FF48042014B1A60704700BF80E100E010B504462C
:40190000FFF7F4FF2046FFF7DBFF0720FFF7DEFFFFF7E4FF10BD00BF4FF48042014B1A60704700BF80E200E0054A137843F0010313701032137843F001031370704700BF15
:40194000A2430040084A137843F0010313701032137843F00103137002F64D32137843F001031370704700BFA3430040014B1880704700BF044F0040014B1880704700BF85
:40198000064F0040014B1870704700BF034F004008B51A4A137843F0020313700232137803F08F0343F010031370154B1A7802F0CF021A701A7842F030021A701A7802F0FF
:4019C000F0021A701A7842F00F021A7044F62060FFF7CCFF40F2DC50FFF7CEFF0020FFF7D1FF084A137843F00103137002F65E32137843F00103137008BD00BF004F004013
:401A00000B4F0040A343004008B5054B1B7823B9FFF7BEFF0122024B1A70FFF793FF08BDAA81FF1F084A137843F0040313701032137843F00403137002F66532137843F0B6
:401A400001031370704700BFA3430040014B1880704700BF1C4F0040014B1880704700BF1E4F0040014B1870704700BF1B4F004008B51A4A137843F002031370023213781D
:401A800003F08F0343F010031370154B1A7802F0CF021A701A7842F030021A701A7802F0F0021A701A7842F00F021A7044F62060FFF7CCFF40F2DC50FFF7CEFF0020FFF708
:401AC000D1FF084A137843F00403137002F67632137843F00103137008BD00BF184F0040234F0040A343004008B5054B1B7823B9FFF7BEFF0122024B1A70FFF793FF08BD1E
:401B0000AB81FF1F084A137843F0020313701032137843F00203137002F65932137843F001031370704700BFA3430040014B1880704700BF104F0040014B1880704700BF84
:401B4000124F0040014B1870704700BF0F4F004008B51A4A137843F0020313700232137803F08F0343F010031370154B1A7802F0CF021A701A7842F030021A701A7802F025
:401B8000F0021A701A7842F00F021A7044F62060FFF7CCFF40F2DC50FFF7CEFF0020FFF7D1FF084A137843F00203137002F66A32137843F00103137008BD00BF0C4F004038
:401BC000174F0040A343004008B5054B1B7823B9FFF7BEFF0122024B1A70FFF793FF08BDAC81FF1F08B50D200C49FFF791FA0D200721FFF7A1FA0023094A13707221094AD3
:401C000011702021A2F58072117006215A3A11704721103211704732137008BDC51D0000AD81FF1F8665004010B5FFF751FA04460C4A137843F020031370A2F58072137839
:401C400043F0100313704FF40052074B1A60074A137843F01003137000F02CF92046FFF73BFA10BD9665004000E100E09364004008B5054B5B7823B9FFF7B4FF0122024B1A
:401C80005A70FFF7D1FF08BDAD81FF1F4FF40052134B1A60134A9378DBB2D178C9B2127912F0FF0F01D18B4211D00F4AD05CC0B20133DBB2052B00D900230A4A937013797B
:401CC00013F0FF0F06D00022064B1A7102E0074B1878C0B24FF40052054B1A60704700BF80E100E0AD81FF1FF081FF1F4665004000E100E0074B187800F07F00064B5B79B6
:401D000013F0FF0F04D040F080000022024B5A71704700BF66640040AD81FF1F10B54FF40053074A1360074A147800211170064A13602402FFF7AAFF204380B210BD00BFC1
:401D400080E100E0AD81FF1F00E100E04FF40052134B1A60134A9378D278DBB2934206D1104B1B7913F0FF0F14D0062013E00D4A9378D278DBB2934205D20A4AD378907834
:401D8000181AC0B207E0074AD3789078181A0630C0B200E000204FF40052034B1A60704780E100E0AD81FF1F00E100E0034B1B7813F0040FFAD1024B187070476364004063
:401DC000436400401C4B1B78DBB213F01E0F05D01A4803F01E0201780A43027003F0200303F0FF022BB3164B1978C9B2154B1B78DBB21548C154154B1B7813F0FF0F02D0A6
:401E00000121134B19700F490B780133DBB20B700B78DBB2052B02D900210A4B1970094B1B780C490978DBB28B4202D10121074B1970002AC6D1704766640040AD81FF1FB3
:401E400046650040B081FF1FF081FF1FB181FF1FB281FF1FAF81FF1F014B1B689865704708ED00E04001C0B2014B1870704700BF06E400E04022014B1A60704700E100E0EB
:401E80004022014B1A60704780E100E010B50446FFF7F6FF2046FFF7DFFF0720FFF7E2FFFFF7E8FF10BD00BF4022014B1A60704780E200E0054A137843F00403137010326D
:401EC000137843F004031370704700BFA24300400E4B70B51E460E4C0025E41AA410A54204D056F8253098470135F8E700F072F8084B094C1E46E41AA4100025A54204D0A2
:401F000056F8253098470135F8E770BDE01F0000E01F0000E01F0000E81F000010B5431E0A44914204D011F8014B03F8014FF8E710BD03460244934202D003F8011BFAE744
:401F40007047000000000000004F00402400405100403000000001408004000501400001800601400008000F0140000180140140000400190140000300400140000A004CBD
:401F8000014000020050014020000000605200406C110048060000510140741100480800800401407C110048800000060140FC1100488000800E01407C120048800000149A
:401FC0000140FC1200488000801801407C13004880000000F8B500BFF8BC08BC9E4670474D000000FD090000F8B500BFF8BC08BC9E46704729000000082000000881FF1F51
:4020000018000000D800000000000000020000000000E02EC05D00001800000000366E010000000000000000000000000000000000000000000000000000000000000000C6
:402040000000000000000000000000000000000000000000000000000000000000000000000000000000000000000000000000000000000000000000000000000000000060
:402080000000000000000000000000000000000000000000000000000000000000000000000000000000000000000000000000000000000000000000000000000000000020
:4020C00000000000000000000000000000000000000000000000000000000000000000000000000000000000000000000000000000000000000000000000000000000000E0
:40210000000000000000000000000000000000000000000000000000000000000000000000000000000000000000000000000000000000000000000000000000000000009F
:020000040003F7
:0200000480007A
:40000000034F0040075200400E640040056500406600014038010140670201404E0301402A040140520501402D060140490701406D0801404B0901406D0A0140570B01402A
:40004000720C0140550D0140290E0140390F014036140140631501406D160140591701402B180140551901407A1A0140601B014006400140184101401E4201401643014044
:40008000074401400C45014008460140054701400A4801400F490140074C01400A4D0140085001400A271627222709100C2010211140188119911C08800F810F830F840FEC
:4000C000857286388738880F890F8A388B388C728D0F8F3884728672873889728B72050C07501320154D1730180119021B54252827512D4D2F1031033201333C35403902E7
:400100003B083E043F104062410545EE460B470C481749FF4AFF4BFF4EF04F44500C54015604580459045A045B045C105D115F0166C06A406B02830289408B098C738D16A5
:400140008E048F29912893139473960C98039A449B169C2A9E44A580A655A928AA08AB15B040B11BB20FB360B430B580B707B820B908BA08BB82BE11BF10C063C104C50CA2
:40018000C6C0C7BEC839C9FFCAFFCBFFCEF0CF44D00CD401D604D804D904DA04DB04DC11DD11DF01E6C0EA40EB0207010B080C080E120F081610172019041D201E502008DB
:4001C00022092601272929802B202E18302032093310372138083D403E2243104630470149814A084B084C084F08504456085711588059255E405F1A60406330678079401B
:400200007A018C048D20C080C2E2C460CA6ACCA7CEB2D0C4D22CD6FFD8810114110C12041311160E19091A081B101D201F0321102201254029102A022B0C2D1C2F023002B8
:4002400032013340340835203604371F3E013F144002474049FF4A074BFF4C404D204EF04F0550085280580459045A045B045C105D015F01604061A86240632084118540FC
:40028000860E8C208D508E03900C92139540973099019A0C9B0C9D02A124A208A340A411A570A606A708AD30AF44B00FB101B302B430B57CB820BA02BF05C034C106C5ECE7
:4002C000C70BC813C9FFCAFFCBFFCEF0CF44D00CD401D604D804D904DA04DB04DC12DD22DF01E6C0EA40EB020008030208800A460D090F0411021308152016801A441B100A
:400300001C421D081F1022162664288029802B202C102D402E123080321836403721388039083F024220430245204880492950085612582059015A085B80610276808101D2
:400340008420850A88108E049080914092129B219D809E12A120A208A301A420A720AA08AB02AC84AF40B440C005C27AC45CCAFBCCBECE8AD023D204D60FD801E240E408A9
:40038000E603EA4003030A020C680D020E1318561A091E16262928682A1530603101341B3607370238023AA03E014004470449FF4A074BFF4C404D204EF04F055008540707
:4003C0005604580459045A045B045C015D015F01604061A86240632001800204042007080A060E1810201208155419801A441B201D821E18204022402510260127232C18EE
:400400002D082F0A3480372A384039023E2A42404490459248204C88510452045610580859115A805E0263406D54762B77148140821087408B4092029320952A97049808EA
:400440009D80A108A20AA420A720A848AA40AE20AF82B005B120B220B308B408B710C043C263C4E6CA70CCF0CEE9D0F1D220D68FD801E010E208E694E804EA8A82028B01DC
:400480009E02A201AA01AF01B402B501B601B802BA08BB80BE51BF10C030C102C5D5C620C710C82BC9FFCAFFCBFFCDAFCE0FCF04D018D418D604D804D904DA04DB04DC2141
:4004C000DD10DF01E040E2C0E440E540E6C0E8C0EAC0ECC0EEC00240042005040680070109800D400E1810801120148016011714188119281A901D441F2A20062410258015
:400500002601270829402E2A360937403A103C123D923F0841284528481049014B04513159025F0260056102652067828040824085029020918093209522978498809A9173
:400540009B159D19A080A118A204A70AAA80AB20AF08B602C0F8C2E1C4FACAE8CCD0CEF4D066D681D8BDEE16012A0390058F07100B950E1C14401603181C198F1A231B302E
:400580001C211E0E1F20210C22082390254028212A1630603180333C340F3540361A3703380239803AA03B083F514026410345EE46B047C0482B49FF4AFF4BFF4EF04F4410
:4005C000500C54015604580459045A045B045C135D115F0166C06A406B02830484508502862A8E04902C9252970498509A269E2C9F03A401A880AA12B036B20EB301B401F5
:40060000B502B6C0B704B880BA0ABE10BF40C040C106C9FFCAFFCBFFCDA0CF04D018D401D604D804D904DA04DB04DC01DD30DF01E040E2C0E440E540E6C0E8C0EAC0ECC021
:40064000EEC002010310044008100A410DA00F1011201220152219401A451B051C4A1DA01F01200121042210240427912C202E02308033083540371039083B013D203F2AD0
:4006800043024410471048084C204D014F20561258225A845C045D015E205F806080650278107B04940195909602978C9C099D429E119F10A008A108A410A601A707A9024C
:4006C000AF40B414C085C2EBC456CAC0CC3ACEE3D061D224D6FFD8810520070309140E030F40134019101B0C1D091F10211022012602290C2B112D1C2F023120331F3402BD
:40070000354036013F114040410645154702481349FF4AFF4BFF4DAF4E0F4F04501854185604580459045A045B045C105D105F01604062C06440654066C068C06AC06CC0E5
:400740006EC08109824C831088318A0E8B408C6C8D148E039510970C990C9A139B119D209E089F03A110A431A646AB40AD1CAF02B00FB11FB230B320B44AB740B808BA2223
:40078000BE04BF44C032C106C5E0C6CBC80EC9FFCAFFCBFFCEF0CF44D00CD418D604D804D904DA04DB04DC11DD31DF01E6C0EA40EB020302044205300D600E010F0410A014
:4007C0001708180819801C401D181F0120842104242027412A012B052D102E012F0131403201331035103748380239083A103B813C203D803F01430245204640470948A80F
:400800004D2150085540571058015E0260056202664067488202844085808E0290029440950197049A029B089C089D10A710AA01AB40AC40AE20B120B201B402B504B60269
:40084000C0D1C2C0C42CCABDCC7DCEBED061D224D681D8BDE012E610E810EA20EC10EE800010022C03080520074508F909030B440D0A0F541553170C18A019531A521B04E8
:400880002048229224F92C0130383206334034C0350F3601373039803B203E043F044004470449FF4A074BFF4C404D204EF04F05500856025711580459045A045B045C1158
:4008C0005D125F01604061A8624063208180841086408A038B558CDC8E229009917392D09304981099739AAC9B0C9C0C9E71A12AA344A620A708AC14AD03AF44B140B380DF
:40090000B41FB50FB6E0B730B980BA80BB20BF45C020C106C9FFCAFFCBFFCDA0CF04D018D401D604D804D904DA04DB04DC22DD10DF01E040E2C0E440E540E6C0E8C0EAC034
:40094000ECC0EEC000080120020104200501080209200A020E04102012021542170419201A021D091E441F40208021202204230224032504270829042B4131203201351077
:40098000370839013AA03B803C413E103F2440044702480854245620570859805A195D015E2163406C106D406F047540760877208308874189208A048B018D849004910251
:4009C00096409A029C089D409E889F21A008A210A508B121B402B504C057C24BC4B5CA0BCC65CEF5D084D204D62FD801E2200202060207050B040F011201130226013104AB
:400A000033013402350236013E504020410646514702481C49FF4AFF4BFF4DAF4E0F4F0450185280580459045A045B045F01604062C06440654066C068C06AC06CC06EC0F1
:400A4000000A05400688072009060B100E840F10130414081502170419901C021EA42044220824092516260227042C022D202E08310134083540372138A43D223E44400473
:400A800044084509468048084C044E024F04505854045C016590660271018C408E08C0FCC278C474CA70CCF1CEFED0E4D234D680D8B08001820E84448508863188E7891C4B
:400AC0008BC2911C93C1951898229A519B049D049F20A110A4E7A5DFA9C7AB18AC80AF83B007B140B218B320B460B51FB680B798B902BBA0BE04C003C504C9FFCA07CBFF8D
:400B0000CC40CD20CEF0CF05D008D804D904DA04DC12DD03DF01E040E1A8E240E32000220108030104240501088009020A200B040F081080122013101540170419121A3134
:400B40001C841D891F20200121102208234024402510262027212A112D882E12302434803504372139203B403D203F044001430A44204A194D0451015620591069906B1062
:400B8000708071047202731478107910808081208201830484208511862088048A108B408C208E099020914094409584961199889B049C109D229F10A011A102A30AA44031
:400BC000A588A610A724B104B504C07FC24FC4AECAF5CCF6CE6CD04BD20CD604E00AE204E402E6080108054106010710090C0DC3110F13E015E3170C19041A011DEF25827A
:400C0000292C2BC32FE330013110330F352C37C03B083E014061410442024403450C460E480549FF4AFF4BFF4C624DA04EF04F41500C56025712580459045A045B045C201B
:400C40005D225F016640670269106A306B106D106E106F12810283158D808E029544972A99E79A029E01A201A5E7A921AB4AB001B107B360B402B518B780BA08BE11BF10EB
:400C8000C035C106C204C402C5CEC803C9FFCAFFCBFFCC62CDA0CEF0CF41D00CD418D604D804D904DA04DB04DC13DD11DF01E640E702E910EA30EB10ED10EE10EF1200409C
:400CC000040808800A010B080F041080180419041B091F012022211322042408251026082742281029202C012D102F203204331034403510360939823C803E223F08408005
:400D000041104210444145D9488149804B284E084F04564059025F08600462026302650867206C106D406F047510762A860287029110970299089B089E6A9F42A101A201C8
:400D4000A540A618A704A910AD02AF20B010B210B310B508C021C243C408CA76CCF6CEF9D0F7D22CD641D80DE208EA20EC40EE0501010306053807040E02111812021322C8
:400D800019202128252027182D122E012F203001313E320237013E043F404004474049FF4A074BFF4C404D204EF04F0550085280580459045A045B045C305D015F016040E0
:400DC00061A862406320008002800324070208080A450F4010981308174018081A011B691F06229524022501281929102B412E082F813102329033043520360238083A22C3
:400E00003C083D02400441104208470148014A224B1052045380551056015A08602062046954708872227308774084108C028F08930295A29682979D98089B019C219E01E7
:400E4000A005A1A8A410A510A621A70AA880AA10AE12B082B110B220B408C08FC21FC48ECAD7CCAFCEC7D084D20CD602E8C0ECC00014022A03080573070C0B550C80100914
:400E800012321802192A1A451B441D731F04249F25032744289F3018328033303407350F3660374039083B203E403F44402341064204440145C0460E480649FF4AFF4BFFC6
:400EC0004C624DA04EF04F41500C580459045A045C315D015F016640670269106A306B106D106E106F12800F82F0840C853C87428804897F8C088D3C8F4192F3930494FF27
:400F0000950898F399189A0C9C419D10A0C3A482A567A718A81CAAE3AB03AD04AF80B02CB180B21CB31FB40FB520B6C0B740B980BA22BB08BF10C003C540C9FFCA07CBFFF1
:400F4000CC40CD20CEF0CF05D008D602D711D804D904DA04DB04DC33DD31DF01E040E1A8E240E320014205410728080409060A040E090FA0111414841610180119021A54E1
:400F80001CA01D011E0A1F10200422442504261227022A042D802E282F1031A035403602372838043B123C803D083F204001410142104324450849104B014F0653405E2022
:400FC0006D206F1175407728780279827B01831086148750888089808A018B018C018D108E288F409002915493029404958096C497D5980299109A049F06A1AAA330A410ED
:40100000A601B040B123B710C0F9C2FAC476CA72CCFCCE77D04FD204D620E020E210E440E6B0E8303010330135283980CCF0CE1031803202340136803B105340630285809B
:4010400086028F04931095809C109D209F01AF10B508CCF0CE10D420D640E240E640EA1002403211340435103B2050405608580462808210875088048D44958097809A0815
:401080009C119D209F01A304A680AE08B301C010CCF0CE10D460E210E660EE4019801A401D046B406F40738083C084019C019D249F01A304A910AC10AE41B440C670DCE0D3
:4010C000E2C0E680E810EE60101071088F0CC408DC01E002E40257405B085C0263089B08A304A508B010D402D603D802EA04500485088C049C02A508A740D404E008900415
:40110000A740B406E808EC028701981099809F01A304A920B010B640E240EE80051012205D80630864108110822098109980A304C080C410D620D8C0E4A00C0160049004C8
:40114000B740C204D802EC0210807C4088808C40B001C408DE04E002E601EE04000F08070A070C0B0E07100F1A0E1C0B888A000055000000FFFFFF3F000000000010000034
:401180000008000021184A0000000000003C00C182044900407CB082000000C300000000E7FF0000E7E70018040000040420031FE0581898000000880000400164030200F3
:4011C00001C0E0000AFFFFFF62A0F0410C00000000000213040404041111000100000000000040020010301000101012000000000000000000000000000000000CFFD3001E
:40120000D3040C00415C20A20F00D023005C00A1DFE70018C3000000820000040010C300040800000C1800000800000020380F1FC04010808080080A0000001030020000D1
:401240000000000000FFFFFF00A00004180000001800040004040404212000014000C0004040C000C000C000C000C00000000000000000000000000000000000000003F311
:40128000181C00E308F3000C10C30000008204003CFF41003C0C42000008000004008000670418007F410000000F00F0801C202C1F0F40C080002028000004006402050096
:4012C000030C000E11FFFFFF62A0F0410C00000018000400040404041111000100000000000040020010301000101012000000000000000000000000000000000000E3008E
:40130000FF0000008214002A1F02E045C3000000F3090C32049F000041000000089F00003C00C3000C80000000000000C0070F8010182C60000008000000104056030400D6
:40134000010C00E021FFFFFF62A0F0410C00000000000211040404043113000100000000000040020010301000101012000000000000000000000000000000001C10E300E8
:40138000F3670C180018F3004100000082040080FF000003C30000040F3CF042083C0041040800000C7F000000000000C0401C200F802C1F0002A080000000042605000094
:4013C000000E0B0C15FFFFFF0000F0440C000000000002120404040411130001000000000000C00000004002000000000000000000000000000000000000000000424200A7
:4014000042000000AA0055AAAA00AA0000000000001010001000000010002010100010000000000000E3E300E100000008919100910000000000000000000000000000007B
:40144000000000000000000000000000000000000000000000000000000000000000000000000000000000000000000000000000000000000000000000000000000000006C
:40148000000000000000000000000000000000000000000000000000000000000000000000000000000000000000000000000000000000000000000000000000000000002C
:4014C00000000000000000000000000000000000000000000000000000000000000000000000000000000000000000000000000000000000000000000000000000000000EC
:4015000000000000000000000000000000000000000000000000000000000000000000000000000000000000000000000000000000000000000000000000000000000000AB
:0200000490006A
:0400000000004005B7
:0200000490105A
:04000000BC90ACAF55
:0200000490303A
:02000000706727
:0200000490402A
:4000000000000000000000000000000000000000000000000000000000000000000000000000000000000000000000000000000000000000000000000000000000000000C0
:400040000000000000000000000000000000000000000000000000000000000000000000000000000000000000000000000000000000000000000000000000000000000080
:400080000000000000000000000000000000000000000000000000000000000000000000000000000000000000000000000000000000000000000000000000000000000040
:4000C0000000000000000000000000000000000000000000000000000000000000000000000000000000000000000000000000000000000000000000000000000000000000
:0200000490501A
:0C00000000012E16106900012E2880D08F
:00000001FF