:400000000080002011000000010600000106000008B5044B1A6803F53F5302331A6000F0F1FA00BFFA46004010B5054C237833B9044B13B10448AFF300800123237010BD7E
:400040002081FF1F00000000EC140000084B10B51BB108480849AFF300800848036803B910BD074B002BFBD0BDE81040184700BF00000000EC1400002481FF1F0881FF1F11
:400080000000000008B5204B1B68002BFBD01E4B1B6813F0010F12D01C4B1B78012B0ED1194A136823F00103136000F0A3FEB0FA80F0400900F092FE00F05CF9E3E7124B71
:4000C0001B6813F0020F05D00F4A136823F002031360D8E70C4B1B6803F47053B3F5705FD1D1094A136823F47053136000F0E4F900F080FEB0FA80F0400900F06FFE012290
:40010000024B1A70BFE700BF5481FF1F8181FF1F08B541F2883000F0F1FD00241F4B1C6001251F4B1D7062B6204600F057FE00F0E7FE00F0D7FE1B4800F010FF00F03CFCDC
:40014000194800F037FE00F0F3FF184801F05EF8204600F013FA00F061FD154800F02EFF284600F00BFA00F069FF124801F07EF8022000F003FA01F0B7F80F4801F01EF9BB
:40018000032000F0FBF900F0BBFE01F067F940F2DC5001F03BF9FFF775FF00BF5481FF1F8181FF1F59030000BD010000D90100003902000099020000F902000008B500F00D
:4001C0003DFC00F005FE034A136843F00103136008BD00BF5481FF1F08B500F0BDFF01F023F8124B1B7813B1012B09D01AE000F0BBFFC0B20E4B188001220C4B1A7008BDEC
:4002000000F0B2FF0A4A13889BB243EA002080B210800022054B1A70064A136843F48063136008BD0022014B1A7008BD3C81FF1F8881FF1F5481FF1F08B500F003FD00F06A
:40024000CBFE124B5B7813B1012B09D01AE000F001FDC0B20E4B188001220C4B5A7008BD00F0F8FC0A4A13889BB243EA002080B210800022054B5A70064A136843F4006398
:40028000136008BD0022014B5A7008BD3C81FF1F8681FF1F5481FF1F08B500F0E3FE00F0F3FF124B9B7813B1012B09D01AE000F0E1FEC0B20E4B188001220C4B9A7008BDF8
:4002C00000F0D8FE0A4A13889BB243EA002080B210800022054B9A70064A136843F48053136008BD0022014B9A7008BD3C81FF1F8A81FF1F5481FF1F08B501F009F801F090
:400300006BF8124BDB7813B1012B09D01AE001F007F8C0B20E4B188001220C4BDA7008BD00F0FEFF0A4A13889BB243EA002080B210800022054BDA70064A136843F40053C2
:40034000136008BD0022014BDA7008BD3C81FF1F8481FF1F5481FF1F08B500F06DFD00F00BFE034A136843F00203136008BD00BF5481FF1F10B57FE000F074FB4D4B18802A
:4003800010F47F4F40F09280C0B29870DB780D2B72D8DFE803F0070D181D282D383D484D585D656AEA2867D10122424BDA7063E0E32803D102223F4BDA705DE000223D4BAF
:4003C000DA70022010BD3B4B98800322DA7053E0384CA38843EA0020A080002100F0E6F80423E37048E0334BD8800522DA7043E0304CE38843EA0020E080012100F0D6F8F9
:400400000623E37038E02B4B18810722DA7033E0284C238943EA00202081022100F0C6F80823E37028E0234B58810922DA7023E0204C638943EA00206081032100F0B6F827
:400440000A23E37018E01B4B98810B22DA7013E0184B9A8942EA002098810C22DA700BE0144BD8810D22DA7006E0124BDA8942EA0020D8810022DA7000F00CFB00287FF453
:400480007BAF00F0DBFA10F0200F7FF475AF00F001FB20B900F0D2FA10F0200F08D0054A536943F001035361002010BD012010BD002010BD4081FF1F70B5294883690133AC
:4004C000836128490A881A4492B20A809BB2264D2A8802EB430292B22A80244E328803EB4304224492B23280214C228802EB83039BB22380E32303770B8843770B88C3F30A
:40050000072383772B88C3772B88C3F3072380F82030338880F821303388C3F3072380F82230238880F823302388C3F3072380F82430104B1A8880F825201B88C3F307235C
:4005400080F826300C4B1A8880F827201B88C3F3072380F828301C300D2100F0D7FA70BD4081FF1F8881FF1F8681FF1F8A81FF1F8481FF1F8C81FF1F8281FF1F08B503288F
:4005800012D8DFE800F002060A0EFF2000F0F6FD08BDFF2000F068FB08BDFF2000F074FD08BDFF2000F0C6FE08BD00BF08B540F6FC73984200D91846104A00F01F03403B86
:4005C0001370C0F346105070032916D8DFE801F002070C110948022100F0E6FD08BD0748022100F057FB08BD0448022100F062FD08BD0248022100F0B3FE08BD6C81FF1FD1
:40060000FEE700BF08B5104E104D16E029686B68AC68002204E051F8040B43F8040B0432A242F8D1E868002203E0002143F8041B04328242F9D11035013E002EE6D100F0B8
:400640001BFFFFF765FDFEE7010000009815000008B5124A124B1A60124A136843F40073136000230AE0032B03D80F4A52F8231000E00E490E4A42F8231001332F2BF2D950
:400680000C4B1A780C4B1A70094A0C4B1A6000F0C1F800220A4B1A6008BD00BF0004FA050CED00E014ED00E000000000010600000080FF1FBC7600400481FF1F08ED00E0E2
:4006C0000081FF1FFEE700BFF0B40022174611E050F82760F3B226F0FF0608E001EB420511F812406D78A5550132013BDBB2002BF4D10137282FEBD9F0BC7047064B1B7839
:40070000DBB203F00701054A11701B09013213704422034B1A707047CF0100496E5800407658004008B50A46002100F0D6FE08BD38B517222B4B1A8018232B4A1370192507
:4007400002321580023213704FF49C71023211800232137045F6BF5102321180023213700222224B1A7008224FF040231A70032103F5007319701E4B1B78DBB21D490B7073
:400780001D4B1A8041F25122023B1A8000240CE01A4B1B7803F0010343EA440404F003044FF4F07000F098FA013D0DB1032CEFD115B90320FFF786FF114B4FF480721A80A4
:4007C00007221A7000220F490A704820023108701A700222033B1A700B4A137843F00F03137038BD80400040824000400043004008010049A14600402242004025420040E3
:400800000440004006400040A243004008B500F059FE08BD38B572B6354A137843F00403137000240CE0334963001A1952000A4423445B00C8589188FFF774FF0134E4B2F3
:400840000C2CF0D9002410E02A49A3001A1952000A4452F8500F23445B000B445168B3F85820FFF7D3FF0134E4B2042CECD94FF090402149FFF728FF204A137843F0020399
:4008800013701032137843F0020313701C4C237843F040032370A2F58632513A137843F010031370174818490A22FFF7AFFF174817490A22FFF7AAFF164817490822FFF7FB
:4008C000A5FF164A137843F008031370144D61232B70FFF72DFF81232B700122114B1A70FFF70CFF104821460E22FFF78FFF38BDE8460040F0140000A40000480350014063
:40090000A0430040C0510040B40F004810510040C00F004822510040CC0F0048224300400048004004000840B043004008B50A200C4900F0F9F90A20072100F009FA002378
:40094000094A13707221094A11702021023A11700621A2F25F1211704721103211705332137008BD350B00007081FF1F8B65004010B500F0B9F904460C4A137843F0200330
:400980001370023A137843F0100313704FF48062074B1A60074A137843F01003137000F08DF9204600F0A4F910BD00BF9B65004000E100E09D64004008B5054B5B7823B99B
:4009C000FFF7B4FF0122024B5A70FFF7D1FF08BD7081FF1F4FF48062134B1A60134A9378DBB2D178C9B2127912F0FF0F01D18B4211D00F4AD05CC0B20133DBB2132B00D9DA
:400A000000230A4A9370137913F0FF0F06D00022064B1A7102E0074B1878C0B24FF48062054B1A60704700BF80E100E07081FF1F9081FF1F4A65004000E100E0074B18781F
:400A400000F07F00064B5B7913F0FF0F04D040F080000022024B5A71704700BF696500407081FF1F10B54FF48063074A1360074A147800211170064A13602402FFF7AAFFCA
:400A8000204380B210BD00BF80E100E07081FF1F00E100E04FF48062134B1A60134A9378D278DBB2934206D1104B1B7913F0FF0F14D0142013E00D4A9378D278DBB2934203
:400AC00005D20A4AD3789078181AC0B207E0074AD3789078181A1430C0B200E000204FF48062034B1A60704780E100E07081FF1F00E100E0034B1B7813F0040FFAD1024B9D
:400B0000187070476D6400404D640040084B5B7833B97047305DFFF7EDFF0134E4B203E070B50D4606460024AC42F3D370BD00BF7081FF1F1C4B1B78DBB213F01E0F05D06B
:400B40001A4803F01E0201780A43027003F0200303F0FF022BB3164B1978C9B2154B1B78DBB21548C154154B1B7813F0FF0F02D00121134B19700F490B780133DBB20B708B
:400B80000B78DBB2132B02D900210A4B1970094B1B780C490978DBB28B4202D10121074B1970002AC6D17047696500407081FF1F4A6500407381FF1F9081FF1F7481FF1F4E
:400BC0007581FF1F7281FF1F7222074B1A702022013B1A7006225D3B1A70472210331A70002253331A7070478664004008B500F07BF8094A137843F020031370013A137828
:400C000043F0100313700632137843F01003137000F06EF808BD00BF9664004008B5054B1B7823B9FFF7D0FF0122024B1A70FFF7DDFF08BD7781FF1F014B1878704700BF11
:400C400046640040024B187800F07F00704700BF6564004010B5FFF7F5FF0402FFF7ECFF204380B210BD00BF024B1B780BB1024B187070477781FF1F4B640040034B1B78FA
:400C800013F0040FFAD1024B187070476B6400404B640040084B1B7833B97047305DFFF7EDFF0134E4B203E070B50D4606460024AC42F3D370BD00BF7781FF1F054A1378AB
:400CC00043F0040313701032137843F004031370704700BFA24300400230800803D000BF01380046FCD17047EFF3108072B6704780F31088704700BF01BE704710B504466C
:400D000005E0084B1868FFF7E7FFA4F50044B4F5004FF6D8034B586800FB04F0FFF7DCFF10BD00BF0C81FF1F70B504460E46074B1D681F2802D90020FFF7DEFF04F01F04B1
:400D4000103455F8240045F8246070BD08ED00E038B504460D46072902D90020FFF7CCFF1F2C02D90020FFF7C7FF04F01F0000F1604000F564406D01EDB2057038BD00BF10
:400D8000014B1B681864704708ED00E04001C0B2014B1870704700BF00E400E00122014B1A60704700E100E00122014B1A60704780E100E010B50446FFF7F6FF2046FFF703
:400DC000DFFF0720FFF7E2FFFFF7E8FF10BD00BF0122014B1A60704780E200E0044A137803F0FD03400000F0020018431070704720510040024B1878C0F34000704700BF45
:400E000021510040084A137843F0010313701032137843F00103137002F64D32137843F001031370704700BFA3430040014B1870704700BF034F0040014B1878704700BF5C
:400E4000034F004010B50446094B1B7813F0010F02D00020FFF750FF054B1A7842F001021A70044A14801A7802F0FE021A7010BDA3430040064F0040014B1880704700BF2D
:400E8000044F004008B5154A137803F0010313700232137803F0FC031370013A137843F0010313700E4B1A7802F0CF021A701A7842F030021A701A7802F0F0021A701A7880
:400EC00042F00F021A706420FFF7D6FF6420FFF7B9FF0820FFF7AAFF08BD00BF004F00400B4F004008B5054B1B7823B9FFF7CAFF0122024B1A70FFF785FF08BD7981FF1FA4
:400F0000054A137843F0010313701032137843F001031370704700BFA2430040024B1B68C3F88400704700BF08ED00E04001C0B2014B1870704700BF11E400E04FF400325A
:400F4000014B1A60704700BF00E100E04FF40032014B1A60704700BF80E100E010B50446FFF7F4FF2046FFF7D9FF0720FFF7DEFFFFF7E4FF10BD00BF4FF40032014B1A60BC
:400F8000704700BF80E200E0014B1B689865704708ED00E04001C0B2014B1870704700BF06E400E04022014B1A60704700E100E04022014B1A60704780E100E010B504468B
:400FC000FFF7F6FF2046FFF7DFFF0720FFF7E2FFFFF7E8FF10BD00BF4022014B1A60704780E200E07222084B1A70202201331A700622A3F25F131A70472210331A700022C2
:401000004D331A70704700BF8565004008B5FFF76BFE094A137843F0200313700132137843F010031370A2F58172137843F010031370FFF75DFE08BD9565004008B5054B71
:401040001B7823B9FFF7CEFF0122024B1A70FFF7DDFF08BD7A81FF1F014B1878704700BF45650040024B187800F07F00704700BF6665004010B5FFF7F5FF0402FFF7ECFFF5
:40108000204380B210BD00BF024B1B780BB1024B187070477A81FF1F44640040034B1B7813F0040FFAD1024B187070476464004044640040084B1B7833B97047305DFFF79C
:4010C000EDFF0134E4B203E070B50D4606460024AC42F3D370BD00BF7A81FF1F7222074B1A7020220D3B1A700622563B1A70472210331A70002247331A7070478F640040A8
:4011000008B5FFF7F1FD094A137843F0200313700D3A137843F0100313700132137843F010031370FFF7E4FD08BD00BF9F64004008B5054B1B7823B9FFF7D0FF0122024BE6
:401140001A70FFF7DDFF08BD7C81FF1F014B1878704700BF43640040024B187800F07F00704700BF6264004010B5FFF7F5FF0402FFF7ECFF204380B210BD00BF024B1B789B
:401180000BB1024B187070477C81FF1F4F640040034B1B7813F0040FFAD1024B18707047636400404F640040084B1B7833B97047305DFFF7EDFF0134E4B203E070B50D4673
:4011C00006460024AC42F3D370BD00BF7C81FF1F014B1B681866704708ED00E04001C0B2014B1870704700BF08E400E04FF48072014B1A60704700BF00E100E04FF48072BB
:40120000014B1A60704700BF80E100E010B50446FFF7F4FF2046FFF7DBFF0720FFF7DEFFFFF7E4FF10BD00BF4FF48072014B1A60704700BF80E200E0014B1B68986470476F
:4012400008ED00E04001C0B2014B1870704700BF02E400E00422014B1A60704700E100E00422014B1A60704780E100E010B50446FFF7F6FF2046FFF7DFFF0720FFF7E2FF5C
:40128000FFF7E8FF10BD00BF0422014B1A60704780E200E07222074B1A702022013B1A7006225E3B1A70472210331A700022B03B1A7070478865004008B5FFF715FD094A54
:4012C000137843F020031370013A137843F010031370FE3A137843F010031370FFF708FD08BD00BF9865004008B5054B1B7823B9FFF7D0FF0122024B1A70FFF7DDFF08BDE1
:401300007E81FF1F014B1878704700BF48650040024B187800F07F00704700BF6765004010B5FFF7F5FF0402FFF7ECFF204380B210BD00BF024B1B780BB1024B18707047A4
:401340007E81FF1F49640040034B1B7813F0040FFAD1024B187070476964004049640040084B1B7833B97047305DFFF7EDFF0134E4B203E070B50D4606460024AC42F3D3D9
:4013800070BD00BF7E81FF1F014B1B681865704708ED00E04001C0B2014B1870704700BF04E400E01022014B1A60704700E100E01022014B1A60704780E100E010B5044618
:4013C000FFF7F6FF2046FFF7DFFF0720FFF7E2FFFFF7E8FF10BD00BF1022014B1A60704780E200E0024A137843F08003137070477E640040014B1880704700BF0C6A004077
:40140000014B1880704700BF8C6A0040014B1880704700BF4C6A004008B50F4A137803F0C00343F00903137002F58C72137843F0010313700132137843F00103137044F6C7
:401440002060FFF7D7FF44F62060FFF7D9FF40F2DC50FFF7DBFF08BD7E64004008B5054B1B7823B9FFF7D8FF0122024B1A70FFF7B9FF08BD8081FF1F0E4B70B51E460E4C72
:401480000025E41AA410A54204D056F8253098470135F8E700F06EF8084B094C1E46E41AA4100025A54204D056F8253098470135F8E770BD8015000080150000801500008C
:4014C0008815000010B5431E0A44914204D011F8014B03F8014FF8E710BD03460244934202D003F8011BFAE77047000000000000004F00400C000051004010003051004006
:401500004000F0510040100000000140800200030140000380060140800900140140800000150140000380180140800300400140000A004C0140000200500140200000002B
:4015400060520040AC0D0048060080020140B40D0048800000060140340E0048800080140140B40E0048800000180140340F004880000000F8B500BFF8BC08BC9E46704793
:401580004D00000051060000F8B500BFF8BC08BC9E46704729000000A81500000881FF1F1800000088000000000000000000E02EC05D00001800000000366E0100000000F3
:4015C00000000000000000000000000000000000000000000000000000000000000000000000000000000000000000000000000000000000000000000000000000000000EB
:4016000000000000000000000000000000000000000000000000000000000000000000000000000000000000000000000000000000000000000000000000000000000000AA
:40164000000000000000000000000000000000000000000000000000000000000000000000000000000000000000000000000000000000000000000000000000000000006A
:40168000000000000000000000000000000000000000000000000000000000000000000000000000000000000000000000000000000000000000000000000000000000002A
:020000040003F7
:0200000480007A
:40000000024F004003520040096400400665004003010140170201404B0301405004014047050140180601404C07014068080140400901406B0A01404D0B0140620C0140C6
:40004000540D0140560E0140330F014015140140581501406116014043170140181801403C1901405A1A0140481B01400540014011410140144201400B430140084401401F
:400080000545014003460140014701400648014004490140094C0140064D0140085001400351014001300A4B08100C2011108238830F840F85388672890F8B0F8D0F8F72DF
:4000C000857286388738887289388B7280108280E60508200A030C110E06180C1A131E0C22082411260E3030340F38023A283F0454185604580459045B045C015D105F0159
:40010000002801C002100480070809040A440B030E040F0110A8130815021610188019501A401D081E241F13200121202350260828203120328038143B40400941084810A3
:4001400049804B1050085A0A5B905E02608065506780808081408610874089208B408D018E01901491049202971098209B80A280A820B104B201B390B404C0C7C2CFC43E7B
:40018000CA02CC0CCE0ED00ED20CD68FD8B1E408E644EA01EE040203040C067109080B020C090D0E0ED0101012AC14DC16221B061F0220102101224026202814290E301F66
:4001C000310C330134E0370239023A203F4540524106450E460C470B481549FF4AFF4BFF4EF04F44500C54015604580459045A045B045C015D115F0166C06A406B028002E4
:4002000089CE9104932A9588975499429B959C01A402A5CEA802B002B10EB201B330B5C0B701BE04BF04D418D604D804D904DB04DC11DD10DF0100080102030204020BA010
:400240000F0210681450151219221B011D0A20602240260A270A29202A012C102F2030A0312035083602372938803BA03D104120480449204A204B885088538058225904FF
:400280005A805E016101648167048108834088208B80908091049320950296089D01A302A4A4AB10AC08AE08B504C01DC28CC46ECA45CCECCE2CD004D20CD68FD8B1E64179
:4002C000EA04EE0885018B029F02B301B502BF14C004C740C9FFCA07CBFFCC40CD20CEF0CF05D008D904DA04DD01DF01E040E1A8E240E32005990C440E04160117251C20C1
:400300001D391E411F102204230426942D202E402F90328034443604372239043A103C803E0240404440452A4DC04E0850205101561057405E206C016D106F20752076037E
:400340007724814083809040910492049308940295129609970499089B439C019D04A040A102A208A420A720A880AA01AC50AE04AF20B002B220C0F0C2E0C4F0CAF0CCF844
:40038000CE96D0E1D230D620E602EA04002C02030516072909280A030B130D400E2C0F091316161019281B151E1020012226270228012A0E2E08300F3160322A331B34100E
:4003C000350739023A0A3B283E104006474049FF4A074BFF4C404D204EF04F055008580459045A045C115D015F01604061A8624063208303850C8711887389148A0C8D097B
:400400008E558F109080951C9702A003A244A42AA510A644A873A910AA04AB0CAE08B040B11FB280B40FB630B880BA20BE45C065C102C5E0C6BCC80EC9FFCAFFCBFFCEF04D
:40044000CF44D00CD401D604D804D904DA04DB04DC11DD11DF01E6C0EA40EB02008001A00540068809020E200F0210801128120214041602170219201AA11E401F142103E3
:400480002484251C260229282D0831083520360238A439023C803D28400449A14B024E085090560A59055A805B10634087409640970A980C99449A809B029E0AA208A804DC
:4004C000AD10AF01B010B201C0D3C2A8C4DFCA46CCA2CE7FD004D22CD60FD801000C021104090610070D08200A030B700D070F38141C15071602175819721B0C1F202010CC
:40050000241428102A0C321F3303353C3620376839083BA03E403F044003460449FF4A074BFF4C404D204EF04F055008580459045A045C225D025F01604061A862406320D6
:400540008070810382098314860C8735880289808C248E40930898509D739F0CA041A230A831A973AA44AB04AC40AD4AAF14B110B360B47CB580B603B70FB880B908BB8071
:40058000BF15C043C102C50BC6E0C7C0C829C9FFCAFFCBFFCEF0CF44D00CD401D604D804D904DA04DB04DC11DD11DF01E6C0EA40EB02001202300404054006880A200F08AE
:4005C00010A8140416021702181019801C041D401E0220022144221024402688270A2C042EC02F04308832143681380839803A103C203D083E083F02410444044504470210
:400600004F0850845308541057015C405D105E015F08650181A08D0192089408958096209702980899249E10A020A220A708AA01AE10B710C0FEC244C4DECA30CC9ECEEE08
:40064000D0E2D6F0D880E004E640EE400108020305040BD30D0F0FF0101C120314011541160E19F31B0C1DC31E1C21FF22082401250C2616291C2BE32D82300F31C0321AEB
:400680003320350F371C39083A0A3B204003454049FF4A074BFF4C404D204EF04F055008580459045A045C115D015F01604061A8624063208540871589038B148D338F04F3
:4006C0009533970C9801990A9B349C02AB08B110B202B30FB401B560B920BB08BE14BF01C063C101C5EBC6C0C70EC81BC9FFCAFFCBFFCEF0CF44D00CD401D604D804D904C1
:40070000DA04DB04DC20DD22DF01E6C0EA40EB0206400B0A0E500F01150919041A041C101E50222423902501269027102A102C442D883214348036103708380839803B206A
:400740003C203D803E0A414043084508482049014B104D0153145640581059015A045B80620264106720828084488510888089808D019108930194109511964098049928A1
:400780009A0B9B089E40A010A148A612AA02AB20B014B110B580B708C010C2B3C430CAF4CC76CEFED04AD204D60FD801E020E210E480EA20EC80EE600103031409330B049F
:4007C0000D400F151533170C1F08210A23342E01330F34013510376039803B083F105280580459045B045C105F01811082208508886C8A118B438C808D3C8E038F41905CB2
:4008000092029304953C9742981499679B189C099E10A010A470A518A60CA97FAD04AF80B180B260B320B480B51FB61FB758B808BBA0BE14BF04C064C103C50BC7CEC831FE
:40084000C9FFCAFFCBFFCEF0CF44D00CD602D711D804D904DA04DB04DC11DD11DF01E6C0EA40EB020410054006400E400F851002150919201D481E08211422482301254025
:40088000260127242B402D98324834043611370438103A513C203D803E0A46504E084F04540456015F206C046D406F2070027508760A800481408E04C0D0C2D0C431CA717D
:4008C000CCEACEFDD0C0D220D620051009670B180D081504191C1B621D1823232704291C2B612D7F3138351F374039803B2259045C205F01040405010601071809010A4049
:400900000C900E181420164017201C041D411E202040225025412628270428082A8A2D10318032143620370138803A203B043D023E043F80445045504E08570A584059407F
:400940005E206D106E046F017480761077287C207D2080408211834086A289808A4C8B048C48921096C098209A089D419E519F1CA204A480A70AA910AA08AB01AC20AE10D2
:40098000AFA0B201B440B620C0F0C2E0C470CA2FCCAECEDED0F0D220D620E20BE404E608EA02EE09000F02E0040C08040B010C410E100F011082130414EF18E31A0C1C08F3
:4009C0001F0222C324C3280C2AE32B022F0430C0310132103304340F3502362038803A203F154010410249FF4AFF4BFF4DA04F04501854185604580459045A045B045C01E9
:400A00005D105F01604062C06440654066C068C06AC06CC06EC086029204960498019E08A608AA02B004B201B402B608BE15C010C102C501C620C809C9FFCAFFCBFFCDAF26
:400A4000CE0FCF04D018D418D604D804DA04DB04DD10DF01E040E2C0E440E540E6C0E8C0EAC0ECC0EEC0022005010611070809440A800B080C800E68102013201640171437
:400A8000184219141E1A1F01251A2F0A300131023540360139013B023C203F8041204340456846204740482051205A025D01600261106340648066206701874088808C0188
:400AC0008D04930898029B409C019D04A010A340A780AC02C0F4C2FFC476CA30CC90CE30D03CD681D8BDE220E601EE02A701B301C001C504C9FFCA07CBFFCC40CD20CEF0DB
:400B0000CF05D008D418D604D904DA04DB04DC20DD21DF01E040E1A8E240E320059207100D220E1217261D281EA21F1020102540275828202DA02F103408360937503EA249
:400B4000420145AA4680484049084E4857015B015F08608063096C046D406E0875207622772680808C80920198089D08A440A610A701AA10AF10B480B710C0F0C2F0C4701A
:400B8000CA72CCF0CEB0D0F8D220D641D80DE040E640EC0403010F0110801402164518091A321C141E2A249F289F306032073480361837013B023E013F4040624105420126
:400BC0004404460E47C0482449FF4AFF4BFF4C624DA04EF04F41500C580459045A045C225D025F016640670269106A306B106D106E106F1283D384E7850488018A0E8D08D9
:400C000091FF944495F39631970C98E7990C9D82A12FA3D0A422A5C3A651A941AC80AD3CAFC3B080B11CB260B30FB407B520B618B7C0BB08BE40BF10D602D712D804D9048E
:400C4000DB04DC21DD20DF010408051008600A610E181028154819081A211B221D921E10220223012480260827492D082F853440360A372038823C803E083F0243624A0A22
:400C800050815F086C286E407444760877248305860A872188648B048F8090089148961097019C209D109F01A204A480A582A810AC08AD42B184B240B640B704C060C26F72
:400CC000C4A6CAF0CCF0CED9D00DD20CD640E040E2A0E620E840EA30324137883B20CCF0CE1030103302360837403810801086088F08968297209F08AB80CCF0CE10E21037
:400D0000E680EA8002103240508056805A0182808F029201968297209C109F40A702AE01C010CC10D460D640E280EA108410968297209C10AB40AC80AE10E640E840EA1008
:400D4000EE801080700177108C01C408DC01DE04E00263089F10B480D802EE0283109F10A704A704824087108A0196829720E6C010808080C410E0200C0467028F04930275
:400D8000A704AB01C204D601E00210408840B004C408E201EE01000708020A020C060E0710071A071C0600FF01FF023F820A0000550000000000000003090432009F100043
:400DC0000002204503000C00000010000A14042A0080080003000400009F050000002000000000000F07008010182060000002000000504026030500010E000C11FFFFFFA7
:400E000062A0F0410C00000001000400040404041111000100000000000040020010301000101012000000000000000000000000000000000F10F00082000000F3000C00E7
:400E4000FF040000000000041C3CE342411800000000F303C37F0000046700180C080000083C00412C001C1F0F20C0400080220800000010240503000600EC000CFFFFFFCA
:400E800062A0F0410C000000000002110404040411110001000000000000400200103010001010120000000000000000000000000000000066828949E6E71100020000004F
:400EC0002021004A0004000000002000F94006B00400000000009900FF00000006E7000000000000070340043EE08618000022000000044036020400010000EC30FFFFFF05
:400F000062A0F0410C0000000000021104040404111100010000000000004002001030100010101200000000000000000000000000000000FF1000001C00E300C31800007F
:400F400041000003003CF341827F0000F33C0C420F00F00408000000046700180C08000000040080C0801C1F0F202C400080A008000000102406030001E000C022FFFFFFDE
:400F800062A0F0410C0000000000021204040404111100010000000000004002001030100010101200000000000000000000000000000000AA0055AAAA00AA0000000000EA
:400FC000100020101000100000000000001212001000000000000000000000000000000000000000000000000000000000000000000000000000000000000000000000005D
:4010000000000000000000000000000000000000000000000000000000000000000000000000000000000000000000000000000000000000000000000000000000000000B0
:401040000000000000000000000000000000000000000000000000000000000000000000000000000000000000000000000000000000000000000000000000000000000070
:401080000000000000000000000000000000000000000000000000000000000000000000000000000000000000000000000000000000000000000000000000000000000030
:4010C00000000000000000000000000000000000000000000000000000000000000000000000000000000000000000000000000000000000000000000000000000000000F0
:0200000490006A
:0400000000004005B7
:0200000490105A
:04000000BC90ACAF55
:0200000490303A
:02000000D51316
:0200000490402A
:4000000000000000000000000000000000000000000000000000000000000000000000000000000000000000000000000000000000000000000000000000000000000000C0
:400040000000000000000000000000000000000000000000000000000000000000000000000000000000000000000000000000000000000000000000000000000000000080
:400080000000000000000000000000000000000000000000000000000000000000000000000000000000000000000000000000000000000000000000000000000000000040
:4000C0000000000000000000000000000000000000000000000000000000000000000000000000000000000000000000000000000000000000000000000000000000000000
:0200000490501A
:0C00000000012E16106900012E22E57C84
:00000001FF