:4000000000800020110000002D0800002D08000008B5044B1A6803F53F5302331A6000F007FC00BFFA46004010B5054C237833B9044B13B10448AFF300800123237010BD0A
:400040002081FF1F00000000141A0000084B10B51BB108480849AFF300800848036803B910BD074B002BFBD0BDE81040184700BF00000000141A00002481FF1F0881FF1FB5
:400080000000000008B5002001F060FB002001F051FB002001F066FB002001F06FFB002001F078FB002001F081FB002000F0A2FF40F2DC5001F0CAFA40F2DC5001F0CCFAE3
:4000C00040F2DC5001F06EFA40F2DC5001F070FA022000F069FB032000F066FB012000F063FB002000F060FB40F2DC5001F0DAF940F2DC5001F0DCF908BD00BF08B5264BD4
:400100001B68002BFBD0244B1B6813F0010F15D0224B1B78012B11D11F4A136823F00103136000F073FFB0FA80F0400900F062FF00221B4B1A6000F0B3F9E0E7164B1B6881
:4001400003F47053B3F5705F0AD1134A136823F47053136000F0DAFA0122104B1A70CEE70D4B1B6813F0020FC9D00B4A136823F0020313600A4A136801331360052B01DD66
:40018000FFF780FF0022054B1A70034A136843F470531360B3E700BF6481FF1F9081FF1F3C81FF1F08B541F2883000F0B3FE0024384B1C600125384B1D70204601F0C6FA7A
:4001C000204601F0B7FA204601F0CCFA204601F0D5FA204601F0DEFA204601F0E7FA204600F008FF62B600F0FFFC2C4800F0EEFE01F0E8FA01F008FA40F2DC5001F0D2F9BD
:4002000040F2DC5001F0D4F901F052FA40F2DC5001F01CFA40F2DC5001F01EFA00F0D4FF1F4801F03FF8204600F0BEFA00F00EFE1C4800F00DFF284600F0B6FA00F04AFF96
:40024000194801F05FF8022000F0AEFA01F098F8164801F0FFF8032000F0A6FA01F080F940F2DC5001F01EF940F2DC5001F020F90F4801F049FA01F015FB40F2DC5001F08E
:40028000C9FA01F07FFB4FF47A7001F033FBFFF735FF00BF6481FF1F9081FF1FB5020000D10200003103000091030000F10300005104000008B500F0D9FC00F095FE034ABC
:4002C000136843F00103136008BD00BF6481FF1F08B500F08DFF00F0F3FF124B1B7813B1012B09D01AE000F08BFFC0B20E4B188001220C4B1A7008BD00F082FF0A4A13887E
:400300009BB243EA002080B210800022054B1A70064A136843F48063136008BD0022014B1A7008BD4081FF1F9881FF1F6481FF1F08B500F09FFD00F099FE124B5B7813B1AE
:40034000012B09D01AE000F09DFDC0B20E4B188001220C4B5A7008BD00F094FD0A4A13889BB243EA002080B210800022054B5A70064A136843F40063136008BD0022014B75
:400380005A7008BD4081FF1F9681FF1F6481FF1F08B500F0B3FE00F0C3FF124B9B7813B1012B09D01AE000F0B1FEC0B20E4B188001220C4B9A7008BD00F0A8FE0A4A138884
:4003C0009BB243EA002080B210800022054B9A70064A136843F48053136008BD0022014B9A7008BD4081FF1F9A81FF1F6481FF1F08B500F0D9FF01F03BF8124BDB7813B1A3
:40040000012B09D01AE000F0D7FFC0B20E4B188001220C4BDA7008BD00F0CEFF0A4A13889BB243EA002080B210800022054BDA70064A136843F40053136008BD0022014B4C
:40044000DA7008BD4081FF1F9481FF1F6481FF1F08B501F039F801F065F9074A536801335360042B07D90022034B5A60034A136843F00203136008BD4081FF1F6481FF1FE4
:4004800008B5B0F57A7F03D3B0F5FA6F03D804E04FF47A7001E04FF4FA6001F003F808BD38B512E100F0F6FB974B188010F47F4F40F02581C0B29870DB78182B00F2058177
:4004C000DFE813F01900200025002F0034003E0043004E0053005D007A007F008A008F009A009F00AA00AF00BA00BF00C700CC00D400D900E300EA2840F0E7800122824B19
:40050000DA70E2E0804B98800222DA70DDE07E4CA38843EA0020A08001F044F80323E370D3E0794BD8800422DA70CEE0764CE38843EA0020E08001F03BF80523E370C4E08F
:40054000714B18810622DA70BFE06F4C238943EA002020810725E57001F078F8E570B4E0694B58810822DA70AFE0674C638943EA0020608101F070F80923E370A5E0022811
:4005800008D003280BD001280ED14FF47A7001F0B1F90DE040F2E24001F0ACF908E040F2DC5001F0A7F903E04FF47A7001F0A2F90A22554BDA7088E0534BD8810B22DA7057
:4005C00083E0514CE38943EA0020E081002100F003F90C23E37078E04B4B18820D22DA7073E0494C238A43EA00202082012100F0F3F80E23E37068E0434B58820F22DA7021
:4006000063E0414C638A43EA00206082022100F0E3F81023E37058E03B4B98821122DA7053E0394CA38A43EA0020A082032100F0D3F81223E37048E0334BD8821322DA70CB
:4006400043E0314BDA8A42EA0020D8821422DA703BE02D4B18831522DA7036E02A4B1A8B42EA002018831622DA702EE0264B58831722DA7029E0244C638B43EA0020608395
:40068000FFF7FEFE1823E3701FE000F0010001F05DF81D4CA078C0F3400001F04BF8A078C0F3800001F05EF8A078C0F3C00001F065F8A078C0F3001001F06CF8A078C0F376
:4006C000401001F073F80023E37000F0FBFA00287FF4E8AE00F0CAFA10F0200F7FF4E2AE00F0F0FA20B900F0C1FA10F0200F08D0054AD36943F00103D361002038BD01204B
:4007000038BD002038BD00BF4881FF1F08B51F48E32380F820301E4B1A8880F821201B88C3F3072380F822301A4B1A8880F823201B88C3F3072380F82430174B1A8880F879
:4007400025201B88C3F3072380F82630134B1A8880F827201B88C3F3072380F82830104B1A8880F829201B88C3F3072380F82A300C4B1A8880F82B201B88C3F3072380F807
:400780002C3020300D2100F0D9FA08BD4881FF1F9881FF1F9681FF1F9A81FF1F9481FF1F9C81FF1F9281FF1F08B5032812D8DFE800F002060A0EFF2000F02CFD08BDFF20E7
:4007C00000F06AFB08BDFF2000F0AAFC08BDFF2000F0FCFD08BD00BF08B540F6FC73984200D91846104A00F01F03403B1370C0F346105070032916D8DFE801F002070C113B
:400800000948022100F01CFD08BD0748022100F059FB08BD0448022100F098FC08BD0248022100F0E9FD08BD7881FF1FFEE700BF08B5104E104D16E029686B68AC68002278
:4008400004E051F8040B43F8040B0432A242F8D1E868002203E0002143F8041B04328242F9D11035013E002EE6D101F099F8FFF799FCFEE701000000C01A000008B5124A2C
:40088000124B1A60124A136843F40073136000230AE0032B03D80F4A52F8231000E00E490E4A42F8231001332F2BF2D90C4B1A780C4B1A70094A0C4B1A6000F0B5F800227F
:4008C0000A4B1A6008BD00BF0004FA050CED00E014ED00E0000000002D0800000080FF1FBC7600400481FF1F08ED00E00081FF1FFEE700BFF0B40022174611E050F8276005
:40090000F3B226F0FF0608E001EB420511F812406D78A5550132013BDBB2002BF4D10137282FEBD9F0BC7047064B1B78DBB203F00701054A11701B09013213704422034B36
:400940001A707047CF0100496E5800407658004008B50A46002101F054F808BD38B51722254B1A801823254A1370192502321580023213700222224B1A7008224FF04023D7
:400980001A70032103F5007319701E4B1B78DBB21D490B701D4B1A8041F25122023B1A8000240CE01A4B1B7803F0010343EA440404F003044FF4F07000F09AFA013D0DB11A
:4009C000032CEFD115B90320FFF792FF114B4FF480721A8007221A7000220F490A704820023108701A700222033B1A700B4A137843F00303137038BD8040004082400040A2
:400A00000043004008010049A146004022420040254200400440004006400040A243004008B500F0E3FF08BD38B572B63A4A137843F00403137000240CE0384963001A19E4
:400A400052000A4423445B00C8589188FFF780FF0134E4B20B2CF0D9002410E02F49A3001A1952000A4452F8480F23445B000B445168B3F85020FFF7D3FF0134E4B2052C4F
:400A8000ECD94FF090402649FFF734FF254A137843F0020313701032137843F002031370214C237843F040032370A2F58632513A137843F0100313701C481D490822FFF764
:400AC000AFFF1C481C490A22FFF7AAFF1B481C490A22FFF7A5FF1B481B490822FFF7A0FF1A481B490822FFF79BFF1A4A137843F008031370184D61232B70FFF72FFF812324
:400B00002B700122154B1A70FFF70EFF144821460E22FFF785FF38BDE8460040181A0000A400004803500140A0430040025100404C140048C0510040541400481051004088
:400B400060140048225100406C1400483251004074140048224300400048004004000840B043004008B50C200C4900F0E9F90C20072100F0F9F90023094A13707221094ADA
:400B800011702021FF3211700621A2F5B17211704721103211704B32137008BD650D00007C81FF1F8A64004008B500F0A9F90B4A137843F020031370FF32137843F01003AA
:400BC00013704FF48052064B1A60064A137843F01003137000F098F908BD00BF9A64004000E100E09264004008B5054B5B7823B9FFF7B8FF0122024B5A70FFF7D5FF08BD82
:400C00007C81FF1F4FF48052134B1A60134A9378DBB2D178C9B2127912F0FF0F01D18B4211D00F4AD05CC0B20133DBB2312B00D900230A4A9370137913F0FF0F06D00022DC
:400C4000064B1A7102E0074B1878C0B24FF48052054B1A60704700BF80E100E07C81FF1FA081FF1F4A65004000E100E0074B187800F07F00064B5B7913F0FF0F04D040F037
:400C800080000022024B5A71704700BF696500407C81FF1F10B54FF48053074A1360074A147800211170064A13602402FFF7AAFF204380B210BD00BF80E100E07C81FF1FB8
:400CC00000E100E04FF48052134B1A60134A9378D278DBB2934206D1104B1B7913F0FF0F14D0322013E00D4A9378D278DBB2934205D20A4AD3789078181AC0B207E0074ACA
:400D0000D3789078181A3230C0B200E000204FF48052034B1A60704780E100E07C81FF1F00E100E0034B1B7813F0040FFAD1024B187070476264004046640040084B5B7845
:400D400033B97047305DFFF7EDFF0134E4B203E070B50D4606460024AC42F3D370BD00BF7C81FF1F1C4B1B78DBB213F01E0F05D01A4803F01E0201780A43027003F02003C1
:400D800003F0FF022BB3164B1978C9B2154B1B78DBB21548C154154B1B7813F0FF0F02D00121134B19700F490B780133DBB20B700B78DBB2312B02D900210A4B1970094B72
:400DC0001B780C490978DBB28B4202D10121074B1970002AC6D17047696500407C81FF1F4A6500407F81FF1FA081FF1F8081FF1F8181FF1F7E81FF1F7222074B1A70202265
:400E000006331A700622623B1A70472210331A7000224F331A7070478564004008B500F06FF8094A137843F0200313700632137843F010031370033A137843F01003137074
:400E400000F062F808BD00BF9564004008B5054B1B7823B9FFF7D0FF0122024B1A70FFF7DDFF08BD8381FF1F014B1878704700BF45640040024B187800F07F00704700BF7A
:400E80006B64004010B5FFF7F5FF0402FFF7ECFF204380B210BD00BF024B1B780BB1024B187070478381FF1F48640040034B1B7813F0040FFAD1024B1870704768640040DC
:400EC00048640040084B1B7833B97047305DFFF7EDFF0134E4B203E070B50D4606460024AC42F3D370BD00BF8381FF1F000000000230800803D000BF01380046FCD1704767
:400F0000EFF3108072B6704780F31088704700BF01BE704710B5044605E0084B1868FFF7E7FFA4F50044B4F5004FF6D8034B586800FB04F0FFF7DCFF10BD00BF0C81FF1F1E
:400F400070B504460E46074B1D681F2802D90020FFF7DEFF04F01F04103455F8240045F8246070BD08ED00E038B504460D46072902D90020FFF7CCFF1F2C02D90020FFF781
:400F8000C7FF04F01F0000F1604000F564406D01EDB2057038BD00BF014B1B681864704708ED00E04001C0B2014B1870704700BF00E400E00122014B1A60704700E100E0FF
:400FC0000122014B1A60704780E100E010B50446FFF7F6FF2046FFF7DFFF0720FFF7E2FFFFF7E8FF10BD00BF0122014B1A60704780E200E0044A137803F0FD03400000F097
:40100000020018431070704720510040024B1878C0F34000704700BF21510040014B1B689865704708ED00E04001C0B2014B1870704700BF06E400E04022014B1A60704775
:4010400000E100E04022014B1A60704780E100E010B50446FFF7F6FF2046FFF7DFFF0720FFF7E2FFFFF7E8FF10BD00BF4022014B1A60704780E200E07222084B1A70202220
:4010800003F580731A700622A3F5B3731A70472210331A70002250331A7070478764004008B5FFF72DFF0A4A137843F02003137002F58072137843F010031370A2F58372A4
:4010C000137843F010031370FFF71EFF08BD00BF9764004008B5054B1B7823B9FFF7CCFF0122024B1A70FFF7DBFF08BD8581FF1F014B1878704700BF47650040024B1878BF
:4011000000F07F00704700BF6765004010B5FFF7F5FF0402FFF7ECFF204380B210BD00BF024B1B780BB1024B187070478581FF1F42640040034B1B7813F0040FFAD1024BC6
:40114000187070476164004042640040084B1B7833B97047305DFFF7EDFF0134E4B203E070B50D4606460024AC42F3D370BD00BF8581FF1F7222074B1A702022093B1A7073
:4011800006225F3B1A70472210331A7000224C331A7070478C64004008B5FFF7B1FE094A137843F020031370093A137843F010031370033A137843F010031370FFF7A4FEC2
:4011C00008BD00BF9C64004008B5054B1B7823B9FFF7D0FF0122024B1A70FFF7DDFF08BD8781FF1F014B1878704700BF43640040024B187800F07F00704700BF6364004031
:4012000010B5FFF7F5FF0402FFF7ECFF204380B210BD00BF024B1B780BB1024B187070478781FF1F40640040034B1B7813F0040FFAD1024B1870704760640040406400408F
:40124000084B1B7833B97047305DFFF7EDFF0134E4B203E070B50D4606460024AC42F3D370BD00BF8781FF1F014B1B681866704708ED00E04001C0B2014B1870704700BF44
:4012800008E400E04FF48072014B1A60704700BF00E100E04FF48072014B1A60704700BF80E100E010B50446FFF7F4FF2046FFF7DBFF0720FFF7DEFFFFF7E4FF10BD00BFF1
:4012C0004FF48072014B1A60704700BF80E200E0014B1B689864704708ED00E04001C0B2014B1870704700BF02E400E00422014B1A60704700E100E00422014B1A6070471A
:4013000080E100E010B50446FFF7F6FF2046FFF7DFFF0720FFF7E2FFFFF7E8FF10BD00BF0422014B1A60704780E200E07222074B1A702022FD3B1A7006229E331A7047228C
:4013400010331A7000224D331A7070478A65004008B5FFF7D5FD094A137843F020031370FD3A137843F010031370FB32137843F010031370FFF7C8FD08BD00BF9A650040C8
:4013800008B5054B1B7823B9FFF7D0FF0122024B1A70FFF7DDFF08BD8981FF1F014B1878704700BF49650040024B187800F07F00704700BF6D64004010B5FFF7F5FF04026B
:4013C000FFF7ECFF204380B210BD00BF024B1B780BB1024B187070478981FF1F48650040034B1B7813F0040FFAD1024B187070476865004048650040084B1B7833B97047DD
:40140000305DFFF7EDFF0134E4B203E070B50D4606460024AC42F3D370BD00BF8981FF1F014B1B681865704708ED00E04001C0B2014B1870704700BF04E400E01022014BC4
:401440001A60704700E100E01022014B1A60704780E100E010B50446FFF7F6FF2046FFF7DFFF0720FFF7E2FFFFF7E8FF10BD00BF1022014B1A60704780E200E0024A137827
:4014800043F080031370704776640040014B1880704700BF086A0040014B1880704700BF886A0040014B1880704700BF486A0040014B1880704700BF686A0040014B1870FE
:4014C000704700BF84640040014B1878704700BF64640040014B188880B27047A86A004008B501E0FFF7F6FFFFF7EEFF10F0100FF8D108BD08B5184A137803F0C00343F021
:401500000903137002F58F72137843F0010313700132137843F00103137044F62060FFF7B5FF44F62060FFF7B7FF40F2DC50FFF7B9FF40F2DC50FFF7BBFF0420FFF7BEFFAC
:40154000FFF7DEFC054A137843F010031370FFF7DBFCFFF7C5FF08BD766400409464004008B5054B1B7823B9FFF7C4FF0122024B1A70FFF783FF08BD8B81FF1F024A1378ED
:4015800043F080031370704774640040014B1880704700BF14680040014B1880704700BF94680040014B1880704700BF54680040014B1880704700BF7468004008B5114A93
:4015C000137803F0C00343F0090313702632137843F0010313700132137843F00103137044F62060FFF7D2FF44F62060FFF7D4FF40F2DC50FFF7D6FF40F2DC50FFF7D8FF7B
:4016000008BD00BF7464004008B5054B1B7823B9FFF7D4FF0122024B1A70FFF7AFFF08BD8C81FF1F024A137843F08003137070477E640040014B1880704700BF1868004038
:40164000014B1880704700BF98680040014B1880704700BF58680040014B1880704700BF7868004008B5114A137803F0C00343F0090313701E32137843F001031370013219
:40168000137843F00103137044F62060FFF7D2FF44F62060FFF7D4FF40F2DC50FFF7D6FF40F2DC50FFF7D8FF08BD00BF7E64004008B5054B1B7823B9FFF7D4FF0122024B32
:4016C0001A70FFF7AFFF08BD8D81FF1F014B1B685867704708ED00E04001C0B2014B1870704700BF0DE400E04FF40052014B1A60704700BF00E100E04FF40052014B1A60F6
:40170000704700BF80E100E010B50446FFF7F4FF2046FFF7DBFF0720FFF7DEFFFFF7E4FF10BD00BF4FF40052014B1A60704700BF80E200E0044A137803F0FB03800000F018
:40174000040018431070704730510040044A137803F0FD03400000F0020018431070704730510040044A137803F0F703C00000F0080018431070704730510040044A137817
:4017800003F0EF03000100F0100018431070704730510040044A137803F0DF03400100F0200018431070704730510040044A137803F0BF03800100F04000184310707047CD
:4017C00030510040054A137843F0010313701032137843F001031370704700BFA2430040084A137843F0010313701032137843F00103137002F64D32137843F00103137098
:40180000704700BFA3430040014B1880704700BF044F0040014B1880704700BF064F0040014B1870704700BF034F004008B51A4A137843F0020313700232137803F08F03A9
:4018400043F010031370154B1A7802F0CF021A701A7842F030021A701A7802F0F0021A701A7842F00F021A7044F62060FFF7CCFF40F2DC50FFF7CEFF0020FFF7D1FF084AAD
:40188000137843F00103137002F65E32137843F00103137008BD00BF004F00400B4F0040A343004008B5054B1B7823B9FFF7BEFF0122024B1A70FFF793FF08BD8E81FF1FA0
:4018C000084A137843F0020313701032137843F00203137002F65932137843F001031370704700BFA3430040014B1880704700BF104F0040014B1880704700BF124F004070
:40190000014B1870704700BF0F4F004008B51A4A137843F0020313700232137803F08F0343F010031370154B1A7802F0CF021A701A7842F030021A701A7802F0F0021A708C
:401940001A7842F00F021A7044F62060FFF7CCFF40F2DC50FFF7CEFF0020FFF7D1FF084A137843F00203137002F66A32137843F00103137008BD00BF0C4F0040174F004050
:40198000A343004008B5054B1B7823B9FFF7BEFF0122024B1A70FFF793FF08BD8F81FF1F0E4B70B51E460E4C0025E41AA410A54204D056F8253098470135F8E700F06EF8A2
:4019C000084B094C1E46E41AA4100025A54204D056F8253098470135F8E770BDA81A0000A81A0000A81A0000B01A000010B5431E0A44914204D011F8014B03F8014FF8E7DB
:401A000010BD03460244934202D003F8011BFAE77047000000000000004F00401800405100403000F051004010000000014000100014014080000015014000018016014067
:401A40000002001901400001801A0140800100400140000A004C01400002005001402000605200403C120048060000510140441200480800801401404C120048800000160B
:401A80000140CC1200488000801801404C1300488000001A0140CC1300488000F8B500BFF8BC08BC9E4670474D0000007D080000F8B500BFF8BC08BC9E4670472900000044
:401AC000D01A00000881FF1F18000000B8000000000000000000E02EC05D00001800000000366E01000000000000000000000000000000000000000000000000000000009D
:401B000000000000000000000000000000000000000000000000000000000000000000000000000000000000000000000000000000000000000000000000000000000000A5
:401B40000000000000000000000000000000000000000000000000000000000000000000000000000000000000000000000000000000000000000000000000000000000065
:401B80000000000000000000000000000000000000000000000000000000000000000000000000000000000000000000000000000000000000000000000000000000000025
:401BC00000000000000000000000000000000000000000000000000000000000000000000000000000000000000000000000000000000000000000000000000000000000E5
:020000040003F7
:0200000480007A
:40000000024F0040085200400D6400400665004074000140460101406A0201405E0301406B0401405A0501406E0601405E0701406D08014057090140690A0140540B014057
:40004000660C0140530D01405E0E01403D0F01402E1401405C15014036160140571701402C1801405F190140381A0140581B014007400140114101401742014016430140AD
:40008000064401400C4501400D46014001470140074801400C4901400B4C0140094D0140085001400A4B164B0040088009800C601050119018811901800F810F820F833886
:4000C000840F85728772880F8A728B388C728D388F0F857286388738880F89388A7206A908560A890CE80D130E130F041113130C15031602170419401E162308252027055F
:40010000290A2A802B142CE82E153007310F32603340341B36803730380839803A223B023E443F0440524104450B46E0470C481949FF4AFF4BFF4EF04F44500C5401560455
:40014000580459045A045B045C115D115F0166C06A406B02830C8410854086AC880C8A718B138C14952C9603970398DC99319A229B069C099ED0A531A620A70EA980AC10D2
:40018000AE40AF08B130B21FB30FB4E0B540B780B902BA20BB08BF51C001C740C9FFCA07CBFFCC40CD20CEF0CF05D008D401D604D804D904DA04DB04DC11DD11DF01E04070
:4001C000E1A8E240E32000440128060A0710086809800B040E180F021008120215401611184019601B081E101F1021802206254026042748284029282D402E182F103008DB
:40020000320233203604371038403D0A3F2240444740482849104A02500853205611571059525A085C205D015E805F08610167808202842089208B40C0E7C2E5C4A3CA77D6
:40024000CC67CEE8D015D208D6FFD881E003E280E68002A9030805030744086809200A950B451456150A1689175419531B0C1C681E93246025532680270429802A162E022B
:400280003130321B330F34E435803607374039023AA83B083F504026410345EC47BE483349FF4AFF4BFF4EF04F44500C54015604580459045A045B045C115D115F0166C0F5
:4002C0006A406B0287048E01920293029F01A302A601A701AA02B001B306B402B701B808BB20BE15BF44C064C102C205C403C50CC70EC811C9FFCAFFCBFFCC62CDA0CEF073
:40030000CF41D00CD418D604D804D904DA04DB04DC10DD11DF01E640E702E910EA30EB10ED10EE10EF12002002060402051009020D080E02102012081420158016141824D6
:400340001B011D181E022012212025012640271828802B202C182F10300133803604371039043D023F24401041214410471048204A024B104D014F245208550456025A0181
:400380005C205E405F09600462016302644078087908810288408D0191049201932095019704988199019C089D089E029F10A140A204A318A505A640A880AE01B001B106A9
:4003C000B320B440B580C051C2A8C4E6CA63CC69CEE2D067D22CD6F1D88DE2A1E640EA08EE01030308400A300E01110114501A011C021E0C20402470260828302A442C2437
:400400002E40300231023401367C37013E114003470449FF4A074BFF4C404D204EF04F055008528054075604580459045A045B045C015D015F01604061A8624063208002BF
:4004400081448224832A85E78620882D89E791809408962199029A109B159C2DA921AB4AAE10B020B160B203B307B40CB518B610B780B828BE51BF10C064C103C205C40281
:40048000C50CC6E0C809C9FFCAFFCBFFCC62CDA0CEF0CF41D00CD602D712D804D904DA04DB04DC11DD11DF01E640E702E910EA30EB10ED10EE10EF120040012004020510CD
:4004C00006100704080809100A010C440D080E020F04100211051208154017401A091B021C281E401F40210222402521260427122F04310237113A013D123E043F024308BC
:400500004524470249084B304D404F14510457205AAA5F0861016D106E046F017280762A80088A808B4090209402958A964099109D089E10A148A201A308A418A7A0A9202C
:40054000AE02AF10B001B104B408B601B701C073C2E7C48FCA20CCA1CEE1D0E2D230D64FD801E280E606E804EA0AEE40000F02D0040C0514080409090B100EC3100C110CEB
:4005800012D31311144115101620170C18C31B031C821D1024DF272028D3291C2A0C2B022C082F2030C03220331F340F3610372038803A203F4040354104450B46C0470EC1
:4005C000481949FF4AFF4BFF4EF04F44500C5280580459045A045B045C115D015F0166C06A406B02841C86E3870188C38B018C4192C394FF98829CF39E0CA008A302A4047D
:40060000A80CAC1FAEE0B0C0B102B220B410B501B60FB808BA80BE10BF10C006C604C9FFCA07CBFFCC40CD20CEF0CF05D008D602D711D804D904DA04DB04DC01DD11DF01AB
:40064000E040E1A8E240E32001800220030806A807020802090C0A050E280F8210801354141816421701182019521A011C101E801F9020402121272129012C042F2236813C
:400680003724382039083C203F084440470448044C014F08500151405280540856105910682069106A4070C0710473147501800281208620874089048A089308944295857E
:4006C0009622972098449A2A9B069D209E119F48A014A215A301A40AA514A608A780A810AD01AE10AF04B140B302B501C0F7C2FFC4EFCA71CCF0CE66D0C0D214D604E205EC
:40070000E603EEE2021C07100A08111D151D16A3185C19021A831B141C611E9624612508268E271128602A80321A3303340F351036F0370C39883AA83F504012410345ECD8
:4007400047B0482349FF4AFF4BFF4EF04F44500C54015604580459045A045B045C115D115F0166C06A406B0283F384E7850F861887F0883C8AC28DFF8E8391419204943C03
:4007800095F396C1970C9804991C9BE39C189D0CA010A1C3A408A504A982ACFFAD08B020B1C0B298B30FB41FB52CB640B71CB880BA28BB28BE01C004C704C9FFCA07CBFF1F
:4007C000CC40CD20CEF0CF05D008D804D904DA04DC11DD01DF01E040E1A8E240E3200040012002200640070808A00A900E2610A0114014081724182019A11A181C281D0457
:400800001E0621882201230425202608270129422A082B082E04310A321033403401350436113714380239403B043D403E803F884301440147144A104D014F085104560290
:400840005D015E485F20600863086740820B874088148C84900C9110930295019602978098049C429D819E03A0A2A204A340A5C1A720AC10AF08C057C2EFC46DCA4FCCEFF3
:40088000CE4BD071D6F0D880E220E680038009030B040E0112011335151317E419131B6C1C021DCA1F3427C8300233A83401350F37F03BA83E114060410249FF4AFF4BFF96
:4008C0004DA04F04501856025713580459045A045B045C105D105F01604062C06440654066C068C06AC06CC06EC083018409861088108A0C8C1C8E029010940C9611970374
:4009000098149C409E039F04A080A420A820AC20AF02B040B220B304B480B502B61FB701BE11C060C102C550C712C832C9FFCAFFCBFFCDAFCE0FCF04D018D418D604D80426
:40094000D904DA04DB04DC01DD10DF01E040E2C0E440E540E6C0E8C0EAC0ECC0EEC001800508070A09400B800D010E010F181541171418041A401E091F09202821282240E6
:40098000231A269829082F02312832423608378039023A203F01420846084A084E084F015608570259015C02648866406802691470A47804790482028480861088408A400E
:4009C0008B808EC091429682980899089A209B149C109E01A202A344A414A581A720A980AB40AD04AE04B00CB628C0E1C2F9C4F0CA12CC5FCE85D024D224D681D8B0E280E8
:400A0000E4A8E880EC800140040C0508081E09E70A010B180C080D18101F11241413151C160C17E21A021BE31C1C1D7C1E031F812110240425602B042DFF30103198320183
:400A4000331F340E357838083B2A3E014040410249FF4AFF4BFF4DA04F04501856025710580459045A045B045C115D105F01604062C06440654066C068C06AC06CC06EC0BF
:400A800086018E028F02920193039B019E02B002B302B401B501BE11C040C102C505C621C80DC9FFCAFFCBFFCDAFCE0FCF04D018D418D604D804D904DA04DB04DD10DF01C7
:400AC000E040E2C0E440E540E6C0E8C0EAC0ECC0EEC0020103200410061609810C100D040E220F80170818041B011D081E84222824502510261527402D802E022F143020AA
:400B0000310234103604374138803C803D203E09412245224820504051205A025E80608463026C146D406F147408761A7708810888C89102920193289468968099089A205C
:400B40009B019C149E04A102A202A304A414A610A740AA01AD08AF02B311B608B780C0E5C2F9C420CAF0CCF5CEF8D0A5D611D80DE220E852EA20EE20041D081D10081211DF
:400B80001301240226142A10301031013203340C38283E114002474049FF4A074BFF4C404D204EF04F0550085280580459045A045B045C015D015F01604061A86240632031
:400BC000812084E6851C870288E68E18901894189510985899149AA09C949D409E429F03A02AA10CA245A311A509A618A710A910AA18AB0CB018B201B340B4E0B520B60653
:400C0000B71FBF14C025C103C50BC6C0C7E0C829C9FFCAFFCBFFCEF0CF44D00CD401D604D804D904DA04DB04DC11DD11DF01E6C0EA40EB020028031404680A800D200E213E
:400C40000F8010201130141016041701180419081A401D201E031F1621022508268027082C082E082F8030023404368037203D053E024004471448204E024F085101551058
:400C800056225D115E405F086440700280088720886089048A02C0E6C2F8C476CAE0CC71CEC0D064D210D6F0D880E020E28005080D100E01111C13611704193C1B421D6733
:400CC0001E031F1823632518297F2A022D042F80300131583380351F360237383B224040410249FF4AFF4BFF4DA04F045018580459045A045C105F01604062C0644065402C
:400D000066C068C06AC06CC06EC0020104140501060208800C400D200E2012041402172A18421C101D381E021F06226A23402684274629842B882C522F043140322A3511D2
:400D4000374838803B043C883D103E0240804101428043204510468055505605572058045B045E086C046D046F017404760277287D807E0180038580881289108A808B081E
:400D80008C409084910293049408950496829740984099459C149D809E059F01A040A210A380A518A621A702A924AA40AB40B501C0F1C2E1C4F2CAFFCCFFCEFAD0A5D64014
:400DC000E2448402861587058B028C218E4A9080950198449A2A9F02A4E7A8E7B018B207B304B460B501B680B702BE01BF40C051C103C206C404C6C0C70EC818C9FFCAFF2D
:400E0000CBFFCC62CDA0CEF0CF41D00CD418D604D804D904DA04DB04DC01DD11DF01E640E702E910EA30EB10ED10EE10EF12018804080501070108080A440B200E28102011
:400E400011101504184019081A051B881C041D821E282298254427682C102D402F4632483408372239203A043C103D803E8A406242014440458A471049604D4051145440F3
:400E80005720583059025B105E026120628264846640888090909112924093AC95089626974099469A4A9B029C1A9D809E819F48A020A120A510A622A76AAA02AD09B24072
:400EC000B320C0B5C26AC426CAE0CCEACEF6D0FBD21CD681D8BDE220E810EA0A01380304074009180B22100111121320152819201B181F0629012D20300133403501373E0D
:400F00003E013F1040244106450B46C0470E481949FF4AFF4BFF4EF04F44500C54015604580459045A045B045C105D115F0166C06A406B0200080142061007200A100E8098
:400F40001124180219821A141B081C80202022612648270828282A022C082F0230A03204330135083641371038683B023D083F2240804188420443014640471049804D0893
:400F80004F2052015320540856105A025E405F296004628264407C087E207F10800883018D048F40902C911092089304944296A0978098049C609D429E099F40A0A2A18896
:400FC000A340A503A622A728AD04AE80AF08B002B140B248B520B640B701C00DC214C406CA37CCFFCEEFD0AFD228D6F1D88DE830EC20810A8216831484E886158B408E023E
:40100000934094E895039613970499139B0C9C569E899F08A2A9A680A913AB04AD20AF05B080B130B207B30FB460B61BB740B820B902BA88BB08BE11BF40C002C740C9FFB6
:40104000CA07CBFFCC40CD20CEF0CF05D008D804D904DA04DC11DD01DF01E040E1A8E240E32001080601075008240A010B020D800E100F22100211101650170418441908AA
:401080001A011DA01E502215230226812750288029802A282BC02E90314832113602375438803B043C303F024054438045204B205202534056C157025A0868046944714453
:4010C0007228820888A08D088E029080911093249440954496609782980499809A109CA09D449E4A9F12A012A108A208A340A404A681A713B040B440B517B702C0B4C2A78F
:40110000C433CA3FCCFFCEAAD02FD204D602E220EE403020310236183B208A88CCF0CE1030403201352036083A205D088A108B108E209720A280A420A502A610CCF0CE104B
:40114000D680050230103304368037085340544059015C048520884096029C409D28A280A420A502B608C020CCF0D460D6C0E64018101F0280208304860196029C109D0868
:401180009F04A420A502A804A901AD02B040B340B708C630E280E640EA20EC10161073207402C404DC01DE04500459085F0262016408A402AF20B210D404D603D803EE04A6
:4011C00084088C028D0894089C089D08A402B601B702E002E402E808EC02940888109C109D08A302A902B410EA80164057025D02810286408D089D08A302C420D6A0E0101C
:40120000E62009200E10580166029A02B404B602C206D602D801E80A10408840B001B520B610C408E201EC04EE0A000308020A030C030E0310031A031C0200008105000020
:401240006A000000FFFFFF0F000000004110000082180000F33C0C420800008000040000C30800000F3CF0410000F3801C00E303047F00000C670018FF0000041C400F20AC
:401280002C80C01F00022880000000144002000000002D153CFFFFFF00AF0F04180000000000021204040404111000014000C0004040C000C000C000C000C00000000000C8
:4012C00000000000000000000000000022105100E708000000000004803C00C1000000C301E70E1844BC31420000000000180000E7FF000000040000000000008098071F77
:40130000602018580000008800004010340205000100CE000CFFFFFF62A0F0410C000000180004000404040411110001000000000000400200103010001010120000000080
:4013400000000000000000000000000002821500E70C0000000F00D0800000D300DF0000441C2AC3000400000008000000C30000E741002021D34A0C0000000007C0601CDF
:40138000180F80200000002000001000350401000200E0C028FFFFFF62A0F0410C0000001800040004040404111100010000000000004002001030100010101200000000E3
:4013C00000000000000000000000000000000000023C1541000000000004008000000004E7670018213C4A4244102A00007F000000080000E71800008000000380800720D4
:40140000181F604000800020000010046401030002000EC024FFFFFF62A0F0410C00000000000212040404041111000100000000000040020010301000101012000000007E
:40144000000000000000000000000000004040004000000095006A95950095000000000090006090900090000000000000FAFA00F800000000FFFF008100000000000000E3
:40148000000000000000000000000000000000000000000000000000000000000000000000000000000000000000000000000000000000000000000000000000000000002C
:4014C00000000000000000000000000000000000000000000000000000000000000000000000000000000000000000000000000000000000000000000000000000000000EC
:4015000000000000000000000000000000000000000000000000000000000000000000000000000000000000000000000000000000000000000000000000000000000000AB
:40154000000000000000000000000000000000000000000000000000000000000000000000000000000000000000000000000000000000000000000000000000000000006B
:0200000490006A
:0400000000004005B7
:0200000490105A
:04000000BC90ACAF55
:0200000490303A
:02000000C2300C
:0200000490402A
:4000000000000000000000000000000000000000000000000000000000000000000000000000000000000000000000000000000000000000000000000000000000000000C0
:400040000000000000000000000000000000000000000000000000000000000000000000000000000000000000000000000000000000000000000000000000000000000080
:400080000000000000000000000000000000000000000000000000000000000000000000000000000000000000000000000000000000000000000000000000000000000040
:4000C0000000000000000000000000000000000000000000000000000000000000000000000000000000000000000000000000000000000000000000000000000000000000
:0200000490501A
:0C00000000012E16106900012E26D29976
:00000001FF