:400000000080002011000000FD090000FD09000008B5044B1A6803F53F5302331A6000F007FD00BFFA46004010B5054C237833B9044B13B10448AFF300800123237010BD67
:400040008881FF1F00000000FC270000084B10B51BB108480849AFF300800848036803B910BD074B002BFBD0BDE81040184700BF00000000FC2700008C81FF1F0881FF1FFB
:400080000000000008B5002001F0DCF840F2DC5001F00EFC40F2DC5001F010FC40F2DC5001F0B2FB40F2DC5001F0B4FB002000F04DFC012000F04AFC032000F047FC0220C8
:4000C00000F044FC40F2DC5001F010FB40F2DC5001F012FB08BD00BF08B5384B1B68002BFBD0364B1B6813F0010F0BD0334A136823F001031360324B00221A605A6000F0A6
:40010000C5F9EAE72D4B1B6813F0100F07D02B4A136823F01003136000F058FBDDE7274B1B6813F0200F07D0244A136823F02003136000F079FBD0E7204B1B6813F0400FC1
:4001400007D01E4A136823F04003136000F09AFBC3E71A4B1B6813F0800F07D0174A136823F08003136000F0BFFBB6E7134B1B6813F0040F07D0114A136823F0040313601F
:4001800000F0BAFAA9E70D4B1B6813F0020FA4D00A4A136823F002031360094A136801331360052B06DD536823B90122044B5A60FFF768FF00F0F4FA8FE700BFE081FF1F14
:4001C000A481FF1F08B541F2883000F0CBFF0024354B1C60204601F035F8344B5C6062B600F01EFE324801F019F801F0D5FB01F03DFB40F2DC5001F007FB40F2DC5001F051
:4002000009FB01F087FB40F2DC5001F051FB40F2DC5001F053FB01F0D5FA01F0F9F8254801F064F9204600F091FB00F029FF224801F032F8012000F089FB01F06FF81F48DF
:4002400001F084F9022000F081FB01F0BDF91C4801F024FA032000F079FB01F041FD194801F060FE01F0A0FA40F2DC5001F03EFA40F2DC5001F040FA134801F077FB01F0B8
:40028000FBFB40F2DC5001F0AFFB01F065FC4FF47A7001F019FC01F0CFFC40F2E24001F083FCFFF719FF00BFE081FF1FA481FF1FCD020000E90200000503000021030000D5
:4002C0003D030000590300007503000008B500F0E9FD00F0B1FF034A136843F00103136008BD00BFE081FF1F08B501F0A5F801F00BF9034A136843F01003136008BD00BFFD
:40030000E081FF1F08B500F0CFFE00F0D3FF034A136843F02003136008BD00BFE081FF1F08B501F00FF801F01FF9034A136843F04003136008BD00BFE081FF1F08B501F04E
:4003400057F901F0B9F9034A136843F08003136008BD00BFE081FF1F08B501F003FD01F0EFFD034A136843F00403136008BD00BFE081FF1F08B501F0CBF901F005FB074ADF
:40038000136801331360042B07D90022034B1A60034A136843F00203136008BDAC81FF1FE081FF1F08B50C48038801339BB203804288013A92B24280FF210171E921417127
:4003C0008271120AC27103721B0A43720430062101F030FD08BD00BFB081FF1F70B590B0194B1A88194B1B8819490988009119490988019107A8184901F0F6FD00248DF808
:400400003D40164E164D05A83146B5F90A2001F0EBFD8DF8184003A83146B5F90C2001F0E3FD8DF8104007A800F0A4FD0D4800F0A1FD05A800F09EFD0B4800F09BFD03A843
:4004400000F098FD10B070BD2482FF1F2282FF1F2682FF1F2082FF1F0028000020280000B081FF1F242800002C28000008B5B0F57A7F03D3B0F5FA6F03D804E04FF47A7074
:4004800001E04FF4FA6001F031F908BD38B513E100F01CFD974BD88110F47F4F40F02681C0B218745B7C1B2B00F20681DFE813F01C0023002800320037004100460051000A
:4004C0005600600004017D0082008D0092009D00A200AD00B200BD00C200CA00CF00D700DC00E600F600FB00EA2840F0E5800122804B5A74E0E07F4B988202225A74DBE02F
:400500007C4CA38A43EA0020A08201F07DF903236374D1E0774BD88204225A74CCE0754CE38A43EA0020E08201F074F905236374C2E0704B188306225A74BDE06D4C238B5A
:4005400043EA002020830725657401F0B1F96574B2E0684B588308225A74ADE0654C638B43EA0020608301F0A9F909236374A3E0022808D003280BD001280ED14FF47A7048
:4005800001F012FB0DE040F2E24001F00DFB08E040F2DC5001F008FB03E04FF47A7001F003FB0B22534B5A7486E0524BD8830C225A7481E04F4CE38B43EA0020E08300219C
:4005C00000F0DCF90D23637476E04A4B18840E225A7471E0474C238C43EA00202084012100F0CCF90F23637466E0424B588410225A7461E03F4C638C43EA00206084022188
:4006000000F0BCF91123637456E03A4B988412225A7451E0374CA38C43EA0020A084032100F0ACF91323637446E0324BD88414225A7441E02F4BDA8C42EA0020D884152234
:400640005A7439E02B4B188516225A7434E0294B1A8D42EA0020188517225A742CE0254B588518225A7427E0224C638D43EA00206085FFF7FBFE192363741DE010F0400F15
:4006800004D04FF47A7001F0AFF903E04FF4FA6001F0AAF91A22174B5A740DE0154B98851B225A7408E0134CA38D43EA0020A08501F022F80023637400F020FC00287FF416
:4006C000E7AE00F0EFFB10F0200F7FF4E1AE00F015FC20B900F0E6FB10F0200F08D0054A136B43F001031363002038BD012038BD002038BDB081FF1F08B542E001F046FB8E
:4007000080B202B212F47F4F44D1234B1B78052B37D8DFE803F0030A151B262C00B2FF282FD101221C4B1A702BE000B29E2803D10222194B1A7024E00022174B1A7020E0F9
:40074000164B98860322144B1A701AE013498B8E43EA022292B28A864A8104220E4B1A700FE00E4B988605220B4B1A7009E00B498B8E43EA022292B28A868A810222064B1C
:400780001A7001F01BFB0028B8D101F0EBFA10F0200FB3D108BD00BF0C81FF1FB081FF1F08B5FFF7FFFDFFF719FEA520002100F00FF9A520012100F00BF9A520022100F0A3
:4007C00007F9A520032100F003F908BD08B521E0134B93F8363013B1012B09D016E000F033FE0F4BC0B21887012283F8362011E000F02AFE0A4A138F43EA002080B21087FE
:40080000084B1880002382F8363003E00022044B83F8362000F010FE10F0200FD8D108BDB081FF1F2482FF1F08B521E0134B93F83A3013B1012B09D016E000F03DFC0F4BA4
:40084000C0B29887012283F83A2011E000F034FC0A4A938F43EA002080B29087084B1880002382F83A3003E00022044B83F83A2000F01AFC10F0200FD8D108BDB081FF1FC5
:400880002282FF1F08B524E0154B93F83E3013B1012B0AD019E000F05DFD114BC0B2A3F84000012283F83E2013E000F053FD0C4AB2F8403043EA002080B2A2F84000094B5A
:4008C0001880002382F83E3003E00022044B83F83E2000F037FD10F0200FD5D108BD00BFB081FF1F2682FF1F08B524E0154B93F8423013B1012B0AD019E000F081FE114BEA
:40090000C0B2A3F84400012283F8422013E000F077FE0C4AB2F8443043EA002080B2A2F84400094B1880002382F8423003E00022044B83F8422000F05BFE10F0200FD5D1F3
:4009400008BD00BFB081FF1F2082FF1F08B5032812D8DFE800F002060A0EFF2000F07EFD08BDFF2000F0B2FB08BDFF2000F0FCFC08BDFF2000F04EFE08BD00BF08B540F6CD
:40098000FC73984200D91846104A00F01F03403B1370C0F346105070032916D8DFE801F002070C110948022100F06EFD08BD0748022100F0A1FB08BD0448022100F0EAFCF0
:4009C00008BD0248022100F03BFE08BDF881FF1FA52812D108B503290ED8DFE801F00205080B00F03BFD08BD00F070FB08BD00F0BBFC08BD00F00EFE08BD7047FEE700BF5A
:400A000008B5094B1A681044084BC31A802B02DC054B186005E001F0A7FA0C2303604FF0FF32104608BD00BF1081FF1F6882FF1F08B5104E104D16E029686B68AC6800223C
:400A400004E051F8040B43F8040B0432A242F8D1E868002203E0002143F8041B04328242F9D11035013E002EE6D101F083FAFFF7A9FBFEE7010000002029000008B5124AC0
:400A8000124B1A60124A136843F40073136000230AE0032B03D80F4A52F8231000E00E490E4A42F8231001332F2BF2D90C4B1A780C4B1A70094A0C4B1A6000F0C3F800226F
:400AC0000A4B1A6008BD00BF0004FA050CED00E014ED00E000000000FD0900000080FF1FBC7600400481FF1F08ED00E00081FF1FFEE700BFF0B40022174611E050F8276032
:400B0000F3B226F0FF0608E001EB420511F812406D78A5550132013BDBB2002BF4D10137282FEBD9F0BC7047064B1B78DBB203F00701054A11701B09013213704422034B34
:400B40001A707047CF0100496E5800407658004008B50A46002101F03EFA08BD38B517222A4B1A8018232A4A1370192502321580023213704FF49C7226490A8002310B70CE
:400B800002310A80244A13700222244B1A7008224FF040231A70032103F500731970204B1B78DBB21F490B701F4B1A8041F25122023B1A8000240CE01C4B1B7803F001030C
:400BC00043EA440404F003044FF4F07000F0B8FA013D0DB1032CEFD115B90320FFF788FF134B4FF480721A8007221A70002211490A704820023108701A700222033B1A7088
:400C00000D4A137843F00F03137038BD8040004082400040884000408E4000400043004008010049A146004022420040254200400440004006400040A243004008B501F0D9
:400C4000BFF908BD38B572B63D4A137843F00403137000240CE03B4963001A1952000A4423445B00C8589188FFF772FF0134E4B20A2CF0D9002410E03249A3001A19520066
:400C80000A4452F8440F23445B000B445168B3F84C20FFF7D3FF0134E4B2062CECD94FF090402949FFF726FF284A137843F0020313701032137843F002031370244C2378F7
:400CC00043F040032370A2F58632513A137843F0100313701F4820490822FFF7AFFF1F481F490A22FFF7AAFF1E481F490822FFF7A5FF1E481E490A22FFF7A0FF1D481E4999
:400D00000822FFF79BFF1D481D490822FFF796FF1C4A137843F0080313701B4D61232B70FFF71CFF81232B700122184B1A70FFF7FBFE174821460E22FFF780FF38BD00BFD2
:400D4000E846004038280000A400004803500140A043004002510040FC130048C051004004140048F25100401014004810510040181400482251004024140048325100406D
:400D80002C140048224300400048004004000840B043004008B50C200C4900F0F9F90C20072100F009FA0023094A13707221094A11702021A2F58072117006219A32117079
:400DC000472110321170AC3A137008BD990F0000FC81FF1F8B65004010B500F0B9F904460C4A137843F020031370A2F58072137843F0100313704FF48052074B1A60074AAD
:400E0000137843F01003137000F08AF9204600F0A3F910BD9B65004000E100E09964004008B5054B5B7823B9FFF7B4FF0122024B5A70FFF7D1FF08BDFC81FF1F4FF4805214
:400E4000134B1A60134A9378DBB2D178C9B2127912F0FF0F01D18B4211D00F4AD05CC0B20133DBB2312B00D900230A4A9370137913F0FF0F06D00022064B1A7102E0074BBA
:400E80001878C0B24FF48052054B1A60704700BF80E100E0FC81FF1F2882FF1F4465004000E100E0074B187800F07F00064B5B7913F0FF0F04D040F080000022024B5A7148
:400EC000704700BF6B640040FC81FF1F10B54FF48053074A1360074A147800211170064A13602402FFF7AAFF204380B210BD00BF80E100E0FC81FF1F00E100E04FF4805259
:400F0000134B1A60134A9378D278DBB2934206D1104B1B7913F0FF0F14D0322013E00D4A9378D278DBB2934205D20A4AD3789078181AC0B207E0074AD3789078181A323076
:400F4000C0B200E000204FF48052034B1A60704780E100E0FC81FF1F00E100E0034B1B7813F0040FFAD1024B18707047696400404965004038B5074B5B782BB938BDFFF7A4
:400F8000EDFF0134A4B201E005460024285D0028F5D138BDFC81FF1F1C4B1B78DBB213F01E0F05D01A4803F01E0201780A43027003F0200303F0FF022BB3164B1978C9B2D9
:400FC000154B1B78DBB21548C154154B1B7813F0FF0F02D00121134B19700F490B780133DBB20B700B78DBB2312B02D900210A4B1970094B1B780C490978DBB28B4202D1D9
:401000000121074B1970002AC6D170476B640040FC81FF1F44650040FF81FF1F2882FF1F0082FF1F0182FF1FFE81FF1F7222074B1A70202202331A700622653B1A70472238
:4010400010331A7000224F331A7070478564004008B500F07DF8094A137843F0200313700232137843F010031370063A137843F01003137000F070F808BD00BF956400408B
:4010800008B5054B1B7823B9FFF7D0FF0122024B1A70FFF7DDFF08BD0382FF1F014B1878704700BF45640040024B187800F07F00704700BF6764004010B5FFF7F5FF0402FE
:4010C000FFF7ECFF204380B210BD00BF024B1B780BB1024B187070470382FF1F41640040034B1B7813F0040FFAD1024B187070476164004041640040084B1B7833B970477D
:40110000305DFFF7EDFF0134E4B203E070B50D4606460024AC42F3D370BD00BF0382FF1F054A137843F0080313701032137843F008031370704700BFA243004000000000A3
:401140000230800803D000BF01380046FCD17047EFF3108072B6704780F31088704700BF01BE704710B5044605E0084B1868FFF7E7FFA4F50044B4F5004FF6D8034B586884
:4011800000FB04F0FFF7DCFF10BD00BF1481FF1F70B504460E46074B1D681F2802D90020FFF7DEFF04F01F04103455F8240045F8246070BD08ED00E038B504460D46072938
:4011C00002D90020FFF7CCFF1F2C02D90020FFF7C7FF04F01F0000F1604000F564406D01EDB2057038BD00BF014B1B681864704708ED00E04001C0B2014B1870704700BFEA
:4012000000E400E00122014B1A60704700E100E00122014B1A60704780E100E010B50446FFF7F6FF2046FFF7DFFF0720FFF7E2FFFFF7E8FF10BD00BF0122014B1A6070476D
:4012400080E200E0044A137803F0FD03400000F0020018431070704720510040014B1B681866704708ED00E04001C0B2014B1870704700BF08E400E04FF48072014B1A604E
:40128000704700BF00E100E04FF48072014B1A60704700BF80E100E010B50446FFF7F4FF2046FFF7DBFF0720FFF7DEFFFFF7E4FF10BD00BF4FF48072014B1A60704700BF47
:4012C00080E200E07222084B1A70202203331A700622A3F263131A70472210331A7000224C331A70704700BF8465004008B5FFF72FFF094A137843F0200313700332137824
:4013000043F010031370A2F20712137843F010031370FFF721FF08BD9465004008B5054B1B7823B9FFF7CEFF0122024B1A70FFF7DDFF08BD0582FF1F014B1878704700BF08
:4013400047650040024B187800F07F00704700BF6765004010B5FFF7F5FF0402FFF7ECFF204380B210BD00BF024B1B780BB1024B187070470582FF1F40640040034B1B786A
:4013800013F0040FFAD1024B187070476064004040640040084B1B7833B97047305DFFF7EDFF0134E4B203E070B50D4606460024AC42F3D370BD00BF0582FF1F7222074B1F
:4013C0001A70202203331A70062299331A70472210331A700022B03B1A7070478C64004008B5FFF7B5FE094A137843F0200313700332137843F010031370073A137843F08A
:4014000010031370FFF7A8FE08BD00BF9C64004008B5054B1B7823B9FFF7D0FF0122024B1A70FFF7DDFF08BD0782FF1F014B1878704700BF4F640040024B187800F07F00AC
:40144000704700BF6F64004010B5FFF7F5FF0402FFF7ECFF204380B210BD00BF024B1B780BB1024B187070470782FF1F48640040034B1B7813F0040FFAD1024B1870704723
:401480006864004048640040084B1B7833B97047305DFFF7EDFF0134E4B203E070B50D4606460024AC42F3D370BD00BF0782FF1F014B1B689866704708ED00E04001C0B253
:4014C000014B1870704700BF0AE400E04FF48062014B1A60704700BF00E100E04FF48062014B1A60704700BF80E100E010B50446FFF7F4FF2046FFF7DBFF0720FFF7DEFFE8
:40150000FFF7E4FF10BD00BF4FF48062014B1A60704700BF80E200E0014B1B689864704708ED00E04001C0B2014B1870704700BF02E400E00422014B1A60704700E100E025
:401540000422014B1A60704780E100E010B50446FFF7F6FF2046FFF7DFFF0720FFF7E2FFFFF7E8FF10BD00BF0422014B1A60704780E200E07222074B1A702022FF3B1A7091
:401580000622A1331A70472210331A700022AE3B1A7070478965004008B5FFF7D9FD094A137843F020031370FF3A137843F0100313700332137843F010031370FFF7CCFDE0
:4015C00008BD00BF9965004008B5054B1B7823B9FFF7D0FF0122024B1A70FFF7DDFF08BD0982FF1F014B1878704700BF4A650040024B187800F07F00704700BF6A6400409D
:4016000010B5FFF7F5FF0402FFF7ECFF204380B210BD00BF024B1B780BB1024B187070470982FF1F4B640040034B1B7813F0040FFAD1024B187070476D6400404B640040E5
:40164000084B1B7833B97047305DFFF7EDFF0134E4B203E070B50D4606460024AC42F3D370BD00BF0982FF1F014B1B681865704708ED00E04001C0B2014B1870704700BFBE
:4016800004E400E01022014B1A60704700E100E01022014B1A60704780E100E010B50446FFF7F6FF2046FFF7DFFF0720FFF7E2FFFFF7E8FF10BD00BF1022014B1A607047B8
:4016C00080E200E0024A137843F080031370704772640040014B1880704700BF0C680040014B1880704700BF8C680040014B1880704700BF4C680040014B1880704700BF87
:401700006C680040014B1870704700BF84640040014B1878704700BF64640040014B188880B27047AC68004008B501E0FFF7F6FFFFF7EEFF10F0100FF8D108BD08B5184A68
:40174000137803F0C00343F0090313702432137843F0010313700132137843F00103137044F62060FFF7B6FF44F62060FFF7B8FF40F2DC50FFF7BAFF40F2DC50FFF7BCFF6B
:401780000420FFF7BFFFFFF7E3FC064A137843F010031370FFF7E0FCFFF7C6FF08BD00BF726400409464004008B5054B1B7823B9FFF7C4FF0122024B1A70FFF783FF08BD0D
:4017C0000B82FF1F054A137843F0020313701032137843F002031370704700BFA2430040024A137843F080031370704778650040014B1880704700BF12680040014B1880AA
:40180000704700BF92680040014B1880704700BF52680040014B1880704700BF7268004008B5114A137803F0C00343F009031370DF3A137843F0010313700132137843F0C6
:401840000103137044F62060FFF7D2FF44F62060FFF7D4FF40F2DC50FFF7D6FF40F2DC50FFF7D8FF08BD00BF7865004008B5054B1B7823B9FFF7D4FF0122024B1A70FFF7B3
:40188000AFFF08BD0C82FF1F024A137843F08003137070477E640040014B1880704700BF1A680040014B1880704700BF9A680040014B1880704700BF5A680040014B188028
:4018C000704700BF7A68004008B5114A137803F0C00343F0090313701F32137843F0010313700132137843F00103137044F62060FFF7D2FF44F62060FFF7D4FF40F2DC50C5
:40190000FFF7D6FF40F2DC50FFF7D8FF08BD00BF7E64004008B5054B1B7823B9FFF7D4FF0122024B1A70FFF7AFFF08BD0D82FF1F014B1B689867704708ED00E04001C0B2A9
:40194000014B1870704700BF0EE400E04FF48042014B1A60704700BF00E100E04FF48042014B1A60704700BF80E100E010B50446FFF7F4FF2046FFF7DBFF0720FFF7DEFF9F
:40198000FFF7E4FF10BD00BF4FF48042014B1A60704700BF80E200E0054A137843F0010313701032137843F001031370704700BFA2430040084A137843F0010313701032B0
:4019C000137843F00103137002F64D32137843F001031370704700BFA3430040014B1880704700BF044F0040014B1880704700BF064F0040014B1870704700BF034F004092
:401A000008B51A4A137843F0020313700232137803F08F0343F010031370154B1A7802F0CF021A701A7842F030021A701A7802F0F0021A701A7842F00F021A7044F620605A
:401A4000FFF7CCFF40F2DC50FFF7CEFF0020FFF7D1FF084A137843F00103137002F65E32137843F00103137008BD00BF004F00400B4F0040A343004008B5054B1B7823B9EB
:401A8000FFF7BEFF0122024B1A70FFF793FF08BD0E82FF1F084A137843F0040313701032137843F00403137002F66532137843F001031370704700BFA3430040014B188006
:401AC000704700BF1C4F0040014B1880704700BF1E4F0040014B1870704700BF1B4F004008B51A4A137843F0020313700232137803F08F0343F010031370154B1A7802F072
:401B0000CF021A701A7842F030021A701A7802F0F0021A701A7842F00F021A7044F62060FFF7CCFF40F2DC50FFF7CEFF0020FFF7D1FF084A137843F00403137002F67632AF
:401B4000137843F00103137008BD00BF184F0040234F0040A343004008B5054B1B7823B9FFF7BEFF0122024B1A70FFF793FF08BD0F82FF1F084A137843F00203137010321E
:401B8000137843F00203137002F65932137843F001031370704700BFA3430040014B1880704700BF104F0040014B1880704700BF124F0040014B1870704700BF0F4F00409F
:401BC00008B51A4A137843F0020313700232137803F08F0343F010031370154B1A7802F0CF021A701A7842F030021A701A7802F0F0021A701A7842F00F021A7044F6206099
:401C0000FFF7CCFF40F2DC50FFF7CEFF0020FFF7D1FF084A137843F00203137002F66A32137843F00103137008BD00BF0C4F0040174F0040A343004008B5054B1B7823B904
:401C4000FFF7BEFF0122024B1A70FFF793FF08BD1082FF1F08B50D200C49FFF799FA0D200721FFF7A9FA0023094A13707221094A11702021A2F58072117006215A3A11701D
:401C80004721103211704732137008BD5D1E00001182FF1F8665004010B5FFF759FA04460C4A137843F020031370A2F58072137843F0100313704FF40052074B1A60074A40
:401CC000137843F01003137000F040F92046FFF743FA10BD9665004000E100E09364004008B5054B5B7823B9FFF7B4FF0122024B5A70FFF7D1FF08BD1182FF1F4FF400525E
:401D0000134B1A60134A9378DBB2D178C9B2127912F0FF0F01D18B4211D00F4AD05CC0B20133DBB2052B00D900230A4A9370137913F0FF0F06D00022064B1A7102E0074B17
:401D40001878C0B24FF40052054B1A60704700BF80E100E01182FF1F5C82FF1F4665004000E100E0074B187800F07F00064B5B7913F0FF0F04D040F080000022024B5A71AD
:401D8000704700BF666400401182FF1F10B54FF40053074A1360074A147800211170064A13602402FFF7AAFF204380B210BD00BF80E100E01182FF1F00E100E04FF4005263
:401DC000134B1A60134A9378D278DBB2934206D1104B1B7913F0FF0F14D0062013E00D4A9378D278DBB2934205D20A4AD3789078181AC0B207E0074AD3789078181A063000
:401E0000C0B200E000204FF40052034B1A60704780E100E01182FF1F00E100E0034B1B7813F0040FFAD1024B187070476364004043640040084B5B7833B97047305DFFF7E1
:401E4000EDFF0134E4B203E070B50D4606460024AC42F3D370BD00BF1182FF1F1C4B1B78DBB213F01E0F05D01A4803F01E0201780A43027003F0200303F0FF022BB3164B0D
:401E80001978C9B2154B1B78DBB21548C154154B1B7813F0FF0F02D00121134B19700F490B780133DBB20B700B78DBB2052B02D900210A4B1970094B1B780C490978DBB2CA
:401EC0008B4202D10121074B1970002AC6D17047666400401182FF1F466500401482FF1F5C82FF1F1582FF1F1682FF1F1382FF1F014B1B689865704708ED00E04001C0B24E
:401F0000014B1870704700BF06E400E04022014B1A60704700E100E04022014B1A60704780E100E010B50446FFF7F6FF2046FFF7DFFF0720FFF7E2FFFFF7E8FF10BD00BF32
:401F40004022014B1A60704780E200E0054A137843F0040313701032137843F004031370704700BFA2430040014B1868704700BF8481FF1F0E4B70B51E460E4C0025E41AC0
:401F8000A410A54204D056F8253098470135F8E700F0B4FC084B094C1E46E41AA4100025A54204D056F8253098470135F8E770BD082900000829000008290000102900004D
:401FC00010B5431E0A44914204D011F8014B03F8014FF8E710BD03460244934202D003F8011BFAE7704700000EB400B54FF402719CB0ADF814106FF00041049107914FF641
:40200000FF711DABADF81610084953F8042B02900690086802A9019300F064F8029B00221A701CB05DF804EB03B070478481FF1F2DE9F0478E688246B3420C4690469946C2
:4020400040D38A8912F4906F3AD02568096902236F1A656905EB450595FBF3F57B1C4B449D4238BF1D4653050FD5294600F030FB064698B121693A46FFF7A2FFA38923F460
:40208000906343F08003A38113E02A4600F076FB064670B95046216900F0D6FA0C23CAF80030A3894FF0FF3043F04003A381BDE8F08726613E4426604E466561ED1BA560D3
:4020C000B14500D24E4632462068414600F0A0FAA36800209B1BA36023681E442660BDE8F08700002DE9F0439DB003938B8906461C060D4690460CD50B6953B9402100F077
:40210000E7FA2860286110B90C233360CCE040236B610023099320238DF8293030238DF82A3043461C4613F8012B1AB9B4EB08090FD002E0252AF5D1F8E73046294642466E
:402140004B46FFF775FF013000F0A980099B4B4409932378002B00F0A28000234FF0FF3204930793059206938DF853301A9304F101084446DFF8489121784846052200F054
:4021800039FA08F10108049B30B1C9EB00000122824013430493ECE7D80644BF20228DF85320190744BF2B228DF8532022782A2A02D0079923460EE0039A0134111D12685D
:4021C0000391002ABBBF524243F0020307920792B8BF04930AE01C4622780133303A092A03D80A2000FB0121F5E7079123782E2B1AD163782A2B0AD1039B02341A1D1B68D6
:402200000392002BB8BF4FF0FF3305930CE0611C00220C4623780131303B092B03D80A2000FB0232F5E70592DFF8988021784046032200F0DFF938B1049AC8EB00004023D6
:40224000834013430493013421781A48062204F101088DF8281000F0CDF988B1164B33B9039B073323F007030833039313E003AB0093304604A92A46104BAFF3008007E06E
:4022800003AB0093304604A92A460C4B00F092F8421C074603D0099B3B44099341E7AB895B0601D4099801E04FF0FF301DB0BDE8F08300BFD02800000000000031200000CD
:4022C000C6280000CC2800002DE9F84391461F468A680B6906469342B8BF1346C9F8003091F843200C46DDF8208012B10133C9F800302368990642BFD9F800300233C9F86A
:402300000030256815F006051CD094F843302268003318BF012392061FD5E118302081F843005A1C94F845102244023382F8431013E03046394604F119020123C047013089
:4023400007D00135E368D9F800209B1A9D42F0DBDBE74FF0FF30BDE8F8833046394604F14302C0470130F4D02268D9F80050E36802F00602042A08BF5D1B2269A3680CBF7C
:4023800025EAE57500259342C4BF9B1AED184FF00009A9450ADA3046394604F11A020123C0470130D5D009F10109F2E70020BDE8F88300002DE9FF410C461746227E9846BC
:4023C0006E2A06460A9B01F1430100F0B08012D8632A23D00AD8002A00F0BD80582A40F0CC8084F84520DFF804E257E0642A1ED0692A1CD0C1E0732A00F0B18009D86F2AB4
:402400002ED0702A40F0B980226842F0200222603FE0752A24D0782A3BD0AEE01A6804F14205111D1960136884F84230A9E020681A6810F0800F02D0101D186008E010F0FF
:40244000400F02F10400186002D0B2F9003000E01368002B3EDA2D225B4284F8432039E020681A6810F0800F02D0101D186007E010F0400F02F10400186001D0138800E06E
:402480001368227EDFF864E16F2A0CBF08220A221CE07822DFF858E184F845202268186812F0800F00F104051D6003D1550601D5038800E00368D00744BF42F02002226007
:4024C0001BB9226822F0200222601022002084F8430002E0DFF814E10A226568002DA8BF2068A560A4BF20F00400206003B965B10D46B3FBF2F002FB10331EF8033005F8BD
:40250000013D03460028F4D100E00D46082A0BD12368DA0708D5236962689A42DEBF302305F8013C05F1FF35491B21612EE025681A6815F0800F606903D0151D1D601368BA
:4025400008E015F0400F02F104051D60136801D0188000E01860002323610D4616E01A68111D1960156800212846626800F042F808B1401B6060636804E004F1420584F816
:40258000422001232361002384F84330CDF800803046214603AA3B46FFF796FE013002D14FF0FF301FE0304639462A462369C0470130F5D023689B0705D4E068039B984200
:4025C000B8BF18460FE00025E368039A9B1A9D42F3DA3046394604F119020123C0470130DED00135F0E704B0BDE8F081D7280000E828000010B5C9B202449042034605D03E
:402600001C7801308C42F8D1184610BD002010BD814210B501EB020301D3421E0BE09842FBD28118D21AD34204D013F8014D01F8014DF8E710BD994204D011F8014B02F82F
:40264000014FF8E710BD000030B500293CD051F8042C0B1F1D49002AB8BF9B180A680C4612B95A600B6030BD93420DD219685818904201BF5A5852181A60426823605A6092
:4026800030BD994203D80A4651680029F9D1146815199D420AD11B682344D0188842136012D10868034413604B680CE002D90C23036030BD1C681819884201BF08684968A2
:4026C000001918605960536030BD00BF1C82FF1F70B5CC1C24F0030408340C2C38BF0C24002C064603DA0C233360002070BD8C42F9D3204A136810461946A1B10A68121B29
:402700000ED40B2A03D90A608B188C501FE08B420BBF5A684A6802605A6018BF0B4616E00B464968E9E7144D2B681BB9304600F04BF828603046214600F046F8421C0346FC
:40274000D1D0C51C25F0030585420AD11C6003F10B001A1D20F00700821A0AD05142995070BD3046E91A00F02FF80130BBD02B46ECE770BD1C82FF1F1882FF1FF8B5074605
:4027800015460E4621B91146BDE8F840FFF7A0BF1AB9FFF759FF2846F8BD00F025F8A8420ED238462946FFF793FF044650B131462A46FFF705FC38463146FFF745FF01E03E
:4027C0003046F8BD2046F8BD38B5064C0023054608462360FEF714F9431C02D1236803B12B6038BD6482FF1F51F8040C0028BEBF091851F8043CC0180438704700000000AB
:402800000A0D0A0D706F736974696F6E733A2534642C2534642C2534642C253464000000256400000A0D74656D703A000A0D68756D69643A00000000004F00402400405194
:4028400000403000000001408004000501400001800601400008000F0140000180140140000400190140000300400140000A004C01400002005001402000000060520040C9
:402880006C110048060000510140741100480800800401407C110048800000060140FC1100488000800E01407C120048800000140140FC1200488000801801407C130048B0
:4028C000800000004300232D302B2000686C4C006566674546470030313233343536373839414243444546003031323334353637383961626364656600000000F8B500BFB6
:40290000F8BC08BC9E4670474D0000007D0A0000F8B500BFF8BC08BC9E46704729000000302900000881FF1F80000000E000000000000000020000006882FF1F0000E02E90
:40294000C05D00001800000000366E010000000000000000000000000000000000000000000000000000000000000000C42800000000000000000000000000000000000091
:4029800000000000000000000000000000000000000000000000000000000000000000000000000000000000000000002481FF1F0000000000000000000000000000000054
:4029C00000000000000000000000000000000000000000000000000000000000000000000000000000000000000000000000000000000000000000000000000000000000D7
:402A00000000000000000000000000000000000000000000000000000000000000000000000000000000000000000000000000000000000000000000000000000000000096
:402A40000000000000000000000000000000000000000000000000000000000000000000000000000000000000000000000000000000000000000000000000000000000056
:402A80000000000000000000000000000000000000000000000000000000000000000000000000000000000000000000000000000000000000000000000000000000000016
:020000040003F7
:0200000480007A
:40000000034F0040075200400E640040056500406600014038010140670201404E0301402A040140520501402D060140490701406D0801404B0901406D0A0140570B01402A
:40004000720C0140550D0140290E0140390F014036140140631501406D160140591701402B180140551901407A1A0140601B014006400140184101401E4201401643014044
:40008000074401400C45014008460140054701400A4801400F490140074C01400A4D0140085001400A271627222709100C2010211140188119911C08800F810F830F840FEC
:4000C000857286388738880F890F8A388B388C728D0F8F3884728672873889728B72050C07501320154D1730180119021B54252827512D4D2F1031033201333C35403902E7
:400100003B083E043F104062410545EE460B470C481749FF4AFF4BFF4EF04F44500C54015604580459045A045B045C105D115F0166C06A406B02830289408B098C738D16A5
:400140008E048F29912893139473960C98039A449B169C2A9E44A580A655A928AA08AB15B040B11BB20FB360B430B580B707B820B908BA08BB82BE11BF10C063C104C50CA2
:40018000C6C0C7BEC839C9FFCAFFCBFFCEF0CF44D00CD401D604D804D904DA04DB04DC11DD11DF01E6C0EA40EB0207010B080C080E120F081610172019041D201E502008DB
:4001C00022092601272929802B202E18302032093310372138083D403E2243104630470149814A084B084C084F08504456085711588059255E405F1A60406330678079401B
:400200007A018C048D20C080C2E2C460CA6ACCA7CEB2D0C4D22CD6FFD8810114110C12041311160E19091A081B101D201F0321102201254029102A022B0C2D1C2F023002B8
:4002400032013340340835203604371F3E013F144002474049FF4A074BFF4C404D204EF04F0550085280580459045A045B045C105D015F01604061A86240632084118540FC
:40028000860E8C208D508E03900C92139540973099019A0C9B0C9D02A124A208A340A411A570A606A708AD30AF44B00FB101B302B430B57CB820BA02BF05C034C106C5ECE7
:4002C000C70BC813C9FFCAFFCBFFCEF0CF44D00CD401D604D804D904DA04DB04DC12DD22DF01E6C0EA40EB020008030208800A460D090F0411021308152016801A441B100A
:400300001C421D081F1022162664288029802B202C102D402E123080321836403721388039083F024220430245204880492950085612582059015A085B80610276808101D2
:400340008420850A88108E049080914092129B219D809E12A120A208A301A420A720AA08AB02AC84AF40B440C005C27AC45CCAFBCCBECE8AD023D204D60FD801E240E408A9
:40038000E603EA4003030A020C680D020E1318561A091E16262928682A1530603101341B3607370238023AA03E014004470449FF4A074BFF4C404D204EF04F055008540707
:4003C0005604580459045A045B045C015D015F01604061A86240632001800204042007080A060E1810201208155419801A441B201D821E18204022402510260127232C18EE
:400400002D082F0A3480372A384039023E2A42404490459248204C88510452045610580859115A805E0263406D54762B77148140821087408B4092029320952A97049808EA
:400440009D80A108A20AA420A720A848AA40AE20AF82B005B120B220B308B408B710C043C263C4E6CA70CCF0CEE9D0F1D220D68FD801E010E208E694E804EA8A82028B01DC
:400480009E02A201AA01AF01B402B501B601B802BA08BB80BE51BF10C030C102C5D5C620C710C82BC9FFCAFFCBFFCDAFCE0FCF04D018D418D604D804D904DA04DB04DC2141
:4004C000DD10DF01E040E2C0E440E540E6C0E8C0EAC0ECC0EEC00240042005040680070109800D400E1810801120148016011714188119281A901D441F2A20062410258015
:400500002601270829402E2A360937403A103C123D923F0841284528481049014B04513159025F0260056102652067828040824085029020918093209522978498809A9173
:400540009B159D19A080A118A204A70AAA80AB20AF08B602C0F8C2E1C4FACAE8CCD0CEF4D066D681D8BDEE16012A0390058F07100B950E1C14401603181C198F1A231B302E
:400580001C211E0E1F20210C22082390254028212A1630603180333C340F3540361A3703380239803AA03B083F514026410345EE46B047C0482B49FF4AFF4BFF4EF04F4410
:4005C000500C54015604580459045A045B045C135D115F0166C06A406B02830484508502862A8E04902C9252970498509A269E2C9F03A401A880AA12B036B20EB301B401F5
:40060000B502B6C0B704B880BA0ABE10BF40C040C106C9FFCAFFCBFFCDA0CF04D018D401D604D804D904DA04DB04DC01DD30DF01E040E2C0E440E540E6C0E8C0EAC0ECC021
:40064000EEC002010310044008100A410DA00F1011201220152219401A451B051C4A1DA01F01200121042210240427912C202E02308033083540371039083B013D203F2AD0
:4006800043024410471048084C204D014F20561258225A845C045D015E205F806080650278107B04940195909602978C9C099D429E119F10A008A108A410A601A707A9024C
:4006C000AF40B414C085C2EBC456CAC0CC3ACEE3D061D224D6FFD8810520070309140E030F40134019101B0C1D091F10211022012602290C2B112D1C2F023120331F3402BD
:40070000354036013F114040410645154702481349FF4AFF4BFF4DAF4E0F4F04501854185604580459045A045B045C105D105F01604062C06440654066C068C06AC06CC0E5
:400740006EC08109824C831088318A0E8B408C6C8D148E039510970C990C9A139B119D209E089F03A110A431A646AB40AD1CAF02B00FB11FB230B320B44AB740B808BA2223
:40078000BE04BF44C032C106C5E0C6CBC80EC9FFCAFFCBFFCEF0CF44D00CD418D604D804D904DA04DB04DC11DD31DF01E6C0EA40EB020302044205300D600E010F0410A014
:4007C0001708180819801C401D181F0120842104242027412A012B052D102E012F0131403201331035103748380239083A103B813C203D803F01430245204640470948A80F
:400800004D2150085540571058015E0260056202664067488202844085808E0290029440950197049A029B089C089D10A710AA01AB40AC40AE20B120B201B402B504B60269
:40084000C0D1C2C0C42CCABDCC7DCEBED061D224D681D8BDE012E610E810EA20EC10EE800010022C03080520074508F909030B440D0A0F541553170C18A019531A521B04E8
:400880002048229224F92C0130383206334034C0350F3601373039803B203E043F044004470449FF4A074BFF4C404D204EF04F05500856025711580459045A045B045C1158
:4008C0005D125F01604061A8624063208180841086408A038B558CDC8E229009917392D09304981099739AAC9B0C9C0C9E71A12AA344A620A708AC14AD03AF44B140B380DF
:40090000B41FB50FB6E0B730B980BA80BB20BF45C020C106C9FFCAFFCBFFCDA0CF04D018D401D604D804D904DA04DB04DC22DD10DF01E040E2C0E440E540E6C0E8C0EAC034
:40094000ECC0EEC000080120020104200501080209200A020E04102012021542170419201A021D091E441F40208021202204230224032504270829042B4131203201351077
:40098000370839013AA03B803C413E103F2440044702480854245620570859805A195D015E2163406C106D406F047540760877208308874189208A048B018D849004910251
:4009C00096409A029C089D409E889F21A008A210A508B121B402B504C057C24BC4B5CA0BCC65CEF5D084D204D62FD801E2200202060207050B040F011201130226013104AB
:400A000033013402350236013E504020410646514702481C49FF4AFF4BFF4DAF4E0F4F0450185280580459045A045B045F01604062C06440654066C068C06AC06CC06EC0F1
:400A4000000A05400688072009060B100E840F10130414081502170419901C021EA42044220824092516260227042C022D202E08310134083540372138A43D223E44400473
:400A800044084509468048084C044E024F04505854045C016590660271018C408E08C0FCC278C474CA70CCF1CEFED0E4D234D680D8B08001820E84448508863188E7891C4B
:400AC0008BC2911C93C1951898229A519B049D049F20A110A4E7A5DFA9C7AB18AC80AF83B007B140B218B320B460B51FB680B798B902BBA0BE04C003C504C9FFCA07CBFF8D
:400B0000CC40CD20CEF0CF05D008D804D904DA04DC12DD03DF01E040E1A8E240E32000220108030104240501088009020A200B040F081080122013101540170419121A3134
:400B40001C841D891F20200121102208234024402510262027212A112D882E12302434803504372139203B403D203F044001430A44204A194D0451015620591069906B1062
:400B8000708071047202731478107910808081208201830484208511862088048A108B408C208E099020914094409584961199889B049C109D229F10A011A102A30AA44031
:400BC000A588A610A724B104B504C07FC24FC4AECAF5CCF6CE6CD04BD20CD604E00AE204E402E6080108054106010710090C0DC3110F13E015E3170C19041A011DEF25827A
:400C0000292C2BC32FE330013110330F352C37C03B083E014061410442024403450C460E480549FF4AFF4BFF4C624DA04EF04F41500C56025712580459045A045B045C201B
:400C40005D225F016640670269106A306B106D106E106F12810283158D808E029544972A99E79A029E01A201A5E7A921AB4AB001B107B360B402B518B780BA08BE11BF10EB
:400C8000C035C106C204C402C5CEC803C9FFCAFFCBFFCC62CDA0CEF0CF41D00CD418D604D804D904DA04DB04DC13DD11DF01E640E702E910EA30EB10ED10EE10EF1200409C
:400CC000040808800A010B080F041080180419041B091F012022211322042408251026082742281029202C012D102F203204331034403510360939823C803E223F08408005
:400D000041104210444145D9488149804B284E084F04564059025F08600462026302650867206C106D406F047510762A860287029110970299089B089E6A9F42A101A201C8
:400D4000A540A618A704A910AD02AF20B010B210B310B508C021C243C408CA76CCF6CEF9D0F7D22CD641D80DE208EA20EC40EE0501010306053807040E02111812021322C8
:400D800019202128252027182D122E012F203001313E320237013E043F404004474049FF4A074BFF4C404D204EF04F0550085280580459045A045B045C305D015F016040E0
:400DC00061A862406320008002800324070208080A450F4010981308174018081A011B691F06229524022501281929102B412E082F813102329033043520360238083A22C3
:400E00003C083D02400441104208470148014A224B1052045380551056015A08602062046954708872227308774084108C028F08930295A29682979D98089B019C219E01E7
:400E4000A005A1A8A410A510A621A70AA880AA10AE12B082B110B220B408C08FC21FC48ECAD7CCAFCEC7D084D20CD602E8C0ECC00014022A03080573070C0B550C80100914
:400E800012321802192A1A451B441D731F04249F25032744289F3018328033303407350F3660374039083B203E403F44402341064204440145C0460E480649FF4AFF4BFFC6
:400EC0004C624DA04EF04F41500C580459045A045C315D015F016640670269106A306B106D106E106F12800F82F0840C853C87428804897F8C088D3C8F4192F3930494FF27
:400F0000950898F399189A0C9C419D10A0C3A482A567A718A81CAAE3AB03AD04AF80B02CB180B21CB31FB40FB520B6C0B740B980BA22BB08BF10C003C540C9FFCA07CBFFF1
:400F4000CC40CD20CEF0CF05D008D602D711D804D904DA04DB04DC33DD31DF01E040E1A8E240E320014205410728080409060A040E090FA0111414841610180119021A54E1
:400F80001CA01D011E0A1F10200422442504261227022A042D802E282F1031A035403602372838043B123C803D083F204001410142104324450849104B014F0653405E2022
:400FC0006D206F1175407728780279827B01831086148750888089808A018B018C018D108E288F409002915493029404958096C497D5980299109A049F06A1AAA330A410ED
:40100000A601B040B123B710C0F9C2FAC476CA72CCFCCE77D04FD204D620E020E210E440E6B0E8303010330135283980CCF0CE1031803202340136803B105340630285809B
:4010400086028F04931095809C109D209F01AF10B508CCF0CE10D420D640E240E640EA1002403211340435103B2050405608580462808210875088048D44958097809A0815
:401080009C119D209F01A304A680AE08B301C010CCF0CE10D460E210E660EE4019801A401D046B406F40738083C084019C019D249F01A304A910AC10AE41B440C670DCE0D3
:4010C000E2C0E680E810EE60101071088F0CC408DC01E002E40257405B085C0263089B08A304A508B010D402D603D802EA04500485088C049C02A508A740D404E008900415
:40110000A740B406E808EC028701981099809F01A304A920B010B640E240EE80051012205D80630864108110822098109980A304C080C410D620D8C0E4A00C0160049004C8
:40114000B740C204D802EC0210807C4088808C40B001C408DE04E002E601EE04000F08070A070C0B0E07100F1A0E1C0B888A000055000000FFFFFF3F000000000010000034
:401180000008000021184A0000000000003C00C182044900407CB082000000C300000000E7FF0000E7E70018040000040420031FE0581898000000880000400164030200F3
:4011C00001C0E0000AFFFFFF62A0F0410C00000000000213040404041111000100000000000040020010301000101012000000000000000000000000000000000CFFD3001E
:40120000D3040C00415C20A20F00D023005C00A1DFE70018C3000000820000040010C300040800000C1800000800000020380F1FC04010808080080A0000001030020000D1
:401240000000000000FFFFFF00A00004180000001800040004040404212000014000C0004040C000C000C000C000C00000000000000000000000000000000000000003F311
:40128000181C00E308F3000C10C30000008204003CFF41003C0C42000008000004008000670418007F410000000F00F0801C202C1F0F40C080002028000004006402050096
:4012C000030C000E11FFFFFF62A0F0410C00000018000400040404041111000100000000000040020010301000101012000000000000000000000000000000000000E3008E
:40130000FF0000008214002A1F02E045C3000000F3090C32049F000041000000089F00003C00C3000C80000000000000C0070F8010182C60000008000000104056030400D6
:40134000010C00E021FFFFFF62A0F0410C00000000000211040404043113000100000000000040020010301000101012000000000000000000000000000000001C10E300E8
:40138000F3670C180018F3004100000082040080FF000003C30000040F3CF042083C0041040800000C7F000000000000C0401C200F802C1F0002A080000000042605000094
:4013C000000E0B0C15FFFFFF0000F0440C000000000002120404040411130001000000000000C00000004002000000000000000000000000000000000000000000424200A7
:4014000042000000AA0055AAAA00AA0000000000001010001000000010002010100010000000000000E3E300E100000008919100910000000000000000000000000000007B
:40144000000000000000000000000000000000000000000000000000000000000000000000000000000000000000000000000000000000000000000000000000000000006C
:40148000000000000000000000000000000000000000000000000000000000000000000000000000000000000000000000000000000000000000000000000000000000002C
:4014C00000000000000000000000000000000000000000000000000000000000000000000000000000000000000000000000000000000000000000000000000000000000EC
:4015000000000000000000000000000000000000000000000000000000000000000000000000000000000000000000000000000000000000000000000000000000000000AB
:0200000490006A
:0400000000004005B7
:0200000490105A
:04000000BC90ACAF55
:0200000490303A
:02000000CB280B
:0200000490402A
:4000000000000000000000000000000000000000000000000000000000000000000000000000000000000000000000000000000000000000000000000000000000000000C0
:400040000000000000000000000000000000000000000000000000000000000000000000000000000000000000000000000000000000000000000000000000000000000080
:400080000000000000000000000000000000000000000000000000000000000000000000000000000000000000000000000000000000000000000000000000000000000040
:4000C0000000000000000000000000000000000000000000000000000000000000000000000000000000000000000000000000000000000000000000000000000000000000
:0200000490501A
:0C00000000012E16106900012E2BDB9170
:00000001FF