:400000000080002011000000450800004508000008B5044B1A6803F53F5302331A6000F013FC00BFFA46004010B5054C237833B9044B13B10448AFF300800123237010BDCE
:400040002081FF1F00000000541A0000084B10B51BB108480849AFF300800848036803B910BD074B002BFBD0BDE81040184700BF00000000541A00002481FF1F0881FF1F35
:400080000000000008B5002001F080FB002001F071FB002001F086FB002001F08FFB002001F098FB002001F0A1FB002000F0C6FF40F2DC5001F0EAFA40F2DC5001F0ECFABF
:4000C00040F2DC5001F08EFA40F2DC5001F090FA022000F075FB032000F072FB012000F06FFB002000F06CFB40F2DC5001F0FCF940F2DC5001F0FEF908BD00BF08B5264B20
:400100001B68002BFBD0244B1B6813F0010F15D0224B1B78012B11D11F4A136823F00103136000F097FFB0FA80F0400900F086FF00221B4B1A6000F0B3F9E0E7164B1B6839
:4001400003F47053B3F5705F0AD1134A136823F47053136000F0E6FA0122104B1A70CEE70D4B1B6813F0020FC9D00B4A136823F0020313600A4A136801331360052B01DD5A
:40018000FFF780FF0022054B1A70034A136843F470531360B3E700BF6481FF1F9081FF1F3C81FF1F08B541F2883000F0D7FE0024384B1C600125384B1D70204601F0E6FA36
:4001C000204601F0D7FA204601F0ECFA204601F0F5FA204601F0FEFA204601F007FB204600F02CFF62B600F015FD2C4800F012FF01F008FB01F028FA40F2DC5001F0F2F95B
:4002000040F2DC5001F0F4F901F072FA40F2DC5001F03CFA40F2DC5001F03EFA00F0F6FF1F4801F061F8204600F0CAFA00F024FE1C4800F031FF284600F0C2FA00F06CFF5E
:40024000194801F081F8022000F0BAFA01F0BAF8164801F021F9032000F0B2FA01F0A0F940F2DC5001F040F940F2DC5001F042F90F4801F069FA01F035FB40F2DC5001F06B
:40028000E9FA01F09FFB4FF47A7001F053FBFFF735FF00BF6481FF1F9081FF1FB5020000D10200003103000091030000F10300005104000008B500F0EFFC00F0B9FE034A22
:4002C000136843F00103136008BD00BF6481FF1F08B500F0AFFF01F015F8124B1B7813B1012B09D01AE000F0ADFFC0B20E4B188001220C4B1A7008BD00F0A4FF0A4A1388FC
:400300009BB243EA002080B210800022054B1A70064A136843F48063136008BD0022014B1A7008BD4081FF1F9881FF1F6481FF1F08B500F0B5FD00F0BDFE124B5B7813B174
:40034000012B09D01AE000F0B3FDC0B20E4B188001220C4B5A7008BD00F0AAFD0A4A13889BB243EA002080B210800022054B5A70064A136843F40063136008BD0022014B49
:400380005A7008BD4081FF1F9681FF1F6481FF1F08B500F0D5FE00F0E5FF124B9B7813B1012B09D01AE000F0D3FEC0B20E4B188001220C4B9A7008BD00F0CAFE0A4A1388FC
:4003C0009BB243EA002080B210800022054B9A70064A136843F48053136008BD0022014B9A7008BD4081FF1F9A81FF1F6481FF1F08B500F0FBFF01F05DF8124BDB7813B15F
:40040000012B09D01AE000F0F9FFC0B20E4B188001220C4BDA7008BD00F0F0FF0A4A13889BB243EA002080B210800022054BDA70064A136843F40053136008BD0022014B08
:40044000DA7008BD4081FF1F9481FF1F6481FF1F08B501F05BF801F085F9074A536801335360042B07D90022034B5A60034A136843F00203136008BD4081FF1F6481FF1FA2
:4004800008B5B0F57A7F03D3B0F5FA6F03D804E04FF47A7001E04FF4FA6001F025F808BD38B51EE100F00CFC9D4B188010F47F4F40F03181C0B29870DB78182B00F2118114
:4004C000DFE813F01900200025002F0034003E0043004E0053005D0086008B0096009B00A600AB00B600BB00C600CB00D300D800E000E500EF00EA2840F0F3800122884B53
:40050000DA70EEE0864B98800222DA70E9E0844CA38843EA0020A08001F064F80323E370DFE07F4BD8800422DA70DAE07C4CE38843EA0020E08001F05BF80523E370D0E0FB
:40054000774B18810622DA70CBE0754C238943EA002020810725E57001F098F8E570C0E06F4B58810822DA70BBE06D4C638943EA0020608101F090F80923E370B1E001387A
:4005800004281DD8DFE800F003080D1217004FF47A7000F0A9FF17E040F2E24000F0A4FF12E040F2DC5000F09FFF0DE040F2D66000F09AFF08E04FF4FA6000F095FF03E0D7
:4005C0004FF47A7000F090FF0A22554BDA7088E0534BD8810B22DA7083E0514CE38943EA0020E081002100F003F90C23E37078E04B4B18820D22DA7073E0494C238A43EAF7
:4006000000202082012100F0F3F80E23E37068E0434B58820F22DA7063E0414C638A43EA00206082022100F0E3F81023E37058E03B4B98821122DA7053E0394CA38A43EA85
:400640000020A082032100F0D3F81223E37048E0334BD8821322DA7043E0314BDA8A42EA0020D8821422DA703BE02D4B18831522DA7036E02A4B1A8B42EA0020188316222B
:40068000DA702EE0264B58831722DA7029E0244C638B43EA00206083FFF7F2FE1823E3701FE000F0010001F071F81D4CA078C0F3400001F05FF8A078C0F3800001F072F85C
:4006C000A078C0F3C00001F079F8A078C0F3001001F080F8A078C0F3401001F087F80023E37000F005FB00287FF4DCAE00F0D4FA10F0200F7FF4D6AE00F0FAFA20B900F022
:40070000CBFA10F0200F08D0054AD36943F00103D361002038BD012038BD002038BD00BF4881FF1F08B51F48E32380F820301E4B1A8880F821201B88C3F3072380F822300E
:400740001A4B1A8880F823201B88C3F3072380F82430174B1A8880F825201B88C3F3072380F82630134B1A8880F827201B88C3F3072380F82830104B1A8880F829201B88E3
:40078000C3F3072380F82A300C4B1A8880F82B201B88C3F3072380F82C3020300D2100F0E3FA08BD4881FF1F9881FF1F9681FF1F9A81FF1F9481FF1F9C81FF1F9281FF1F39
:4007C00008B5032812D8DFE800F002060A0EFF2000F042FD08BDFF2000F074FB08BDFF2000F0C0FC08BDFF2000F012FE08BD00BF08B540F6FC73984200D91846104A00F00A
:400800001F03403B1370C0F346105070032916D8DFE801F002070C110948022100F032FD08BD0748022100F063FB08BD0448022100F0AEFC08BD0248022100F0FFFD08BD0E
:400840007881FF1FFEE700BF08B5104E104D16E029686B68AC68002204E051F8040B43F8040B0432A242F8D1E868002203E0002143F8041B04328242F9D11035013E002E06
:40088000E6D101F0ADF8FFF78DFCFEE701000000FC1A000008B5124A124B1A60124A136843F40073136000230AE0032B03D80F4A52F8231000E00E490E4A42F82310013370
:4008C0002F2BF2D90C4B1A780C4B1A70094A0C4B1A6000F0BBF800220A4B1A6008BD00BF0004FA050CED00E014ED00E000000000450800000080FF1FBC7600400481FF1F10
:4009000008ED00E00081FF1FFEE700BFF0B40022174611E050F82760F3B226F0FF0608E001EB420511F812406D78A5550132013BDBB2002BF4D10137282FEBD9F0BC704705
:40094000064B1B78DBB203F00701054A11701B09013213704422034B1A707047CF0100496E5800407658004008B50A46002101F068F808BD38B51722284B1A801823284A1B
:400980001370192502321580023213704FF49C7102321180023213700222224B1A7008224FF040231A70032103F5007319701E4B1B78DBB21D490B701D4B1A8041F251228F
:4009C000023B1A8000240CE01A4B1B7803F0010343EA440404F003044FF4F07000F0ACFA013D0DB1032CEFD115B90320FFF78CFF114B4FF480721A8007221A7000220F49C3
:400A00000A704820023108701A700222033B1A700B4A137843F00703137038BD80400040824000400043004008010049A146004022420040254200400440004006400040CB
:400A4000A243004008B500F0F1FF08BD38B572B63A4A137843F00403137000240CE0384963001A1952000A4423445B00C8589188FFF77AFF0134E4B20A2CF0D9002410E0FF
:400A80002F49A3001A1952000A4452F8440F23445B000B445168B3F84C20FFF7D3FF0134E4B2052CECD94FF090402649FFF72EFF254A137843F0020313701032137843F0EB
:400AC00002031370214C237843F040032370A2F58632513A137843F0100313701C481D490822FFF7AFFF1C481C490A22FFF7AAFF1B481C490A22FFF7A5FF1B481B49082284
:400B0000FFF7A0FF1A481B490822FFF79BFF1A4A137843F008031370184D61232B70FFF729FF81232B700122154B1A70FFF708FF144821460E22FFF785FF38BDE846004035
:400B4000581A0000A400004803500140A04300400251004000140048C051004008140048105100401414004822510040201400483251004028140048224300400048004008
:400B800004000840B043004008B50C200C4900F0FBF90C20072100F00BFA0023094A13707221094A11702021013211700621A2F2651211704721103211705332137008BD4B
:400BC000910D00007C81FF1F8A65004010B500F0BBF904460C4A137843F0200313700132137843F0100313704FF48052074B1A60074A137843F01003137000F08DF92046B7
:400C000000F0A6F910BD00BF9A65004000E100E09964004008B5054B5B7823B9FFF7B4FF0122024B5A70FFF7D1FF08BD7C81FF1F4FF48052134B1A60134A9378DBB2D178EC
:400C4000C9B2127912F0FF0F01D18B4211D00F4AD05CC0B20133DBB2312B00D900230A4A9370137913F0FF0F06D00022064B1A7102E0074B1878C0B24FF48052054B1A60F1
:400C8000704700BF80E100E07C81FF1FA081FF1F4965004000E100E0074B187800F07F00064B5B7913F0FF0F04D040F080000022024B5A71704700BF6B6500407C81FF1F8E
:400CC00010B54FF48053074A1360074A147800211170064A13602402FFF7AAFF204380B210BD00BF80E100E07C81FF1F00E100E04FF48052134B1A60134A9378D278DBB2E4
:400D0000934206D1104B1B7913F0FF0F14D0322013E00D4A9378D278DBB2934205D20A4AD3789078181AC0B207E0074AD3789078181A3230C0B200E000204FF48052034BBA
:400D40001A60704780E100E07C81FF1F00E100E0034B1B7813F0040FFAD1024B187070476964004047640040084B5B7833B97047305DFFF7EDFF0134E4B203E070B50D4681
:400D800006460024AC42F3D370BD00BF7C81FF1F1C4B1B78DBB213F01E0F05D01A4803F01E0201780A43027003F0200303F0FF022BB3164B1978C9B2154B1B78DBB215489D
:400DC000C154154B1B7813F0FF0F02D00121134B19700F490B780133DBB20B700B78DBB2312B02D900210A4B1970094B1B780C490978DBB28B4202D10121074B1970002A91
:400E0000C6D170476B6500407C81FF1F496500407F81FF1FA081FF1F8081FF1F8181FF1F7E81FF1F7222074B1A702022013B1A700622A7331A70472210331A700022B03B4B
:400E40001A7070478464004008B500F07DF8094A137843F020031370013A137843F0100313700732137843F01003137000F070F808BD00BF9464004008B5054B1B7823B984
:400E8000FFF7D0FF0122024B1A70FFF7DDFF08BD8381FF1F014B1878704700BF43640040024B187800F07F00704700BF6364004010B5FFF7F5FF0402FFF7ECFF204380B28D
:400EC00010BD00BF024B1B780BB1024B187070478381FF1F4A640040034B1B7813F0040FFAD1024B187070476A6400404A640040084B1B7833B97047305DFFF7EDFF0134B7
:400F0000E4B203E070B50D4606460024AC42F3D370BD00BF8381FF1F054A137843F0040313701032137843F004031370704700BFA2430040000000000230800803D000BF86
:400F400001380046FCD17047EFF3108072B6704780F31088704700BF01BE704710B5044605E0084B1868FFF7E7FFA4F50044B4F5004FF6D8034B586800FB04F0FFF7DCFF12
:400F800010BD00BF0C81FF1F70B504460E46074B1D681F2802D90020FFF7DEFF04F01F04103455F8240045F8246070BD08ED00E038B504460D46072902D90020FFF7CCFF46
:400FC0001F2C02D90020FFF7C7FF04F01F0000F1604000F564406D01EDB2057038BD00BF014B1B681864704708ED00E04001C0B2014B1870704700BF00E400E00122014B75
:401000001A60704700E100E00122014B1A60704780E100E010B50446FFF7F6FF2046FFF7DFFF0720FFF7E2FFFFF7E8FF10BD00BF0122014B1A60704780E200E0044A137887
:4010400003F0FD03400000F0020018431070704720510040024B1878C0F34000704700BF21510040014B1B689865704708ED00E04001C0B2014B1870704700BF06E400E0F1
:401080004022014B1A60704700E100E04022014B1A60704780E100E010B50446FFF7F6FF2046FFF7DFFF0720FFF7E2FFFFF7E8FF10BD00BF4022014B1A60704780E200E0B4
:4010C0007222084B1A70202203331A700622A3F5AD731A70472210331A70002251331A70704700BF8465004008B5FFF72DFF094A137843F0200313700332137843F0100372
:401100001370F93A137843F010031370FFF720FF08BD00BF9465004008B5054B1B7823B9FFF7CEFF0122024B1A70FFF7DDFF08BD8581FF1F014B1878704700BF47650040A1
:40114000024B187800F07F00704700BF6765004010B5FFF7F5FF0402FFF7ECFF204380B210BD00BF024B1B780BB1024B187070478581FF1F4E640040034B1B7813F0040FB5
:40118000FAD1024B187070476E6400404E640040084B1B7833B97047305DFFF7EDFF0134E4B203E070B50D4606460024AC42F3D370BD00BF8581FF1F7222074B1A702022D0
:4011C00003331A70062299331A70472210331A700022AB3B1A7070478C64004008B5FFF7B3FE094A137843F0200313700332137843F010031370023A137843F010031370CE
:40120000FFF7A6FE08BD00BF9C64004008B5054B1B7823B9FFF7D0FF0122024B1A70FFF7DDFF08BD8781FF1F014B1878704700BF4F640040024B187800F07F00704700BF51
:401240006F64004010B5FFF7F5FF0402FFF7ECFF204380B210BD00BF024B1B780BB1024B187070478781FF1F4B640040034B1B7813F0040FFAD1024B187070476D64004008
:401280004B640040084B1B7833B97047305DFFF7EDFF0134E4B203E070B50D4606460024AC42F3D370BD00BF8781FF1F014B1B681866704708ED00E04001C0B2014B18708B
:4012C000704700BF08E400E04FF48072014B1A60704700BF00E100E04FF48072014B1A60704700BF80E100E010B50446FFF7F4FF2046FFF7DBFF0720FFF7DEFFFFF7E4FFC7
:4013000010BD00BF4FF48072014B1A60704700BF80E200E0014B1B689864704708ED00E04001C0B2014B1870704700BF02E400E00422014B1A60704700E100E00422014B7E
:401340001A60704780E100E010B50446FFF7F6FF2046FFF7DFFF0720FFF7E2FFFFF7E8FF10BD00BF0422014B1A60704780E200E07222074B1A70202203331A7006225F3B47
:401380001A70472210331A70002244331A7070478864004008B5FFF7D7FD094A137843F0200313700332137843F0100313700B3A137843F010031370FFF7CAFD08BD00BFC6
:4013C0009864004008B5054B1B7823B9FFF7D0FF0122024B1A70FFF7DDFF08BD8981FF1F014B1878704700BF4B650040024B187800F07F00704700BF6B64004010B5FFF7E9
:40140000F5FF0402FFF7ECFF204380B210BD00BF024B1B780BB1024B187070478981FF1F40640040034B1B7813F0040FFAD1024B187070476064004040640040084B1B7860
:4014400033B97047305DFFF7EDFF0134E4B203E070B50D4606460024AC42F3D370BD00BF8981FF1F014B1B681865704708ED00E04001C0B2014B1870704700BF04E400E05F
:401480001022014B1A60704700E100E01022014B1A60704780E100E010B50446FFF7F6FF2046FFF7DFFF0720FFF7E2FFFFF7E8FF10BD00BF1022014B1A60704780E200E040
:4014C000024A137843F080031370704775650040014B1880704700BF086A0040014B1880704700BF886A0040014B1880704700BF486A0040014B1880704700BF686A0040BB
:40150000014B1870704700BF85650040014B1878704700BF65650040014B188880B27047A86A004008B501E0FFF7F6FFFFF7EEFF10F0100FF8D108BD10B5174A137803F0F7
:40154000C00343F0090313701F32137843F001031370124C237843F00103237044F62060FFF7B6FF44F62060FFF7B8FF40F2DC50FFF7BAFF40F2DC50FFF7BCFF0420FFF78B
:40158000BFFFFFF7E1FC237843F010032370FFF7DFFCFFF7C7FF10BD756500409565004008B5054B1B7823B9FFF7C6FF0122024B1A70FFF785FF08BD8B81FF1F024A137807
:4015C00043F080031370704776650040014B1880704700BF10680040014B1880704700BF90680040014B1880704700BF50680040014B1880704700BF7068004008B5114A60
:40160000137803F0C00343F009031370DE3A137843F0010313700132137843F00103137044F62060FFF7D2FF44F62060FFF7D4FF40F2DC50FFF7D6FF40F2DC50FFF7D8FF7A
:4016400008BD00BF7665004008B5054B1B7823B9FFF7D4FF0122024B1A70FFF7AFFF08BD8C81FF1F024A137843F080031370704775640040014B1880704700BF086800400E
:40168000014B1880704700BF88680040014B1880704700BF48680040014B1880704700BF6868004008B5114A137803F0C00343F0090313701F32137843F001031370013208
:4016C000137843F00103137044F62060FFF7D2FF44F62060FFF7D4FF40F2DC50FFF7D6FF40F2DC50FFF7D8FF08BD00BF7564004008B5054B1B7823B9FFF7D4FF0122024BFB
:401700001A70FFF7AFFF08BD8D81FF1F014B1B685867704708ED00E04001C0B2014B1870704700BF0DE400E04FF40052014B1A60704700BF00E100E04FF40052014B1A60B5
:40174000704700BF80E100E010B50446FFF7F4FF2046FFF7DBFF0720FFF7DEFFFFF7E4FF10BD00BF4FF40052014B1A60704700BF80E200E0044A137803F0FB03800000F0D8
:40178000040018431070704730510040044A137803F0FD03400000F0020018431070704730510040044A137803F0F703C00000F0080018431070704730510040044A1378D7
:4017C00003F0EF03000100F0100018431070704730510040044A137803F0DF03400100F0200018431070704730510040044A137803F0BF03800100F040001843107070478D
:4018000030510040054A137843F0010313701032137843F001031370704700BFA2430040084A137843F0010313701032137843F00103137002F64D32137843F00103137057
:40184000704700BFA3430040014B1880704700BF044F0040014B1880704700BF064F0040014B1870704700BF034F004008B51A4A137843F0020313700232137803F08F0369
:4018800043F010031370154B1A7802F0CF021A701A7842F030021A701A7802F0F0021A701A7842F00F021A7044F62060FFF7CCFF40F2DC50FFF7CEFF0020FFF7D1FF084A6D
:4018C000137843F00103137002F65E32137843F00103137008BD00BF004F00400B4F0040A343004008B5054B1B7823B9FFF7BEFF0122024B1A70FFF793FF08BD8E81FF1F60
:40190000084A137843F0020313701032137843F00203137002F65932137843F001031370704700BFA3430040014B1880704700BF104F0040014B1880704700BF124F00402F
:40194000014B1870704700BF0F4F004008B51A4A137843F0020313700232137803F08F0343F010031370154B1A7802F0CF021A701A7842F030021A701A7802F0F0021A704C
:401980001A7842F00F021A7044F62060FFF7CCFF40F2DC50FFF7CEFF0020FFF7D1FF084A137843F00203137002F66A32137843F00103137008BD00BF0C4F0040174F004010
:4019C000A343004008B5054B1B7823B9FFF7BEFF0122024B1A70FFF793FF08BD8F81FF1F0E4B70B51E460E4C0025E41AA410A54204D056F8253098470135F8E700F06CF864
:401A0000084B094C1E46E41AA4100025A54204D056F8253098470135F8E770BDE41A0000E41A0000E41A0000EC1A000010B5431E0A44914204D011F8014B03F8014FF8E7AA
:401A400010BD03460244934202D003F8011BFAE77047000000000000004F00401800405100403000F05100401000000001400004800401400004000901408005000F01404E
:401A8000000180140140800700400140000A004C01400002005001402000000060520040F0110048060000510140F811004808000004014000120048800080080140801258
:401AC00000488000800E014000130048800000140140801300488000F8B500BFF8BC08BC9E4670474D00000095080000F8B500BFF8BC08BC9E46704729000000101B000088
:401B00000881FF1F18000000B800000000000000000000000000E02EC05D00001800000000366E010000000000000000000000000000000000000000000000000000000046
:401B40000000000000000000000000000000000000000000000000000000000000000000000000000000000000000000000000000000000000000000000000000000000065
:401B80000000000000000000000000000000000000000000000000000000000000000000000000000000000000000000000000000000000000000000000000000000000025
:401BC00000000000000000000000000000000000000000000000000000000000000000000000000000000000000000000000000000000000000000000000000000000000E5
:401C000000000000000000000000000000000000000000000000000000000000000000000000000000000000000000000000000000000000000000000000000000000000A4
:020000040003F7
:0200000480007A
:40000000024F0040085200400E6400400565004070000140410101406502014052030140280401404B05014071060140520701403108014056090140680A0140530B01400B
:400040006A0C0140580D01402B0E0140400F0140331401404E150140731601405A1701407718014055190140711A0140531B01400B400140164101401A4201400A43014028
:40008000044401400B4501400D46014006470140094801400F4901400D4C01400A4D0140085001400A4B164B0040081009100C601050119018011981800F810F8238833833
:4000C000847286728872890F8A0F8B388C728D0F8E0F8F388472850F87388A728B380203040C05530671070409030B440C090ED0101012401308190A1B541E2024DC26223C
:40010000281429202B452C102D532EAC2F0C301F313034E0350F374039023A203B203F404046410245E046C0470B481A49FF4AFF4BFF4EF04F44500C5401560458045904F3
:400140005A045B045C115D115F0166C06A406B02810383048607880389208A1C8B458E01943895D39607970C9B08A210A403A5D3A62CA704A98AAA38AB14B001B21EB330DC
:40018000B434B50FB7C0B988BA28BB20BE01BF40C001C540C9FFCA07CBFFCC40CD20CEF0CF05D008D401D604D804D904DA04DB04DC11DD11DF01E040E1A8E240E3200084A2
:4001C0000102061A08820E101009122015011718180419021E501F142080211022412408258026082718280129202A802E082F143221371838243E023F204004428045805D
:4002000049214A804D01501853205610571059055AA05E685F01604067407E107F2080408220874089108A80C0EDC229C477CA6CCC65CEA6D015D204D6FFD881E220E60156
:400240000110050C071109100B0C0E0112011509171018041B0322022514291C2B023201331F3404360239203E143F104063410245EE46B047C0482B49FF4AFF4BFF4EF013
:400280004F44500C54185604580459045A045B045C105D115F0166C06A406B02820289448A048B2A8D028F1595E799E79D809E04A001A921AA02AB4AB004B107B201B380BC
:4002C000B402B560B718BE15BF40C063C105C204C401C50CC70EC811C9FFCAFFCBFFCC62CDA0CEF0CF41D00CD418D604D804D904DA04DB04DC10DD11DF01E640E702E91001
:40030000EA30EB10ED10EE10EF120022048008800A010E800F08100812801680180419041B011D401E081F04205821502310262027202A202E102F203240331436083720C5
:40034000384039203D013E083F20409041404618481049104A024C044F2950085602572059025E026004610163026580678887408C028D0190089101921097019A189C02DD
:400380009D049E02A288A604AC80AD20AE12B201B404B502C08AC251C41ACA64CC6ECEECD06BD22CD681D8BDE220E642EE06830487068E038F02910196019E02B101B20248
:4003C000B401B502B704BF01C050C104C510C652C80EC9FFCAFFCBFFCDAFCE0FCF04D018D280D804D904DA04DB04DF01E040E2C0E440E540E6C0E8C0EAC0ECC0EEC00048C2
:400400000308054009280B820F2210811204131819161A011B081E142002212022052408274128012914308031283201340238203A043B803C803D064380464049404B4069
:400440004F42564057905A086A806B1470907108730876808210834084018A048C04904093109480968199409D929EA09F14A004A220A401A641AE02B320C087C2AFC40F2A
:40048000CA0ECC8FCEDED088D218D602E001E21AE610EA020041050806F3088209180CC310FF1104141C153C16E3174218F31A0C1B031D10200F22F02304240425672718F5
:4004C000280C293C2B412C082D7F301C322C331F340F352036C0374039803A283B083F104004450449FF4A074BFF4C404D204EF04F05500856025711580459045A045B04E0
:400500005C115D125F01604061A862406320841C8503862387148C218E0E9308944096039735982199739A169B0C9E1CA173A304A608A94AAB14B01AB160B40FB50FB660BF
:40054000B710B880B902BA22BB20BF41C023C105C5B0C60EC70CC816C9FFCAFFCBFFCEF0CF44D00CD804D904DA04DC22DD02DF01E6C0EA40EB0200040202044005120720C4
:4005800009240A010C110D081220151016411748180419211A031B011E421F142002212223042508265429212C952F1431203201330835023604376038083D103E28412006
:4005C000430845024A824C104E20500C5340550457085E20610162026D406E106F1476297708800887409480950498019B019C029D80A440A501A641AE20AF40B220B5106B
:40060000B701C0F5C277C4F4CAF5CCF7CE62D086D208D620E009EA20EE8002010531074609310A020B0E0D6C0F031602174C1A011B082B133201334A35303602370F3920D0
:400640003A023B883E443F104010410549FF4AFF4BFF4DA04F04501856025711580459045A045B045C125D105F01604062C06440654066C068C06AC06CC06EC00322040218
:40068000051008280A020F2810081280182019801A061B621C421F0420042101220424182548270128012A682B402C042F0830083280332235043620388039163C1A3D8067
:4006C0003F01400642084402460148184A024B204E025020520258415A185E245F0460806D546E0876067710821086408E8490809640972999049C8C9D809E019F01A0C4D3
:40070000A430A508A621A882AA10AB18B308B720C055C267C40ACA2FCC6FCE7FD018D218D62FD801E801EE80052809200A020D200E030F18114013061804213823042512A0
:400740002601272029012D182F223004313E32023301354036013E013F144062410545C0460B470E481649FF4AFF4BFF4EF04F44500C54015604580459045A045B045C1078
:400780005D115F0166C06A406B02811484538510860C870C890C8A088B118D208F03911C93029453950996049710980399109A44A00AA254A820AA45B230B320B40FB64017
:4007C000B71FB808BA22BE40BF04C026C103C5ECC7B0C823C9FFCAFFCBFFCEF0CF44D00CD418D604D804D904DA04DB04DC11DD11DF01E6C0EA40EB020020020104140820EA
:400800000D080F08102014041510170119011A121C9C1D6421022204230825402720284129082B083102350436203701384039083A103C043D803E203F02400845284620E7
:40084000488049804B204D114E104F0850405308570158025A485B105E0262026789844087408A018D018E029040910895019620986199089A109C809D40A440AC41B2481A
:40088000B304C063C262C454CA0FCCE1CEFED064D22CD68FD8B1E001E420E610EC2800FF040C0508080F09180AF00C080D7F111012F31482153C174218C31B041C411F03F4
:4008C000201C22E32404253C274128F329672A0C2B182D042F80301C3140320F331F342C358036C0372039023A283B083F404003474049FF4A074BFF4C404D204EF04F0579
:40090000500856025713580459045A045B045C115D115F01604061A8624063208080850186168C688E15906892139A029C569E09AA29B007B280B460B61BB701B820BA8226
:40094000BE14BF40C002C640C9FFCA07CBFFCC40CD20CEF0CF05D008D401D604D804D904DA04DB04DC01DD11DF01E040E1A8E240E3200040010B051006A0070108410920F9
:400980000A420D020E951008151016401708180419041A421D111E021F142002262C27422D902F14366437013B043C803EA8400447045008512052105501570A59465A2057
:4009C0005F0263406C146D4076287709874088808D01904091089215942895509642982099889B049D019F40A102A448A601A70AA880A902AB10AC01AE10AF08B040B18015
:400A0000B209B320B4A0B520B708C0FDC2FBC472CA70CCF0CE72D044D68FD801E230E860EC40060809010C530E0C105312041C0A1E542003224428202A45300F32303301CB
:400A4000344038083A023E103F044046410546EC470B481C49FF4AFF4BFF4EF04F44500C54015604580459045A045B045C015D115F0166C06A406B020040010804280A42EB
:400A80000B800E151088154016401702184019281D821E1422042501260827062E022F0A300432083501360237483A103D823E083F2040404582472048084B804D104E0233
:400AC0005080510452105602571058815A085B105E026340640465026640810189408B40C065C2E9C48ACAB0CCD0CEF4D0B1D23CD68FD8B1E220E42082038408853F893F66
:400B000091209502970599149B0A9C02A109A312AE0CB002B208B307B404B518B601B720C030C102C5D0C601C752C836C9FFCAFFCBFFCDAFCE0FCF04D018D280D407D604F3
:400B4000D804D904DA04DB04DC10DF01E040E2C0E440E540E6C0E8C0EAC0ECC0EEC00228038104040680080109080B040E0110A011401320160119991C041E61210922502A
:400B8000230426A8270129482B802F8030013108329036283702382839023E14401042084304460847044D015440550156895708580859185D015E605F0867806A146B0287
:400BC00070B4714073207640814887C09010968098019B089C089D819E409F01A440A501A628A788B102C03FC28EC48FCA8BCCEFCE67D066D6F4D880E204000A0251041FB6
:400C0000081409010A490C010D010E26128019011A80241F27022B023007328033013418350236603E443F10403241054204440145EC480349FF4AFF4BFF4C624DA04EF093
:400C40004F41500C5280580459045A045B045C115D015F016640670269106A306B106D106E106F128510870C89108D808E048F03910992029310960497409B209D149E01BD
:400C8000A208A320A602A91CAB02AD0CAF11B001B11FB208B360B404B580B602BE50BF14C024C105C201C403C50CC6E0C809C9FFCAFFCBFFCC62CDA0CEF0CF41D00CD41858
:400CC000D604D804D904DA04DB04DC20DD11DF01E640E702E910EA30EB10ED10EE10EF12018004400512071008020A800B220E400F08102012401704181419481B021C60E5
:400D00001D90210422102340272829202B812D0C2E802F0932A934013601371038203B443D403E10400A4104430144904580472048224A014C424F08531059015C805E4015
:400D40006004614062027680830286028E10902091409252930494C09504981199209B149D129F20A280A301A450A501A880AC06AE40B011B180B301C0F1C25DC42CCA6D3C
:400D8000CC2FCE3ED0FFD218D601D80DE004E810EA04EE22000F010802F00482053C0742081C09040AE30D7F10FF111014F3160C19181AF31CC31D3C1F4120042441270337
:400DC000280C29672B182C082F04302C320F331F341C352036C0374039803A0A3B083F104006450449FF4A074BFF4C404D204EF04F055008580459045A045C115D015F015E
:400E0000604061A8624063208240859F864089148B2A8D028E088F45918094B3959F960C982A9A849CB39E04A003A284A909AA95AB32B080B107B20FB318B430B560B640F4
:400E4000B780B820BA08BE51BF10C031C104C205C406C5ECC803C9FFCAFFCBFFCC62CDA0CEF0CF41D00CD804D904DA04DC21DD02DF01E640E702E910EA30EB10ED10EE10F5
:400E8000EF12000201080382042405010A120B240C180E010F80108012041401150116A2171019801A541D111E821F0420082140235024222504261029202C182F25330504
:400EC00034013640371039043B503C803D093E203F804042414844084604480549084B014C044E2057086110621082018A408B10904C9150920293049402964097209A827F
:400F00009B109C289D109E21A0C0A204A302A6B1A71CA810AD01B040C07DC2F7C4FACA74CCB3CEFED00BD22CE040E890008204410518080F093C0AF00B420CFF0D7F12F3EA
:400F40001304141C156716E3171818F3193C1A0C1B411D10200824042508280C29042B802CC32F0330C03180322C331F340F3540361C372039203A283B083F404002460412
:400F800049FF4A074BFF4C404D204EF04F05500856025710580459045A045B045C225D215F01604061A86240632083018404860A9402961597019827A401A64AA827AC20A8
:400FC000B040B207B420B501B618BE40BF10C062C105C203C401C50EC6C0C809C9FFCAFFCBFFCC62CDA0CEF0CF41D00CD418D604D804D904DA04DB04DC01DD21DF01E640CA
:40100000E702E910EA30EB10ED10EE10EF12004802400308040408020A080B100E1810901364155819021A281B881C201DA01E101F21224123182610281229203080310898
:401040003215370838483B103F01420445A046104C084F88528457105A805D026581670869046B05708473248101881489208A118B0490449158920493419504960197021F
:40108000980299809A509D209E049F05A008A204A340A508A680A7B4B020B104B220C02FC26EC4EFCA0ECC4FCE8ED074D230D688D8B0EA8032803301340235203B808380F4
:4010C00086408802CCF0CE10E660338435823B405C028480874089208D80978099029D209F01A240A380A680A902CCF0CE10D680E210E640EE20064030803101364849010D
:401100004A80510457105B025F02831087408C028F0497809C029F05A080A240A680C020CCF0D460D6C0E210E68018101F029D019F01A608AE40B104B302C630E810150120
:401140007108C404DC0150046202630166806720A508B101D404D603D803EE0182028A808B108E019208940897219E80A508A602AE04E004E406920894089A01AB01B5081B
:40118000EC0887019D019F01A202A302A608B202B410E2401440570262028101844086089D01A202A302A608C420D620D840E230E41008400C045A0866018D4092089A014F
:4011C000B404C206D602D801E002E80810107D4088109140B044C408DE04E204EA01EE01000708030A070C070E0210071A071C06848500006A000000FFFFFF0F0000000025
:4012000000000000820000030F08F000C3040080410000040C1800001C3CE342F3100C0008000000043C00410067F318FF7F0000C0802C200F1F1C4000802820000000048B
:40124000500100000000000000FFFFFF00A00004180000000000021204040404111000014000C0004040C000C000C000C000C00000000000000000000000000000000000DE
:4012800000000003166029000060000000141600000900104010090C001C800228101300000C0211004000202820154000800000601F80801B6007000200A0000000000458
:4012C000100500000005102029FFFFFF00AF0F04180000000100040004040404112000014000C0004040C000C000C000C000C000000000000000000000000000000000001D
:40130000004C00039F00000C9F000080006100060000008014612A0E020045000900321000000010000000000000002380000008800F1810076060800020000200004054FF
:40134000640205000100C0E028FFFFFF62A0F0410C0000001800040004040404111100010000000000004002001030100010101200000000000000000000000000000000EA
:401380004100000482180000C30800000000C300FF7F00001C5CE3221F1CE0610000006308040080046700180C000000F3100C00C0800F1F103820588000082800001000CE
:4013C000300200000000000000FFFFFF00A00004180000000000021104040404111000014000C0004040C000C000C000C000C000000000000000000000000000000000007D
:40140000004040004000000095006A95950095000000000090006090900090000000000000FAFA00F800000000FFFF00810000000000000000000000000000000000000023
:40144000000000000000000000000000000000000000000000000000000000000000000000000000000000000000000000000000000000000000000000000000000000006C
:40148000000000000000000000000000000000000000000000000000000000000000000000000000000000000000000000000000000000000000000000000000000000002C
:4014C00000000000000000000000000000000000000000000000000000000000000000000000000000000000000000000000000000000000000000000000000000000000EC
:4015000000000000000000000000000000000000000000000000000000000000000000000000000000000000000000000000000000000000000000000000000000000000AB
:0200000490006A
:0400000000004005B7
:0200000490105A
:04000000BC90ACAF55
:0200000490303A
:02000000913835
:0200000490402A
:4000000000000000000000000000000000000000000000000000000000000000000000000000000000000000000000000000000000000000000000000000000000000000C0
:400040000000000000000000000000000000000000000000000000000000000000000000000000000000000000000000000000000000000000000000000000000000000080
:400080000000000000000000000000000000000000000000000000000000000000000000000000000000000000000000000000000000000000000000000000000000000040
:4000C0000000000000000000000000000000000000000000000000000000000000000000000000000000000000000000000000000000000000000000000000000000000000
:0200000490501A
:0C00000000012E16106900012E26A1A19F
:00000001FF