:400000000080002011000000950300009503000008B5044B1A6803F53F5302331A6000F0BBF900BFFA46004010B5054C237833B9044B13B10448AFF300800123237010BD93
:400040002081FF1F0000000068100000084B10B51BB108480849AFF300800848036803B910BD074B002BFBD0BDE81040184700BF00000000681000002481FF1F0881FF1F21
:400080000000000008B54FF4FA6000F07DFF00F0CDFCB0FA80F0400900F0BCFC4FF47A6000F048FC40F2DC5000F06EFF00F0BEFCB0FA80F0400900F0ADFC4FF47A6000F0F7
:4000C00039FC4FF47A7000F05FFF00F0AFFCB0FA80F0400900F09EFC4FF47A6000F02AFC40F2DC5000F050FF00F0A0FCB0FA80F0400900F08FFC4FF47A6000F01BFCC2E7C1
:4001000008B541F2883000F015FC00241F4B1C6001251F4B1D7062B6204600F07BFC00F00BFD00F0FBFC1B4800F034FD00F018FB194800F05BFC00F0F7FD184800F042FE88
:40014000204600F00FF900F0A3FB154800F052FD284600F007F900F08DFD124800F062FE022000F0FFF800F09DFE0F4800F0E4FE032000F0F7F800F0DFFC00F02DFF40F29D
:40018000DC5000F001FFFFF77DFF00BF5481FF1F7D81FF1F49030000AD010000C90100002902000089020000E902000008B500F0E5FA00F029FC034A136843F0010313606B
:4001C00008BD00BF5481FF1F08B500F0C1FD00F007FE124B1B7813B1012B09D01AE000F0BFFDC0B20E4B188001220C4B1A7008BD00F0B6FD0A4A13889BB243EA002080B23F
:4002000010800022054B1A70064A136843F48063136008BD0022014B1A7008BD3C81FF1F8481FF1F5481FF1F08B500F045FB00F0EFFC124B5B7813B1012B09D01AE000F0BC
:4002400043FBC0B20E4B188001220C4B5A7008BD00F03AFB0A4A13889BB243EA002080B210800022054B5A70064A136843F40063136008BD0022014B5A7008BD3C81FF1FB3
:400280008281FF1F5481FF1F08B500F007FD00F0D7FD124B9B7813B1012B09D01AE000F005FDC0B20E4B188001220C4B9A7008BD00F0FCFC0A4A13889BB243EA002080B241
:4002C00010800022054B9A70064A136843F48053136008BD0022014B9A7008BD3C81FF1F8681FF1F5481FF1F08B500F0EFFD00F031FE124BDB7813B1012B09D01AE000F09A
:40030000EDFDC0B20E4B188001220C4BDA7008BD00F0E4FD0A4A13889BB243EA002080B210800022054BDA70064A136843F40053136008BD0022014BDA7008BD3C81FF1F2A
:400340008081FF1F5481FF1F08B500F091FB00F02FFC034A136843F00203136008BD00BF5481FF1F08B5032812D8DFE800F002060A0EFF2000F0FEFC08BDFF2000F0AEFAFF
:4003800008BDFF2000F09CFC08BDFF2000F0B0FD08BD00BFFEE700BF08B5104E104D16E029686B68AC68002204E051F8040B43F8040B0432A242F8D1E868002203E0002141
:4003C00043F8041B04328242F9D11035013E002EE6D100F00FFEFFF793FEFEE701000000FC10000008B5124A124B1A60124A136843F40073136000230AE0032B03D80F4AAD
:4004000052F8231000E00E490E4A42F8231001332F2BF2D90C4B1A780C4B1A70094A0C4B1A6000F0C1F800220A4B1A6008BD00BF0004FA050CED00E014ED00E00000000021
:40044000950300000080FF1FBC7600400481FF1F08ED00E00081FF1FFEE700BFF0B40022174611E050F82760F3B226F0FF0608E001EB420511F812406D78A5550132013BB2
:40048000DBB2002BF4D10137272FEBD9F0BC7047064B1B78DBB203F00701054A11701B09013213704422034B1A707047CF0100496E5800407658004008B50A46002100F0B4
:4004C000CAFD08BD38B517222B4B1A8018232B4A1370192502321580023213704FF49C71023211800232137045F6BF5102321180023213700222224B1A7008224FF04023CF
:400500001A70032103F5007319701E4B1B78DBB21D490B701D4B1A8041F25122023B1A8000240CE01A4B1B7803F0010343EA440404F003044FF4F07000F0EAF9013D0DB14F
:40054000032CEFD115B90320FFF786FF114B4FF480721A8007221A7000220F490A704820023108701A700222033B1A700B4A137843F00F03137038BD804000408240004026
:400580000043004008010049A146004022420040254200400440004006400040A243004008B500F04DFD08BD38B572B6384A137843F00403137000240CE0364963001A1905
:4005C00052000A4423445B00C8589188FFF774FF0134E4B20A2CF0D9002410E02D49A3001A1952000A4452F8440F23445B000B445168B3F84C20FFF7D3FF0134E4B2032CED
:40060000ECD94FF090402449FFF728FF234A137843F0020313701032137843F0020313701F4C237843F040032370A2F58632513A137843F0100313701A481B490822FFF7FE
:40064000AFFF1A481A490A22FFF7AAFF19481A490A22FFF7A5FF194819490822FFF7A0FF184A137843F008031370174D61232B70FFF728FF81232B700122144B1A70FFF7A1
:4006800007FF134821460E22FFF78AFF38BD00BFE84600406C100000A000004803500140A043004002510040EC0F0048C0510040F40F004810510040001000482251004068
:4006C0000C100048224300400048004004000840B043004008B50A200C4900F041F90A20072100F051F90023094A13707221094A11702021063A11700621A2F257121170F1
:400700004721103211705132137008BDA50700006C81FF1F8A65004010B500F001F904460C4A137843F020031370063A137843F0100313704FF48062074B1A60074A1378C9
:4007400043F01003137000F0D3F8204600F0ECF810BD00BF9A65004000E100E09E64004008B5054B5B7823B9FFF7B4FF0122024B5A70FFF7D1FF08BD6C81FF1F074B1878D6
:4007800000F07F00064B5B7913F0FF0F04D040F080000022024B5A71704700BF646500406C81FF1F1C4B1B78DBB213F01E0F05D01A4803F01E0201780A43027003F02003FD
:4007C00003F0FF022BB3164B1978C9B2154B1B78DBB21548C154154B1B7813F0FF0F02D00121134B19700F490B780133DBB20B700B78DBB2132B02D900210A4B1970094B56
:400800001B780C490978DBB28B4202D10121074B1970002AC6D17047646500406C81FF1F496500406F81FF1F8C81FF1F7081FF1F7181FF1F6E81FF1F7222084B1A70202293
:4008400003F201131A700622A3F5AE731A70472210331A7000224F331A7070478664004008B500F05DF8094A137843F02003137002F20112137843F010031370FD3A13785F
:4008800043F01003137000F04FF808BD9664004008B5054B1B7823B9FFF7CEFF0122024B1A70FFF7DDFF08BD7381FF1F014B1878704700BF46640040024B187800F07F00CF
:4008C000704700BF6765004010B5FFF7F5FF0402FFF7ECFF204380B210BD00BF024B1B780BB1024B187070477381FF1F4A640040054A137843F0040313701032137843F000
:4009000004031370704700BFA2430040000000000230800803D000BF01380046FCD17047EFF3108072B6704780F31088704700BF01BE704710B5044605E0084B1868FFF73E
:40094000E7FFA4F50044B4F5004FF6D8034B586800FB04F0FFF7DCFF10BD00BF0C81FF1F70B504460E46074B1D681F2802D90020FFF7DEFF04F01F04103455F8240045F831
:40098000246070BD08ED00E038B504460D46072902D90020FFF7CCFF1F2C02D90020FFF7C7FF04F01F0000F1604000F564406D01EDB2057038BD00BF014B1B6818647047C4
:4009C00008ED00E04001C0B2014B1870704700BF00E400E00122014B1A60704700E100E00122014B1A60704780E100E010B50446FFF7F6FF2046FFF7DFFF0720FFF7E2FFED
:400A0000FFF7E8FF10BD00BF0122014B1A60704780E200E0044A137803F0FD03400000F0020018431070704720510040024B1878C0F34000704700BF21510040084A137855
:400A400043F0010313701032137843F00103137002F64D32137843F001031370704700BFA3430040014B1870704700BF034F0040014B1878704700BF034F004010B504460E
:400A8000094B1B7813F0010F02D00020FFF750FF054B1A7842F001021A70044A14801A7802F0FE021A7010BDA3430040064F0040014B1880704700BF044F004008B5154AE3
:400AC000137803F0010313700232137803F0FC031370013A137843F0010313700E4B1A7802F0CF021A701A7842F030021A701A7802F0F0021A701A7842F00F021A706420A2
:400B0000FFF7D6FF6420FFF7B9FF0820FFF7AAFF08BD00BF004F00400B4F004008B5054B1B7823B9FFF7CAFF0122024B1A70FFF785FF08BD7581FF1F054A137843F00103AB
:400B400013701032137843F001031370704700BFA2430040024B1B68C3F88400704700BF08ED00E04001C0B2014B1870704700BF11E400E04FF40032014B1A60704700BFF3
:400B800000E100E04FF40032014B1A60704700BF80E100E010B50446FFF7F4FF2046FFF7D9FF0720FFF7DEFFFFF7E4FF10BD00BF4FF40032014B1A60704700BF80E200E004
:400BC000014B1B689865704708ED00E04001C0B2014B1870704700BF06E400E04022014B1A60704700E100E04022014B1A60704780E100E010B50446FFF7F6FF2046FFF7C0
:400C0000DFFF0720FFF7E2FFFFF7E8FF10BD00BF4022014B1A60704780E200E07222084B1A70202201331A700622A3F5B2731A70472210331A70002250331A70704700BF93
:400C40008565004008B5FFF76BFE094A137843F0200313700132137843F010031370A2F58272137843F010031370FFF75DFE08BD9565004008B5054B1B7823B9FFF7CEFF82
:400C80000122024B1A70FFF7DDFF08BD7681FF1F014B1878704700BF46650040024B187800F07F00704700BF6665004010B5FFF7F5FF0402FFF7ECFF204380B210BD00BFCD
:400CC000024B1B780BB1024B187070477681FF1F476400407222074B1A702022013B1A700622543B1A70472210331A7000224D331A7070478464004008B5FFF711FE094ABD
:400D0000137843F020031370013A137843F0100313700932137843F010031370FFF704FE08BD00BF9464004008B5054B1B7823B9FFF7D0FF0122024B1A70FFF7DDFF08BDAB
:400D40007881FF1F014B1878704700BF43640040024B187800F07F00704700BF6364004010B5FFF7F5FF0402FFF7ECFF204380B210BD00BF024B1B780BB1024B187070477B
:400D80007881FF1F4C640040014B1B681866704708ED00E04001C0B2014B1870704700BF08E400E04FF48072014B1A60704700BF00E100E04FF48072014B1A60704700BFE7
:400DC00080E100E010B50446FFF7F4FF2046FFF7DBFF0720FFF7DEFFFFF7E4FF10BD00BF4FF48072014B1A60704700BF80E200E0014B1B689864704708ED00E04001C0B268
:400E0000014B1870704700BF02E400E00422014B1A60704700E100E00422014B1A60704780E100E010B50446FFF7F6FF2046FFF7DFFF0720FFF7E2FFFFF7E8FF10BD00BFBF
:400E40000422014B1A60704780E200E07222084B1A702022A3F580731A700622A2331A70472210331A700022B13B1A70704700BF8865004008B5FFF753FD094A137843F0B9
:400E800020031370A2F58072137843F0100313700132137843F010031370FFF745FD08BD9865004008B5054B1B7823B9FFF7CEFF0122024B1A70FFF7DDFF08BD7A81FF1F05
:400EC000014B1878704700BF48650040024B187800F07F00704700BF6864004010B5FFF7F5FF0402FFF7ECFF204380B210BD00BF024B1B780BB1024B187070477A81FF1FED
:400F000049640040014B1B681865704708ED00E04001C0B2014B1870704700BF04E400E01022014B1A60704700E100E01022014B1A60704780E100E010B50446FFF7F6FFCD
:400F40002046FFF7DFFF0720FFF7E2FFFFF7E8FF10BD00BF1022014B1A60704780E200E0024A137843F080031370704777640040014B1880704700BF08680040014B18800F
:400F8000704700BF88680040014B1880704700BF4868004008B50F4A137803F0C00343F0090313701D32137843F0010313700132137843F00103137044F62060FFF7D8FF95
:400FC00044F62060FFF7DAFF40F2DC50FFF7DCFF08BD00BF7764004008B5054B1B7823B9FFF7D8FF0122024B1A70FFF7B9FF08BD7C81FF1F0E4B70B51E460E4C0025E41A6A
:40100000A410A54204D056F8253098470135F8E700F062F8084B094C1E46E41AA4100025A54204D056F8253098470135F8E770BDE4100000E4100000E4100000EC10000026
:4010400010B5431E0A44914204D011F8014B03F8014FF8E710BD03460244934202D003F8011BFAE77047000000000000004F00400C00305100404000F051004010000000F7
:401080000140000480040140800180060140800900140140000480180140800300400140000A004C01400002005001402000000060520040640E00480600000401406C0E64
:4010C0000048800000060140EC0E00488000001801406C0F00488000F8B500BFF8BC08BC9E4670474D000000E5030000F8B500BFF8BC08BC9E467047290000001011000006
:401100000881FF1F180000008000000000000000000000000000E02EC05D00001800000000366E010000000000000000000000000000000000000000000000000000000088
:40114000000000000000000000000000000000000000000000000000000000000000000000000000000000000000000000000000000000000000000000000000000000006F
:40118000000000000000000000000000000000000000000000000000000000000000000000000000000000000000000000000000000000000000000000000000000000002F
:4011C00000000000000000000000000000000000000000000000000000000000000000000000000000000000000000000000000000000000000000000000000000000000EF
:4012000000000000000000000000000000000000000000000000000000000000000000000000000000000000000000000000000000000000000000000000000000000000AE
:020000040003F7
:0200000480007A
:40000000024F0040025200400964004006650040010101406402014042030140240401404A0501401706014050070140560801404D090140680A01404E0B0140690C0140AB
:400040004B0D0140650E0140370F01403F14014044150140541601404F1701402A1801404A1901405A1A01404A1B014009400140104101400F4201400C43014006440140E1
:4000800006450140014701400A4801400A490140054C0140064D0140085001400351014001300A2700400C20820F8338847286728838890F8A0F8C0F8E0F8438857286380E
:4000C000873888728A72E6010B030C1C0E0314011507160E1B011D041E081F0120202401261629072A032E1C3101321A33063420360F39083A883E103F054002454049FF09
:400100004A074BFF4C404D204EF04F05500854015604580459045A045B045C015D115F01604061A8624063208101830A85028601871589048B0A8D20952799279A019E02E4
:40014000A602B002B118B307B401B520BE11BF01C062C103C204C405C50CC70EC811C9FFCAFFCBFFCC62CDA0CEF0CF41D00CD418D604D804D904DA04DB04DC10DD11DF01FF
:40018000E640E702E910EA30EB10ED10EE10EF120220054008800A010B080C800E101020140215121620170218041B011D441E1420102114220227A02E202F083314354453
:4001C0003618382139483A103D103F20408041184720482049204A024CC05304571059015E245F826004610263026602850286028D0490219280A810AA40B401C084C2A3C6
:40020000C4F4CA20CC76CE2FD027D20CD6F1D88DEA04EE018E019701A701AC02B101B201B402BB08BE10BF01C060C104C610C720C828C9FFCAFFCBFFCDAFCE0FCF04D01815
:40024000D804D904DA04DC11DF01E040E2C0E440E540E6C0E8C0EAC0ECC0EEC00091021005800A240B401080118012041328160119211A251E101F102140222425082605BE
:4002800029202A0A2F2031083250340235043601380139A03A043B404501480149104B104F105401550157105A08681469406B147080720A732888149011912092809542AE
:4002C00096019A109D219F14A208A508A630A708AC02B140B440B710C08FC20EC48FCA47CC4ECE0FD080D22CD602E202EA08EE02AE01B401C032C106C50CC6B0C7E0C829B4
:40030000C9FFCAFFCBFFCEF0CF44D00CD280D804DA04DB04DD01DF01E6C0EA40EB020488052007400D140E020F801002172619101C801D021E011F142411251026202DA095
:400340002F143623370439203B303C083D803E123F8042084308450A471048104A184C014D014E024F105020510156405C106D106E046F0170027404760277268040811020
:40038000820888209108921093809502980299809D14A148A20CA310A610A728AA01AC40AD94AF50B148C0F0C2F0C471CA70CCE0CEF0D0E6D234D620E204E601EA04000675
:4003C0000208040606180E0111021A101C141E082101220128062A082E0A32013301341E35023A203B803E053F1454185604580459045B045C215D105F0181B383048470DA
:40040000860989038B848C028F95904191B39230930C94249640992A9B849D409E0CA440A850AB08AC31AE44B10FB340B403B530B67CB780B820B920BB02BF54C041C10515
:40044000C6CEC70BC81CC9FFCAFFCBFFCEF0CF44D00CD401D604D804D904DA04DB04DC11DD11DF01E6C0EA40EB0201400220042405600640080409020A010C400E0410883F
:400480001210134215011608174019101A011C841F14200821022244250826802704280429102E01308031023220360238A039C2408041424B40509859205A885B025C02D4
:4004C0006101678A8101834085088B01912292049340948498409A089B409C809D109E109F05A222A302A901B110C0B5C2CDC4D7CA84CC8DCE0DD009D208D68FD8B1E0022F
:40050000E420EC200108031308070A180B020F091007120814061520160919161B09210822102315241426092A0B2B16300131073320341E351B3A203B223E013F0440639A
:400540004105450B47EC483149FF4AFF4BFF4EF04F44500C54015604580459045A045B045C115D115F0166C06A406B02820384148780881089088AAC8B318C098ED093C00F
:4005800095C29620973499179B609C0C9E71A117A3E0A4DCA622A810AA40B01FB303B5F0B6E0B70CB988BA80BB20BF04C002C704C9FFCA07CBFFCC40CD20CEF0CF05D008ED
:4005C000D804D904DA04DC11DD01DF01E040E1A8E240E32001200525070209080A100B800D800F201120130A1604170819201A401D811F40210122242340272A2880291011
:400600002F40300832203520370A388039023A103D083F204220472049244B804E03510852025514562457105A525B046102850289048A40920494049504960898409A08D6
:400640009B409E409F01A008A302AF50B042B220B610B740C0F2C2ACC46ECA85CCE6CE6DD022D20CD60FD801E020E480E890EC10018A020303140430060C0755080909D32A
:400680000A100B040C14141019201C1C1DD31E221F0C2708282C29032A112B142C40301F311033C034603520370F382039083B803F1540134102450E47BC483149FF4AFF1C
:4006C0004BFF4EF04F44500C54015604580459045A045B045C115D115F0166C06A406B028523860C87548B25900C915A9213932499239B4C9C119E06A308A420A603A75833
:40070000A811AA0EAE08B00FB16CB303B430B51CB820B908BA02BB22BF04C003C540C9FFCA07CBFFCC40CD20CEF0CF05D008D804D904DA04DC21DD02DF01E040E1A8E240AA
:40074000E320032004040511070109400A400C400E1011281201160817401A401B211D111E041F1221242211244025402680272A29062D202F283120320136A038283B1048
:400780003D283F0A4104455449024B024E205010560257085C425D205F0867808E0890089504962A971299049A019E429F22A008A110A304A721AB1AB008B201B301B4407E
:4007C000B661C0F4C2A9C4C7CA63CC35CEE6D072D6F0D880E010EE10011004530510060C070C0A080B030D141453152016041880190C1B111C0A1D1C1E541F02240325093F
:400800002644271028202A4530403230331F340F3680372038083A203E413F404026410346CB470E481C49FF4AFF4BFF4EF04F44500C54015604580459045A045B045C2235
:400840005D225F0166C06A406B02800381DC83228720890C8B718C018E06911093AC9703A114A403A509A7D0A802A910AA01AB40B003B204B31FB5E0BB20C002C740C9FF4E
:40088000CA07CBFFCC40CD20CEF0CF05D008D804D904DA04DC11DD01DF01E040E1A8E240E3200004020404800640082009880A221030131015041710180C19041A411F0A09
:4008C000201022402510260C29042A042E222F203180321836043702381439803B023D203F0A4004410847204B104F0850285140560158105A485B0160B08080C096C20714
:40090000C466CAE2CCCECEEFD026D204D60FD8010D021301150219021F01310235013F105418560459045B045C105D205F0180418304840C850888FF8CC38D10900F913CC4
:4009400092F093419482957F9AF39B039C1C9D3C9EE39F42A008A180A404A567A718A8F3A918AA0CAD04B02CB11FB21CB380B40FB520B6C0B740B980BA22BB02BF14D602AB
:40098000D711D804D904DB04DC11DD10DF01044006A007040C500D040E401504160817091D051E421F1022012304265827402EA92F1030283282345035013604374439400C
:4009C0003C803D043F0158025E20614063846C286D40744076207709834084808681871088108A018C028D028E0A904091089301960299409C809D069E80A284A428A641EE
:400A0000B010C0F0C2F0C470CAF0CCFFCED8D621D80DE208E64001140201032A0604099F0A0211801204160219021B45210922012332259F311832043360340135073602EB
:400A400037803E143F044045410342064402450E46C0480949FF4AFF4BFF4C624DA04EF04F41500C54185604580459045A045B045C105D115F016640670269106A306B1076
:400A80006D106E106F128202851287298D088E018F54951F991FA201A602AD05AFAAB001B11CB303B560B602B780BE41BF10D418D604D804D904DB04DC10DD10DF01008089
:400AC0000102040105180E800F2010101240150119401B011C061F04204021242301240A2501262027502A802E042F40302836203701384039083D12448045284D084E05E6
:400B0000572059045A095E02600463426402660167088280874088019001911192059380940A980299109A409B019D049E019F50A040A108A204A310A720AF08B010B6014D
:400B4000C079C230C41CCAC8CCA6CEAAD0E0D230D681D8BDE280E604EA0AEE4288148A2A8C098E32949F98029A45A49FAC80B060B218B407B680BE01C061C105C203C40422
:400B8000C60EC7C0C824C9FFCAFFCBFFCC62CDA0CEF0CF41D00CD804DA04DC02DD02DF01E640E702E910EA30EB10ED10EE10EF1200800308040A0504060207040A180C20DB
:400BC0000D940F4011441440162818401A091B481D451E2825CA26202D80362037013D903E04406042014440450A471049104B804C044D014E024F045101538058025901CE
:400C00005E086D106E046F01762A7E807F40838088208A228B4091209480950197029C029D409E10A004A280A302AC40AF50B240C0F3C2F6C475CA10CCA0CE70D0EBD23C1A
:400C4000D640EC8000FF0110041C051806E3088209080C410F0410F3120C140F153C16F0174118C3193C1B421D7F1EF3200823032404280C29672B182D042F8030C0318096
:400C8000322C3340340F351F361C372039083A283B203F404006464049FF4A074BFF4C404D204EF04F05500856025713580459045A045B045C225D215F01604061A8624035
:400CC00063208110850886018918911C9361955C972299679A019B189F04A363A57FAD04AF80B001B180B358B51FB738BBA0BE01D804D904DC10DF01008002A00308071052
:400D00000A690F0410081309180419141AA01B801F01222023622402275529102A802B402C602D80310432A03610374538283B413E2A4804504052105B0269446A10701CF0
:400D4000730980048240870288408A808C208E408FA0920993049482954496109702984099809A2A9C209D109E109F14A024A290A34AA440B185C02FC24FC40ECADDCCFE8E
:400D8000CEEFD204D601E250E610EA2031013310340835203B808120CCF0CE10E6803080330136423A205D028408860297809C089D019F10CCF0CE10D680E240E6100240BA
:400DC00033105220870197809D039F11A480A640AE20C010CC10D420E240EA106840808097809D039F10A480A640AE60DC20E220E810EE40102075047B02C408DC01DE04C0
:400E0000B302B420B504E808EC01EE088701864089029D029F10A640AC40AF40B501E640EA5013047402831087048C029F10C410DE20E040E2200C045B019B01C204D6021D
:400E400010208820B004C408E604EE01000708020A030C060E0610071A071C0600FF01FF023F000022080000550000004104000082180000C3000003003CF3421C00E300CF
:400E80000F7FF000F33C0C410000000408100000040800000C670018FF000000C0002C200F401C1F0020288000000004600500000000000000FFFFFF00A000041800000006
:400EC0000000021204040404111000014000C0004040C000C000C000C000C0000000000000000000000000000000000082100000C31800000F00F0041C7FE300FF0000037C
:400F000041080000F33C0C420000F30008000000046700180C3C0041000400001C002C200F1FC04000802820000000046503040002E00C0006FFFFFF62A0F0410C000000E2
:400F400000000211040404041111000100000000000040020010301000101012000000000000000000000000000000002F00D000F3E70C002CE7D3000801000E8280000083
:400F800041000000FF440031C30000000000C3000C0000000400000000220051C0800F182060100780000800000010046405020003EC000003FFFFFF62A0F0410C00000040
:400FC00000000212040404041111000100000000000040020010301000101012000000000000000000000000000000000040400040000000AA0055AAAA00AA000000000029
:40100000100020101000100000000000000202000000000000000000000000000000000000000000000000000000000000000000000000000000000000000000000000004C
:401040000000000000000000000000000000000000000000000000000000000000000000000000000000000000000000000000000000000000000000000000000000000070
:401080000000000000000000000000000000000000000000000000000000000000000000000000000000000000000000000000000000000000000000000000000000000030
:4010C00000000000000000000000000000000000000000000000000000000000000000000000000000000000000000000000000000000000000000000000000000000000F0
:4011000000000000000000000000000000000000000000000000000000000000000000000000000000000000000000000000000000000000000000000000000000000000AF
:0200000490006A
:0400000000004005B7
:0200000490105A
:04000000BC90ACAF55
:0200000490303A
:02000000348D3D
:0200000490402A
:4000000000000000000000000000000000000000000000000000000000000000000000000000000000000000000000000000000000000000000000000000000000000000C0
:400040000000000000000000000000000000000000000000000000000000000000000000000000000000000000000000000000000000000000000000000000000000000080
:400080000000000000000000000000000000000000000000000000000000000000000000000000000000000000000000000000000000000000000000000000000000000040
:4000C0000000000000000000000000000000000000000000000000000000000000000000000000000000000000000000000000000000000000000000000000000000000000
:0200000490501A
:0C00000000012E16106900012E2144F6AC
:00000001FF