:400000000080002011000000F5030000F503000008B5044B1A6803F53F5302331A6000F0EBF900BFFA46004010B5054C237833B9044B13B10448AFF300800123237010BDA3
:400040002081FF1F0000000014120000084B10B51BB108480849AFF300800848036803B910BD074B002BFBD0BDE81040184700BF00000000141200002481FF1F0881FF1FC5
:400080000000000008B54FF4FA6000F0EBFE00F0FDFCB0FA80F0400900F0ECFC4FF47A6000F078FC40F2DC5000F0DCFE00F0EEFCB0FA80F0400900F0DDFC4FF47A6000F02D
:4000C00069FC4FF47A7000F0CDFE00F0DFFCB0FA80F0400900F0CEFC4FF47A6000F05AFC40F2DC5000F0BEFE00F0D0FCB0FA80F0400900F0BFFC4FF47A6000F04BFCC2E797
:4001000008B541F2883000F045FC0024324B1C600125324B1D70204600F0F8FF204600F0E9FF204600F0FEFF204601F007F8204601F010F8204601F019F8204600F09AFCB2
:4001400062B600F03FFB264800F080FC01F01AF800F03AFF40F2DC5000F004FF40F2DC5000F006FF00F084FF40F2DC5000F04EFF40F2DC5000F050FF00F044FD194800F066
:400180008FFD204600F01EF900F0B2FB164800F09FFC284600F016F900F0DAFC134800F0AFFD022000F00EF900F0EAFD104800F031FE032000F006F900F0B2FE40F2DC501F
:4001C00000F050FE40F2DC5000F052FE094800F07BFFFFF757FF00BF6081FF1F8681FF1FF90100001502000075020000D5020000350300009503000008B500F0F1FA00F082
:4002000033FC034A136843F00103136008BD00BF6081FF1F08B500F009FD00F04FFD124B1B7813B1012B09D01AE000F007FDC0B20E4B188001220C4B1A7008BD00F0FEFCEE
:400240000A4A13889BB243EA002080B210800022054B1A70064A136843F48063136008BD0022014B1A7008BD3C81FF1F8E81FF1F6081FF1F08B500F04FFB00F037FC124BDF
:400280005B7813B1012B09D01AE000F04DFBC0B20E4B188001220C4B5A7008BD00F044FB0A4A13889BB243EA002080B210800022054B5A70064A136843F40063136008BDB1
:4002C0000022014B5A7008BD3C81FF1F8C81FF1F6081FF1F08B500F04FFC00F01FFD124B9B7813B1012B09D01AE000F04DFCC0B20E4B188001220C4B9A7008BD00F044FCB0
:400300000A4A13889BB243EA002080B210800022054B9A70064A136843F48053136008BD0022014B9A7008BD3C81FF1F9081FF1F6081FF1F08B500F037FD00F079FD124BFF
:40034000DB7813B1012B09D01AE000F035FDC0B20E4B188001220C4BDA7008BD00F02CFD0A4A13889BB243EA002080B210800022054BDA70064A136843F40053136008BDAC
:400380000022014BDA7008BD3C81FF1F8A81FF1F6081FF1F08B500F077FD00F0A3FE074A536801335360042B07D90022034B5A60034A136843F00203136008BD3C81FF1FCC
:4003C0006081FF1F08B5032812D8DFE800F002060A0EFF2000F03CFC08BDFF2000F0AEFA08BDFF2000F0DAFB08BDFF2000F0EEFC08BD00BFFEE700BF08B5104E104D16E095
:4004000029686B68AC68002204E051F8040B43F8040B0432A242F8D1E868002203E0002143F8041B04328242F9D11035013E002EE6D100F0B5FEFFF763FEFEE701000000DC
:40044000CC12000008B5124A124B1A60124A136843F40073136000230AE0032B03D80F4A52F8231000E00E490E4A42F8231001332F2BF2D90C4B1A780C4B1A70094A0C4B05
:400480001A6000F0BBF800220A4B1A6008BD00BF0004FA050CED00E014ED00E000000000F50300000080FF1FBC7600400481FF1F08ED00E00081FF1FFEE700BFF0B4002264
:4004C000174611E050F82760F3B226F0FF0608E001EB420511F812406D78A5550132013BDBB2002BF4D10137272FEBD9F0BC7047064B1B78DBB203F00701054A11701B09C9
:40050000013213704422034B1A707047CF0100496E5800407658004008B50A46002100F070FE08BD38B51722284B1A801823284A1370192502321580023213704FF49C7121
:4005400002321180023213700222224B1A7008224FF040231A70032103F5007319701E4B1B78DBB21D490B701D4B1A8041F25122023B1A8000240CE01A4B1B7803F001038E
:4005800043EA440404F003044FF4F07000F0F0F9013D0DB1032CEFD115B90320FFF78CFF114B4FF480721A8007221A7000220F490A704820023108701A700222033B1A7097
:4005C0000B4A137843F00703137038BD80400040824000400043004008010049A146004022420040254200400440004006400040A243004008B500F0F9FD08BD38B572B671
:400600003A4A137843F00403137000240CE0384963001A1952000A4423445B00C8589188FFF77AFF0134E4B20B2CF0D9002410E02F49A3001A1952000A4452F8480F2344E8
:400640005B000B445168B3F85020FFF7D3FF0134E4B2062CECD94FF090402649FFF72EFF254A137843F0020313701032137843F002031370214C237843F040032370A2F5EC
:400680008632513A137843F0100313701C481D490822FFF7AFFF1C481C490A22FFF7AAFF1B481C490A22FFF7A5FF1B481B490822FFF7A0FF1A481B490822FFF79BFF1A4A7F
:4006C000137843F008031370184D61232B70FFF729FF81232B700122154B1A70FFF708FF144821460E22FFF785FF38BDE846004018120000A000004803500140A04300402A
:4007000002510040AC130048C0510040B413004810510040C013004822510040CC13004832510040D4130048224300400048004004000840B043004008B50C200C4900F05D
:400740003FF90C20072100F04FF90023094A13707221094A11702021A2F58072117006216A3A11704721103211704F32137008BD090800007481FF1F8B65004010B500F0C1
:40078000FFF804460C4A137843F020031370A2F58072137843F0100313704FF48052074B1A60074A137843F01003137000F0D0F8204600F0E9F810BD9B65004000E100E01E
:4007C0009064004008B5054B5B7823B9FFF7B4FF0122024B5A70FFF7D1FF08BD7481FF1F074B187800F07F00064B5B7913F0FF0F04D040F080000022024B5A71704700BFCD
:400800006B6400407481FF1F1C4B1B78DBB213F01E0F05D01A4803F01E0201780A43027003F0200303F0FF022BB3164B1978C9B2154B1B78DBB21548C154154B1B7813F020
:40084000FF0F02D00121134B19700F490B780133DBB20B700B78DBB2312B02D900210A4B1970094B1B780C490978DBB28B4202D10121074B1970002AC6D170476B640040C4
:400880007481FF1F486500407781FF1F9481FF1F7881FF1F7981FF1F7681FF1F7222074B1A702022033B1A700622A3331A70472210331A700022AF3B1A70704785640040FD
:4008C00008B500F05DF8094A137843F020031370033A137843F0100313700432137843F01003137000F050F808BD00BF9564004008B5054B1B7823B9FFF7D0FF0122024B7E
:400900001A70FFF7DDFF08BD7B81FF1F014B1878704700BF42640040024B187800F07F00704700BF6264004010B5FFF7F5FF0402FFF7ECFF204380B210BD00BF024B1B78E5
:400940000BB1024B187070477B81FF1F46640040054A137843F0040313701032137843F004031370704700BFA2430040000000000230800803D000BF01380046FCD1704720
:40098000EFF3108072B6704780F31088704700BF01BE704710B5044605E0084B1868FFF7E7FFA4F50044B4F5004FF6D8034B586800FB04F0FFF7DCFF10BD00BF0C81FF1FA4
:4009C00070B504460E46074B1D681F2802D90020FFF7DEFF04F01F04103455F8240045F8246070BD08ED00E038B504460D46072902D90020FFF7CCFF1F2C02D90020FFF707
:400A0000C7FF04F01F0000F1604000F564406D01EDB2057038BD00BF014B1B681864704708ED00E04001C0B2014B1870704700BF00E400E00122014B1A60704700E100E084
:400A40000122014B1A60704780E100E010B50446FFF7F6FF2046FFF7DFFF0720FFF7E2FFFFF7E8FF10BD00BF0122014B1A60704780E200E0044A137803F0FD03400000F01C
:400A8000020018431070704720510040024B1878C0F34000704700BF21510040014B1B689865704708ED00E04001C0B2014B1870704700BF06E400E04022014B1A607047FB
:400AC00000E100E04022014B1A60704780E100E010B50446FFF7F6FF2046FFF7DFFF0720FFF7E2FFFFF7E8FF10BD00BF4022014B1A60704780E200E07222084B1A702022A6
:400B0000013B1A700622A3F259131A70472210331A7000224D331A70704700BF8565004008B5FFF72DFF094A137843F020031370013A137843F010031370FC3A137843F021
:400B400010031370FFF720FF08BD00BF9565004008B5054B1B7823B9FFF7CEFF0122024B1A70FFF7DDFF08BD7D81FF1F014B1878704700BF46650040024B187800F07F0097
:400B8000704700BF6465004010B5FFF7F5FF0402FFF7ECFF204380B210BD00BF024B1B780BB1024B187070477D81FF1F486400407222074B1A70202203331A700622603B9A
:400BC0001A70472210331A7000224B331A7070478C64004008B5FFF7D3FE094A137843F0200313700332137843F010031370053A137843F010031370FFF7C6FE08BD00BF8F
:400C00009C64004008B5054B1B7823B9FFF7D0FF0122024B1A70FFF7DDFF08BD7F81FF1F014B1878704700BF40640040024B187800F07F00704700BF6F64004010B5FFF7BE
:400C4000F5FF0402FFF7ECFF204380B210BD00BF024B1B780BB1024B187070477F81FF1F4E640040014B1B681866704708ED00E04001C0B2014B1870704700BF08E400E09E
:400C80004FF48072014B1A60704700BF00E100E04FF48072014B1A60704700BF80E100E010B50446FFF7F4FF2046FFF7DBFF0720FFF7DEFFFFF7E4FF10BD00BF4FF480728E
:400CC000014B1A60704700BF80E200E0014B1B689864704708ED00E04001C0B2014B1870704700BF02E400E00422014B1A60704700E100E00422014B1A60704780E100E014
:400D000010B50446FFF7F6FF2046FFF7DFFF0720FFF7E2FFFFF7E8FF10BD00BF0422014B1A60704780E200E07222084B1A702022A3F580731A700622A4331A704722103336
:400D40001A700022AD3B1A70704700BF8765004008B5FFF715FE094A137843F020031370A2F58072137843F0100313700732137843F010031370FFF707FE08BD97650040D0
:400D800008B5054B1B7823B9FFF7CEFF0122024B1A70FFF7DDFF08BD8181FF1F014B1878704700BF44650040024B187800F07F00704700BF6764004010B5FFF7F5FF040286
:400DC000FFF7ECFF204380B210BD00BF024B1B780BB1024B187070478181FF1F4A640040014B1B681865704708ED00E04001C0B2014B1870704700BF04E400E01022014BA0
:400E00001A60704700E100E01022014B1A60704780E100E010B50446FFF7F6FF2046FFF7DFFF0720FFF7E2FFFFF7E8FF10BD00BF1022014B1A60704780E200E0024A13786D
:400E400043F080031370704773640040014B1880704700BF08680040014B1880704700BF88680040014B1880704700BF48680040014B1880704700BF68680040014B18704F
:400E8000704700BF81640040014B1878704700BF61640040014B188880B27047A868004008B501E0FFF7F6FFFFF7EEFF10F0100FF8D108BD08B5184A137803F0C00343F06F
:400EC000090313702132137843F0010313700132137843F00103137044F62060FFF7B6FF44F62060FFF7B8FF40F2DC50FFF7BAFF40F2DC50FFF7BCFF0420FFF7BFFFFFF79D
:400F00003FFD064A137843F010031370FFF73CFDFFF7C6FF08BD00BF736400409164004008B5054B1B7823B9FFF7C4FF0122024B1A70FFF783FF08BD8381FF1F024A1378B2
:400F400043F080031370704779640040014B1880704700BF126A0040014B1880704700BF926A0040014B1880704700BF526A0040014B1880704700BF726A004008B5114AD4
:400F8000137803F0C00343F00903137002F59072137843F0010313700132137843F00103137044F62060FFF7D1FF44F62060FFF7D3FF40F2DC50FFF7D5FF40F2DC50FFF7FA
:400FC000D7FF08BD7964004008B5054B1B7823B9FFF7D4FF0122024B1A70FFF7AFFF08BD8481FF1F024A137843F08003137070477D640040014B1880704700BF186800406C
:40100000014B1880704700BF98680040014B1880704700BF58680040014B1880704700BF7868004008B5114A137803F0C00343F0090313701F32137843F00103137001325E
:40104000137843F00103137044F62060FFF7D2FF44F62060FFF7D4FF40F2DC50FFF7D6FF40F2DC50FFF7D8FF08BD00BF7D64004008B5054B1B7823B9FFF7D4FF0122024B79
:401080001A70FFF7AFFF08BD8581FF1F014B1B685867704708ED00E04001C0B2014B1870704700BF0DE400E04FF40052014B1A60704700BF00E100E04FF40052014B1A6044
:4010C000704700BF80E100E010B50446FFF7F4FF2046FFF7DBFF0720FFF7DEFFFFF7E4FF10BD00BF4FF40052014B1A60704700BF80E200E0044A137803F0FB03800000F05F
:40110000040018431070704730510040044A137803F0FD03400000F0020018431070704730510040044A137803F0F703C00000F0080018431070704730510040044A13785D
:4011400003F0EF03000100F0100018431070704730510040044A137803F0DF03400100F0200018431070704730510040044A137803F0BF03800100F0400018431070704713
:4011800030510040054A137843F0010313701032137843F001031370704700BFA24300400E4B70B51E460E4C0025E41AA410A54204D056F8253098470135F8E700F074F8F7
:4011C000084B094C1E46E41AA4100025A54204D056F8253098470135F8E770BDB4120000B4120000B4120000BC12000010B5431E0A44914204D011F8014B03F8014FF8E7D3
:4012000010BD03460244934202D003F8011BFAE77047000000000000405100403000F05100401000000001400002800201400002000501400007800C014080030014014070
:40124000800200170140800100190140000300400140000A004C01400002005001402000605200401C110048060000510140241100480800000201402C110048800080049B
:401280000140AC1100488000000C01402C120048800080160140AC1200488000801801402C13004880000000F8B500BFF8BC08BC9E4670474D00000045040000F8B500BF57
:4012C000F8BC08BC9E46704729000000E01200000881FF1F18000000A800000000000000000000000000E02EC05D00001800000000366E0100000000000000000000000071
:4013000000000000000000000000000000000000000000000000000000000000000000000000000000000000000000000000000000000000000000000000000000000000AD
:40134000000000000000000000000000000000000000000000000000000000000000000000000000000000000000000000000000000000000000000000000000000000006D
:40138000000000000000000000000000000000000000000000000000000000000000000000000000000000000000000000000000000000000000000000000000000000002D
:4013C00000000000000000000000000000000000000000000000000000000000000000000000000000000000000000000000000000000000000000000000000000000000ED
:020000040003F7
:0200000480007A
:40000000085200400D640040066500406D000140420101402D02014057030140250401404E05014072060140590701407208014058090140710A01404A0B01402B0C01400E
:400040005B0D0140640E0140360F014071140140581501402F1601404E17014033180140581901406B1A01404B1B01400C40014010410140174201400E430140064401407D
:400080000E4501400546014003470140074801400A490140094C0140074D0140085001400040014008100C601050119018011901800F810F8238840F8572860F8738880F26
:4000C0008A0F8B388C728E0F8F38843885728772883889728B720111030E041F054C07130C140E2A1009123214021645170819801F4C29112B462C1F2D202F033018314AAC
:40010000320733803460350F373039803B223E103F04406141034204440246C047E0482849FF4AFF4BFF4C624DA04EF04F41500C54015604580459045A045B045C215D211F
:400140005F016640670269106A306B106D106E106F128335854A87148D738F04930894049573970C9A01A103A314A601AA06B004B110B202B360B401B50FB908BB20BE1007
:40018000BF05C002C704C9FFCA07CBFFCC40CD20CEF0CF05D008D407D604D804D904DA04DB04DC20DD02DF01E040E1A8E240E3200008030208110A100B040D200E20114079
:4001C00015081604180419081A101B021E642080210122442306276828082B012C80324033283408370A39023B043C803E023F0640864304472048084F0250215708590295
:400200005A085B505D205E445F0162026740808082028310842087408908C005C26CC461CA8CCCCECED3D02FD204D6FFD881E002E208E601860E88088D208F039510960314
:4002400099149D099F10A51CA702A910AA01AB0CAD0CAF11B001B204B408B520B602B71FBF10C021C104C50BC6ECC80DC9FFCAFFCBFFCEF0CF44D00CD280D804D904DA043B
:40028000DB04DC20DD02DF01E6C0EA40EB02001001080428070109080E1412041520181019201A021B011D821E142004214026AA270428182B022D842F05302032403308E3
:4002C0003608370239803DA03E09400841014202430244404582470448204C084D805080532056185E0261406280654067447002814084048B408C048E229102928095484C
:40030000970198189A029C029D209E049F04A308A484A520A720A889B003B102B322C0E6C264C442CA7ECCCECEF8D0DDD230D680D8B0E220E616EA01EC04EE0103020B028D
:400340000F0113042001230131013201330435023E043F114030410249FF4AFF4BFF4DA04F04501854015604580459045A045B045D105F01604062C06440654066C068C02B
:400380006AC06CC06EC0062A07400C400E140F4010801414168019041E021F192010210D2304244626042A012C502E802F18300234043624380239803A103C403E2A4010D8
:4003C0004120452848084B204D084F015520560459155A405C0462026C146F01762A79027A80820283488620874092149428952C9601970F98409A109C029D089E049F030A
:40040000A002A220A408A578A601AE01AF01C0F0C2F0C478CAF1CC61CEFDD066D64FD801E6400180031504480613082009030B040E161308164019731B0C1E492016212A6D
:40044000224923442602284829732A152B0430403207330F34203530361B37C039A03A883B083E113F104024410346CB470E481C49FF4AFF4BFF4EF04F44500C5401560477
:40048000580459045A045B045C115D115F0166C06A406B0282088430864087408B408C318D018E4E8F06928C94AC95289643983199389AC69B449D589F22A120A653A960B6
:4004C000AB18AD12AF20B13EB20FB301B4F0B540B68ABAA8BF14C063C105C5E0C6C0C70BC81AC9FFCAFFCBFFCEF0CF44D00CD418D604D804D904DA04DB04DC11DD11DF0172
:40050000E6C0EA40EB0201800210038005040604070208010A240E100F22130415051710180819E01A241C401D0C1E091F04212023602716280129202B802D012E012F041A
:400540003008314032103712382039083B443D023F22410445194710488049A0501852105540560457105A025C405E185F0160046282651166108204830187208A208D01D9
:400580008F209584964197089D109E019F02A2A0A480A550AD10AE80B482B501C0EDC2AEC474CAADCCAECEAED0E2D20CD6F1D88DE002E640EA01EE020453052006040704EC
:4005C00008200A450B010D020E8015081680171018531A0C1E081F01200A2254291C2C032D1C2E443040310132803330340F35023630370C388039883A203E053F51402675
:400600004103450B460E47C0482549FF4AFF4BFF4EF04F44500C54015604580459045A045B045C115D115F0166C06A406B028401860E8C80904492319306970298229A5126
:40064000A304A4E7A8E7A908AF01B060B101B280B302B407B508B618B704BE40BF10C063C102C204C405C50CC60EC805C9FFCAFFCBFFCC62CDA0CEF0CF41D00CD280D8042C
:40068000D904DA04DB04DC01DD01DF01E640E702E910EA30EB10ED10EE10EF120004014006140702082009400A400B010D280E011008110415021601180419401A501C40E3
:4006C0001D201E011F042140221223102402276829212A802F0A31043202348036843C203D803E0440804218430445204610481049504D1853805540560359805B405C405C
:400700005E205F096740728081408A088C01911A92809601971899209A149C0B9D08A301A520A601A720AA02AF40B010B180B312B404C0E5C2EAC496CA3DCC53CE70D0677E
:40074000D22CD6F0D880E023E240EA10041005330640070C09030A030B140C0C0D330E710F04100912D016201F082414281029402AAC2B152CDC2D0A2E222F3430E03110ED
:40078000330F341F376039803A023B083F0140324104450B46CE480D49FF4AFF4BFF4EF04F44500C54015604580459045A045B045C115D115F0166C06A406B02811283204A
:4007C000846885018613890190569101920995189722986899209A159B189D409E169F06A528A602A920AA29AD38AF04B01BB260B340B407B501B73EB808BA22BE04BF049A
:40080000C003C640C9FFCA07CBFFCC40CD20CEF0CF05D008D418D604D804D904DA04DB04DC11DD21DF01E040E1A8E240E3200040012003200404061008480A820C100D218C
:400840000E811021120815101628184019201B011C041D081E881F012104224924082680271028092D082E202F013240341036843701386039083E154048410445084820B0
:40088000501052205340562C582059845B025E026202640267488B108F10921493209780982099049B019C40A010A620B201C027C2DCC467CA7CCCF8CEEED047D68FD8B1AB
:4008C000E64086068D0192019408A202A604AD02B002B208B301B401B502B604BE04BF14C020C106C550C610C702C81AC9FFCAFFCBFFCDAFCE0FCF04D018D280D804D904FA
:40090000DA04DB04DF01E040E2C0E440E540E6C0E8C0EAC0ECC0EEC000040558064009020B200D080E0110801210150A1608180419041A421B101C201D60211022042501D7
:400940002608271A29402C202D202E02360137163B803C883D023E204004460448884F20500852145F08602061086E146F2971027420762277207C027E307F4082408320BB
:40098000870889108D20910A92019320962899189A489B049C429D209E029F20A044A108A420A520A609A810A904AA04AB04B044B220C0F4C2ACC47CCAE8CCE0CEF8D024D0
:4009C000D224D640E014E440E820EC80EE2003080513070C0D200F051503170419131B041D0A1F143130330F39023B0840314106450B46E0470C481949FF4AFF4BFF4EF0E6
:400A00004F44500C5401560459045A045B045C105D115F0166C06A406B0281088203864087E3880189F38A0E8B0C8D41912C922093D3950F960897F0990C9A209C1C9DFFF6
:400A40009E03A1C3A21CA401A504A616A982AA40B040B110B220B32CB41AB50FB60FB7C0B902BAA0BB20BE05C002C704C9FFCA07CBFFCC40CD20CEF0CF05D008D418D60498
:400A8000D804D904DA04DB04DC11DD11DF01E040E1A8E240E320051406400C080D820E08152A1D901E011F0521052411251227042C202D022E20319836493720390A3A400E
:400AC0003C883D203E0241044380452049185108531054085648578058425A285C016080678A80808530864087408902C070C2F0C470CAE0CCFECEFBD02AD204D68FD8B112
:400B0000E08003010B010C140E2A149F18021A45249F28092A322C80301832803407350136603E403F10406341024205440145E047C0482249FF4AFF4BFF4C624DA04EF03B
:400B40004F41500C54185604580459045A045B045C015D115F016640670269106A306B106D106E106F1280FF8303840F850886F0880489188C4190C393049482953C9742CA
:400B8000981C997F9AE39C08A110A2F3A4F3A567A60CA718A80CA93CAB41AD04AF80B01CB180B22CB31FB40FB520B6C0B740B980BA28BB08BF10C003C504C9FFCA07CBFF3B
:400BC000CC40CD20CEF0CF05D008D602D712D804D904DA04DB04DC11DD11DF01E040E1A8E240E32000400584060407400A240C800EA81024114014101511172018411A943B
:400C00001B101D041E411F1423042402260527082C902D802F143625371038023A103D113E08400142304310470448014A804B104D04520157015A015F0863856D086F0A76
:400C40007480760C77208340858087408E208F40914192209311950496C0978098049A109B049C109E219F10A021A270A504A680A71BA802A910AA20AC84B004B240C0F116
:400C8000C2F6C477CAF0CCE0CEE5D04ED20CD641D80DEA0105E711021201131519841A011B4A2141238A29E72D203118332035C0360137073E403F01403641024205440476
:400CC000450C46E0480949FF4AFF4BFF4C624DA04EF04F41500C580459045A045C105D015F016640670269106A306B106D106E106F1200580180028009980B400E410F8904
:400D0000100212401328181419811E01200A21482201231025012658270128802A602B102F4A310832603610370138683A023D0843204410450147104B044E084F88538087
:400D400056105901682069406A20701471807202732885018628874494049584960297049B049E01A220A320A781A920AA42AC01B404B580B610C00FC25FC40FCABFCCAECB
:400D8000CE4FD0E4D230D601E002E280EA22049F089F0C800F011414162A18021A45200922322F01306031013218340736803B083E013F014065410242014404460C470EEC
:400DC000481449FF4AFF4BFF4C624DA04EF04F41500C54185604580459045A045B045C225D125F016640670269106A306B106D106E106F12004403040428070108A00A60C4
:400E00000C010E180F4010A41201150219521B081D021E19214023542608276028082B852F0130023240332839083B403F80400241104340454247204A024D204E015508EE
:400E400057405A0B5D026440658067046808694470A072207D807F01860488409004910892C09544960499809B049C2B9D159F02A202A381A408A508A681A720AA10AE1248
:400E8000AF20B340B604B70AC0E7C26FC41FCA1DCC0FCE1AD0B4D238D682D8B0E280E850EA20EC4405DC072209180D9C0F61176319081D1021FF250429E72B182F0431380A
:400EC0003380351F37583B223F044050410245514620480B49FF4AFF4BFF4DAF4E0F4F04501859045A045C105F01604062C06440654066C068C06AC06CC06EC080FF840C38
:400F00008504878088F389088A0C8C088D10901C92E39482957F98C3993C9B429EF39F04A041A303A40FA53CA6F0A741A804A967AB18AD18B01CB180B20FB31FB42CB520A0
:400F4000B6C0B740B980BA28BB08BF10C006C640C9FFCA07CBFFCC40CD20CEF0CF05D008D602D711D804D904DA04DB04DC22DD21DF01E040E1A8E240E32005A806400E598B
:400F80001410150216041E061F05204422942610275228A429502C102D602E052F0430A033043608375038443A203CA8411049054A024F10511057245E206C146F01745079
:400FC00075887604824083108648880489018C808D48921193109468952296289702982099509A209B049C849D259F03A0A0A20EA681A724A940B022B621C0F0C2F0C47088
:40100000CAFFCC7ECE7ED004D228D620E010EE803010310134023720388082408320870ACCF0CE10E290E6C030023240352037083980670889208E04928094809B0A9C12BC
:401040009D01CCF0CE10D88007803201332037225080560483208C80948095809A049B029C129D01A240A402AE40AF04C020CCF0D460E280EE508C0294809C029D01A24098
:40108000A402A720A940AC10AE01AF80E840EA80EE40161071017780C404DC01DE045F0860806301678083088B808D019D019F80B210D603D803E406EE048B409781B08092
:4010C000E401E8048301870197018B209D01A240A720A840B002EA8016405E80810186409D01A240C420D620E010E22008400C045B01670293029B01AB01C206D603101002
:401100008810B044C408E204EA01EE01000708070A030C070E0310071A021C07140500006A000000FFFFFF0F0000000000700008E7000001E7400030805000000024004080
:4011400044022A0C0200150000000000000000000040000021304A44000000018002607C070018010000002000004041640305000100E00C18FFFFFF62A0F0410C000000F0
:4011800018000400040404041111000100000000000040020010301000101012000000000000000000000000000000000F10F0000C0800000418000008000004FF000000D2
:4011C000823C0042C37F00000000F30041000003F3670C181C3CE341000400801C802C1F0F20C04000802808000000103002000000D520011BFFFFFF00AF0F041800000008
:401200000000021204040404111000014000C0004040C000C000C000C000C0000000000000000000000000000000000000000504A00000236718880000041840009C00223B
:4012400000A70418009C0021E2001400481080008708600080BF000000000000004004380380F81F2000008800001410600200000000000000FFFFFF00A0000418000000F5
:401280000000021204040404111000014000C0004040C000C000C000C000C00000000000000000000000000000000000000880003C0C4100000480003C1C42E37F00000017
:4012C00067F3180C00FF040010820000040F00F008C30000180000F30041030020C0400F802C1F1C0800802800001100020000000000040000FF07FF4020F005080000007F
:4013000000000213040404041111000140A840200000000000000000000000000000000000000000000000000000000000000000C33100060000C3000F2CD0038200008050
:401340000C00D34041002008DF00000C0800004004000000D3000C130C31000EC00F10300F4020800808200200000014500200000000000000FFFFFF00A000041800000022
:401380000000021204040404111000014000C0004040C000C000C000C000C00000000000000000000000000000000000004040004000000095006A95950095000000000029
:4013C00090006090900090000000000000F2F200F0000000007F7F00010000000000000000000000000000000000000000000000000000000000000000000000000000007A
:4014000000000000000000000000000000000000000000000000000000000000000000000000000000000000000000000000000000000000000000000000000000000000AC
:40144000000000000000000000000000000000000000000000000000000000000000000000000000000000000000000000000000000000000000000000000000000000006C
:40148000000000000000000000000000000000000000000000000000000000000000000000000000000000000000000000000000000000000000000000000000000000002C
:4014C00000000000000000000000000000000000000000000000000000000000000000000000000000000000000000000000000000000000000000000000000000000000EC
:0200000490006A
:0400000000004005B7
:0200000490105A
:04000000BC90ACAF55
:0200000490303A
:020000001BE8FB
:0200000490402A
:4000000000000000000000000000000000000000000000000000000000000000000000000000000000000000000000000000000000000000000000000000000000000000C0
:400040000000000000000000000000000000000000000000000000000000000000000000000000000000000000000000000000000000000000000000000000000000000080
:400080000000000000000000000000000000000000000000000000000000000000000000000000000000000000000000000000000000000000000000000000000000000040
:4000C0000000000000000000000000000000000000000000000000000000000000000000000000000000000000000000000000000000000000000000000000000000000000
:0200000490501A
:0C00000000012E16106900012E232C5167
:00000001FF