:4000000000800020110000002D0800002D08000008B5044B1A6803F53F5302331A6000F007FC00BFFA46004010B5054C237833B9044B13B10448AFF300800123237010BD0A
:400040002081FF1F0000000080180000084B10B51BB108480849AFF300800848036803B910BD074B002BFBD0BDE81040184700BF00000000801800002481FF1F0881FF1FE1
:400080000000000008B5002001F076FB002001F067FB002001F07CFB002001F085FB002001F08EFB002001F097FB002000F0BAFF40F2DC5001F0E0FA40F2DC5001F0E2FA1B
:4000C00040F2DC5001F084FA40F2DC5001F086FA022000F069FB032000F066FB012000F063FB002000F060FB40F2DC5001F0F0F940F2DC5001F0F2F908BD00BF08B5264B7C
:400100001B68002BFBD0244B1B6813F0010F15D0224B1B78012B11D11F4A136823F00103136000F08BFFB0FA80F0400900F07AFF00221B4B1A6000F0A7F9E0E7164B1B685D
:4001400003F47053B3F5705F0AD1134A136823F47053136000F0DAFA0122104B1A70CEE70D4B1B6813F0020FC9D00B4A136823F0020313600A4A136801331360052B01DD66
:40018000FFF780FF0022054B1A70034A136843F470531360B3E700BF6481FF1F8E81FF1F3C81FF1F08B541F2883000F0CBFE0024324B1C600125324B1D70204601F0DCFA5A
:4001C000204601F0CDFA204601F0E2FA204601F0EBFA204601F0F4FA204601F0FDFA204600F020FF62B600F009FD264800F006FF01F0FEFA01F01EFA40F2DC5001F0E8F9D7
:4002000040F2DC5001F0EAF901F068FA40F2DC5001F032FA40F2DC5001F034FA00F0E8FF194801F053F8204600F0BEFA00F018FE164800F025FF284600F0B6FA00F05EFFEC
:40024000134801F073F8022000F0AEFA01F0AEF8104801F015F9032000F0A6FA01F096F940F2DC5001F034F940F2DC5001F036F9094801F05FFAFFF741FF00BF6481FF1F5F
:400280008E81FF1F9D020000B90200001903000079030000D90300003904000008B500F0EFFC00F0B9FE034A136843F00103136008BD00BF6481FF1F08B500F0ADFF01F084
:4002C00013F8124B1B7813B1012B09D01AE000F0ABFFC0B20E4B188001220C4B1A7008BD00F0A2FF0A4A13889BB243EA002080B210800022054B1A70064A136843F48063BD
:40030000136008BD0022014B1A7008BD4081FF1F9681FF1F6481FF1F08B500F0B5FD00F0BDFE124B5B7813B1012B09D01AE000F0B3FDC0B20E4B188001220C4B5A7008BDA8
:4003400000F0AAFD0A4A13889BB243EA002080B210800022054B5A70064A136843F40063136008BD0022014B5A7008BD4081FF1F9481FF1F6481FF1F08B500F0D3FE00F042
:40038000E3FF124B9B7813B1012B09D01AE000F0D1FEC0B20E4B188001220C4B9A7008BD00F0C8FE0A4A13889BB243EA002080B210800022054B9A70064A136843F480536B
:4003C000136008BD0022014B9A7008BD4081FF1F9881FF1F6481FF1F08B500F0FBFF01F05DF8124BDB7813B1012B09D01AE000F0F9FFC0B20E4B188001220C4BDA7008BD3B
:4004000000F0F0FF0A4A13889BB243EA002080B210800022054BDA70064A136843F40053136008BD0022014BDA7008BD4081FF1F9281FF1F6481FF1F08B501F05BF801F0C7
:4004400087F9074A536801335360042B07D90022034B5A60034A136843F00203136008BD4081FF1F6481FF1F08B5B0F57A7F03D3B0F5FA6F03D804E04FF47A7001E04FF467
:40048000FA6001F025F808BD38B51EE100F00CFC9D4B188010F47F4F40F03181C0B29870DB78182B00F21181DFE813F01900200025002F0034003E0043004E0053005D0059
:4004C00086008B0096009B00A600AB00B600BB00C600CB00D300D800E000E500EF00EA2840F0F3800122884BDA70EEE0864B98800222DA70E9E0844CA38843EA0020A080BD
:4005000001F066F80323E370DFE07F4BD8800422DA70DAE07C4CE38843EA0020E08001F05DF80523E370D0E0774B18810622DA70CBE0754C238943EA002020810725E57043
:4005400001F09AF8E570C0E06F4B58810822DA70BBE06D4C638943EA0020608101F092F80923E370B1E0013804281DD8DFE800F003080D1217004FF47A7000F0A9FF17E0F5
:4005800040F2E24000F0A4FF12E040F2DC5000F09FFF0DE040F2D66000F09AFF08E04FF4FA6000F095FF03E04FF47A7000F090FF0A22554BDA7088E0534BD8810B22DA7014
:4005C00083E0514CE38943EA0020E081002100F003F90C23E37078E04B4B18820D22DA7073E0494C238A43EA00202082012100F0F3F80E23E37068E0434B58820F22DA7021
:4006000063E0414C638A43EA00206082022100F0E3F81023E37058E03B4B98821122DA7053E0394CA38A43EA0020A082032100F0D3F81223E37048E0334BD8821322DA70CB
:4006400043E0314BDA8A42EA0020D8821422DA703BE02D4B18831522DA7036E02A4B1A8B42EA002018831622DA702EE0264B58831722DA7029E0244C638B43EA0020608395
:40068000FFF7F2FE1823E3701FE000F0010001F073F81D4CA078C0F3400001F061F8A078C0F3800001F074F8A078C0F3C00001F07BF8A078C0F3001001F082F8A078C0F314
:4006C000401001F089F80023E37000F005FB00287FF4DCAE00F0D4FA10F0200F7FF4D6AE00F0FAFA20B900F0CBFA10F0200F08D0054AD36943F00103D361002038BD012024
:4007000038BD002038BD00BF4881FF1F08B51F48E32380F820301E4B1A8880F821201B88C3F3072380F822301A4B1A8880F823201B88C3F3072380F82430174B1A8880F879
:4007400025201B88C3F3072380F82630134B1A8880F827201B88C3F3072380F82830104B1A8880F829201B88C3F3072380F82A300C4B1A8880F82B201B88C3F3072380F807
:400780002C3020300D2100F0E3FA08BD4881FF1F9681FF1F9481FF1F9881FF1F9281FF1F9A81FF1F9081FF1F08B5032812D8DFE800F002060A0EFF2000F040FD08BDFF20D5
:4007C00000F074FB08BDFF2000F0BEFC08BDFF2000F012FE08BD00BF08B540F6FC73984200D91846104A00F01F03403B1370C0F346105070032916D8DFE801F002070C1106
:400800000948022100F030FD08BD0748022100F063FB08BD0448022100F0ACFC08BD0248022100F0FFFD08BD7881FF1FFEE700BF08B5104E104D16E029686B68AC68002230
:4008400004E051F8040B43F8040B0432A242F8D1E868002203E0002143F8041B04328242F9D11035013E002EE6D100F0CFFFFFF799FCFEE7010000003819000008B5124A79
:40088000124B1A60124A136843F40073136000230AE0032B03D80F4A52F8231000E00E490E4A42F8231001332F2BF2D90C4B1A780C4B1A70094A0C4B1A6000F0BBF8002279
:4008C0000A4B1A6008BD00BF0004FA050CED00E014ED00E0000000002D0800000080FF1FBC7600400481FF1F08ED00E00081FF1FFEE700BFF0B40022174611E050F8276005
:40090000F3B226F0FF0608E001EB420511F812406D78A5550132013BDBB2002BF4D10137282FEBD9F0BC7047064B1B78DBB203F00701054A11701B09013213704422034B36
:400940001A707047CF0100496E5800407658004008B50A46002100F08AFF08BD38B51722284B1A801823284A1370192502321580023213704FF49C710232118002321370B0
:400980000222224B1A7008224FF040231A70032103F5007319701E4B1B78DBB21D490B701D4B1A8041F25122023B1A8000240CE01A4B1B7803F0010343EA440404F0030456
:4009C0004FF4F07000F0ACFA013D0DB1032CEFD115B90320FFF78CFF114B4FF480721A8007221A7000220F490A704820023108701A700222033B1A700B4A137843F00703E9
:400A0000137038BD80400040824000400043004008010049A146004022420040254200400440004006400040A243004008B500F013FF08BD38B572B63A4A137843F00403E4
:400A4000137000240CE0384963001A1952000A4423445B00C8589188FFF77AFF0134E4B20B2CF0D9002410E02F49A3001A1952000A4452F8480F23445B000B445168B3F8DF
:400A80005020FFF7D3FF0134E4B2062CECD94FF090402649FFF72EFF254A137843F0020313701032137843F002031370214C237843F040032370A2F58632513A137843F0B5
:400AC000100313701C481D490822FFF7AFFF1C481C490A22FFF7AAFF1B481C490A22FFF7A5FF1B481B490822FFF7A0FF1A481B490822FFF79BFF1A4A137843F008031370F0
:400B0000184D61232B70FFF729FF81232B700122154B1A70FFF708FF144821460E22FFF785FF38BDE846004084180000A400004803500140A043004002510040E0130048ED
:400B4000C0510040E813004810510040F413004822510040001400483251004008140048224300400048004004000840B043004008B50C200C4900F0FBF90C20072100F0A9
:400B80000BFA0023094A13707221094A11702021A2F2011211700621683A11704721103211705032137008BD790D00007C81FF1F8A65004010B500F0BBF904460C4A1378C4
:400BC00043F020031370A2F20112137843F0100313704FF48052074B1A60074A137843F01003137000F08CF9204600F0A5F910BD9A65004000E100E09164004008B5054B23
:400C00005B7823B9FFF7B4FF0122024B5A70FFF7D1FF08BD7C81FF1F4FF48052134B1A60134A9378DBB2D178C9B2127912F0FF0F01D18B4211D00F4AD05CC0B20133DBB203
:400C4000312B00D900230A4A9370137913F0FF0F06D00022064B1A7102E0074B1878C0B24FF48052054B1A60704700BF80E100E07C81FF1F9C81FF1F4A65004000E100E082
:400C8000074B187800F07F00064B5B7913F0FF0F04D040F080000022024B5A71704700BF696400407C81FF1F10B54FF48053074A1360074A147800211170064A136024024A
:400CC000FFF7AAFF204380B210BD00BF80E100E07C81FF1F00E100E04FF48052134B1A60134A9378D278DBB2934206D1104B1B7913F0FF0F14D0322013E00D4A9378D2786A
:400D0000DBB2934205D20A4AD3789078181AC0B207E0074AD3789078181A3230C0B200E000204FF48052034B1A60704780E100E07C81FF1F00E100E0034B1B7813F0040FF6
:400D4000FAD1024B187070476164004042640040084B5B7833B97047305DFFF7EDFF0134E4B203E070B50D4606460024AC42F3D370BD00BF7C81FF1F1C4B1B78DBB213F01E
:400D80001E0F05D01A4803F01E0201780A43027003F0200303F0FF022BB3164B1978C9B2154B1B78DBB21548C154154B1B7813F0FF0F02D00121134B19700F490B7801334F
:400DC000DBB20B700B78DBB2312B02D900210A4B1970094B1B780C490978DBB28B4202D10121074B1970002AC6D17047696400407C81FF1F4A6500407F81FF1F9C81FF1FD6
:400E00008081FF1F8181FF1F7E81FF1F7222074B1A702022033B1A700622A9331A70472210331A7000224D331A7070478564004008B500F07DF8094A137843F02003137033
:400E4000033A137843F01003137002F58372137843F01003137000F06FF808BD9564004008B5054B1B7823B9FFF7D0FF0122024B1A70FFF7DDFF08BD8381FF1F014B18787C
:400E8000704700BF45640040024B187800F07F00704700BF6264004010B5FFF7F5FF0402FFF7ECFF204380B210BD00BF024B1B780BB1024B187070478381FF1F486500401D
:400EC000034B1B7813F0040FFAD1024B187070476865004048650040084B1B7833B97047305DFFF7EDFF0134E4B203E070B50D4606460024AC42F3D370BD00BF8381FF1F5A
:400F0000054A137843F0040313701032137843F004031370704700BFA2430040000000000230800803D000BF01380046FCD17047EFF3108072B6704780F31088704700BFD4
:400F400001BE704710B5044605E0084B1868FFF7E7FFA4F50044B4F5004FF6D8034B586800FB04F0FFF7DCFF10BD00BF0C81FF1F70B504460E46074B1D681F2802D90020D4
:400F8000FFF7DEFF04F01F04103455F8240045F8246070BD08ED00E038B504460D46072902D90020FFF7CCFF1F2C02D90020FFF7C7FF04F01F0000F1604000F564406D01AC
:400FC000EDB2057038BD00BF014B1B681864704708ED00E04001C0B2014B1870704700BF00E400E00122014B1A60704700E100E00122014B1A60704780E100E010B5044640
:40100000FFF7F6FF2046FFF7DFFF0720FFF7E2FFFFF7E8FF10BD00BF0122014B1A60704780E200E0044A137803F0FD03400000F0020018431070704720510040024B187824
:40104000C0F34000704700BF21510040014B1B689865704708ED00E04001C0B2014B1870704700BF06E400E04022014B1A60704700E100E04022014B1A60704780E100E076
:4010800010B50446FFF7F6FF2046FFF7DFFF0720FFF7E2FFFFF7E8FF10BD00BF4022014B1A60704780E200E07222074B1A702022FE3B1A700622583B1A70472210331A7084
:4010C00000224F331A7070478565004008B5FFF72FFF094A137843F020031370FE3A137843F0100313700732137843F010031370FFF722FF08BD00BF9565004008B5054B4E
:401100001B7823B9FFF7D0FF0122024B1A70FFF7DDFF08BD8581FF1F014B1878704700BF45650040024B187800F07F00704700BF6764004010B5FFF7F5FF0402FFF7ECFF27
:40114000204380B210BD00BF024B1B780BB1024B187070478581FF1F4E640040034B1B7813F0040FFAD1024B187070476E6400404E640040084B1B7833B97047305DFFF7B2
:40118000EDFF0134E4B203E070B50D4606460024AC42F3D370BD00BF8581FF1F7222074B1A7020220F3B1A700622A7331A70472210331A700022B13B1A7070478F6400401F
:4011C00008B5FFF7B5FE094A137843F0200313700F3A137843F0100313700632137843F010031370FFF7A8FE08BD00BF9F64004008B5054B1B7823B9FFF7D0FF0122024B95
:401200001A70FFF7DDFF08BD8781FF1F014B1878704700BF40640040024B187800F07F00704700BF6064004010B5FFF7F5FF0402FFF7ECFF204380B210BD00BF024B1B78D4
:401240000BB1024B187070478781FF1F46650040034B1B7813F0040FFAD1024B187070476664004046650040084B1B7833B97047305DFFF7EDFF0134E4B203E070B50D46B4
:4012800006460024AC42F3D370BD00BF8781FF1F014B1B681866704708ED00E04001C0B2014B1870704700BF08E400E04FF48072014B1A60704700BF00E100E04FF48072EF
:4012C000014B1A60704700BF80E100E010B50446FFF7F4FF2046FFF7DBFF0720FFF7DEFFFFF7E4FF10BD00BF4FF48072014B1A60704700BF80E200E0014B1B6898647047AF
:4013000008ED00E04001C0B2014B1870704700BF02E400E00422014B1A60704700E100E00422014B1A60704780E100E010B50446FFF7F6FF2046FFF7DFFF0720FFF7E2FF9B
:40134000FFF7E8FF10BD00BF0422014B1A60704780E200E07222084B1A702022033B1A700622A3F259131A70472210331A7000224F331A70704700BF8765004008B5FFF738
:40138000D7FD094A137843F020031370033A137843F010031370FA3A137843F010031370FFF7CAFD08BD00BF9765004008B5054B1B7823B9FFF7CEFF0122024B1A70FFF7DD
:4013C000DDFF08BD8981FF1F014B1878704700BF44650040024B187800F07F00704700BF6465004010B5FFF7F5FF0402FFF7ECFF204380B210BD00BF024B1B780BB1024B7E
:40140000187070478981FF1F4A640040034B1B7813F0040FFAD1024B187070476A6400404A640040084B1B7833B97047305DFFF7EDFF0134E4B203E070B50D46064600247F
:40144000AC42F3D370BD00BF8981FF1F014B1B681865704708ED00E04001C0B2014B1870704700BF04E400E01022014B1A60704700E100E01022014B1A60704780E100E0A7
:4014800010B50446FFF7F6FF2046FFF7DFFF0720FFF7E2FFFFF7E8FF10BD00BF1022014B1A60704780E200E0024A137843F08003137070477B640040014B1880704700BF60
:4014C0000C680040014B1880704700BF8C680040014B1880704700BF4C680040014B1880704700BF6C680040014B1870704700BF84640040014B1878704700BF6464004022
:40150000014B188880B27047AC68004008B501E0FFF7F6FFFFF7EEFF10F0100FF8D108BD08B5184A137803F0C00343F0090313701B32137843F0010313700132137843F0C4
:401540000103137044F62060FFF7B6FF44F62060FFF7B8FF40F2DC50FFF7BAFF40F2DC50FFF7BCFF0420FFF7BFFFFFF7E1FC064A137843F010031370FFF7DEFCFFF7C6FF22
:4015800008BD00BF7B6400409464004008B5054B1B7823B9FFF7C4FF0122024B1A70FFF783FF08BD8B81FF1F024A137843F080031370704776650040014B1880704700BF7E
:4015C00010680040014B1880704700BF90680040014B1880704700BF50680040014B1880704700BF7068004008B5114A137803F0C00343F009031370DE3A137843F00103E8
:4016000013700132137843F00103137044F62060FFF7D2FF44F62060FFF7D4FF40F2DC50FFF7D6FF40F2DC50FFF7D8FF08BD00BF7665004008B5054B1B7823B9FFF7D4FF73
:401640000122024B1A70FFF7AFFF08BD8C81FF1F024A137843F08003137070477D640040014B1880704700BF18680040014B1880704700BF98680040014B1880704700BFE6
:4016800058680040014B1880704700BF7868004008B5114A137803F0C00343F0090313701F32137843F0010313700132137843F00103137044F62060FFF7D2FF44F620604C
:4016C000FFF7D4FF40F2DC50FFF7D6FF40F2DC50FFF7D8FF08BD00BF7D64004008B5054B1B7823B9FFF7D4FF0122024B1A70FFF7AFFF08BD8D81FF1F014B1B68586770470F
:4017000008ED00E04001C0B2014B1870704700BF0DE400E04FF40052014B1A60704700BF00E100E04FF40052014B1A60704700BF80E100E010B50446FFF7F4FF2046FFF70E
:40174000DBFF0720FFF7DEFFFFF7E4FF10BD00BF4FF40052014B1A60704700BF80E200E0044A137803F0FB03800000F0040018431070704730510040044A137803F0FD03C0
:40178000400000F0020018431070704730510040044A137803F0F703C00000F0080018431070704730510040044A137803F0EF03000100F0100018431070704730510040C1
:4017C000044A137803F0DF03400100F0200018431070704730510040044A137803F0BF03800100F0400018431070704730510040054A137843F0010313701032137843F071
:4018000001031370704700BFA24300400E4B70B51E460E4C0025E41AA410A54204D056F8253098470135F8E700F074F8084B094C1E46E41AA4100025A54204D056F8253084
:4018400098470135F8E770BD2019000020190000201900002819000010B5431E0A44914204D011F8014B03F8014FF8E710BD03460244934202D003F8011BFAE7704700000F
:4018800000000000004F00400C00405100403000F05100401000800001400004000501408003000901400007001401408000001501400005801A0140800100400140000A05
:4018C000004C0140000200500140200060520040501100480600005101405811004808000000014060110048800080040140E011004880008008014060120048800080142D
:401900000140E01200488000001A01406013004880000000F8B500BFF8BC08BC9E4670474D0000007D080000F8B500BFF8BC08BC9E46704729000000481900000881FF1F15
:4019400018000000B0000000000000000000E02EC05D00001800000000366E01000000000000000000000000000000000000000000000000000000000000000000000000B7
:401980000000000000000000000000000000000000000000000000000000000000000000000000000000000000000000000000000000000000000000000000000000000027
:4019C00000000000000000000000000000000000000000000000000000000000000000000000000000000000000000000000000000000000000000000000000000000000E7
:401A000000000000000000000000000000000000000000000000000000000000000000000000000000000000000000000000000000000000000000000000000000000000A6
:401A40000000000000000000000000000000000000000000000000000000000000000000000000000000000000000000000000000000000000000000000000000000000066
:020000040003F7
:0200000480007A
:40000000014F0040075200400E64004005650040370001404601014068020140570301402C04014053050140730601404A07014023080140490901406C0A01404C0B014051
:400040006D0C0140460D0140640E0140420F014033140140601501406C1601405E1701407818014056190140351A0140551B01400940014012410140164201400E4301402B
:40008000064401400E4501400A46014004470140094801400E4901400A4C0140074D0140085001400A360040089009100C60106011A018018038810F8238830F840F857220
:4000C000860F8738887289388A0F8C388E0F8F72843885728772880F8A728010814082AC86038B138C098D318ED08F069131930E9620992C9B039C0C9E719F0CA414A8DCB1
:40010000AA22AC10AE40AF08B21FB30FB540B6E0B730B980BA80BB08BF50C004C740C9FFCA07CBFFCC40CD20CEF0CF05D008D401D604D804D904DA04DB04DC22DD22DF01B5
:40014000E040E1A8E240E320000801810544068009010A140E020F20161117101A551D041E02200221252281271A282029022F02300832A034113540360137103840390A06
:400180003C803D103E803F21402042494702481049105008560157125B015C805D205F0960046242644065206704811482108520864088148A048D81C0BDC2AEC4E0CA132A
:4001C000CCBECEBBD08FD204D6F1D88DE001E204E401E6040167028003180704091C0B610D040E080F80115C1322157F18031A141B631E802033220C240A25082634284065
:4002000029182A152C332D102E04300F311F32803380341035383660375838803A023B223E144046410145EC46B0480B49FF4AFF4BFF4EF04F44500C54185604580459043A
:400240005A045B045C125D125F0166C06A406B028573870489038B148D738F0C914A93149C019F08A335B10FB201B560B710B920BB02BE04BF50C041C103C5E0C6CBC80ED9
:40028000C9FFCAFFCBFFCEF0CF44D00CD401D604D804D904DA04DB04DC10DD11DF01E6C0EA40EB0200800301040205400A010B020F0614111510170119041C901D401F10E7
:4002C0002048224024022514260129022A022C282D8031023281342036013708386039083A043D2A3E80404041044202440147014B024D104F0550905110561059045A81F7
:400300005B205D016340644265208B408E04911892029444970598119C809D429E10A001A280A440A620AA08AC20AE01AF01B040B101B202C090C2C1C4F0CA71CCE9CEFED3
:40034000D09BD220D68FD8B1E220E602E808EA82EE29000901040210041008200A030C100E0C101C120220142707280C2A112B023101321F3302342035043E1040064504D6
:4003800049FF4A074BFF4C404D204EF04F05500854075604580459045A045B045C015D015F01604061A86240632000520220072009020E4110801204155418101B201D28B7
:4003C0001E4121012314254126182740280829082C182E413601376839023D203E0A443045294601480449024A204C01571159015A285B805E2063406D5474287580760AE7
:400400008501868C87C4888090429501971098089A049C209DA29E809F08A085A112A201A428A501A624A701A81EAC40AF10B080B110B330C02FC298C4EACAF6CCF0CEE1FE
:40044000D0F0D214D62FD801E220E601EA04EE04001001420240030C05010A200B200F20140C167119181A031B461C101EAC1F1820142580270628DC29422A222B1C2C0941
:400480002ED02F1031C032E0331E341F3501372039023A083B083F504020410649FF4AFF4BFF4DA04F04501854015604580459045A045B045C115D105F01604062C064408D
:4004C000654066C068C06AC06CC06EC0880E8B0B8C0290089101920497049A01A201A404A608A80EAB0CB00CB102B308B402B501B601B704BE40BF40C020C106C5D1C65017
:40050000C702C81BC9FFCAFFCBFFCDAFCE0FCF04D018D418D604D804D904DA04DB04DC01DD10DF01E040E2C0E440E540E6C0E8C0EAC0ECC0EEC0015006840A400B040E1902
:400540001020110213201640175019421A441E1821022290231024042640275028082E902F1130083102375038203C083D803E013F2040084408480849094C0850185B01E7
:400580005C245D805F026080614062206780820183088520864087408B10962098089C809D299E019F08A140A330A684AE80AF20C053C2EAC4DECA74CC33CEF4D024D22415
:4005C000D6F1D88DE206E680EE200501090111012001310134013A023B083E104010410349FF4AFF4BFF4DA04F04501856025711580459045A045B045C125D105F016040D4
:4006000062C06440654066C068C06AC06CC06EC000280180034008240B4010811328150119941B891C801E041F0120082121231126082740282529102B82300831203201E7
:400640003340370138403A153D143E013F0240024108440245084A805010510859015F106004620263016D146F01748076157728820883028602900494A095029621970846
:400680009C029D04A420A688B110B548B640C00FC20EC41FCA0FCC8FCE6FD05AD621D80DEE20030104800660070108E00A100B040C480D080E801201160218601A881F02EA
:4006C0002080260228A02C042E182F063001310232F8330834023501360437043E503F1440254106450C460E470B481549FF4AFF4BFF4EF04F44500C5401560458045904C4
:400700005A045B045C015D115F0166C06A406B02804082038421861689188B218F2B921C941C9623991F9B609E08A421A51FA60EA720A954AB21AF40B060B101B20FB3782D
:40074000B41AB506B802B920BA28BB08BF11C003C540C9FFCA07CBFFCC40CD20CEF0CF05D008D280D804D904DA04DB04DC11DD01DF01E040E1A8E240E32000800318064038
:40078000071008100A240B800C800E6010A8114014111580180419081A021B021C801E6C1F2822462304275428022E402F2832803710382039823B083C203E103FC043106D
:4007C000470448104A044B404C80500851405640574058015A185B406080768078207A0880808A03912093809480960197049C209D049E80A702AA40AB88B308C037C2BE3B
:40080000C42FCA78CC28CE3FD044D20CD60FD801EC010110020405080B800D1C0F6211671318151C17611802197F1F802001210425182B232F043140320233383401358001
:400840003604371F39023B883E143F104060410249FF4AFF4BFF4DA04F04501854185604580459045A045B045C105D105F01604062C06440654066C068C06AC06CC06EC091
:40088000851C870289108F2092019540970399099A069B109D0C9F11A114A604A720AA02AD10AF0CB002B204B31FB401B540B720BF50C060C102C501C620C705C819C9FF66
:4008C000CAFFCBFFCDAFCE0FCF04D018D280D804D904DA04DB04DC10DF01E040E2C0E440E540E6C0E8C0EAC0ECC0EEC006800A440F081028148019101A941B101FA82118A7
:400900002301254026042748280229062C042D082F423148321034203605374038A43D803E0A3F1041204520482049104F20500851205E01674572408210832087408F046A
:400940009024922093909886994A9A0A9C20A201A540A604AA01AC14AD88AE80B352C010C24AC416CAFBCCFECEFED024D224D680D8B0E041E404EE80041606A9071509400A
:400980000CA80E1310A811331215130C16161A021B081D031E801F042840292A2A892B042D332F043080310F32603340341B35303607380839203AA03B023E013F14401626
:4009C000410545B046EC480E49FF4AFF4BFF4EF04F44500C54015604580459045A045B045C115D115F0166C06A406B0281088504890C8D3C8FC391F3930C952F97D099FFE7
:400A0000A141A582ABD3ADC3B10FB3C0B520B71CBB02BF10C003C504C9FFCA07CBFFCC40CD20CEF0CF05D008D602D711D904DA04DB04DC10DD11DF01E040E1A8E240E32024
:400A400000040180080209820A200B041204180419E01A602102220423082508269129602C242E802F4031823210342036053A043B203D803E2A40024708480849424C1026
:400A80004F04518053105408560458105A485B025E2063806D046F0A7508762A80A082808340882089048B108F0AC005C20FC402CAFCCCEDCEF6D048D20CD62FD801E23057
:400AC000E4A0E6400004020A040206150A200B011301180722202401260A2807302032073501361839083E413F14405241044203440145C0460E480649FF4AFF4BFF4C623B
:400B00004DA04EF04F41500C54185604580459045A045B045C015D115F016640670269106A306B106D106E106F12010A0308054007100A080E400F0110A0111015401704FB
:400B4000180119081A201B011D681E401F04222023102501260427092E8A2F44330135A036143A103C403D083E204081420443084529460248804B404D204F0451405610F1
:400B800059015F08600462026302648067806D406F1475807628828083018B108E0290449110920C93C095809660970D99039DC09E28A020A104A210A308A501A624A90257
:400BC000AD01AE04AF40B020B211B310B504C0AEC292C4AECAF0CC71CE74D0FFD228D641D80DE690E802EA09EC02014102200320050F07D0090C0A550DC3144F150C1610C4
:400C000017D3180C19D31A501B0C1C4F1D821E3021DF2504282A2A502BD32D0831203240331C3403350F363C37C038203A803B283E1440424103450C460B470E481549FF8A
:400C40004AFF4BFF4EF04F44500C5280580459045A045B045C115D015F0166C06A406B0280FF84418C1F8EE08F02903C92C394C397029AE39CF39E0CA008A404A80CAC821D
:400C8000AF01B0C0B101B22CB410B502B60FBA80BE10BF10C002C540C9FFCA07CBFFCC40CD20CEF0CF05D008D602D711D804D904DA04DB04DC01DD11DF01E040E1A8E24034
:400CC000E32000800101021004200604074009020A260C400D080E110F0810811318171019111A021B081C201D201E012004210124402504261027012A802D802E082F4401
:400D0000310434013542361439803D083E603F0141204440450846044B024E014F485010531054045640591069506A086B2070807202731876807D017F40832088408A0214
:400D40008F08921495509601972699029B509E449F21A320A434A501A620A704B014B180B302B420B704C05DC2EFC44FCAF8CC72CEF8D0E4D604E204E404E610E8100110E8
:400D8000041C060207040810091C0B620D1C0F611020120313231518181419081C091E102010217F220C25672718280C2A112D042F80301F314032203380351F373839029A
:400DC0003BA03E044043410245EB460C480749FF4AFF4BFF4EF04F44500C54015604580459045A045B045C115D115F0166C06A406B02801C82618567862389678C7F8D01FD
:400E00008F0E901C926294189544973198089E04A010A467A522A618A7D1AC04AE80B01FB180B240B360B438B518B680B707B808BA22BF10C061C104C203C402C50EC60C1D
:400E4000C805C9FFCAFFCBFFCC62CDA0CEF0CF41D00CD804D904DA04DC12DD01DF01E640E702E910EA30EB10ED10EE10EF12008401020504060409080A410B040D020E0285
:400E80000F08114012101302160817011A611B201D021E102060215022042555270428202C802E802F1032043602371839943B403DA83F024110434A4628470149104B0852
:400EC0004D014F085040564057805D015EA4660182018610878089408B018D028E108F3091149204930294C095019622974899109B409C229D01A040A208A30AA438C06DB7
:400F0000C2DFC45DCAD2CCE2CEFED0EFD204D6F0D880E080E444E630E8108280841686A988A88A138B159308944096899D339E169F0CA0A8A215A533A704A92AAA02AB04EB
:400F4000AD03AF04B080B21BB330B407B660B70FB880B908BA28BB80BE01BF04C002C704C9FFCA07CBFFCC40CD20CEF0CF05D008D804D904DA04DC11DD01DF01E040E1A8C1
:400F8000E240E3200044010202080308051406C0088009080A480B020E020F20114013061604170119811A061B081D141E821F24204421402204268027212A102B082E8811
:400FC0002F2432443681384239143F2040844140472049804A085028562457105A0469146A80710873068C018D4092409302940495409602970499029A409D059E3C9F0380
:40100000A428A508A641AB04AC82AE0AB020B280B318B501C07FC2AFC45DCA70CC9ACE2FD02DD20CD602E820EA10EC80EE20302033083610370838808308CCF0CE10E220AC
:4010400030023240361037013B105E018580892094809B01A420A708B210B301CCF0CE10D680E64007803188352037025008824087028B089480968097109920A180A422D2
:40108000A708AE11C020CCF0D420E6C0EA10EE1018108420850887108A2094809710A422A508AF80B008C610E250E840150170017404C404DC01DE0450045A045E026204B7
:4010C0006504800182049402A404B101D404D603D803EE018A048B10940896049D04AA01B004E004E404E80493209408B504E808678080028F8094809A20A402B410D880FE
:40110000E22017045620778083048B408C40948097809A209B80C420D440DE20E08008400C01672283019320B404C206D601D801E80812808E80B041C408E202EA01EE045E
:40114000000708060A030C070E0310071A031C06140100006A000000FFFFFF0F0000000009B032499F41009800000000804100A89F0000000200450414002A10000000B04B
:401180000002004800000004000000000000000060D80738180480030080000A0000011021060300040E000C11FFFFFF62A0F0410C0000001800040004040404111100014C
:4011C00000000000000040020010301000101012000000000000000000000000000000000008000021044A00002F00D000000000022C15D300FF00000041000044F32A0CF2
:4012000000820000E70000C3E70C000080C30000070F80C0182060100080000200001010430105000200E0C028FFFFFF62A0F0410C00000000000211040404041111000117
:4012400000000000000040020010301000101012000000000000000000000000000000000010F3001C08E300821800000F00F004C3000080F3000C80413C0042000000037F
:40128000083C0041040400000C670018FF7F0000C0401C200F1F2C800002A0200000004410030000001050021AFFFFFF00AF0F0418000000180004000404040411200001B8
:4012C0004000C0004040C000C000C000C000C0000000000000000000000000000000000000000000E73C00C10018000044002A040200150000BC004200E7001821104A00B1
:4013000000FF0000E708000000000083800400000798801F18206040008000080000101063010400020CE00009FFFFFF62A0F0410C00000000000212040404041111000118
:4013400000000000000040020010301000101012000000000000000000000000000000002F09D032009FD300F39F0C00C30200453C00C3000C14002A82000000FF8000000B
:4013800008000000040000000000000041000000C0070F1820801C600000080000001040620405000100E00C18FFFFFF62A0F0410C00000000000212040404042222000169
:4013C0000000000000004002001030100010101200000000000000000000000000000000004040004000000095006A9595009500000000009000609090009000000000000B
:4014000000FAFA00F8000000007F7F0001000000000000000000000000000000000000000000000000000000000000000000000000000000000000000000000000000000C1
:40144000000000000000000000000000000000000000000000000000000000000000000000000000000000000000000000000000000000000000000000000000000000006C
:40148000000000000000000000000000000000000000000000000000000000000000000000000000000000000000000000000000000000000000000000000000000000002C
:4014C00000000000000000000000000000000000000000000000000000000000000000000000000000000000000000000000000000000000000000000000000000000000EC
:4015000000000000000000000000000000000000000000000000000000000000000000000000000000000000000000000000000000000000000000000000000000000000AB
:0200000490006A
:0400000000004005B7
:0200000490105A
:04000000BC90ACAF55
:0200000490303A
:02000000C642F6
:0200000490402A
:4000000000000000000000000000000000000000000000000000000000000000000000000000000000000000000000000000000000000000000000000000000000000000C0
:400040000000000000000000000000000000000000000000000000000000000000000000000000000000000000000000000000000000000000000000000000000000000080
:400080000000000000000000000000000000000000000000000000000000000000000000000000000000000000000000000000000000000000000000000000000000000040
:4000C0000000000000000000000000000000000000000000000000000000000000000000000000000000000000000000000000000000000000000000000000000000000000
:0200000490501A
:0C00000000012E16106900012E25D6AB61
:00000001FF