:400000000080002011000000090800000908000008B5044B1A6803F53F5302331A6000F0F5FB00BFFA46004010B5054C237833B9044B13B10448AFF300800123237010BD65
:400040002081FF1F000000003C1B0000084B10B51BB108480849AFF300800848036803B910BD074B002BFBD0BDE81040184700BF000000003C1B00002481FF1F0881FF1F63
:400080000000000008B5002000F0C4FF40F2DC5001F0E8FA40F2DC5001F0EAFA40F2DC5001F08CFA40F2DC5001F08EFA002000F069FB012000F066FB032000F063FB022027
:4000C00000F060FB40F2DC5001F0F8F940F2DC5001F0FAF908BD00BF08B5264B1B68002BFBD0244B1B6813F0010F15D0224B1B78012B11D11F4A136823F00103136000F0B2
:4001000095FFB0FA80F0400900F084FF00221B4B1A6000F0B3F9E0E7164B1B6803F47053B3F5705F0AD1134A136823F47053136000F0DAFA0122104B1A70CEE70D4B1B687F
:4001400013F0020FC9D00B4A136823F0020313600A4A136801331360052B01DDFFF792FF0022054B1A70034A136843F470531360B3E700BF6881FF1F9681FF1F3C81FF1FCB
:4001800008B541F2883000F0D5FE0024344B1C600125344B1D70204600F03CFF62B600F025FD314800F022FF01F0D0FA01F038FA40F2DC5001F002FA40F2DC5001F004FAC8
:4001C00001F082FA40F2DC5001F04CFA40F2DC5001F04EFA01F004F8244801F06FF8204600F0D0FA00F034FE214800F041FF284600F0C8FA00F07AFF1E4801F08FF8022051
:4002000000F0C0FA01F0C8F81B4801F02FF9032000F0B8FA01F014FC184801F041FC01F0ABF940F2DC5001F049F940F2DC5001F04BF9134801F074FA01F0F8FA40F2DC50DF
:4002400001F0ACFA01F062FB4FF47A7001F016FB01F0CCFB40F2E24001F080FBFFF73CFF6881FF1F9681FF1F85020000A10200000103000061030000C1030000210400000A
:400280002D04000008B500F0F3FC00F0BDFE034A136843F00103136008BD00BF6881FF1F08B500F0B1FF01F017F8124B1B7813B1012B09D01AE000F0AFFFC0B20E4B1880B8
:4002C00001220C4B1A7008BD00F0A6FF0A4A13889BB243EA002080B210800022054B1A70064A136843F48063136008BD0022014B1A7008BD4081FF1F9E81FF1F6881FF1F5C
:4003000008B500F0B9FD00F0C1FE124B5B7813B1012B09D01AE000F0B7FDC0B20E4B188001220C4B5A7008BD00F0AEFD0A4A13889BB243EA002080B210800022054B5A7086
:40034000064A136843F40063136008BD0022014B5A7008BD4081FF1F9C81FF1F6881FF1F08B500F0D7FE00F0E7FF124B9B7813B1012B09D01AE000F0D5FEC0B20E4B188011
:4003800001220C4B9A7008BD00F0CCFE0A4A13889BB243EA002080B210800022054B9A70064A136843F48053136008BD0022014B9A7008BD4081FF1FA081FF1F6881FF1F04
:4003C00008B500F0FDFF01F05FF8124BDB7813B1012B09D01AE000F0FBFFC0B20E4B188001220C4BDA7008BD00F0F2FF0A4A13889BB243EA002080B210800022054BDA70DB
:40040000064A136843F40053136008BD0022014BDA7008BD4081FF1F9A81FF1F6881FF1F08B501F01BFB01F049FB08BD08B501F057F801F083F9074A536801335360042B49
:4004400007D90022034B5A60034A136843F00203136008BD4081FF1F6881FF1F08B5B0F57A7F03D3B0F5FA6F03D804E04FF47A7001E04FF4FA6001F021F808BD38B513E1FB
:4004800000F00AFC974B188010F47F4F40F02681C0B29870DB781B2B00F20681DFE813F01C0023002800320037004100460051005600600004017D0082008D0092009D00AF
:4004C000A200AD00B200BD00C200CA00CF00D700DC00E600F600FB00EA2840F0E5800122804BDA70E0E07F4B98800222DA70DBE07C4CA38843EA0020A08001F05FF80323E1
:40050000E370D1E0774BD8800422DA70CCE0754CE38843EA0020E08001F056F80523E370C2E0704B18810622DA70BDE06D4C238943EA002020810725E57001F093F8E57044
:40054000B2E0684B58810822DA70ADE0654C638943EA0020608101F08BF80923E370A3E0022808D003280BD001280ED14FF47A7001F0F4F90DE040F2E24001F0EFF908E0FE
:4005800040F2DC5001F0EAF903E04FF47A7001F0E5F90B22534BDA7086E0524BD8810C22DA7081E04F4CE38943EA0020E081002100F000F90D23E37076E04A4B18820E22E9
:4005C000DA7071E0474C238A43EA00202082012100F0F0F80F23E37066E0424B58821022DA7061E03F4C638A43EA00206082022100F0E0F81123E37056E03A4B9882122226
:40060000DA7051E0374CA38A43EA0020A082032100F0D0F81323E37046E0324BD8821422DA7041E02F4BDA8A42EA0020D8821522DA7039E02B4B18831622DA7034E0294BE4
:400640001A8B42EA002018831722DA702CE0254B58831822DA7027E0224C638B43EA00206083FFF7FBFE1923E3701DE010F0400F04D04FF47A7001F091F803E04FF4FA6038
:4006800001F08CF81A22174BDA700DE0154B98831B22DA7008E0134CA38B43EA0020A08300F012FF0023E37000F00EFB00287FF4E7AE00F0DDFA10F0200F7FF4E1AE00F081
:4006C00003FB20B900F0D4FA10F0200F08D0054A136A43F001031362002038BD012038BD002038BD4881FF1F08B51F48E32380F824301E4B1A8880F825201B88C3F307237E
:4007000080F826301A4B1A8880F827201B88C3F3072380F82830174B1A8880F829201B88C3F3072380F82A30134B1A8880F82B201B88C3F3072380F82C30104B1A8880F829
:400740002D201B88C3F3072380F82E300C4B1A8880F82F201B88C3F3072380F8303024300D2100F0EDFA08BD4881FF1F9E81FF1F9C81FF1FA081FF1F9A81FF1FA281FF1F82
:400780009881FF1F08B5032812D8DFE800F002060A0EFF2000F04AFD08BDFF2000F07EFB08BDFF2000F0C8FC08BDFF2000F01AFE08BD00BF08B540F6FC73984200D918463B
:4007C000104A00F01F03403B1370C0F346105070032916D8DFE801F002070C110948022100F03AFD08BD0748022100F06DFB08BD0448022100F0B6FC08BD0248022100F0AC
:4008000007FE08BD7C81FF1FFEE700BF08B5104E104D16E029686B68AC68002204E051F8040B43F8040B0432A242F8D1E868002203E0002143F8041B04328242F9D11035E5
:40084000013E002EE6D101F03FF9FFF799FCFEE701000000FC1B000008B5124A124B1A60124A136843F40073136000230AE0032B03D80F4A52F8231000E00E490E4A42F80A
:40088000231001332F2BF2D90C4B1A780C4B1A70094A0C4B1A6000F0BBF800220A4B1A6008BD00BF0004FA050CED00E014ED00E000000000090800000080FF1FBC760040C8
:4008C0000481FF1F08ED00E00081FF1FFEE700BFF0B40022174611E050F82760F3B226F0FF0608E001EB420511F812406D78A5550132013BDBB2002BF4D10137282FEBD906
:40090000F0BC7047064B1B78DBB203F00701054A11701B09013213704422034B1A707047CF0100496E5800407658004008B50A46002101F0FAF808BD38B51722284B1A8013
:400940001823284A1370192502321580023213704FF49C7102321180023213700222224B1A7008224FF040231A70032103F5007319701E4B1B78DBB21D490B701D4B1A80C8
:4009800041F25122023B1A8000240CE01A4B1B7803F0010343EA440404F003044FF4F07000F0B6FA013D0DB1032CEFD115B90320FFF78CFF114B4FF480721A8007221A70CD
:4009C00000220F490A704820023108701A700222033B1A700B4A137843F00703137038BD80400040824000400043004008010049A146004022420040254200400440004018
:400A000006400040A243004008B501F083F808BD38B572B63D4A137843F00403137000240CE03B4963001A1952000A4423445B00C8589188FFF77AFF0134E4B20B2CF0D93A
:400A4000002410E03249A3001A1952000A4452F8480F23445B000B445168B3F85020FFF7D3FF0134E4B2072CECD94FF090402949FFF72EFF284A137843F0020313701032C2
:400A8000137843F002031370244C237843F040032370A2F58632513A137843F0100313701F4820490822FFF7AFFF1F481F490A22FFF7AAFF1E481F490822FFF7A5FF1E487E
:400AC0001E490A22FFF7A0FF1D481E490822FFF79BFF1D481D490822FFF796FF1C4A137843F0080313701B4D61232B70FFF724FF81232B700122184B1A70FFF703FF1748D0
:400B000021460E22FFF780FF38BD00BFE8460040401B0000A400004803500140A04300400251004090120048C051004098120048F2510040A412004810510040AC120048A1
:400B400022510040B812004832510040C0120048224300400048004004000840B043004008B50B200C4900F0FBF90B20072100F00BFA0023094A13707221094A117020211D
:400B8000A2F58172117006215F3A11704721103211704832137008BD690D00008081FF1F8965004010B500F0BBF904460C4A137843F020031370A2F58172137843F0100371
:400BC00013704FF40062074B1A60074A137843F01003137000F08CF9204600F0A5F910BD9965004000E100E09064004008B5054B5B7823B9FFF7B4FF0122024B5A70FFF75E
:400C0000D1FF08BD8081FF1F4FF40062134B1A60134A9378DBB2D178C9B2127912F0FF0F01D18B4211D00F4AD05CC0B20133DBB2312B00D900230A4A9370137913F0FF0FAB
:400C400006D00022064B1A7102E0074B1878C0B24FF40062054B1A60704700BF80E100E08081FF1FA481FF1F4B65004000E100E0074B187800F07F00064B5B7913F0FF0FAA
:400C800004D040F080000022024B5A71704700BF676400408081FF1F10B54FF40063074A1360074A147800211170064A13602402FFF7AAFF204380B210BD00BF80E100E03E
:400CC0008081FF1F00E100E04FF40062134B1A60134A9378D278DBB2934206D1104B1B7913F0FF0F14D0322013E00D4A9378D278DBB2934205D20A4AD3789078181AC0B253
:400D000007E0074AD3789078181A3230C0B200E000204FF40062034B1A60704780E100E08081FF1F00E100E0034B1B7813F0040FFAD1024B187070476064004040640040A7
:400D4000084B5B7833B97047305DFFF7EDFF0134E4B203E070B50D4606460024AC42F3D370BD00BF8081FF1F1C4B1B78DBB213F01E0F05D01A4803F01E0201780A430270AD
:400D800003F0200303F0FF022BB3164B1978C9B2154B1B78DBB21548C154154B1B7813F0FF0F02D00121134B19700F490B780133DBB20B700B78DBB2312B02D900210A4B39
:400DC0001970094B1B780C490978DBB28B4202D10121074B1970002AC6D17047676400408081FF1F4B6500408381FF1FA481FF1F8481FF1F8581FF1F8281FF1F7222074B3E
:400E00001A702022013B1A7006225A3B1A70472210331A7000224D331A7070478264004008B500F07DF8094A137843F020031370013A137843F0100313700332137843F03F
:400E40001003137000F070F808BD00BF9264004008B5054B1B7823B9FFF7D0FF0122024B1A70FFF7DDFF08BD8781FF1F014B1878704700BF45640040024B187800F07F004B
:400E8000704700BF6164004010B5FFF7F5FF0402FFF7ECFF204380B210BD00BF024B1B780BB1024B187070478781FF1F44640040034B1B7813F0040FFAD1024B187070477C
:400EC0006464004044640040084B1B7833B97047305DFFF7EDFF0134E4B203E070B50D4606460024AC42F3D370BD00BF8781FF1F054A137843F0040313701032137843F017
:400F000004031370704700BFA2430040000000000230800803D000BF01380046FCD17047EFF3108072B6704780F31088704700BF01BE704710B5044605E0084B1868FFF738
:400F4000E7FFA4F50044B4F5004FF6D8034B586800FB04F0FFF7DCFF10BD00BF0C81FF1F70B504460E46074B1D681F2802D90020FFF7DEFF04F01F04103455F8240045F82B
:400F8000246070BD08ED00E038B504460D46072902D90020FFF7CCFF1F2C02D90020FFF7C7FF04F01F0000F1604000F564406D01EDB2057038BD00BF014B1B6818647047BE
:400FC00008ED00E04001C0B2014B1870704700BF00E400E00122014B1A60704700E100E00122014B1A60704780E100E010B50446FFF7F6FF2046FFF7DFFF0720FFF7E2FFE7
:40100000FFF7E8FF10BD00BF0122014B1A60704780E200E0044A137803F0FD03400000F0020018431070704720510040024B1878C0F34000704700BF21510040014B1B685D
:40104000D865704708ED00E04001C0B2014B1870704700BF07E400E08022014B1A60704700E100E08022014B1A60704780E100E010B50446FFF7F6FF2046FFF7DFFF072044
:40108000FFF7E2FFFFF7E8FF10BD00BF8022014B1A60704780E200E07222074B1A702022FE3B1A700622603B1A70472210331A7000224D331A7070478465004008B5FFF7D8
:4010C0002FFF094A137843F020031370FE3A137843F010031370033A137843F010031370FFF722FF08BD00BF9465004008B5054B1B7823B9FFF7D0FF0122024B1A70FFF7E9
:40110000DDFF08BD8981FF1F014B1878704700BF44650040024B187800F07F00704700BF6664004010B5FFF7F5FF0402FFF7ECFF204380B210BD00BF024B1B780BB1024B3F
:40114000187070478981FF1F43640040034B1B7813F0040FFAD1024B187070476364004043640040084B1B7833B97047305DFFF7EDFF0134E4B203E070B50D460646002457
:40118000AC42F3D370BD00BF8981FF1F7222074B1A702022013B1A700622603B1A70472210331A7000224E331A7070478D64004008B5FFF7B5FE094A137843F0200313703A
:4011C000013A137843F010031370023A137843F010031370FFF7A8FE08BD00BF9D64004008B5054B1B7823B9FFF7D0FF0122024B1A70FFF7DDFF08BD8B81FF1F014B187897
:40120000704700BF4D640040024B187800F07F00704700BF6C64004010B5FFF7F5FF0402FFF7ECFF204380B210BD00BF024B1B780BB1024B187070478B81FF1F4B6400407D
:40124000034B1B7813F0040FFAD1024B187070476A6400404B640040084B1B7833B97047305DFFF7EDFF0134E4B203E070B50D4606460024AC42F3D370BD00BF8B81FF1FCB
:40128000014B1B685866704708ED00E04001C0B2014B1870704700BF09E400E04FF40072014B1A60704700BF00E100E04FF40072014B1A60704700BF80E100E010B5044658
:4012C000FFF7F4FF2046FFF7DBFF0720FFF7DEFFFFF7E4FF10BD00BF4FF40072014B1A60704700BF80E200E0014B1B689864704708ED00E04001C0B2014B1870704700BFE9
:4013000002E400E00422014B1A60704700E100E00422014B1A60704780E100E010B50446FFF7F6FF2046FFF7DFFF0720FFF7E2FFFFF7E8FF10BD00BF0422014B1A60704761
:4013400080E200E07222074B1A702022013B1A700622A1331A70472210331A700022AE3B1A7070478964004008B5FFF7D9FD094A137843F020031370013A137843F0100332
:4013800013700332137843F010031370FFF7CCFD08BD00BF9964004008B5054B1B7823B9FFF7D0FF0122024B1A70FFF7DDFF08BD8D81FF1F014B1878704700BF4A65004062
:4013C000024B187800F07F00704700BF6864004010B5FFF7F5FF0402FFF7ECFF204380B210BD00BF024B1B780BB1024B187070478D81FF1F48650040034B1B7813F0040F30
:40140000FAD1024B187070476B64004048650040084B1B7833B97047305DFFF7EDFF0134E4B203E070B50D4606460024AC42F3D370BD00BF8D81FF1F014B1B6818657047FC
:4014400008ED00E04001C0B2014B1870704700BF04E400E01022014B1A60704700E100E01022014B1A60704780E100E010B50446FFF7F6FF2046FFF7DFFF0720FFF7E2FF40
:40148000FFF7E8FF10BD00BF1022014B1A60704780E200E0024A137843F080031370704775640040014B1880704700BF02680040014B1880704700BF82680040014B188086
:4014C000704700BF42680040014B1880704700BF62680040014B1870704700BF85640040014B1878704700BF65640040014B188880B27047A268004008B501E0FFF7F6FFB2
:40150000FFF7EEFF10F0100FF8D108BD08B5184A137803F0C00343F0090313701C32137843F0010313700132137843F00103137044F62060FFF7B6FF44F62060FFF7B8FF22
:4015400040F2DC50FFF7BAFF40F2DC50FFF7BCFF0420FFF7BFFFFFF7E3FC064A137843F010031370FFF7E0FCFFF7C6FF08BD00BF756400409564004008B5054B1B7823B91F
:40158000FFF7C4FF0122024B1A70FFF783FF08BD8F81FF1F024A137843F08003137070477E640040014B1880704700BF12680040014B1880704700BF92680040014B188098
:4015C000704700BF52680040014B1880704700BF7268004008B5114A137803F0C00343F0090313701B32137843F0010313700132137843F00103137044F62060FFF7D2FF61
:4016000044F62060FFF7D4FF40F2DC50FFF7D6FF40F2DC50FFF7D8FF08BD00BF7E64004008B5054B1B7823B9FFF7D4FF0122024B1A70FFF7AFFF08BD9081FF1F024A13787F
:4016400043F08003137070477F640040014B1880704700BF1C680040014B1880704700BF9C680040014B1880704700BF5C680040014B1880704700BF7C68004008B5114AA7
:40168000137803F0C00343F0090313701F32137843F0010313700132137843F00103137044F62060FFF7D2FF44F62060FFF7D4FF40F2DC50FFF7D6FF40F2DC50FFF7D8FFC1
:4016C00008BD00BF7F64004008B5054B1B7823B9FFF7D4FF0122024B1A70FFF7AFFF08BD9181FF1F014B1B681867704708ED00E04001C0B2014B1870704700BF0CE400E0C4
:401700004FF48052014B1A60704700BF00E100E04FF48052014B1A60704700BF80E100E010B50446FFF7F4FF2046FFF7DBFF0720FFF7DEFFFFF7E4FF10BD00BF4FF4805263
:40174000014B1A60704700BF80E200E0054A137843F0010313701032137843F001031370704700BFA2430040084A137843F0010313701032137843F00103137002F64D32A0
:40178000137843F001031370704700BFA3430040014B1880704700BF044F0040014B1880704700BF064F0040014B1870704700BF034F004008B51A4A137843F00203137029
:4017C0000232137803F08F0343F010031370154B1A7802F0CF021A701A7842F030021A701A7802F0F0021A701A7842F00F021A7044F62060FFF7CCFF40F2DC50FFF7CEFF22
:401800000020FFF7D1FF084A137843F00103137002F65E32137843F00103137008BD00BF004F00400B4F0040A343004008B5054B1B7823B9FFF7BEFF0122024B1A70FFF76C
:4018400093FF08BD9281FF1F084A137843F0040313701032137843F00403137002F66532137843F001031370704700BFA3430040014B1880704700BF1C4F0040014B188063
:40188000704700BF1E4F0040014B1870704700BF1B4F004008B51A4A137843F0020313700232137803F08F0343F010031370154B1A7802F0CF021A701A7842F030021A70DE
:4018C0001A7802F0F0021A701A7842F00F021A7044F62060FFF7CCFF40F2DC50FFF7CEFF0020FFF7D1FF084A137843F00403137002F67632137843F00103137008BD00BF04
:40190000184F0040234F0040A343004008B5054B1B7823B9FFF7BEFF0122024B1A70FFF793FF08BD9381FF1F084A137843F0020313701032137843F00203137002F65932DD
:40194000137843F001031370704700BFA3430040014B1880704700BF104F0040014B1880704700BF124F0040014B1870704700BF0F4F004008B51A4A137843F00203137043
:401980000232137803F08F0343F010031370154B1A7802F0CF021A701A7842F030021A701A7802F0F0021A701A7842F00F021A7044F62060FFF7CCFF40F2DC50FFF7CEFF60
:4019C0000020FFF7D1FF084A137843F00203137002F66A32137843F00103137008BD00BF0C4F0040174F0040A343004008B5054B1B7823B9FFF7BEFF0122024B1A70FFF786
:401A000093FF08BD9481FF1F7222034B1A70202201331A70704700BF8665004008B5FFF77FFA064A137843F0200313700132137843F010031370FFF777FA08BD9665004041
:401A400008B5054B1B7823B9FFF7DEFF0122024B1A70FFF7E3FF08BD9581FF1F024B187800F07F00704700BF67650040014B1B689865704708ED00E04001C0B2014B18709F
:401A8000704700BF06E400E04022014B1A60704700E100E04022014B1A60704780E100E010B50446FFF7F6FF2046FFF7DFFF0720FFF7E2FFFFF7E8FF10BD00BF4022014BDD
:401AC0001A60704780E200E00E4B70B51E460E4C0025E41AA410A54204D056F8253098470135F8E700F078F8084B094C1E46E41AA4100025A54204D056F825309847013558
:401B0000F8E770BDE41B0000E41B0000E41B0000EC1B000010B5431E0A44914204D011F8014B03F8014FF8E710BD03460244934202D003F8011BFAE7704700000000000049
:401B4000004F00402400405100403000000001408000000101408007000901400005800E0140800180140140800180160140000200190140000300400140000A004C0140E4
:401B8000000200500140200060520040800F0048060000510140880F0048080080000140900F0048800080080140101000488000000E014090100048800000140140101124
:401BC000004880000016014090110048800080180140101200488000F8B500BFF8BC08BC9E4670474D00000059080000F8B500BFF8BC08BC9E46704729000000101C000099
:401C00000881FF1F18000000B800000000000000000000000000E02EC05D00001800000000366E010000000000000000000000000000000000000000000000000000000045
:401C40000000000000000000000000000000000000000000000000000000000000000000000000000000000000000000000000000000000000000000000000000000000064
:401C80000000000000000000000000000000000000000000000000000000000000000000000000000000000000000000000000000000000000000000000000000000000024
:401CC00000000000000000000000000000000000000000000000000000000000000000000000000000000000000000000000000000000000000000000000000000000000E4
:401D000000000000000000000000000000000000000000000000000000000000000000000000000000000000000000000000000000000000000000000000000000000000A3
:020000040003F7
:0200000480007A
:40000000034F00400A5200400E640040046500402C0001403C01014065020140540301405F04014052050140680601404B0701402408014043090140670A0140420B014054
:400040006A0C0140550D01402D0E01403A0F01401F1401404715014010160140491701402418014057190140771A0140481B014007400140154101401C420140144301400D
:4000800007440140104501400546014007470140084801400B490140094C0140084D0140085001400A4B164B224B014209100C2010201140188119011C0878107910800F75
:4000C00081388272830F840F850F86388738883889728A0F8B0F8C388D7284728672873889720403064409010C530E0C10201245160818531A04240A2654300F3230330145
:40010000344038083A023E103F044045410245EC46E0470B481B49FF4AFF4BFF4EF04F44500C54015604580459045A045B045C025D225F0166C06A406B0200400108040274
:400140000560061009010A240B400C800D080E481220140916201720184019041A201B101D0A1E0A1F0122042765281029082F253601371438203C8A3D20404042044644C9
:400180004701490A4B404D105018581059025A885E01620264086640678082028C08C0F5C2FEC4A4CA70CCE0CEF4D025D228D68FD8B102C3030B04E3060C070408040C4149
:4001C0000E10142F16C0182C1AC31CC31D02200824EF280C2B0C2C823010310232203308340F350436C037013A203E043F104060410245D54712483349FF4AFF4BFF4DAF18
:400200004E0F4F04501856025711580459045A045B045C015D105F01604062C06440654066C068C06AC06CC06EC08113830C89038B1490019715990A9B14A708AD13AF046A
:40024000B10FB201B710BB02BE04BF40C036C102C50BC60EC70CC815C9FFCAFFCBFFCEF0CF44D00CD401D604D804D904DA04DB04DC10DD11DF01E6C0EA40EB02040E05609E
:40028000062008110B880D080E0A14021508172219041C041E612101224023402450268027082B122D10300832103680382039023D203F1A4314460448204B104D114F04DF
:4002C000534456045705581159045B405E2061016D046E106F017480752076107722810185048C1094029510964597089B449D609E349F10A10AA204A4C5A511A620A720B3
:40030000AA40AB10AF40B001B440B504C0F0C2E8C4F0CA2ACC16CEC5D026D224D62FD801E21CE6030C2C0E1110801203141C162218091A102014241028402C302E0C301F3F
:400340003460368038203E404056410445E046CB480E49FF4AFF4BFF4EF04F44500C5401560458045A045B045C015D115F0166C06A406B02800481028345859F899F918092
:4003800099149A0D9B2AA909AA08AB32AE02B001B107B204B360B402B518B608B780BF04C065C103C204C402C6C0C7E0C828C9FFCAFFCBFFCC62CDA0CEF0CF41D00CD28042
:4003C000D407D604D804D904DA04DB04DC10DD01DF01E640E702E910EA30EB10ED10EE10EF120302042005210A640F041088121013401510174019801A441B101D011E2137
:400400001F1024022501262127202F043620370139103B203D063E104302441045024720480849024B424C0550905401572059225A885C405D015E205F0863806602774013
:400440008A028F4090489105929093449422951096209B0D9C029D409F10A020A102A44DA510A601A732A901AA20B204C011C24EC4CFCA20CCA0CEE0D0E1D23CD6FFD881BF
:40048000E280E645EE090110020C0340048C05DC061307220B20110913D014201510164317AC190C1B711E081F0324D12514260628D12A0E303032C033E0340F371F380A42
:4004C0003A203B083E044003454049FF4A074BFF4C404D204EF04F05500854185604580459045A045B045C115D115F01604061A862406320810286028C388E439280930401
:40050000945696219A46A680A704AA29AC38AD01AE45B007B104B263B302B480B501B618B880BA0ABE50BF15C001C640C9FFCA07CBFFCC40CD20CEF0CF05D008D418D604F2
:40054000D804D904DA04DB04DC01DD21DF01E040E1A8E240E32000400210040405010A940F221008122013401714184019201A301B821C8C1D0922062304264027102948E2
:400580002C2032013541364037143B023C043F22438045084D804E024F02500852105510571058015E0260806240630865A06780808087408B049205934296289B049C1046
:4005C0009E109F10A020A44CA510A702ADC0AF04B002B220C035C2AEC467CA4ACCF1CEE1D048D681D8BDE080E402E6200E0116021B011E011F012E023001320235013A8085
:400600003B803E053F104002474049FF4A074BFF4C404D204EF04F05500854185604580459045A045B045C125D125F01604061A862406320010A02040302060209200A0244
:400640000B900E2110801304158019181A011B021F45214122142340258026402709288829603040321834103510368038A83902410847104A0257095A085F026402660148
:40068000670869146A80701471408C018E14950196409B109D019F01A108A202A789B020B380C08FC2AFC48CCA0DCC3ECE0FD022D208D682D8B0E080E40209011002120439
:4006C000200822012407280733013403360C38A03E103F0440504103450546104702481949FF4AFF4BFF4DAF4E0F4F04501854015604580459045A045B045C015D105F01E3
:40070000604062C06440654066C068C06AC06CC06EC0801C815C82228383842C8560861187808A208B088C149220948095619603979699619B8E9C099E10A040A3A3A430B7
:40074000A60CA810AF1CB080B10FB21FB31AB440B5F0B620BB2ABE51C034C102C5E0C6E0C7BCC83AC9FFCAFFCBFFCEF0CF44D00CD401D604D804D904DA04DB04DC11DD11C4
:40078000DF01E6C0EA40EB0205100605076009010D020E111080112813021511170419A01A011D401E181F022204251527642C802D8037243A103D123E284108450247269B
:4007C00049044A024D0251085220561D59525A085C205D015E4860806602808082028B029A209B109D259F01A080A202A620A709A901AE10B140C0F0C2B8C47ECA90CC60A1
:40080000CEE4D0E2D208D6FFD881EE20001C0202030808140C100D310F0E100C116C1211130318201A031C101E0C1F4C20092131221023462B13310F3330341F3620374A77
:4008400039283B823E403F144006464049FF4A074BFF4C404D204EF04F05500854185604580459045A045B045C225D115F01604061A8624063208080840286159044922AF0
:400880009303970298219A4A9B01A4E7A8E7AF04B060B104B280B301B407B502B618BE40C023C106C204C401C5E0C70CC812C9FFCAFFCBFFCC62CDA0CEF0CF41D00CD6021B
:4008C000D712D804D904DA04DB04DC01DD11DF01E640E702E910EA30EB10ED10EE10EF12000A03200602074408200A400C400E841114148018011A501B241E05220A230414
:400900002541265127502A802C402F8831043222348036013D803E023F0240054101421048084B114C804D20500456205A085D02674A680169147128730282088308875406
:4009400088088B41900491029208938A94089641970198A099029A809B049D019F03A380A404A528A704B021B140B301B490B780C0DCC2DAC416CAA8CC97CE90D00FD22418
:40098000D682D8B0E002E850EE2086088E05910192089E029F02A201AA04AE02B008B102B202B301B401B604BE05BF04C010C103C550C620C701C81AC9FFCAFFCBFFCDAFC8
:4009C000CE0FCF04D018D280D804D904DA04DB04DF01E040E2C0E440E540E6C0E8C0EAC0ECC0EEC0000A0150048809280A400D010F811041110412041302158116081804F9
:400A000019061B401E041F4521502204234024A026012740284029442A042B0430013128330135013780380439343B404220462047404A014D0156287280778081408304D2
:400A400086058F04C0AFC29EC4DFCA0FCC97CE0ED052D208E00AE410800181448226832A841F85E78D218F4A91809502971598149A499C0A9ED1A41FA9E7B007B160B2807E
:400A8000B318B418B507B660B780BE40BF04D804D904DC11DF0100240140028005010710080209140B400D200F0110A013A01704181019101A031B051DA11E401F0420240D
:400AC000225625112684278928022B442E103296370A38A83D023E043F8040104201430149084A044B40522059106A146B0270F473207A017B018144834589208A4096C2E1
:400B0000970998029B149D089E40A580A621AC10AF40C03FC2CEC42FCA2DCCCFCEDED00BD20CD60484018B0193019C01A801B401B701BF40D418D604D804D904DB04DC01CD
:400B4000DD10DF0103100428064009400D200E600F01100816021729180819101B101C201D221E211F1022802424260827422D802F543102320234023510360837413A10CF
:400B80003E283F8145A047014E024F20561057405A015F026004628063406C086D806F147580762A772884018740968298029C019D08A621AC12AE40B201B704C074C2F161
:400BC000C4F2CAF0CCF1CEF4D0B0D230D681D80DE202EA0CEE82000C0211041008100A0C120318141B011C091E10241C26022F01301F37013F404035410445EB460C4807C4
:400C000049FF4AFF4BFF4EF04F44500C580459045A045C015D015F0166C06A406B02010A0240030206900708080109200A100B810E820F08108011401314170419061A0665
:400C40001D011E80222823822701288429402A042F013190320834203620382A3B4043084504468047084D014E024F085111521257C0584259045B816825708071207310CD
:400C800086048E408F10902A9114928093C09480950196429714981899489CC29D039E029F02A180A302A480A520A698A780AA01AD20AE40AF08B701C07DC2DFC42FCA1FD9
:400CC000CC2ECE0FD0C2D210D602EA400080049F059F099F0C140D090E2A0F32140215141645172A19021B451D80249F28092A3230183180320733183480350736603760AC
:400D00003E403F40406441024203440145CE480349FF4AFF4BFF4C624DA04EF04F41500C580459045A045C125D015F016640670269106A306B106D106E106F128551870688
:400D400088AA8A448C338EC48F409003912092049343950C975398339A4C9B089E889F0CA255AA80AD51AF0EB0C8B130B230B340B40FB50FB808B902BA22BB20BE04BF04EB
:400D8000C046C101C203C405C5C0C7E0C822C9FFCAFFCBFFCC62CDA0CEF0CF41D00CD804D904DA04DC11DD02DF01E640E702E910EA30EB10ED10EE10EF12000A014003027B
:400DC000044007040A100E060F8010281522172119201A121B021C401E441F082001212A260127542EC03004313832403765388039143D083E043F8040A9410244114640E0
:400E00004A184B024D204E8156026520670488088F0190809136928095409610970798399A409C849D109E829F14A025A208A340A504A691A708B440B604C0CDC2D4C45646
:400E4000CA10CCFECE5ED0DFD2343342372838208320CCF0CE10E2803004321036483B405B106320831087408F10942098049F48A702AC04CCF0CE10D480D840E220E6400E
:400E8000EA1002803244374050805680580860086140654082508A048E089420962099409F40A648A702AB08AD40C010CC70D460D6C0D840E6A0EA20EE1019801B081F046B
:400EC0008340870A8A808B0494209E809F40A640A702AC80AE80C670E210E440E680EA10EC101040700276408650C408DC01DE0453106250668086808A4090049A10A4023B
:400F0000B040B404D404D603D802E401EA01EC02880290049720A402E401871089028C2090049720E001E608864091019980A640A810B101E640EA20070410805D8180800E
:400F4000830491019980C080C410D6A0E0A00D086004750290049902A420C204D802DE04102088208C20A420B508C408E60CEE08000708070A070C070E0710061A021C0674
:400F8000820A000055000000FFFFFF03000000000000A320181400480800004A04000010000004201C46E1183C46C2081000000000000000E700180100060048FF0000018A
:400FC000384098201F1E40018000282000000045600200000000000000FFFFFF00A00004180000001800040004040404111000014000C0004040C000C000C000C000C0008D
:4010000000000000000000000000000000000000E75C18A11C18E100040800009C046200FF00000018E70018085C00A200000404100000230000A30000FF00000010000088
:401040001F383840981F408080800A2200000004500300000000000000FFFFFF00A00004180000000000021204040404121000014000C0004040C000C000C000C000C00067
:401080000000000000000000000000000000000041000000C36700181C3CE3420000F304827F00000C180000040800000000000008100000F33C0C410F00F003FF040080EF
:4010C000C0802C200F1F1C400080282000000004500300000000000000FFFFFF00A00004180080000000000004040404110000014000C0004040C000C000C000C000C00020
:40110000000000000000000000000000000000000000D3002F18D0003C08C300F3100C00FF000004411C00C2C31C00C10000004308040020040000000CC7001882DF00002E
:40114000C0200F1F20581C80008008280000100034050100060CE00009FFFFFF62A0F0410C0000000000021104040404111100010000000000004002001030100010101212
:4011800000000000000000000000000000000000820400000008F3001C18E30000000080C37F00000F3CF042F3000C0341000080FF3C0041046700180C000004081000006E
:4011C0001C402C1F0F80C0200002280800000050260405000100CE000CFFFFFF62A0F0410C0000000000021304040404111100010000000000004002001030100010101205
:4012000000000000000000000000000000000000D32C0CC31F0CC000000400001C0FC3E0DF000000C3E3000C04C3000041EF2000080000E30041C3100C8200008208000064
:401240000F10100FC02C20C00000020800000400030000000000400000FF07FF4020F0050800000000000212040404041221000140A8402000000000000000000000000011
:40128000000000000000000000000000000000000042420042000000AA0055AAAA00AA0000000000001010001000000010002010100010000000000000E3E300E100000034
:4012C0000881810081000000000000000000000000000000000000000000000000000000000000000000000000000000000000000000000000000000000000000000000063
:4013000000000000000000000000000000000000000000000000000000000000000000000000000000000000000000000000000000000000000000000000000000000000AD
:40134000000000000000000000000000000000000000000000000000000000000000000000000000000000000000000000000000000000000000000000000000000000006D
:40138000000000000000000000000000000000000000000000000000000000000000000000000000000000000000000000000000000000000000000000000000000000002D
:4013C00000000000000000000000000000000000000000000000000000000000000000000000000000000000000000000000000000000000000000000000000000000000ED
:0200000490006A
:0400000000004005B7
:0200000490105A
:04000000BC90ACAF55
:0200000490303A
:02000000540B9F
:0200000490402A
:4000000000000000000000000000000000000000000000000000000000000000000000000000000000000000000000000000000000000000000000000000000000000000C0
:400040000000000000000000000000000000000000000000000000000000000000000000000000000000000000000000000000000000000000000000000000000000000080
:400080000000000000000000000000000000000000000000000000000000000000000000000000000000000000000000000000000000000000000000000000000000000040
:4000C0000000000000000000000000000000000000000000000000000000000000000000000000000000000000000000000000000000000000000000000000000000000000
:0200000490501A
:0C00000000012E16106900012E26647409
:00000001FF