:400000000080002011000000E1050000E105000008B5044B1A6803F53F5302331A6000F0E1FA00BFFA46004010B5054C237833B9044B13B10448AFF300800123237010BDD0
:400040002081FF1F00000000C8140000084B10B51BB108480849AFF300800848036803B910BD074B002BFBD0BDE81040184700BF00000000C81400002481FF1F0881FF1F59
:400080000000000008B51F4B1B68002BFBD01D4B1B6813F0010F0BD01B4B1B78012B07D1184A136823F00103136000F059F9EAE7144B1B6813F0020F0AD0124A136823F096
:4000C000020313600022104B1A7000F0F3F9DAE70C4B1B6803F4C053B3F5C05FD3D1094A136823F4C053136000F0EEF900F092FEB0FA80F0400900F081FE0122024B1A7007
:40010000C1E700BF5481FF1F7881FF1F08B500241D4B1C6001251D4B1D7062B6204600F06DFE00F0FDFE00F0EDFE194800F026FF00F03CFC174800F04DFE01F011F816483F
:4001400001F06CF8204600F0F3F900F067FD134800F044FF284600F0EBF900F083FF104801F08CF8022000F0E3F901F0CBF80D4801F032F9032000F0DBF941F2883000F0B0
:40018000CDFDFFF77FFF00BF5481FF1F7881FF1F45030000A9010000C50100002502000085020000E502000008B500F041FC00F01FFE034A136843F00103136008BD00BFFE
:4001C0005481FF1F08B500F0D9FF01F035F8124B1B7813B1012B08D019E000F03BFD0F4B588001220C4B1A7008BD00F033FD0B4A53889BB243EA002080B250800022064B36
:400200001A70074A136843F40063136008BD0022014B1A7008BD00BF3C81FF1F7C81FF1F5481FF1F08B500F00DFD00F0E5FE124B5B7813B1012B08D019E000F00BFD0F4B64
:40024000588001220C4B5A7008BD00F003FD0B4A53889BB243EA002080B250800022064B5A70074A136843F40063136008BD0022014B5A7008BD00BF3C81FF1F7C81FF1F54
:400280005481FF1F08B500F001FF01F005F8124B9B7813B1012B08D019E000F0FFFE0F4B988001220C4B9A7008BD00F0F7FE0B4A93889BB243EA002080B290800022064B33
:4002C0009A70074A136843F48053136008BD0022014B9A7008BD00BF3C81FF1F7C81FF1F5481FF1F08B501F021F801F083F8124BDB7813B1012B08D019E001F01FF80F4BFB
:40030000D88001220C4BDA7008BD01F017F80B4AD3889BB243EA002080B2D0800022064BDA70074A136843F40053136008BD0022014BDA7008BD00BF3C81FF1F7C81FF1F93
:400340005481FF1F08B500F087FD00F025FE034A136843F00203136008BD00BF5481FF1F10B588E000F078FB514B188010F47F4F08D000F04FFDB0FA80F0400900F03EFD24
:40038000012010BDC0B24A4B9870DB780D2B72D8DFE803F0070D181D282D383D484D585D656AEA2867D10122414BDA7063E0E32803D102223E4BDA705DE000223C4BDA70F9
:4003C000022010BD3A4B98800322DA7053E0384CA38843EA0020A080002100F0C1F80423E37048E0324BD8800522DA7043E0304CE38843EA0020E080012100F0B1F8062366
:40040000E37038E02A4B18810722DA7033E0284C238943EA00202081022100F0A1F80823E37028E0224B58810922DA7023E0204C638943EA00206081032100F091F80A236F
:40044000E37018E01A4B98810B22DA7013E0184B9A8942EA002098810C22DA700BE0144BD8810D22DA7006E0114BDA8942EA0020D8810022DA7000F007FB00287FF472AF66
:4004800000F0D6FA10F0200F7FF46CAF00F0FCFA20B900F0CDFA10F0200F06D0044A536943F001035361002010BD002010BD00BF4081FF1F08B5A520002100F07BF8A5200C
:4004C000012100F077F808BD08B5174B1A88174802761A88C2F3072242765A8882765A88C2F30722C2769A8802779A88C2F307224277DA888277DA88C2F30722C2771A8949
:4005000080F820201A89C2F3072280F821205A8980F822205B89C3F3072380F8233018300C2100F0EDFA08BD7C81FF1F4081FF1F08B5032812D8DFE800F002060A0EFF20CA
:4005400000F024FE08BDFF2000F08EFB08BDFF2000F0AEFD08BDFF2000F0FAFE08BD00BF08B540F6FC73984200D91846104A00F01F03403B1370C0F346105070032916D87D
:40058000DFE801F002070C110948022100F014FE08BD0748022100F07DFB08BD0448022100F09CFD08BD0248022100F0E7FE08BD6481FF1FA52812D108B503290ED8DFE876
:4005C00001F00205080B00F0E1FD08BD00F04CFB08BD00F06DFD08BD00F0BAFE08BD7047FEE700BF08B5104E104D16E029686B68AC68002204E051F8040B43F8040B0432B6
:40060000A242F8D1E868002203E0002143F8041B04328242F9D11035013E002EE6D100F019FFFFF773FDFEE7010000007415000008B5124A124B1A60124A136843F40073C2
:40064000136000230AE0032B03D80F4A52F8231000E00E490E4A42F8231001332F2BF2D90C4B1A780C4B1A70094A0C4B1A6000F0C9F800220A4B1A6008BD00BF0004FA05AF
:400680000CED00E014ED00E000000000E10500000080FF1FBC7600400481FF1F08ED00E00081FF1FFEE700BFF0B40022174611E050F82760F3B226F0FF0608E001EB420511
:4006C00011F812406D78A5550132013BDBB2002BF4D10137272FEBD9F0BC7047064B1B78DBB203F00701054A11701B09013213704422034B1A707047CF0100496E580040F5
:400700007658004008B50A46002100F0D4FE08BD38B519252F4B1D8018232F4A13700232158002321370023215800232137002321580023213704FF49C71023211800232B4
:40074000137045F6BF5102321180023213700222224B1A7008224FF040231A70032103F5007319701E4B1B78DBB21E490B701E4B1A8041F25122023B1A8000240CE01B4B45
:400780001B7803F0010343EA440404F003044FF4F07000F0B1FA013D0DB1032CEFD115B90320FFF77FFF124B4FF480721A8007221A7000220F490A704820023108701A7041
:4007C0000222033B1A700C4A137843F03F03137038BD00BF80400040824000400043004008010049A146004022420040254200400440004006400040A243004008B500F05B
:400800004FFE08BD38B572B6354A137843F00403137000240CE0334963001A1952000A4423445B00C8589188FFF76CFF0134E4B20C2CF0D9002410E02A49A3001A19520031
:400840000A4452F8500F23445B000B445168B3F85820FFF7D3FF0134E4B2042CECD94FF090402149FFF720FF204A137843F0020313701032137843F0020313701C4C237843
:4008800043F040032370A2F58632513A137843F010031370174818490A22FFF7AFFF174817490A22FFF7AAFF164817490822FFF7A5FF164A137843F008031370144D6123D4
:4008C0002B70FFF725FF81232B700122114B1A70FFF704FF104821460E22FFF78FFF38BDE8460040CC140000A000004803500140A0430040C0510040000F00481051004064
:400900000C0F004822510040180F0048224300400048004004000840B043004008B50A200D4900F011FA0A20072100F021FA00230A4A137072210A4A11702021A2F58072C5
:4009400011700621613A117047211032117002F5A972137008BD00BF290B00006881FF1F8965004010B500F0CFF904460C4A137843F020031370A2F58072137843F010032B
:4009800013704FF48062074B1A60074A137843F01003137000F092F9204600F0B9F910BD9965004000E100E09A65004008B5054B5B7823B9FFF7B2FF0122024B5A70FFF7FD
:4009C000D1FF08BD6881FF1F4FF48062134B1A60134A9378DBB2D178C9B2127912F0FF0F01D18B4211D00F4AD05CC0B20133DBB2132B00D900230A4A9370137913F0FF0FA4
:400A000006D00022064B1A7102E0074B1878C0B24FF48062054B1A60704700BF80E100E06881FF1F8881FF1F4965004000E100E0074B187800F07F00064B5B7913F0FF0FA2
:400A400004D040F080000022024B5A71704700BF696400406881FF1F10B54FF48063074A1360074A147800211170064A13602402FFF7AAFF204380B210BD00BF80E100E016
:400A80006881FF1F00E100E04FF48062134B1A60134A9378D278DBB2934206D1104B1B7913F0FF0F14D0142013E00D4A9378D278DBB2934205D20A4AD3789078181AC0B24B
:400AC00007E0074AD3789078181A1430C0B200E000204FF48062034B1A60704780E100E06881FF1F00E100E0034B1B7813F0040FFAD1024B187070476A650040496400408C
:400B0000084B5B7833B97047305DFFF7EDFF0134E4B203E070B50D4606460024AC42F3D370BD00BF6881FF1F1C4B1B78DBB213F01E0F05D01A4803F01E0201780A43027007
:400B400003F0200303F0FF022BB3164B1978C9B2154B1B78DBB21548C154154B1B7813F0FF0F02D00121134B19700F490B780133DBB20B700B78DBB2132B02D900210A4B99
:400B80001970094B1B780C490978DBB28B4202D10121074B1970002AC6D17047696400406881FF1F496500406B81FF1F8881FF1F6C81FF1F6D81FF1F6A81FF1F7222084B13
:400BC0001A702022A3F580731A7006225E3B1A70472210331A70002254331A70704700BF8565004010B500F08FF804460A4A137843F020031370A2F58072137843F0100328
:400C000013700632137843F01003137000F064F8204600F07DF810BD9565004008B5054B1B7823B9FFF7CAFF0122024B1A70FFF7D9FF08BD6F81FF1F014B1878704700BF5F
:400C400046640040024B187800F07F00704700BF6564004010B5FFF7F5FF0402FFF7ECFF204380B210BD00BF024B1B780BB1024B187070476F81FF1F4B640040034B1B7802
:400C800013F0040FFAD1024B187070476B6400404B640040084B1B7833B97047305DFFF7EDFF0134E4B203E070B50D4606460024AC42F3D370BD00BF6F81FF1F054A1378B3
:400CC00043F0100313701032137843F010031370704700BFA2430040054A137843F0080313701032137843F008031370704700BFA2430040000000000230800803D000BFEA
:400D000001380046FCD17047EFF3108072B6704780F31088704700BF01BE704710B5044605E0084B1868FFF7E7FFA4F50044B4F5004FF6D8034B586800FB04F0FFF7DCFF54
:400D400010BD00BF0C81FF1F70B504460E46074B1D681F2802D90020FFF7DEFF04F01F04103455F8240045F8246070BD08ED00E038B504460D46072902D90020FFF7CCFF88
:400D80001F2C02D90020FFF7C7FF04F01F0000F1604000F564406D01EDB2057038BD00BF014B1B681864704708ED00E04001C0B2014B1870704700BF00E400E00122014BB7
:400DC0001A60704700E100E00122014B1A60704780E100E010B50446FFF7F6FF2046FFF7DFFF0720FFF7E2FFFFF7E8FF10BD00BF0122014B1A60704780E200E0044A1378CA
:400E000003F0FD03400000F0020018431070704720510040024B1878C0F34000704700BF21510040084A137843F0010313701032137843F00103137002F64D32137843F0FF
:400E400001031370704700BFA3430040014B1870704700BF034F0040014B1878704700BF034F004010B50446094B1B7813F0010F02D00020FFF750FF054B1A7842F0010238
:400E80001A70044A14801A7802F0FE021A7010BDA3430040064F0040014B1880704700BF044F004008B5154A137803F0010313700232137803F0FC031370013A137843F0F5
:400EC000010313700E4B1A7802F0CF021A701A7842F030021A701A7802F0F0021A701A7842F00F021A706420FFF7D6FF0020FFF7B9FF0820FFF7AAFF08BD00BF004F00405D
:400F00000B4F004008B5054B1B7823B9FFF7CAFF0122024B1A70FFF785FF08BD7181FF1F054A137843F0200313701032137843F020031370704700BFA2430040024B1B68CF
:400F4000C3F88400704700BF08ED00E04001C0B2014B1870704700BF11E400E04FF40032014B1A60704700BF00E100E04FF40032014B1A60704700BF80E100E010B50446A2
:400F8000FFF7F4FF2046FFF7D9FF0720FFF7DEFFFFF7E4FF10BD00BF4FF40032014B1A60704700BF80E200E0014B1B689865704708ED00E04001C0B2014B1870704700BF6D
:400FC00006E400E04022014B1A60704700E100E04022014B1A60704780E100E010B50446FFF7F6FF2046FFF7DFFF0720FFF7E2FFFFF7E8FF10BD00BF4022014B1A607047ED
:4010000080E200E07222084B1A70202203F580731A7006225B3B1A70472210331A700022B33B1A70704700BF8664004010B5FFF76BFE04460A4A137843F02003137002F571
:401040008072137843F010031370FE3A137843F01003137000F0D4F92046FFF759FE10BD9664004008B5054B1B7823B9FFF7CAFF0122024B1A70FFF7D9FF08BD7281FF1F4E
:40108000014B1878704700BF45650040024B187800F07F00704700BF6665004010B5FFF7F5FF0402FFF7ECFF204380B210BD00BF024B1B780BB1024B187070477281FF1F37
:4010C00048650040034B1B7813F0040FFAD1024B187070476864004048650040084B1B7833B97047305DFFF7EDFF0134E4B203E070B50D4606460024AC42F3D370BD00BF8E
:401100007281FF1F7222074B1A702022013B1A700622693B1A70472210331A70002258331A7070478E64004010B5FFF7EDFD04460A4A137843F020031370013A137843F0DA
:4011400010031370013A137843F01003137000F065F92046FFF7DCFD10BD00BF9E64004008B5054B1B7823B9FFF7CCFF0122024B1A70FFF7D9FF08BD7481FF1F024B18783F
:4011800000F07F00704700BF6D640040024B1B780BB1024B187070477481FF1F4F640040034B1B7813F0040FFAD1024B187070476C6400404F640040084B1B7833B9704731
:4011C000305DFFF7EDFF0134E4B203E070B50D4606460024AC42F3D370BD00BF7481FF1F014B1B681866704708ED00E04001C0B2014B1870704700BF08E400E04FF4807260
:40120000014B1A60704700BF00E100E04FF48072014B1A60704700BF80E100E010B50446FFF7F4FF2046FFF7DBFF0720FFF7DEFFFFF7E4FF10BD00BF4FF48072014B1A6077
:40124000704700BF80E200E0014B1B689864704708ED00E04001C0B2014B1870704700BF02E400E00422014B1A60704700E100E00422014B1A60704780E100E010B5044645
:40128000FFF7F6FF2046FFF7DFFF0720FFF7E2FFFFF7E8FF10BD00BF0422014B1A60704780E200E07222084B1A702022033B1A700622A3F25F131A70472210331A70002231
:4012C00055331A70704700BF8765004010B5FFF71BFD04460A4A137843F020031370033A137843F010031370FA3A137843F01003137000F0A1F82046FFF70AFD10BD00BFD4
:401300009765004008B5054B1B7823B9FFF7CAFF0122024B1A70FFF7D9FF08BD7681FF1F014B1878704700BF47650040024B187800F07F00704700BF6465004010B5FFF7D0
:40134000F5FF0402FFF7ECFF204380B210BD00BF024B1B780BB1024B187070477681FF1F4D640040034B1B7813F0040FFAD1024B187070476A6400404D640040084B1B7810
:4013800033B97047305DFFF7EDFF0134E4B203E070B50D4606460024AC42F3D370BD00BF7681FF1F014B1B681865704708ED00E04001C0B2014B1870704700BF04E400E033
:4013C0001022014B1A60704700E100E01022014B1A60704780E100E010B50446FFF7F6FF2046FFF7DFFF0720FFF7E2FFFFF7E8FF10BD00BF1022014B1A60704780E200E001
:40140000054A137843F0020313701032137843F002031370704700BFA2430040054A137843F0010313701032137843F001031370704700BFA2430040054A137843F004032A
:4014400013701032137843F004031370704700BFA24300400E4B70B51E460E4C0025E41AA410A54204D056F8253098470135F8E700F06EF8084B094C1E46E41AA410002526
:40148000A54204D056F8253098470135F8E770BD5C1500005C1500005C1500006415000010B5431E0A44914204D011F8014B03F8014FF8E710BD03460244934202D003F849
:4014C000011BFAE77047000000000000004F00400C00005100401000305100404000F05100401000000001400006800601408007800E01408001001401408000001501405A
:40150000800100170140000500400140000A004C01400002005001402000000060520040F80C0048060000060140000D00488000000E0140800D0048800080140140000E1B
:401540000048800080160140800E004880000000F8B500BFF8BC08BC9E4670474D00000031060000F8B500BFF8BC08BC9E46704729000000881500000881FF1F180000006F
:401580008000000000000000000000000000E02EC05D00001800000000366E01000000000000000000000000000000000000000000000000000000000000000000000000C3
:4015C00000000000000000000000000000000000000000000000000000000000000000000000000000000000000000000000000000000000000000000000000000000000EB
:4016000000000000000000000000000000000000000000000000000000000000000000000000000000000000000000000000000000000000000000000000000000000000AA
:40164000000000000000000000000000000000000000000000000000000000000000000000000000000000000000000000000000000000000000000000000000000000006A
:40168000000000000000000000000000000000000000000000000000000000000000000000000000000000000000000000000000000000000000000000000000000000002A
:020000040003F7
:0200000480007A
:40000000024F00400352004009640040066500400201014004030140690401403D0501401D06014055070140680801404F0901405A0A0140500B01405B0C0140450D0140BE
:400040001A0E0140360F01401714014059150140111601404F1701406A1801404F190140601A01404E1B01400940014010410140174201400B43014004440140064501403C
:400080000246014001470140054801400B490140054C01400A4D0140075001400351014001500A4B081009100C2085388672880F89388A0F8B0F8C0F8D388E72843885725E
:4000C0008638877289728A0F8B04E2088D089308E201E6080514090C0B710E0814D11510160E17AC1A0C1B201C8C1E131F0321DC23222420264328D129092A062BD02D10AC
:400100002F4030C033E03430360F371F38223A803B083E014004454049FF4A074BFF4C404D204EF04F055008580459045A045F01604061A862406320805C822185E7880869
:400140008E23950296049715985C99449A229B2A9C7FA004A121A34AA418A867A9E7AA18AC10AD80B038B180B240B360B41FB507B718BAA2BE04BF40C002C540C9FFCA0732
:40018000CBFFCC40CD20CEF0CF05D008D418D604D804D904DA04DB04DC31DD32DF01E040E1A8E240E320008001800501060509080A0A0C400E251024140815011612184070
:4001C00019101A0A1B801D011E1D2108224023102402275429902B802F4A302432403520360837143B183D084040452048604C905C016620674180A087408E409308980466
:40020000A508AC04C0D1C2E7C4F6CABDCC6ECE46D021D680D8B0E005E220E611EA08EE028E0193019B019E01B001B701BA08BE01BF40C002C540C9FFCA07CBFFCC40CD209F
:40024000CEF0CF05D008D804D904DA04DC02DD03DF01E040E1A8E240E32000800501061207040A020C440E081410150116051A201B011D141E4223012401250227182C825D
:400280002D202E08310233203402360837503C283E804004410842204502475049024C094E2051205720581059105E10600861106D206E046F017616805882808740890216
:4002C0008D2090029210940195019701984099219B409C089E37A002A20CA504A610A70AA810AC02AF40B120B201B510C0F1C2E1C4F0CAF0CCF5CE70D0B4D230D620E20453
:40030000E80CEE01031C09610B160C010F23115C130319611B0E24022B08331A340135603602370F39203B883E503F104006470449FF4A074BFF4C404D204EF04F0550088D
:4003400054015604580459045A045B045C305D145F01604061A862406320806182168320850387148A088B208D538E238F0C9061920E94809B089C5C9D0A9E039F54A180E9
:40038000A315A61CAD53AF04B01AB110B280B320B460B5C0B60FB70FB820B920BA82BB80BE14BF05C014C105C50BC6E0C70CC819C9FFCAFFCBFFCEF0CF44D00CD418D6041C
:4003C000D804D904DA04DB04DC44DD44DF01E6C0EA40EB020280030A0480070209800A420B201220170419041A4A1B011C021E08214022A023902608271929402A012B015B
:400400002F04318032203711380839A23C203E013F804140430249404B044E04500453105601570A59025C805E085F2260046242644081208B048E208F40920197089C40E5
:400440009E209F01A010A120A60AA901AA01AE40B104B208B508C08BC20DC424CA29CCACCEBFD009D228D6F1D88DE080E440E860EE80034005180724111F1360151F1720C2
:400480001C011D521F24232D317832013303370439083A023B023E043F4454015604580459045B045C205D205F0181148280852089808C0A8E54911C93029453950C960C08
:4004C0009711980399109A449B0C9D409E089F03A109A310A420A645A853A910AA04B040B140B20FB380B480B520B630B71FB880BA08BE01BF15C023C106C50CC6C0C7BE4B
:40050000C839C9FFCAFFCBFFCEF0CF44D00CD401D604D804D904DA04DB04DC33DD33DF01E6C0EA40EB020408064007110A020B020C040E210F081510162019061C201D2005
:400540001E612107224024202681270829012B802E012F043102334436983701380A3C183F02440446204D104E084F085404571159045A825B105E405F1A6080633067404D
:4005800080808205840487028A048B408C108E02900A92089302942095029B449C409D0A9E0DA780AC80AE20AF40B621C090C2E1C460CAA1CCFBCEE3D060D220D6FFD881CC
:4005C000E010E220E61000130204031C0608080A0A140D210F161308140315211614170E1D1C1F232020214023032413260C2A153010310F3420351A360F376039803A8037
:400600003B223E1154015604580459045B045C205F0180098210859F899F8C108D098F329010920C942095149603972A99029B459D80A014A80CAA11AC1CAE02B180B21FE7
:40064000B318B420B507B760BE10BF40C041C103C5E0C60BC70CC816C9FFCAFFCBFFCEF0CF44D00CD418D604D804D904DA04DB04DC02DD02DF01E6C0EA40EB0201010201AC
:400680000301050806880A600E100F20108011201380166417021A281E881F40216823402402251027C42F80312832403745388239153A023E42410142404384450846109C
:4006C0004B02508459015E985F0262A26480820284408C108E809080911492809580974099019A409D029EB4A281A310A520B040B440C079C22CC47BCA80CCDECE9ED00B16
:40070000D6F1D88DE410820193019F01A601B601B701BE44BF40C032C104C6CEC7B0C82CC9FFCAFFCBFFCEF0CF44D00CD804D904DA04DF01E6C0EA40EB0200800120021026
:40074000040209A80A4010A813401508180219211A241C201E0221882388268028802962318832103602378038A83A0240804140425446A449404B405104520256405711B3
:400780005B0869146A8070BC720284108B018E108F80C017C20FC42FCA0DCC9ECE0FD0EFD208D602E280010A0351059F099F0D80151417491D011F26318033183560370783
:4007C0003A023F1054185604580459045B045C235D205F0104A007500C980E480F8011801201164A170818801E281F812044210822C024022540262827842D012F40310846
:400800003240340436283701380139543D203E044448462047804C015401564059025E206120620263026D086F0A748C7608822083408740881389088E029021915492443F
:4008400094C495019702984899029A029B599C079E099F04A130A301A485A504A680A78AA880AA02AD20AE40B401B602C0F0C2F0C4F0CA80CCEACE6FD0F0D210D621D80D8E
:40088000E202E610EE01030117011B02220123023201330237013F4454185604580459045B045C015D105F0100600108028008010A200B111008121613061501195A1A127B
:4008C0001B041E2020202120224823412508264028802A802B142F80325A3504362039023A143B403C0240444290484049404B10510159105E026520678269547008730623
:400900008F12902092649480950196029780984899049B599C069E099F04A110A221A301A4C4A50CA610A70AA804B010B308C00FC20DC41FCA8FCC6FCE8FD007D20CD6847A
:40094000D8B0EA04EE08000C02500A20104D12301301142816511B021C021E542301284D2A10303C310232033501364038083A023E403F104054410645E0460C47B048262D
:4009800049FF4AFF4BFF4EF04F44500C580459045A045C215D015F0166C06A406B0284058514862A8C808D108F0C9008912092549303949F981299099A299B109D1C9F027E
:4009C000A49FA910AD0CAF11B01CB11FB260B403B520B680BB08BE04BF10C025C106C204C403C6C0C7E0C828C9FFCAFFCBFFCC62CDA0CEF0CF41D00CD602D712D804D9044E
:400A0000DA04DB04DC44DD44DF01E640E702E910EA30EB10ED10EE10EF12000801400410064008800A650C400D020E200F4111041510160819401A541C301D031E01212061
:400A40002209240427402B092F80318032213602372039803B04410142104320444049404A084C404D104F40511052025440564057025A0869446A207080711073109180AA
:400A800093249484952299249B809C809D029F04A180A220A309A440A804A920AB08AC41AF20B240B310C055C2BEC444CA8CCCADCE0AD087D23CD602000C02D304D3051818
:400AC000060C093C0BC10C820D7C0F8210C314DF15FF180F19E71AD01B181C411D101E202008210424042704280C29082EC32FC330C0315832203320340F35983610371F93
:400B000038803A203BA03F0454015604580459045B045C445D405F01800182168320860889098A1C8B109170930C941C9603970399109E03A56CA711A801A95CAA0EAB025B
:400B4000AD14B20FB360B41AB51FB908BA28BF04C002C504C9FFCA07CBFFCC40CD20CEF0CF05D008D804D904DA04DC11DD01DF01E040E1A8E240E320000203210410050137
:400B8000071008840A400B040E200F011081121413101608190A1BA01E201F1420022151220423042724288129582A102E082F1630843208332035013620371439A03A047A
:400BC0003C303F0147204E204F0159245B826202860288849240931095029608970199759B839D029E089F04A090A208A302A404A610A7A0A920AB40B204B313B720C07D14
:400C0000C2AFC44FCA7FCCEECEAED020D60FD801E804EE10302032083502378038808601CCF0CE10E2103241364037043B2083048502920194809D029F80A420A608CCF0B6
:400C4000CE10E280E610024003203020538057085A01824086408A018C209201948096829F80A420A648AF10C010CC10D460D640E6C0EE40860894809F80A320A608A780CB
:400C8000AB08AE40E210E810EE8010207B02C408DC018F02A702B020B420E402EE0C8A02E0019A0294809F80A320AF80EE101240864087808C4094809F80AB20C410E0104E
:400CC000E240EC200D0866029A02C204D8011010762088109A20AA20B508C408DE04E204EE08001F0A0F0C1F0E05101E1A0E1C1600FF01FF023F0000888A00005500000050
:400D00000F00F0000C0C0000820F00F008FF0000001C00E3C3C300002CF3D30CFF0000F341080000F3040C00048200000041E3002C1C100F0F2CC0C0080020280000000037
:400D400021060400050EC00009FFFFFF62A0F0410C000000000002110404040431130001000000000000400200103010001010120000000000000000000000000000000004
:400D8000001000002218000073080C00110480007F0000000CBC7342330000040F9C706108FF0000040000000CE70018000033633038801F0F80405880002088000000100C
:400DC00025040300010000CE30FFFFFF62A0F0410C0000000000021204040404000000010000000000004002001030100010101200000000000000000000000000000000A3
:400E00000000030067CF180000CF04007F000000000180001804002A5C88225410000000004280945C00210008000000040000008030400E1FC0200180002000000005015B
:400E40002504030001000CE024FFFFFF62A0F0410C0000000000021104040404133100010000000000004002001030100010101200000000000000000000000000000000CD
:400E8000C3000080F3180C002F08D0000000D38082040000FF1C0061007F00003C1CC36208000004041000000C67001841000043C0200F5820801C1F00020888000010107D
:400EC0003406050002C000E022FFFFFF62A0F0410C000000000002110404040422220001000000000000400200103010001010120000000000000000000000000000000087
:400F0000AA0055AAAA00AA00000000001000201010001000000000000002020000000000000000000000000000000000000000000000000000000000000000000000000050
:400F40000000000000000000000000000000000000000000000000000000000000000000000000000000000000000000000000000000000000000000000000000000000071
:400F80000000000000000000000000000000000000000000000000000000000000000000000000000000000000000000000000000000000000000000000000000000000031
:400FC00000000000000000000000000000000000000000000000000000000000000000000000000000000000000000000000000000000000000000000000000000000000F1
:4010000000000000000000000000000000000000000000000000000000000000000000000000000000000000000000000000000000000000000000000000000000000000B0
:0200000490006A
:0400000000004005B7
:0200000490105A
:04000000BC90ACAF55
:0200000490303A
:0200000089A9CC
:0200000490402A
:4000000000000000000000000000000000000000000000000000000000000000000000000000000000000000000000000000000000000000000000000000000000000000C0
:400040000000000000000000000000000000000000000000000000000000000000000000000000000000000000000000000000000000000000000000000000000000000080
:400080000000000000000000000000000000000000000000000000000000000000000000000000000000000000000000000000000000000000000000000000000000000040
:4000C0000000000000000000000000000000000000000000000000000000000000000000000000000000000000000000000000000000000000000000000000000000000000
:0200000490501A
:0C00000000012E16106900012E229A1239
:00000001FF