:400000000080002011000000350800003508000008B5044B1A6803F53F5302331A6000F00BFC00BFFA46004010B5054C237833B9044B13B10448AFF300800123237010BDF6
:400040002081FF1F00000000181B0000084B10B51BB108480849AFF300800848036803B910BD074B002BFBD0BDE81040184700BF00000000181B00002481FF1F0881FF1FAB
:400080000000000008B5002001F072FB002001F063FB002001F078FB002001F081FB002001F08AFB002001F093FB002000F0B6FF40F2DC5001F0DCFA40F2DC5001F0DEFA3F
:4000C00040F2DC5001F080FA40F2DC5001F082FA022000F06DFB032000F06AFB012000F067FB002000F064FB40F2DC5001F0ECF940F2DC5001F0EEF908BD00BF08B5264B7C
:400100001B68002BFBD0244B1B6813F0010F15D0224B1B78012B11D11F4A136823F00103136000F087FFB0FA80F0400900F076FF00221B4B1A6000F0B9F9E0E7164B1B6853
:4001400003F47053B3F5705F0AD1134A136823F47053136000F0DEFA0122104B1A70CEE70D4B1B6813F0020FC9D00B4A136823F0020313600A4A136801331360052B01DD62
:40018000FFF780FF0022054B1A70034A136843F470531360B3E700BF6481FF1F9181FF1F3C81FF1F08B541F2883000F0C7FE00243B4B1C6001253B4B1D70204601F0D8FA4D
:4001C000204601F0C9FA204601F0DEFA204601F0E7FA204601F0F0FA204601F0F9FA204600F01CFF62B600F015FD2F4800F002FF01F0FAFA01F01AFA40F2DC5001F0E4F9EA
:4002000040F2DC5001F0E6F901F064FA40F2DC5001F02EFA40F2DC5001F030FA00F0E6FF224801F051F8204600F0C2FA00F024FE1F4800F021FF284600F0BAFA00F05CFFE0
:400240001C4801F071F8022000F0B2FA01F0AAF8194801F011F9032000F0AAFA01F092F940F2DC5001F030F940F2DC5001F032F9124801F05BFA01F027FB40F2DC5001F0EC
:40028000DBFA01F091FB4FF47A7001F045FB01F0FBFB40F2E24001F0AFFBFFF72FFF00BF6481FF1F9181FF1FC1020000DD0200003D0300009D030000FD0300005D040000BF
:4002C00008B500F0E9FC00F0A3FE034A136843F00103136008BD00BF6481FF1F08B500F099FF00F0FFFF124B1B7813B1012B09D01AE000F097FFC0B20E4B188001220C4B99
:400300001A7008BD00F08EFF0A4A13889BB243EA002080B210800022054B1A70064A136843F48063136008BD0022014B1A7008BD4081FF1F9881FF1F6481FF1F08B500F00A
:40034000AFFD00F0A7FE124B5B7813B1012B09D01AE000F0ADFDC0B20E4B188001220C4B5A7008BD00F0A4FD0A4A13889BB243EA002080B210800022054B5A70064A136860
:4003800043F40063136008BD0022014B5A7008BD4081FF1F9681FF1F6481FF1F08B500F0BFFE00F0CFFF124B9B7813B1012B09D01AE000F0BDFEC0B20E4B188001220C4B74
:4003C0009A7008BD00F0B4FE0A4A13889BB243EA002080B210800022054B9A70064A136843F48053136008BD0022014B9A7008BD4081FF1F9A81FF1F6481FF1F08B500F0B3
:40040000E5FF01F047F8124BDB7813B1012B09D01AE000F0E3FFC0B20E4B188001220C4BDA7008BD00F0DAFF0A4A13889BB243EA002080B210800022054BDA70064A1368DC
:4004400043F40053136008BD0022014BDA7008BD4081FF1F9481FF1F6481FF1F08B501F045F801F071F9074A536801335360042B07D90022034B5A60034A136843F00203B6
:40048000136008BD4081FF1F6481FF1F08B5B0F57A7F03D3B0F5FA6F03D804E04FF47A7001E04FF4FA6001F00FF808BD38B510E100F006FC964B188010F47F4F40F02381CD
:4004C000C0B29870DB78192B00F20381DFE813F01A0021002600300035003F0044004F0054005E00010178007D0088008D0098009D00A800AD00B800BD00C500CA00D200F5
:40050000D700E100EA2840F0E4800122804BDA70DFE07F4B98800222DA70DAE07C4CA38843EA0020A08001F04FF80323E370D0E0774BD8800422DA70CBE0754CE38843EA0D
:400540000020E08001F046F80523E370C1E0704B18810622DA70BCE06D4C238943EA002020810725E57001F083F8E570B1E0684B58810822DA70ACE0654C638943EA0020B2
:40058000608101F07BF80923E370A2E0022808D003280BD001280ED14FF47A7001F02CFA97E040F2E24001F027FA92E040F2DC5001F022FA8DE04FF47A7001F01DFA88E0DD
:4005C000534BD8810C22DA7083E0514CE38943EA0020E081002100F003F90D23E37078E04B4B18820E22DA7073E0494C238A43EA00202082012100F0F3F80F23E37068E092
:40060000434B58821022DA7063E0414C638A43EA00206082022100F0E3F81123E37058E03B4B98821222DA7053E0394CA38A43EA0020A082032100F0D3F81323E37048E03B
:40064000334BD8821422DA7043E0314BDA8A42EA0020D8821522DA703BE02D4B18831622DA7036E02A4B1A8B42EA002018831722DA702EE0264B58831822DA7029E0244C57
:40068000638B43EA00206083FFF700FF1923E3701FE000F0010001F06BF81D4CA078C0F3400001F059F8A078C0F3800001F06CF8A078C0F3C00001F073F8A078C0F300103C
:4006C00001F07AF8A078C0F3401001F081F80023E37000F00DFB00287FF4EAAE00F0DCFA10F0200F7FF4E4AE00F002FB20B900F0D3FA10F0200F08D0054AD36943F001032B
:40070000D361002038BD012038BD002038BD00BF4881FF1F08B51F48E32380F820301E4B1A8880F821201B88C3F3072380F822301A4B1A8880F823201B88C3F3072380F8DF
:400740002430174B1A8880F825201B88C3F3072380F82630134B1A8880F827201B88C3F3072380F82830104B1A8880F829201B88C3F3072380F82A300C4B1A8880F82B2032
:400780001B88C3F3072380F82C3020300D2100F0EBFA08BD4881FF1F9881FF1F9681FF1F9A81FF1F9481FF1F9C81FF1F9281FF1F08B5032812D8DFE800F002060A0EFF20D7
:4007C00000F03AFD08BDFF2000F07CFB08BDFF2000F0B8FC08BDFF2000F00AFE08BD00BF08B540F6FC73984200D91846104A00F01F03403B1370C0F346105070032916D8DF
:40080000DFE801F002070C110948022100F02AFD08BD0748022100F06BFB08BD0448022100F0A6FC08BD0248022100F0F7FD08BD7881FF1FFEE700BF08B5104E104D16E0F8
:4008400029686B68AC68002204E051F8040B43F8040B0432A242F8D1E868002203E0002143F8041B04328242F9D11035013E002EE6D101F017F9FFF795FCFEE7010000000A
:40088000B01B000008B5124A124B1A60124A136843F40073136000230AE0032B03D80F4A52F8231000E00E490E4A42F8231001332F2BF2D90C4B1A780C4B1A70094A0C4BD4
:4008C0001A6000F0BBF800220A4B1A6008BD00BF0004FA050CED00E014ED00E000000000350800000080FF1FBC7600400481FF1F08ED00E00081FF1FFEE700BFF0B40022DB
:40090000174611E050F82760F3B226F0FF0608E001EB420511F812406D78A5550132013BDBB2002BF4D10137282FEBD9F0BC7047064B1B78DBB203F00701054A11701B0983
:40094000013213704422034B1A707047CF0100496E5800407658004008B50A46002101F0D2F808BD38B51722284B1A801823284A13701925023215800232137040F2371156
:4009800002321180023213700222224B1A7008224FF040231A70032103F5007319701E4B1B78DBB21D490B701D4B1A8041F25122023B1A8000240CE01A4B1B7803F001034A
:4009C00043EA440404F003044FF4F07000F0A4FA013D0DB1032CEFD115B90320FFF78CFF114B4FF480721A8007221A7000220F490A704820023108701A700222033B1A709E
:400A00000B4A137843F00703137038BD80400040824000400043004008010049A146004022420040254200400440004006400040A243004008B501F05BF808BD38B572B6CE
:400A40003D4A137843F00403137000240CE03B4963001A1952000A4423445B00C8589188FFF77AFF0134E4B2092CF0D9002410E03249A3001A1952000A4452F83C0F2344A9
:400A80005B000B445168B3F84420FFF7D3FF0134E4B2042CECD94FF090402949FFF72EFF284A137843F0020313701032137843F002031370244C237843F040032370A2F5AD
:400AC0008632513A137843F0100313701F4820490822FFF7AFFF1F481F490A22FFF7AAFF1E481F490822FFF7A5FF1E481E490A22FFF7A0FF1D481E490822FFF79BFF1D481C
:400B00001D490822FFF796FF1C4A137843F0080313701B4D61232B70FFF724FF81232B700122184B1A70FFF703FF174821460E22FFF780FF38BD00BFE84600401C1B00003D
:400B4000A400004803500140A04300400251004004140048C05100400C140048F2510040181400481051004020140048225100402C140048325100403414004822430040DF
:400B80000048004004000840B043004008B50C200D4900F0E9F90C20072100F0F9F900230A4A137072210A4A1170202102F2031211700621A2F25D121170472110321170E4
:400BC0005032137008BD00BF910D00007C81FF1F8864004008B500F0A7F90B4A137843F02003137002F20312137843F0100313704FF48052054B1A60054A137843F0100325
:400C0000137000F095F908BD9864004000E100E09E64004008B5054B5B7823B9FFF7B6FF0122024B5A70FFF7D5FF08BD7C81FF1F4FF48052134B1A60134A9378DBB2D17839
:400C4000C9B2127912F0FF0F01D18B4211D00F4AD05CC0B20133DBB2312B00D900230A4A9370137913F0FF0F06D00022064B1A7102E0074B1878C0B24FF48052054B1A60F1
:400C8000704700BF80E100E07C81FF1FA081FF1F4B65004000E100E0074B187800F07F00064B5B7913F0FF0F04D040F080000022024B5A71704700BF6B6500407C81FF1F8C
:400CC00010B54FF48053074A1360074A147800211170064A13602402FFF7AAFF204380B210BD00BF80E100E07C81FF1F00E100E04FF48052134B1A60134A9378D278DBB2E4
:400D0000934206D1104B1B7913F0FF0F14D0322013E00D4A9378D278DBB2934205D20A4AD3789078181AC0B207E0074AD3789078181A3230C0B200E000204FF48052034BBA
:400D40001A60704780E100E07C81FF1F00E100E0034B1B7813F0040FFAD1024B187070476E6400404D640040084B5B7833B97047305DFFF7EDFF0134E4B203E070B50D4676
:400D800006460024AC42F3D370BD00BF7C81FF1F1C4B1B78DBB213F01E0F05D01A4803F01E0201780A43027003F0200303F0FF022BB3164B1978C9B2154B1B78DBB215489D
:400DC000C154154B1B7813F0FF0F02D00121134B19700F490B780133DBB20B700B78DBB2312B02D900210A4B1970094B1B780C490978DBB28B4202D10121074B1970002A91
:400E0000C6D170476B6500407C81FF1F4B6500407F81FF1FA081FF1F8081FF1F8181FF1F7E81FF1F7222074B1A702022013B1A700622633B1A70472210331A7000225C33E1
:400E40001A7070478464004008B500F06DF8094A137843F020031370013A137843F0100313700932137843F01003137000F060F808BD00BF9464004008B5054B1B7823B9A2
:400E8000FFF7D0FF0122024B1A70FFF7DDFF08BD8381FF1F014B1878704700BF47640040024B187800F07F00704700BF6364004010B5FFF7F5FF0402FFF7ECFF204380B289
:400EC00010BD00BF024B1B780BB1024B187070478381FF1F43640040034B1B7813F0040FFAD1024B187070476C64004043640040084B1B7833B97047305DFFF7EDFF0134C3
:400F0000E4B203E070B50D4606460024AC42F3D370BD00BF8381FF1F0230800803D000BF01380046FCD17047EFF3108072B6704780F31088704700BF01BE704710B50446E8
:400F400005E0084B1868FFF7E7FFA4F50044B4F5004FF6D8034B586800FB04F0FFF7DCFF10BD00BF0C81FF1F70B504460E46074B1D681F2802D90020FFF7DEFF04F01F046F
:400F8000103455F8240045F8246070BD08ED00E038B504460D46072902D90020FFF7CCFF1F2C02D90020FFF7C7FF04F01F0000F1604000F564406D01EDB2057038BD00BFCE
:400FC000014B1B681864704708ED00E04001C0B2014B1870704700BF00E400E00122014B1A60704700E100E00122014B1A60704780E100E010B50446FFF7F6FF2046FFF7C1
:40100000DFFF0720FFF7E2FFFFF7E8FF10BD00BF0122014B1A60704780E200E0044A137803F0FD03400000F0020018431070704720510040024B1878C0F34000704700BF02
:4010400021510040014B1B689865704708ED00E04001C0B2014B1870704700BF06E400E04022014B1A60704700E100E04022014B1A60704780E100E010B50446FFF7F6FFE5
:401080002046FFF7DFFF0720FFF7E2FFFFF7E8FF10BD00BF4022014B1A60704780E200E07222084B1A702022A3F580731A700622653B1A70472210331A7000224F331A70F0
:4010C000704700BF8665004008B5FFF72DFF094A137843F020031370A2F58072137843F010031370063A137843F010031370FFF71FFF08BD9665004008B5054B1B7823B9B8
:40110000FFF7CEFF0122024B1A70FFF7DDFF08BD8581FF1F014B1878704700BF45650040024B187800F07F00704700BF6664004010B5FFF7F5FF0402FFF7ECFF204380B204
:4011400010BD00BF024B1B780BB1024B187070478581FF1F46640040034B1B7813F0040FFAD1024B187070476064004046640040084B1B7833B97047305DFFF7EDFF013444
:40118000E4B203E070B50D4606460024AC42F3D370BD00BF8581FF1F7222074B1A702022013B1A700622A7331A70472210331A700022B13B1A7070478264004008B5FFF7A8
:4011C000B3FE094A137843F020031370013A137843F0100313700632137843F010031370FFF7A6FE08BD00BF9264004008B5054B1B7823B9FFF7D0FF0122024B1A70FFF7E7
:40120000DDFF08BD8781FF1F014B1878704700BF42640040024B187800F07F00704700BF6164004010B5FFF7F5FF0402FFF7ECFF204380B210BD00BF024B1B780BB1024B48
:40124000187070478781FF1F47650040034B1B7813F0040FFAD1024B187070476764004047650040084B1B7833B97047305DFFF7EDFF0134E4B203E070B50D46064600244A
:40128000AC42F3D370BD00BF8781FF1F014B1B681866704708ED00E04001C0B2014B1870704700BF08E400E04FF48072014B1A60704700BF00E100E04FF48072014B1A6099
:4012C000704700BF80E100E010B50446FFF7F4FF2046FFF7DBFF0720FFF7DEFFFFF7E4FF10BD00BF4FF48072014B1A60704700BF80E200E0014B1B689864704708ED00E0A0
:401300004001C0B2014B1870704700BF02E400E00422014B1A60704700E100E00422014B1A60704780E100E010B50446FFF7F6FF2046FFF7DFFF0720FFF7E2FFFFF7E8FF93
:4013400010BD00BF0422014B1A60704780E200E07222074B1A70202201331A7006229C331A70472210331A7000224E331A7070478964004008B5FFF7D7FD094A137843F02C
:40138000200313700132137843F010031370FA32137843F010031370FFF7CAFD08BD00BF9964004008B5054B1B7823B9FFF7D0FF0122024B1A70FFF7DDFF08BD8981FF1F08
:4013C000014B1878704700BF49650040024B187800F07F00704700BF6A64004010B5FFF7F5FF0402FFF7ECFF204380B210BD00BF024B1B780BB1024B187070478981FF1FD6
:4014000044650040034B1B7813F0040FFAD1024B187070476465004044650040084B1B7833B97047305DFFF7EDFF0134E4B203E070B50D4606460024AC42F3D370BD00BF55
:401440008981FF1F014B1B681865704708ED00E04001C0B2014B1870704700BF04E400E01022014B1A60704700E100E01022014B1A60704780E100E010B50446FFF7F6FF4D
:401480002046FFF7DFFF0720FFF7E2FFFFF7E8FF10BD00BF1022014B1A60704780E200E0024A137843F08003137070477D640040014B1880704700BF08680040014B1880C4
:4014C000704700BF88680040014B1880704700BF48680040014B1880704700BF68680040014B1870704700BF8B640040014B1878704700BF6B640040014B188880B27047E3
:40150000A868004008B501E0FFF7F6FFFFF7EEFF10F0100FF8D108BD08B5184A137803F0C00343F0090313701732137843F0010313700132137843F00103137044F6206060
:40154000FFF7B6FF44F62060FFF7B8FF40F2DC50FFF7BAFF40F2DC50FFF7BCFF0420FFF7BFFFFFF7E1FC064A137843F010031370FFF7DEFCFFF7C6FF08BD00BF7D640040BE
:401580009B64004008B5054B1B7823B9FFF7C4FF0122024B1A70FFF783FF08BD8B81FF1F024A137843F080031370704777650040014B1880704700BF10680040014B18807D
:4015C000704700BF90680040014B1880704700BF50680040014B1880704700BF7068004008B5114A137803F0C00343F009031370DF3A137843F0010313700132137843F00F
:401600000103137044F62060FFF7D2FF44F62060FFF7D4FF40F2DC50FFF7D6FF40F2DC50FFF7D8FF08BD00BF7765004008B5054B1B7823B9FFF7D4FF0122024B1A70FFF7F6
:40164000AFFF08BD8C81FF1F024A137843F08003137070477B640040014B1880704700BF14680040014B1880704700BF94680040014B1880704700BF54680040014B188000
:40168000704700BF7468004008B5114A137803F0C00343F0090313701F32137843F0010313700132137843F00103137044F62060FFF7D2FF44F62060FFF7D4FF40F2DC500D
:4016C000FFF7D6FF40F2DC50FFF7D8FF08BD00BF7B64004008B5054B1B7823B9FFF7D4FF0122024B1A70FFF7AFFF08BD8D81FF1F014B1B685867704708ED00E04001C0B2B0
:40170000014B1870704700BF0DE400E04FF40052014B1A60704700BF00E100E04FF40052014B1A60704700BF80E100E010B50446FFF7F4FF2046FFF7DBFF0720FFF7DEFFC2
:40174000FFF7E4FF10BD00BF4FF40052014B1A60704700BF80E200E0044A137803F0FB03800000F0040018431070704730510040044A137803F0FD03400000F00200184307
:401780001070704730510040044A137803F0F703C00000F0080018431070704730510040044A137803F0EF03000100F0100018431070704730510040044A137803F0DF03A0
:4017C000400100F0200018431070704730510040044A137803F0BF03800100F0400018431070704730510040054A137843F0010313701032137843F001031370704700BF22
:40180000A2430040084A137843F0010313701032137843F00103137002F64D32137843F001031370704700BFA3430040014B1880704700BF044F0040014B1880704700BFC6
:40184000064F0040014B1870704700BF034F004008B51A4A137843F0020313700232137803F08F0343F010031370154B1A7802F0CF021A701A7842F030021A701A7802F040
:40188000F0021A701A7842F00F021A7044F62060FFF7CCFF40F2DC50FFF7CEFF0020FFF7D1FF084A137843F00103137002F65E32137843F00103137008BD00BF004F004054
:4018C0000B4F0040A343004008B5054B1B7823B9FFF7BEFF0122024B1A70FFF793FF08BD8E81FF1F084A137843F0040313701032137843F00403137002F66532137843F014
:4019000001031370704700BFA3430040014B1880704700BF1C4F0040014B1880704700BF1E4F0040014B1870704700BF1B4F004008B51A4A137843F002031370023213785E
:4019400003F08F0343F010031370154B1A7802F0CF021A701A7842F030021A701A7802F0F0021A701A7842F00F021A7044F62060FFF7CCFF40F2DC50FFF7CEFF0020FFF749
:40198000D1FF084A137843F00403137002F67632137843F00103137008BD00BF184F0040234F0040A343004008B5054B1B7823B9FFF7BEFF0122024B1A70FFF793FF08BD5F
:4019C0008F81FF1F084A137843F0020313701032137843F00203137002F65932137843F001031370704700BFA3430040014B1880704700BF104F0040014B1880704700BFE2
:401A0000124F0040014B1870704700BF0F4F004008B51A4A137843F0020313700232137803F08F0343F010031370154B1A7802F0CF021A701A7842F030021A701A7802F066
:401A4000F0021A701A7842F00F021A7044F62060FFF7CCFF40F2DC50FFF7CEFF0020FFF7D1FF084A137843F00203137002F66A32137843F00103137008BD00BF0C4F004079
:401A8000174F0040A343004008B5054B1B7823B9FFF7BEFF0122024B1A70FFF793FF08BD9081FF1F0E4B70B51E460E4C0025E41AA410A54204D056F8253098470135F8E750
:401AC00000F064F8084B094C1E46E41AA4100025A54204D056F8253098470135F8E770BD981B0000981B0000981B0000A01B000010B5431E0A44914204D011F8014B03F8F9
:401B0000014FF8E710BD03460244934202D003F8011BFAE77047000000000000004F0040240040510040300000000140000480040140800B0014014080000015014000054B
:401B4000801A0140800100400140000A004C0140000200500140200060520040741200480600005101407C12004808000004014084120048800080140140041300488000B1
:401B8000001A01408413004880000000F8B500BFF8BC08BC9E4670474D00000085080000F8B500BFF8BC08BC9E46704729000000C01B00000881FF1F18000000B800000018
:401BC000000000000000E02EC05D00001800000000366E010000000000000000000000000000000000000000000000000000000000000000000000000000000000000000FD
:401C000000000000000000000000000000000000000000000000000000000000000000000000000000000000000000000000000000000000000000000000000000000000A4
:401C40000000000000000000000000000000000000000000000000000000000000000000000000000000000000000000000000000000000000000000000000000000000064
:401C80000000000000000000000000000000000000000000000000000000000000000000000000000000000000000000000000000000000000000000000000000000000024
:401CC00000000000000000000000000000000000000000000000000000000000000000000000000000000000000000000000000000000000000000000000000000000000E4
:020000040003F7
:0200000480007A
:40000000034F0040065200400E640040056500407400014046010140710201405A030140290401404E0501406A0601405E070140750801404E090140690A0140420B0140BA
:40004000650C0140520D01406C0E0140400F01402C140140581501406516014055170140761801404E190140371A01405B1B01400B400140114101401A4201401643014035
:40008000064401400E4501400B460140064701400848014011490140074C0140094D0140085001400A4B164B224B09100C6010C8116818011981800F813882728338847278
:4000C0008638870F887289728A388B0F8C0F8E0F8F0F840F867289728A388B38055009020A4C0B0C0C110D400E460F30104C121315241740181119401A0E1D701F08260813
:40010000282029302A032B442D01300F32303301344A357C370238083A223F444003450449FF4A074BFF4C404D204EF04F05500854015604580459045A045B045C115D11A6
:400140005F01604061A8624063208082810484FF8703880489678B188C088F0494F3957F960C98C399089C419D3C9F42A00FA2F0A53CA6F3A741A80CA918AC1CAD10AEE379
:40018000B01CB11FB20FB42CB520B6C0B740B980BA28BB02BF10C002C540C9FFCA07CBFFCC40CD20CEF0CF05D008D418D604D804D904DA04DB04DC11DD11DF01E040E1A8EC
:4001C000E240E3200040030805A406400A840C100E100F021020120414A01510179019101A841B081D081E511F1021502204278A280129102B022D902F1030203240330884
:40020000340235243781384039203B083C843E103F024104452048204D0150045204561058015A285B405E016020620A640A678080048208860288808B50C0F3C2EAC4F6FC
:40024000CA7CCC7ECEFED022D68FD8B1E284E680030207080B020C680E15105612091301146816131B041E162202230126292F08301B3106320733013460370838203A0A05
:400280003E103F45403641024205440145EC480349FF4AFF4BFF4C624DA04EF04F41500C56025712580459045A045B045C015D115F016640670269106A306B106D106E1011
:4002C0006F1280068209872B89188B218C148E29911F936094279608991F9B209D549E109F21A440A60BA827AA18AB40B01EB178B201B306B660B701B880B908BA02BB0294
:40030000BE04BF44C042C106C6CEC70BC81CC9FFCAFFCBFFCEF0CF44D00CD418D604D804D904DA04DB04DC11DD11DF01E6C0EA40EB0200800240038004800A110D010EA188
:400340000F201214140815011610172018901A011C801D201EB020402106228027A12B082D422E40311232403620370238283A083F164102420844044508478049104D4222
:400380004E084F045090532459015F08608461406D9475A0771080408204848089148E809008918192C09310944095089620970899109A109B0A9C089DA49F51A108A228C0
:4003C000A309A520A702AC40B010B260B311C089C2B5C436CA94CCADCEE6D075D234D641D80DEA02EE208B01930196019A01A402A802AC02B002B301B401B902BA08BE1025
:40040000BF01C010C105C502C610C75DC839C9FFCAFFCBFFCDAFCE0FCF04D018D804D904DA04DC01DF01E040E2C0E440E540E6C0E8C0EAC0ECC0EEC000400128038008246C
:400440000A800D18102012011312155419311A201B801C441D041E60210A2240230827E0282029102B80300431063240340238683A023C20400244024A024E024F045411CC
:4004800056085B08695470347202731283C08603870488118E0891839201940498029A149C049D459E40A310A702A890AB60AC02AD40B610B780C00FC26EC4EFCA07CC8BA3
:4004C000CE2FD018D218D602E002E204E40AE806EC04EE420020020303200440051F08400B200C40101C110212021305140C15141611170A18141C091E1020102810291FF7
:400500002A0C2D092F12301F310732203320351836403E043F044023410646BC47E0482C49FF4AFF4BFF4EF04F44500C54185604580459045A045B045C115D115F0166C0AE
:400540006A406B028044822A840285018615968098219A4AA280A467A867B060B207B301B418B680BE50BF04C064C103C201C402C5C0C6E0C80AC9FFCAFFCBFFCC62CDA0AA
:40058000CEF0CF41D00CD401D604D804D904DA04DB04DC01DD11DF01E640E702E910EA30EB10ED10EE10EF12010A04280501060807010A200B080D210E010F2010801114F7
:4005C000150116041804194A1D051F80220424802609270429022A012C022F083004320836013704380239083B053C203E083F02402442424614488049204F205110552076
:4006000056405702584159105A085F0160806404678281828212874088418B048D108EA091179261930895209602980299209A149C809D489E41A001A210A310A702A8801A
:40064000AB20AC20AF04B540C0FCC2F6C45ECA30CCC0CEE2D06FD224D68FD8B1E205E401EA80EE10014003030B1C0C2A0E441073111C120C132315211608170E18031A442C
:400680001E551F08247326042D212F16300F316032403430351A370F382039023A023BA03E144010410449FF4AFF4BFF4DA04F04501856025711580459045A045B045C115A
:4006C0005D205F01604062C06440654066C068C06AC06CC06EC0810284C38502888289028C418E1092C39301942C96C398EF9CE39E0CA008A301A404A80CAC2FAEC0B0C0DC
:40070000B101B210B302B420B60FBA80BB20BE10BF01C010C104C610C725C838C9FFCAFFCBFFCDAFCE0FCF04D018D602D711D804D904DA04DB04DC21DD10DF01E040E2C0CC
:40074000E440E540E6C0E8C0EAC0ECC0EEC0008002280701085009080A090B400E400F2A10A81202170419111A011B081D201E401F04204022102310250127052A012E4021
:40078000320136803705386A3A403F2240024102440245425102521459105E2069546C156D2870A8754077188240830489048A018B048D018F1495229C509D019E14A001C1
:4007C000A108A202A4B8A540A70AAD80B202B410C087C2FFC42FCA11CCD1CEA7D099D624E040E290E401EA80EC0203A3059C0604076209040A010D1C0E040FE115181908B0
:400800001D101E0A21E72201231825FF26022A082B04300231383208331F340435403601379839203B0A3E504030410149FF4AFF4BFF4DA04F045018541856045804590496
:400840005A045B045C105D105F01604062C06440654066C068C06AC06CC06EC08201830C8A068B038E08910295089E02A604AA08B004B102B201B308B408B504B602B701F9
:40088000BE10C030C104C550C612C80EC9FFCAFFCBFFCDAFCE0FCF04D018D280D407D604D804D904DA04DB04DF01E040E2C0E440E540E6C0E8C0EAC0ECC0EEC00020022087
:4008C00003020410074109400F011294162818A51C101D801E482042210C22A227AA28502B0830A8370A3840392A3F1240104384464047044F015660578059015C025E0877
:400900005FA0600562016602774080408201840487018B118C028E409A08A404A820AA20AD01AE29AF20B501C0D7C281C46ECA07CCCECEAFD0CAD6F1D88DE091E488EE40DB
:400940000010031C048005610603078E08140BA30C1C0E22115C13831440156117961C091E1023082430260C282C2A112D602F803280331A341F35F03660370F38803BA867
:400980003E0440324106460E47CB483449FF4AFF4BFF4EF04F44500C54015604580459045A045B045C225D125F0166C06A406B028301842089028C1C8E0290409203940CB3
:4009C000961198109A0C9C099E10A010A814B01FB101B240B420B502BE14BF10C023C106C50CC60EC70BC815C9FFCAFFCBFFCEF0CF44D00CD280D804D904DA04DB04DC02F8
:400A0000DD02DF01E6C0EA40EB0200080202040405020604070109200A420B200E121088171418281A401C261E02210123082504268827152D022F02370538023A203C02C0
:400A40003D283E104120430845104704482049204B204E08500853805440560457025C205D405E015F086501700188108B068C148D409202970899229F26A080A130A202DF
:400A8000A308A460A504A680A782AD08AF12B004B102B211C0F5C2AFC46ACA90CCC0CEE5D066D224D6F0D880E0E0EAA0EEA004A80613071509030B0413081416152A16A9A1
:400AC000170418A819331A151B0C1E16214022022680284029332A892B0430803130321B33403407350F3660388039023A283B203E013F054004454049FF4A074BFF4C4023
:400B00004D204EF04F05500854015604580459045A045B045C225D225F01604061A862406320850D8B058D0291109412950D9625980499109A0A9C289D089E149F01A03E37
:400B4000A43EA910AF01B101B201B310B40EB502B630B70CB980BF51C001C540C9FFCA07CBFFCC40CD20CEF0CF05D008D401D604D804D904DA04DB04DC11DD22DF01E040FA
:400B8000E1A8E240E320000409200A120E2510B0121816201702180419241A521C081D081E052121220424602540270829212B802E202F06312432013680372638083A1084
:400BC0003C803D083F604101454048804A014B404D0250045208530855105710581059015A485C405E025F1861026440801088408E12C004C2E7C43ECA35CCF7CE76D011A0
:400C0000D6FFD881E280008002030430060C0C1C0E221040142C161118091A101D0124142C10301F33013460368038203E403F0440214103450C46BE480D49FF4AFF4BFF5D
:400C40004EF04F44500C54015604580459045A045B045C015D115F0166C06A406B020080010203100480079409090A040D080E851020118013801620180119021A041C80C5
:400C80001D681E801F04220424022758281029042E042F04328035043640371038023B023D223E013F044108420143104420452249044D404E084F04502052805701581228
:400CC0005A085B405C205E20608078027A8080808112840286208C019080914097029B049D409E209F08A151A218A402A701AC20AE04C0FDC2FEC425CA60CC78CEE0D0EE4A
:400D0000D230D60FD801E202E608E802EE08003C010802420404050C086709F30A180B0C0D0F0E040FF0111C13E3147F1582180819FF1C3C1E411FF321C32203250428180E
:400D400029412C10301F312C3240330F3420351C37C038083A023B0A3E104003460449FF4A074BFF4C404D204EF04F05500856025712580459045A045B045C115D115F01FD
:400D8000604061A8624063208201851092019303951C970299099B10A10CA311A514AD10AE02AF0CB001B11FB402C053C104C50BC60CC70EC815C9FFCAFFCBFFCEF0CF44BC
:400DC000D00CD280D804D904DA04DB04DC10DD01DF01E6C0EA40EB02000204100541062008020C200E22134014401601171019021A041C201D011E08220124522510260965
:400E0000288029842C202E202F4031083221344035013610370438803B883C583E0240A04102470849845104528055415E086C146F097340742476037710784079408102B5
:400E40008B0490809140942A950896029702980299809B049F01A001A10AA230A412A680A709A904AD08B020B210B540B780C0F8C2E8C4D1CAEBCCF7CEF2D043D208D64088
:400E8000EA0200C3030404F30504060C080F0AF00B030C08101C113C12E31342150816F3184119181C8220FF217F2404253C2741280C29672B182D10301C3140320F342CD4
:400EC000352036C0371F39023A283B803F104002454049FF4A074BFF4C404D204EF04F055008580459045A045C225D015F01604061A862406320840A85E78651889F89E794
:400F00008C018D808E2690809544972A981499029A499B15A89FAD21AF4AB007B180B260B360B418B507B680B718BE04BF40C034C102C205C401C50CC7E0C821C9FFCAFF41
:400F4000CBFFCC62CDA0CEF0CF41D00CD602D712D804D904DA04DB04DC12DD21DF01E640E702E910EA30EB10ED10EE10EF1200480304040205D006200A840E810F1813207F
:400F800014401718184019201A141B801D101E421F182149222823402480265027022A802C402D802E222F1831083220371A39543D023F1840084145452048114E8053022E
:400FC00057015A086A806B2470A88A80915C92209310952296029740980899409A409B189E01A001A134A450A540A6B8A703AF01B008B204C0F7C2FAC472CAF8CCE6CEEE41
:40100000D02FD208D602E280E8808202851F891F8D028E028F4592049514972A99099BB29E04A601AE01B004B180B202B360B401B518B707BE15BF04C036C101C205C402C4
:40104000C5C0C60EC806C9FFCAFFCBFFCC62CDA0CEF0CF41D00CD418D604D804D904DA04DB04DC20DD22DF01E640E702E910EA30EB10ED10EE10EF12004001200360048031
:40108000068008820A200B040E400F8110A81214158819911A021B281C041F05214222042304240225412728288229102A043080310232103318342037083A103B043DA834
:4010C0004002421043904622472049904F9151045201568059015E02600462426502670A8348850286028A018B088C208F0490C0927093109402960B988099209A629E011A
:40110000A0A8A114A201A380A501A704AD40AF01B0C4B110B280B612C09FC29FC4AECA0FCC6FCE76D07ED23CD681D8BDE41032103302372138206A28870188048A80CCF076
:40114000CE10E240320833403404362038105B048620942096089804A280A702B320CCF0CE10D640E64005023020320435083680504056085F0163218010831187049430C0
:4011800096089F44A280A702B608C020CCF0D460D6C0D840E2A0E410E68019801B081F0483088702960897089E089F40A420A702A810AB04AD02B108B440C670E210E4805A
:4011C000EA80EC10EE80144071017504C404DC01DE0455015B045F08620864808A408D059D05B040D607D803E008E403EA015280830486808F089A409C809F0CA501A608A0
:40120000D404E40281019A40A501AC80B608EC028304960899809F40A420AA08E620EE8016405D806308834084208644960899809F40A304A420C420D620D840E010E2403B
:40124000E69008100C0162429A40C206D602D80212808E82A602B011C408E202E408EA04EE04000708020A030C070E0710071A031C060000110500006A000000FFFFFF0F2C
:40128000000000000F10F000C3180000F3080C000000F3031C00E304FF7F000041000000003C0042083C0041040400800C67001882000000C0801C400F202C1F0008A080AF
:4012C00000000010100500000000000000FFFFFF00A00004180000000000021204040404111000014000C0004040C000C000C000C000C0000000000000000000000000008A
:4013000000000000000008950100164000002040000040001C000300010C0E90008F1C30002A0390000000000000A020008F0010000000000F801A3C6003804000200A081E
:401340000000105165030400020C00E021FFFFFF62A0F0410C0000000000000004040400110100010000000000004002001030100010101200000000000000000000000072
:40138000000000000F00F000F33C0C4282080000C30000000000F304FF3C00411C7FE3004110000008040080041800000C67001800000003C0802C200F1F1C40008028200E
:4013C0000000000461020500030000CE30FFFFFF62A0F0410C000000180004000404040422220001000000000000400200103010001010120000000000000000000000000F
:4014000000000000004040004000000095006A959500950000000000001010001000000090006090900090000000000000FAFA00F800000000FFFF008100000000000000F3
:40144000000000000000000000000000000000000000000000000000000000000000000000000000000000000000000000000000000000000000000000000000000000006C
:40148000000000000000000000000000000000000000000000000000000000000000000000000000000000000000000000000000000000000000000000000000000000002C
:4014C00000000000000000000000000000000000000000000000000000000000000000000000000000000000000000000000000000000000000000000000000000000000EC
:4015000000000000000000000000000000000000000000000000000000000000000000000000000000000000000000000000000000000000000000000000000000000000AB
:0200000490006A
:0400000000004005B7
:0200000490105A
:04000000BC90ACAF55
:0200000490303A
:02000000FD53AE
:0200000490402A
:4000000000000000000000000000000000000000000000000000000000000000000000000000000000000000000000000000000000000000000000000000000000000000C0
:400040000000000000000000000000000000000000000000000000000000000000000000000000000000000000000000000000000000000000000000000000000000000080
:400080000000000000000000000000000000000000000000000000000000000000000000000000000000000000000000000000000000000000000000000000000000000040
:4000C0000000000000000000000000000000000000000000000000000000000000000000000000000000000000000000000000000000000000000000000000000000000000
:0200000490501A
:0C00000000012E16106900012E270DBC17
:00000001FF