:400000000080002011000000690900006909000008B5044B1A6803F53F5302331A6000F0A5FC00BFFA46004010B5054C237833B9044B13B10448AFF300800123237010BDF2
:400040002081FF1F00000000A41D0000084B10B51BB108480849AFF300800848036803B910BD074B002BFBD0BDE81040184700BF00000000A41D00002481FF1F0881FF1F8F
:400080000000000008B5002001F0B8FC002001F0A9FC002001F0BEFC002001F0C7FC002001F0D0FC002001F0D9FC002001F066F840F2DC5001F08EFB40F2DC5001F090FB85
:4000C00040F2DC5001F032FB40F2DC5001F034FB022000F0AFFB032000F0ACFB012000F0A9FB002000F0A6FB40F2DC5001F09EFA40F2DC5001F0A0FA08BD00BF08B5264BA8
:400100001B68002BFBD0244B1B6813F0010F15D0224B1B78012B11D11F4A136823F00103136001F037F8B0FA80F0400901F026F800221B4B1A6000F0D9F9E0E7164B1B68DF
:4001400003F47053B3F5705F0AD1134A136823F47053136000F020FB0122104B1A70CEE70D4B1B6813F0020FC9D00B4A136823F0020313600A4A136801331360052B01DD1F
:40018000FFF780FF0022054B1A70034A136843F470531360B3E700BF6881FF1FBB81FF1F3C81FF1F08B541F2883000F077FF0024474B1C600125474B1D70204601F01EFC0E
:4001C000204601F00FFC204601F024FC204601F02DFC204601F036FC204601F03FFC204600F0CCFF62B600F0B7FD3B4800F0B2FF01F040FC01F0CCFA40F2DC5001F096FAC7
:4002000040F2DC5001F098FA01F016FB40F2DC5001F0E0FA40F2DC5001F0E2FA01F096F82E4801F001F9204600F004FB00F0C6FE2B4800F0D1FF284600F0FCFA01F00CF822
:40024000284801F021F9022000F0F4FA01F05CF9254801F0C3F9032000F0ECFA01F024FB224801F075FBFE204FF4967100F05EFBFE2040F2FF3100F03BFB02204FF40061B2
:4002800000F01AFB28464FF4006100F015FB01F02BFA40F2DC5001F0C9F940F2DC5001F0CBF9134801F088FB01F054FC40F2DC5001F008FC01F0BEFC4FF47A7001F072FC53
:4002C00001F028FD40F2E24001F0DCFCFFF716FF6881FF1FBB81FF1FF50200001103000071030000D103000031040000910400009D04000008B500F071FD00F039FF034A11
:40030000136843F00103136008BD00BF6881FF1F08B501F02FF801F095F8124B1B7813B1012B09D01AE001F02DF8C0B20E4B188001220C4B1A7008BD01F024F80A4A1388C9
:400340009BB243EA002080B210800022054B1A70064A136843F48063136008BD0022014B1A7008BD4081FF1FC281FF1F6881FF1F08B500F037FE00F03DFF124B5B7813B102
:40038000012B09D01AE000F035FEC0B20E4B188001220C4B5A7008BD00F02CFE0A4A13889BB243EA002080B210800022054B5A70064A136843F40063136008BD0022014B03
:4003C0005A7008BD4081FF1FC081FF1F6881FF1F08B500F055FF01F065F8124B9B7813B1012B09D01AE000F053FFC0B20E4B188001220C4B9A7008BD00F04AFF0A4A138891
:400400009BB243EA002080B210800022054B9A70064A136843F48053136008BD0022014B9A7008BD4081FF1FC481FF1F6881FF1F08B501F07DF801F0DFF8124BDB7813B1F2
:40044000012B09D01AE001F07BF8C0B20E4B188001220C4BDA7008BD01F072F80A4A13889BB243EA002080B210800022054BDA70064A136843F40053136008BD0022014BD0
:40048000DA7008BD4081FF1FBE81FF1F6881FF1F08B501F017FA01F069FA08BD08B501F0D7F801F097FA074A536801335360042B07D90022034B5A60034A136843F00203E7
:4004C000136008BD4081FF1F6881FF1F08B5B0F57A7F03D3B0F5FA6F03D804E04FF47A7001E04FF4FA6001F0A1F808BD38B532E100F088FCA74B188010F47F4F40F0458120
:40050000C0B29870DB781B2B00F22581DFE813F01C0023002800320037004100460051005600600023017D0082008D0092009D00A200AD00B200BD00C200CA00CF00D70019
:40054000DC00E60015011A01EA2840F004810122904BDA70FFE08F4B98800222DA70FAE08C4CA38843EA0020A08001F0DFF80323E370F0E0874BD8800422DA70EBE0854CA9
:40058000E38843EA0020E08001F0D6F80523E370E1E0804B18810622DA70DCE07D4C238943EA002020810725E57001F013F9E570D1E0784B58810822DA70CCE0754C638946
:4005C00043EA0020608101F00BF90923E370C2E0022808D003280BD001280ED14FF47A7001F050FB0DE040F2E24001F04BFB08E040F2DC5001F046FB03E04FF47A7001F04D
:4006000041FB0B22634BDA70A5E0624BD8810C22DA70A0E05F4CE38943EA0020E081002100F020F90D23E37095E05A4B18820E22DA7090E0574C238A43EA00202082012165
:4006400000F010F90F23E37085E0524B58821022DA7080E04F4C638A43EA00206082022100F000F91123E37075E04A4B98821222DA7070E0474CA38A43EA0020A0820321D5
:4006800000F0F0F81323E37065E0424BD8821422DA7060E03F4BDA8A42EA0020D8821522DA7058E03B4B18831622DA7053E0394B1A8B42EA002018831722DA704BE0354B8C
:4006C00058831822DA7046E0324C638B43EA00206083FFF7FBFE1923E3703CE000F0010001F08CF92B4CA078C0F3400001F07AF9A078C0F3800001F08DF9A078C0F3C000A5
:4007000001F094F9A078C0F3001001F09BF9A078C0F3401001F0A2F9A37813F0400F04D04FF47A7001F0CEF903E04FF4FA6001F0C9F91A22174BDA700DE0164B98831B224D
:40074000DA7008E0134CA38B43EA0020A08300F073FF0023E37000F06DFB00287FF4C8AE00F03CFB10F0200F7FF4C2AE00F062FB20B900F033FB10F0200F08D0054A136AB9
:4007800043F001031362002038BD012038BD002038BD00BF4881FF1F08B51F48E32380F824301E4B1A8880F825201B88C3F3072380F826301A4B1A8880F827201B88C3F379
:4007C000072380F82830174B1A8880F829201B88C3F3072380F82A30134B1A8880F82B201B88C3F3072380F82C30104B1A8880F82D201B88C3F3072380F82E300C4B1A88B7
:4008000080F82F201B88C3F3072380F8303024300D2100F04BFB08BD4881FF1FC281FF1FC081FF1FC481FF1FBE81FF1FC681FF1FBC81FF1F08B5032812D8DFE800F0020661
:400840000A0EFF2000F0A8FD08BDFF2000F0DCFB08BDFF2000F026FD08BDFF2000F07AFE08BD00BF08B540F6FC73984200D91846104A00F01F03403B1370C0F34610507094
:40088000032916D8DFE801F002070C110948022100F098FD08BD0748022100F0CBFB08BD0448022100F014FD08BD0248022100F067FE08BD7C81FF1F08B50C4BFF221A70FF
:4008C0005A7098700522DA7003221A711E225A71CAB29A71090AD97102440A442632D2431A721846092101F001F808BD8081FF1F08B50D4BFF221A735A7398730522DA7324
:4009000003221A740E225A74CAB29A74090AD97402440A441632D2431A7503F10C00092100F0E4FF08BD00BF8081FF1F08B50D4BFF221A765A7698760522DA7603221A772B
:4009400020225A77CAB29A77090AD97702440A442832D24383F8202003F11800092100F0C5FF08BD8081FF1FFEE700BF08B5104E104D16E029686B68AC68002204E051F80F
:40098000040B43F8040B0432A242F8D1E868002203E0002143F8041B04328242F9D11035013E002EE6D101F0C3F9FFF7FBFBFEE701000000581E000008B5124A124B1A6019
:4009C000124A136843F40073136000230AE0032B03D80F4A52F8231000E00E490E4A42F8231001332F2BF2D90C4B1A780C4B1A70094A0C4B1A6000F0C1F800220A4B1A603A
:400A000008BD00BF0004FA050CED00E014ED00E000000000690900000080FF1FBC7600400481FF1F08ED00E00081FF1FFEE700BFF0B40022174611E050F82760F3B226F09A
:400A4000FF0608E001EB420511F812406D78A5550132013BDBB2002BF4D10137282FEBD9F0BC7047064B1B78DBB203F00701054A11701B09013213704422034B1A7070476F
:400A8000CF0100496E5800407658004008B50A46002101F07EF908BD38B517222B4B1A8018232B4A137019250232158002321370332102321180023213704FF49C71023233
:400AC0001180023213700222224B1A7008224FF040231A70032103F5007319701E4B1B78DBB21E490B701E4B1A8041F25122023B1A8000240CE01B4B1B7803F0010343EA0D
:400B0000440404F003044FF4F07000F0B5FA013D0DB1032CEFD115B90320FFF787FF124B4FF480721A8007221A7000220F490A704820023108701A700222033B1A700C4A26
:400B4000137843F00F03137038BD00BF80400040824000400043004008010049A146004022420040254200400440004006400040A243004008B501F001F908BD38B572B674
:400B80003D4A137843F00403137000240CE03B4963001A1952000A4423445B00C8589188FFF774FF0134E4B20A2CF0D9002410E03249A3001A1952000A4452F8440F234465
:400BC0005B000B445168B3F84C20FFF7D3FF0134E4B2062CECD94FF090402949FFF728FF284A137843F0020313701032137843F002031370244C237843F040032370A2F568
:400C00008632513A137843F0100313701F4820490822FFF7AFFF1F481F490A22FFF7AAFF1E481F490822FFF7A5FF1E481E490A22FFF7A0FF1D481E490822FFF79BFF1D48DA
:400C40001D490822FFF796FF1C4A137843F0080313701B4D61232B70FFF71EFF81232B700122184B1A70FFF7FDFE174821460E22FFF780FF38BD00BFE8460040A81D00007B
:400C8000A400004803500140A043004002510040D4130048C0510040DC130048F2510040E813004810510040F013004822510040FC130048325100400414004822430040C3
:400CC0000048004004000840B043004008B50C200C4900F0F9F90C20072100F009FA0023094A13707221094A11702021A2F5807211700621A33211704721103211705232AF
:400D0000137008BDD50E0000A481FF1F8665004010B500F0B9F904460C4A137843F020031370A2F58072137843F0100313704FF48052074B1A60074A137843F0100313704C
:400D400000F08CF9204600F0A3F910BD9665004000E100E09B65004008B5054B5B7823B9FFF7B4FF0122024B5A70FFF7D1FF08BDA481FF1F4FF48052134B1A60134A937841
:400D8000DBB2D178C9B2127912F0FF0F01D18B4211D00F4AD05CC0B20133DBB2312B00D900230A4A9370137913F0FF0F06D00022064B1A7102E0074B1878C0B24FF48052A4
:400DC000054B1A60704700BF80E100E0A481FF1FC881FF1F4565004000E100E0074B187800F07F00064B5B7913F0FF0F04D040F080000022024B5A71704700BF6664004058
:400E0000A481FF1F10B54FF48053074A1360074A147800211170064A13602402FFF7AAFF204380B210BD00BF80E100E0A481FF1F00E100E04FF48052134B1A60134A93780E
:400E4000D278DBB2934206D1104B1B7913F0FF0F14D0322013E00D4A9378D278DBB2934205D20A4AD3789078181AC0B207E0074AD3789078181A3230C0B200E000204FF4C2
:400E80008052034B1A60704780E100E0A481FF1F00E100E0034B1B7813F0040FFAD1024B187070476B6500404B650040084B5B7833B97047305DFFF7EDFF0134E4B203E068
:400EC00070B50D4606460024AC42F3D370BD00BFA481FF1F1C4B1B78DBB213F01E0F05D01A4803F01E0201780A43027003F0200303F0FF022BB3164B1978C9B2154B1B78A6
:400F0000DBB21548C154154B1B7813F0FF0F02D00121134B19700F490B780133DBB20B700B78DBB2312B02D900210A4B1970094B1B780C490978DBB28B4202D10121074B18
:400F40001970002AC6D1704766640040A481FF1F45650040A781FF1FC881FF1FA881FF1FA981FF1FA681FF1F7222074B1A702022013B1A700622583B1A70472210331A70C5
:400F8000002245331A7070478464004008B500F07BF8094A137843F020031370013A137843F010031370033A137843F01003137000F06EF808BD00BF9464004008B5054B18
:400FC0001B7823B9FFF7D0FF0122024B1A70FFF7DDFF08BDAB81FF1F014B1878704700BF44640040024B187800F07F00704700BF6364004010B5FFF7F5FF0402FFF7ECFF49
:40100000204380B210BD00BF024B1B780BB1024B18707047AB81FF1F40640040034B1B7813F0040FFAD1024B187070476064004040640040084B1B7833B97047305DFFF7F7
:40104000EDFF0134E4B203E070B50D4606460024AC42F3D370BD00BFAB81FF1F054A137843F0080313701032137843F008031370704700BFA24300400230800803D000BFF4
:4010800001380046FCD17047EFF3108072B6704780F31088704700BF01BE704710B5044605E0084B1868FFF7E7FFA4F50044B4F5004FF6D8034B586800FB04F0FFF7DCFFD1
:4010C00010BD00BF0C81FF1F70B504460E46074B1D681F2802D90020FFF7DEFF04F01F04103455F8240045F8246070BD08ED00E038B504460D46072902D90020FFF7CCFF05
:401100001F2C02D90020FFF7C7FF04F01F0000F1604000F564406D01EDB2057038BD00BF014B1B681864704708ED00E04001C0B2014B1870704700BF00E400E00122014B33
:401140001A60704700E100E00122014B1A60704780E100E010B50446FFF7F6FF2046FFF7DFFF0720FFF7E2FFFFF7E8FF10BD00BF0122014B1A60704780E200E0044A137846
:4011800003F0FD03400000F0020018431070704720510040024B1878C0F34000704700BF21510040014B1B689865704708ED00E04001C0B2014B1870704700BF06E400E0B0
:4011C0004022014B1A60704700E100E04022014B1A60704780E100E010B50446FFF7F6FF2046FFF7DFFF0720FFF7E2FFFFF7E8FF10BD00BF4022014B1A60704780E200E073
:401200007222084B1A70202201331A700622A3F5AE731A70472210331A70002254331A70704700BF8465004008B5FFF72DFF094A137843F0200313700132137843F0100330
:401240001370F83A137843F010031370FFF720FF08BD00BF9465004008B5054B1B7823B9FFF7CEFF0122024B1A70FFF7DDFF08BDAD81FF1F014B1878704700BF446500403C
:40128000024B187800F07F00704700BF6565004010B5FFF7F5FF0402FFF7ECFF204380B210BD00BF024B1B780BB1024B18707047AD81FF1F4D640040034B1B7813F0040F4F
:4012C000FAD1024B187070476D6400404D640040084B1B7833B97047305DFFF7EDFF0134E4B203E070B50D4606460024AC42F3D370BD00BFAD81FF1F7222074B1A70202269
:40130000013B1A700622693B1A70472210331A7000224D331A7070478F64004008B5FFF7B3FE094A137843F020031370013A137843F0100313700C3A137843F01003137001
:40134000FFF7A6FE08BD00BF9F64004008B5054B1B7823B9FFF7D0FF0122024B1A70FFF7DDFF08BDAF81FF1F014B1878704700BF4C640040024B187800F07F00704700BFE8
:401380006E64004010B5FFF7F5FF0402FFF7ECFF204380B210BD00BF024B1B780BB1024B18707047AF81FF1F42640040034B1B7813F0040FFAD1024B1870704762640040B4
:4013C00042640040084B1B7833B97047305DFFF7EDFF0134E4B203E070B50D4606460024AC42F3D370BD00BFAF81FF1F014B1B681866704708ED00E04001C0B2014B18702B
:40140000704700BF08E400E04FF48072014B1A60704700BF00E100E04FF48072014B1A60704700BF80E100E010B50446FFF7F4FF2046FFF7DBFF0720FFF7DEFFFFF7E4FF85
:4014400010BD00BF4FF48072014B1A60704700BF80E200E0014B1B689864704708ED00E04001C0B2014B1870704700BF02E400E00422014B1A60704700E100E00422014B3D
:401480001A60704780E100E010B50446FFF7F6FF2046FFF7DFFF0720FFF7E2FFFFF7E8FF10BD00BF0422014B1A60704780E200E07222084B1A70202201331A700622A3F20C
:4014C00067131A70472210331A7000224E331A70704700BF8965004008B5FFF7D5FD094A137843F0200313700132137843F010031370A2F20912137843F010031370FFF725
:40150000C7FD08BD9965004008B5054B1B7823B9FFF7CEFF0122024B1A70FFF7DDFF08BDB181FF1F014B1878704700BF4A650040024B187800F07F00704700BF6A650040B2
:4015400010B5FFF7F5FF0402FFF7ECFF204380B210BD00BF024B1B780BB1024B18707047B181FF1F41640040034B1B7813F0040FFAD1024B1870704761640040416400401F
:40158000084B1B7833B97047305DFFF7EDFF0134E4B203E070B50D4606460024AC42F3D370BD00BFB181FF1F014B1B681865704708ED00E04001C0B2014B1870704700BFD8
:4015C00004E400E01022014B1A60704700E100E01022014B1A60704780E100E010B50446FFF7F6FF2046FFF7DFFF0720FFF7E2FFFFF7E8FF10BD00BF1022014B1A60704779
:4016000080E200E0024A137843F080031370704777640040014B1880704700BF0C6A0040014B1880704700BF8C6A0040014B1880704700BF4C6A0040014B1880704700BF3C
:401640006C6A0040014B1870704700BF87640040014B1878704700BF67640040014B188880B27047AC6A004008B501E0FFF7F6FFFFF7EEFF10F0100FF8D108BD08B5184A1F
:40168000137803F0C00343F00903137002F21F12137843F0010313700132137843F00103137044F62060FFF7B5FF44F62060FFF7B7FF40F2DC50FFF7B9FF40F2DC50FFF71B
:4016C000BBFF0420FFF7BEFFFFF7DEFC054A137843F010031370FFF7DBFCFFF7C5FF08BD776400409764004008B5054B1B7823B9FFF7C4FF0122024B1A70FFF783FF08BDD8
:40170000B381FF1F024A137843F080031370704775640040014B1880704700BF0C680040014B1880704700BF8C680040014B1880704700BF4C680040014B1880704700BF33
:401740006C68004008B5114A137803F0C00343F0090313702132137843F0010313700132137843F00103137044F62060FFF7D2FF44F62060FFF7D4FF40F2DC50FFF7D6FFFD
:4017800040F2DC50FFF7D8FF08BD00BF7564004008B5054B1B7823B9FFF7D4FF0122024B1A70FFF7AFFF08BDB481FF1F024A137843F08003137070477C640040014B18809B
:4017C000704700BF1C680040014B1880704700BF9C680040014B1880704700BF5C680040014B1880704700BF7C68004008B5114A137803F0C00343F009031370223213783B
:4018000043F0010313700132137843F00103137044F62060FFF7D2FF44F62060FFF7D4FF40F2DC50FFF7D6FF40F2DC50FFF7D8FF08BD00BF7C64004008B5054B1B7823B9FE
:40184000FFF7D4FF0122024B1A70FFF7AFFF08BDB581FF1F7222074B1A70202203331A700622633B1A70472210331A70002252331A7070478864004008B5FFF705FC094AD5
:40188000137843F0200313700332137843F010031370013A137843F010031370FFF7F8FB08BD00BF9864004008B5054B1B7823B9FFF7D0FF0122024B1A70FFF7DDFF08BD31
:4018C000B681FF1F024B187800F07F00704700BF6B640040034B1B7813F0040FFAD1024B187070476A6400404A640040084B1B7833B97047305DFFF7EDFF0134E4B203E0D2
:4019000070B50D4606460024AC42F3D370BD00BFB681FF1F014B1B689866704708ED00E04001C0B2014B1870704700BF0AE400E04FF48062014B1A60704700BF00E100E084
:401940004FF48062014B1A60704700BF80E100E010B50446FFF7F4FF2046FFF7DBFF0720FFF7DEFFFFF7E4FF10BD00BF4FF48062014B1A60704700BF80E200E0014B1B68C6
:401980005867704708ED00E04001C0B2014B1870704700BF0DE400E04FF40052014B1A60704700BF00E100E04FF40052014B1A60704700BF80E100E010B50446FFF7F4FF72
:4019C0002046FFF7DBFF0720FFF7DEFFFFF7E4FF10BD00BF4FF40052014B1A60704700BF80E200E0044A137803F0FB03800000F0040018431070704730510040044A1378D5
:401A000003F0FD03400000F0020018431070704730510040044A137803F0F703C00000F0080018431070704730510040044A137803F0EF03000100F010001843107070470C
:401A400030510040044A137803F0DF03400100F0200018431070704730510040044A137803F0BF03800100F0400018431070704730510040054A137843F0010313701032EB
:401A8000137843F001031370704700BFA2430040084A137843F0010313701032137843F00103137002F64D32137843F001031370704700BFA3430040014B1880704700BF76
:401AC000044F0040014B1880704700BF064F0040014B1870704700BF034F004008B51A4A137843F0020313700232137803F08F0343F010031370154B1A7802F0CF021A70D5
:401B00001A7842F030021A701A7802F0F0021A701A7842F00F021A7044F62060FFF7CCFF40F2DC50FFF7CEFF0020FFF7D1FF084A137843F00103137002F65E32137843F067
:401B40000103137008BD00BF004F00400B4F0040A343004008B5054B1B7823B9FFF7BEFF0122024B1A70FFF793FF08BDB881FF1F084A137843F0040313701032137843F0A4
:401B80000403137002F66532137843F001031370704700BFA3430040014B1880704700BF1C4F0040014B1880704700BF1E4F0040014B1870704700BF1B4F004008B51A4A0A
:401BC000137843F0020313700232137803F08F0343F010031370154B1A7802F0CF021A701A7842F030021A701A7802F0F0021A701A7842F00F021A7044F62060FFF7CCFFF9
:401C000040F2DC50FFF7CEFF0020FFF7D1FF084A137843F00403137002F67632137843F00103137008BD00BF184F0040234F0040A343004008B5054B1B7823B9FFF7BEFFEC
:401C40000122024B1A70FFF793FF08BDB981FF1F084A137843F0020313701032137843F00203137002F65932137843F001031370704700BFA3430040014B1880704700BFE7
:401C8000104F0040014B1880704700BF124F0040014B1870704700BF0F4F004008B51A4A137843F0020313700232137803F08F0343F010031370154B1A7802F0CF021A70EF
:401CC0001A7842F030021A701A7802F0F0021A701A7842F00F021A7044F62060FFF7CCFF40F2DC50FFF7CEFF0020FFF7D1FF084A137843F00203137002F66A32137843F099
:401D00000103137008BD00BF0C4F0040174F0040A343004008B5054B1B7823B9FFF7BEFF0122024B1A70FFF793FF08BDBA81FF1F0E4B70B51E460E4C0025E41AA410A54268
:401D400004D056F8253098470135F8E700F072F8084B094C1E46E41AA4100025A54204D056F8253098470135F8E770BD401E0000401E0000401E0000481E000010B5431E96
:401D80000A44914204D011F8014B03F8014FF8E710BD03460244934202D003F8011BFAE77047000000000000004F00402400405100403000000001400004800401408003BC
:401DC000800801400006000F0140000180140140800180160140800500400140000A004C01400002005001402000000060520040441100480600005101404C110048080072
:401E00000004014054110048800000080140D41100488000800E014054120048800000140140D41200488000001601405413004880000000F8B500BFF8BC08BC9E46704735
:401E40004D000000B9090000F8B500BFF8BC08BC9E46704729000000681E00000881FF1F18000000E0000000000000000000E02EC05D00001800000000366E01000000009E
:401E80000000000000000000000000000000000000000000000000000000000000000000000000000000000000000000000000000000000000000000000000000000000022
:401EC00000000000000000000000000000000000000000000000000000000000000000000000000000000000000000000000000000000000000000000000000000000000E2
:401F000000000000000000000000000000000000000000000000000000000000000000000000000000000000000000000000000000000000000000000000000000000000A1
:401F40000000000000000000000000000000000000000000000000000000000000000000000000000000000000000000000000000000000000000000000000000000000061
:020000040003F7
:0200000480007A
:40000000034F00400B5200400D640040066500406500014043010140630201404A0301403104014050050140660601404D07014027080140480901406F0A01404F0B014031
:400040006F0C0140550D01402F0E01403D0F014032140140561501403216014049170140791801404B190140731A0140641B01400C4001401841014018420140104301405E
:40008000044401400D450140074601400147014010480140134901400C4C01400F4D0140085001400A361636223600020140081009100C6010C0114018811901781079105F
:4000C000800F810F820F833884728638870F88728A0F8B388D0F8E388F7284728538867289728A388B0F0A100C270E18110118401A0B2006220924142502262928272A080E
:40010000301E310132603302340138083A023E103F054043410645EB460C470E481749FF4AFF4BFF4EF04F44500C54015604580459045A045B045C015D115F0166C06A400D
:400140006B0280108150820C832384108580880989188A108B219203940C95049611972998149B409C1C9D1B9E029F60A91BAB20B01FB178B306B580B701B908BB02BF50E7
:40018000C016C103C50BC6C0C70EC819C9FFCAFFCBFFCEF0CF44D00CD401D604D804D904DA04DB04DC11DD11DF01E6C0EA40EB020040030804280510074008200D020E11CB
:4001C0000F08108C1108184019201B081D0222052420264027482A042E1033023518360837403C083D103E013F20406045084740482849014E084F0850805204540457108E
:40020000588059015A085B105D105E805F0A6202650280A081028310860288048B02C073C2F2C40ECA22CC71CEE0D053D224D6FFD881E001E620000E012002B0034505037A
:40024000061A074409530AE00B0C0D0A0F541308140E1670180119531B041CE41E1826403006313032D033403401350F3678380239023A883B203E113F044024410645EE04
:4002800047BC483349FF4AFF4BFF4EF04F44500C54015604580459045A045B045C115D115F0166C06A406B0281028A028F08920497069A019B019E029F08A201AB01B002C3
:4002C000B104B301B401B502B604B708BE10BF04C004C704C9FFCA07CBFFCC40CD20CEF0CF05D008D418D604D804D904DA04DB04DD11DF01E040E1A8E240E32000200420AE
:400300000508074009800B480E110F0813021508184019101A021D0A1E19201021012290251026092A1031A435203621388039023DA23E083F024102451149084D214F08FF
:4003400050045104560959015D015E485F106082611066086790848087408A808F089020940896119B409C249D08A308A50CA702AC80AD22B201B440C072C2EBC428CA0411
:40038000CCAECEF9D0A1D220D6F1D88DE201E80283138708880C89318A118B468C149203934C981099319B0E9C099D6C9E109F03A01CA202A810AA0CB01FB330B54AB70F4F
:4003C000B908BBA0BF04C002C504C9FFCA07CBFFCC40CD20CEF0CF05D008D280D804D904DA04DB04DC11DD01DF01E040E1A8E240E3200140060107040A850E820F081008EB
:4004000011041510170118401A151B081E801F022008212022062302254026A0272528022BA83080320236A1382A39413D303F09404242104720480449804B084C014D80CE
:400440004F0B52105A08680869046A80709473187740840488208C019222948097489A019C249D059E109F02A110A201A410A5E4A620A703A852AA48C0C1C2DBC456CA0FA3
:40048000CCB9CEEFD02BD20CD602E208E440E603EA010E0213091601170819041A021E0127072E0430013108320233023501360437043E054010410649FF4AFF4BFF4DA02D
:4004C0004F04501854185604580459045A045B045D305F01604062C06440654066C068C06AC06CC06EC080DF840F86D089028C418E2090D3920C930196D398829CC3A008CE
:40050000A102A404A701A80CA902AC0CAED3B0C0B20FB301B41CB502B620BA28BB02BF04C010C106C501C605C702C815C9FFCAFFCBFFCDAFCE0FCF04D018D280D407D60448
:40054000D804D904DA04DB04DC21DF01E040E2C0E440E540E6C0E8C0EAC0ECC0EEC001410320070208020A150D080F0A108012021318174019011BA81D801F05208022245C
:40058000251226402710288029202A042F1032013301344035043640371139204180458048104A084E0850405208584059025A285E026380678A73408080810285308E202C
:4005C000914192379310948097409B489C029D05A080A202A410A580A7A0A944C08DC2EFC48FCA47CCE1CE04D018D224D68FD8B1E202E603EA04EE028507860187588F20E5
:400600009172930C950797389B709E01A30DB13CB368B503B601B920BB0ABE40BF10C004C504C9FFCA07CBFFCC40CD20CEF0CF05D008D804D904DA04DC20DD01DF01E040AD
:40064000E1A8E240E320022004420510071008800B020C800E850F201404170919801D101E021F152080212822012404260427422A012C042D402F543108321136063751B1
:4006800038883E093FA04302452049044C405020550156015F026D846E106F087480760877187C0C830885448F10900891809220948099029C089D84A302A460A509A60124
:4006C000A804AF40C0F4C2F1C470CAF1CCF7CEFAD021D680E0100138030404800520071809280C0A0D200E54102012451453151816041722185319121A0C1B201F062101BD
:40070000260828032A44304032303301340F3680373E38083A203E413F044024410345E046B0470C481A49FF4AFF4BFF4EF04F44500C54015604580459045A045B045C22FF
:400740005D225F0166C06A406B0282028456851C8609870289148A168D109468961399209B039E29A509A710A90CAB11AC68AD10AE15AF0CB060B207B31FB41BB720B80289
:40078000BA28BE01BF40C004C604C9FFCA07CBFFCC40CD20CEF0CF05D008D418D604D804D904DA04DB04DC11DD21DF01E040E1A8E240E320008002110404064809090A4427
:4007C0000E200F02101813201540180819401AA41C241D021E201F0421C02204271229012D402E082F04301031883210371038A83A013C043D203E8041084244450249017B
:400800004F02501856C059015A885B205E0260806408658067408302849085408B018D02914099029A189D04A110A302A420AB01AF80B020B108B308B684C075C2AEC48660
:40084000CA71CC2ECE7FD087D68FD8B1E2C0E448EC08012402060352053F093F0D0A0E080F54110119101BA81E0822022A042E0130013106320433C0340835383602370102
:400880003E103F04406441014205440245C0460E480649FF4AFF4BFF4C624DA04EF04F41500C5280580459045A045B045C105D015F016640670269106A306B106D106E10E3
:4008C0006F12806882158468850C861387118D1491109216930C99209A029B039C569D099E099F10A140A510A629AD1CAF02B060B340B407B51FB61BB720B802BAA0BE01F4
:40090000BF44C053C102C5E0C6CBC80EC9FFCAFFCBFFCEF0CF44D00CD401D604D804D904DA04DB04DC11DD11DF01E6C0EA40EB020006046005A0068008100A810B400F0299
:40094000102016441740180419401A011B021E481F88221423012408250126212712281029452D022E02300232503620370138843C803D123E0440044108460247124803E7
:4009800049014D804F1250505740584059215A086202774082028E089040915092049350942C9640984099029AD49B019D409F02A041A110A420A681A740AE10B040B11051
:4009C000B540C09CC28BC4D4CA0BCCADCEFAD0B6D238D60FD801E090E860013503C00535074009300B410F8019081B511F0223022DA02F45310C3301350237F039023A02BD
:400A00003B803F144040410249FF4AFF4BFF4DA04F04501854185604580459045A045B045C115D105F01604062C06440654066C068C06AC06CC06EC0041805020B300C089D
:400A40000D110E021602171619021C501E011F1820022204234525802610275029402B402D022F1830203180375238243B413C803E2A42C0432046804F20564457305A013E
:400A80005E20628263046D106E046F017408762A770481108501871088408A06C070C2F0C4F0CAE9CCBCCEFFD085D220D621D80DE6208B019402964598149A2A9C099E32C8
:400AC000A301A49FA89FAC80B080B101B207B418B660BE40BF01C024C106C203C401C50EC7C0C821C9FFCAFFCBFFCC62CDA0CEF0CF41D00CD418D604D804D904DA04DB040D
:400B0000DC03DD13DF01E640E702E910EA30EB10ED10EE10EF120016020908080A250D400E2810801202131815401714181019121B801D821E28204A220627802F8032448A
:400B4000384039243A013C2040184280444045AA48154D204F085004570159105A085B085D0A5E086602670569246A807080720473108080820186028B848D408E10900467
:400B8000914092219301940895809614971099209A809B149CC09D089E01A128A481A618A705AA10AD10AE80C00FC2E7C4EFCA80CC0ACE2FD0F7D22CD684D8B0E201E60143
:400BC000EE168263845C862287018B018C048E809204941898089C1C9E61A010A47FA867AA18B080B258B41FB638B701BAA0BF40C050C106C5D5C610C702C81BC9FFCAFF05
:400C0000CBFFCDAFCE0FCF04D018D804D904DA04DC01DF01E040E2C0E440E540E6C0E8C0EAC0ECC0EEC000060201052807400A450B100C400D220E20109012081580172906
:400C400018241A411C401D2A1E021F202301262627422C402E102F203480352036223708382839203C403E224604480849864D804E0150085204531058105A205E086D4049
:400C80006F1476227729920297209D069E049F02A508A601A705AC02AF08B040B340B510B740C07DC2FFC4FECAE0CCF0CEB6D020D21CD640EC08EED00048011002350D094E
:400CC0000F10102012C214F8189019101A2C1B0C1D201F03210C231124F8291C2B022D1430E0311F320634183601372039203E043F504026410542044403450C460E480531
:400D000049FF4AFF4BFF4C624DA04EF04F41500C580459045A045C325D025F016640670269106A306B106D106E106F1280FF830484C3851888F389088A0C8C418D048F809D
:400D400092F3940F953C96F09741981C993C9AE39B429C829D10A008A17FA404A80CA967AB18AF03B0C0B180B22CB320B40FB51FB61CB740B980BA28BB20BF04C005C7408E
:400D8000C9FFCA07CBFFCC40CD20CEF0CF05D008D602D712D804D904DA04DB04DC11DD13DF01E040E1A8E240E3200080012A0402084109200A200E941080121013141504CA
:400DC00019351A221D081E841F4021212244251026802740280129922E012F0A30803124340235023760380839023A903C403E02448445084A014E224F2052015310574077
:400E00005A086603682069106B027084731491849210940295409604978098849902A202A310A660A740B202B440B604C01FC27FC42ECABDCC3ECE9FD0E0D238D602EC2818
:400E40000014022A0402064507020C090D040E3213021B011F012080249F289F30183102320733043460350136803E103F15406541014204440246E0470C481849FF4AFF0D
:400E80004BFF4C624DA04EF04F41500C54185604580459045A045B045C015D115F016640670269106A306B106D106E106F128163830484A185038616870488408A838B8084
:400EC0008E1C941C96A399639A809B0C9CA19D109E0EA725A94AAB04AE08AF08B060B160B20FB30FB480B510B61AB780B802B902BA88BB08BE10BF11C023C101C5E0C7BCA8
:400F0000C832C9FFCAFFCBFFCEF0CF44D00CD401D604D804D904DA04DB04DC33DD33DF01E6C0EA40EB020080010A0440060807200D080E010F081020111013021601198A6F
:400F40001A041C4A1D081E411F0820242102258026012728284029022C102E482F183241332136803720380839803C023D203E023F084002420443014410450246424720EF
:400F800049904D014E8050045320570659015CA05D015F086004624267408180820288948C208D108F04919092829320944096019740980299119A019B029C409D889F206B
:400FC000A060A601A70AA902AE80AF40B040B280B401B550C0EDC2E0C48ECA70CC3DCEEAD07DD20CD6F1D88DE610EC08EE1031203204341037043980821087018801CCF0FC
:40100000CE10E240E62032103301340136203B105704620283048620871092209580960898019B019C109F04A520CCF0CE10D440D840E290E640032030043180350136401B
:4010400050045604800486408E40958096089A049C10A520A602AA04AB04C010CCF0D460E6C0EA80EE2019801A401F048001958096489C149D01A520A602AB20AD80C67092
:40108000E280EC20EE4010207340C408DC0150105F02630264088B01B020B340D404D603D801E001E804EE0484408C109420AC08B302E402E8049840660468086C089001D8
:4010C0009580960899809C10AF04B004B120B501B602D880DAC0EC1010805C015D808080814086049001958096089980AC10B408B604C410D6A0E020E280E610EE400B0263
:401100000C0158046440750298409902AD02C206D602D801DE041020750888048C2099089C04AD08B001B701C408DE04E401E608EA02EE04000F08030A0F0C060E03100F96
:401140001A0B1C0E828A000055000000FFFFFF0F0000000000FF000000180000000800004404890020DC002200000000900049000810160000000004FC9C0061FC00004362
:4011800000E70018031F2080C0581C20008000020000010413050600040EC00009FFFFFF62A0F0410C00000000000212040404041111000100000000000040020010301085
:4011C0000010101200000000000000000000000000000000411000000C0800000F00F0031C00E380C37F0000003CF3428218000008000080FF000004043C0041F3670C1800
:40120000000400001C400F1F2C80C0200002280800000050020000000040000000FF07FF4020F0050800000000000213040404042222000140A840200000000000000000BC
:401240000000000000000000000000000000000000000000FF100000C30800000F18F00000040080F3000C030C000000413C004282000004007FF300046700181C3CE34135
:40128000080000001C802C1F0F20C040008028080000001040060000000025011CFFFFFF00AF0F04180000000000021104040404111000014000C0004040C000C000C000EC
:4012C000C000C000000000000000000000000000000000000021C34A2CE7D300F3E70C004102001500000000FF44002A040000002F80D00008000000820000000C00000096
:40130000C3000000C0070F6020181080800008000000101035020400060E000C11FFFFFF62A0F0410C000000000002110404040411110001000000000000400200103010C4
:4013400000101012000000000000000000000000000000001C10E30082000000FF180000003C00410F3CF042C3080000F37F0C000000F30408000003046700180C040000BB
:40138000410000002C1F1C200F00C0400080222200000004500200000000000000FFFFFF00A00004180000000000021204040404333000014000C0004040C000C000C0003B
:4013C000C000C000000000000000000000000000000000000042420042000000AA0055AAAA00AA0000000000001010001000000090006090900090000000000000E3E30014
:40140000E100000000FFFF0081000000000000000000000000000000000000000000000000000000000000000000000000000000000000000000000000000000000000004C
:40144000000000000000000000000000000000000000000000000000000000000000000000000000000000000000000000000000000000000000000000000000000000006C
:40148000000000000000000000000000000000000000000000000000000000000000000000000000000000000000000000000000000000000000000000000000000000002C
:4014C00000000000000000000000000000000000000000000000000000000000000000000000000000000000000000000000000000000000000000000000000000000000EC
:4015000000000000000000000000000000000000000000000000000000000000000000000000000000000000000000000000000000000000000000000000000000000000AB
:0200000490006A
:0400000000004005B7
:0200000490105A
:04000000BC90ACAF55
:0200000490303A
:02000000E89383
:0200000490402A
:4000000000000000000000000000000000000000000000000000000000000000000000000000000000000000000000000000000000000000000000000000000000000000C0
:400040000000000000000000000000000000000000000000000000000000000000000000000000000000000000000000000000000000000000000000000000000000000080
:400080000000000000000000000000000000000000000000000000000000000000000000000000000000000000000000000000000000000000000000000000000000000040
:4000C0000000000000000000000000000000000000000000000000000000000000000000000000000000000000000000000000000000000000000000000000000000000000
:0200000490501A
:0C00000000012E16106900012E27F8FCEC
:00000001FF