:400000000080002011000000510400005104000008B5044B1A6803F53F5302331A6000F019FA00BFFA46004010B5054C237833B9044B13B10448AFF300800123237010BDBA
:400040002081FF1F00000000F0100000084B10B51BB108480849AFF300800848036803B910BD074B002BFBD0BDE81040184700BF00000000F01000002481FF1F0881FF1F11
:400080000000000008B51B4B1B68002BFBD0194B1B6813F0010F0BD0174B1B78012B07D1144A136823F00103136000F0DDF8EAE7104B1B6813F0020F0AD00E4A136823F02B
:4000C0000203136000220C4B1A7000F021F9DAE7084B1B6803F4C053B3F5C05FD3D1054A136823F4C053136000F01CF90122024B1A70C8E75C81FF1F7081FF1F08B500246F
:40010000154B1C600125154B1D7062B6204600F0ADFD00F03DFE00F02DFE114800F066FE00F07CFB0F4800F08DFD00F0FBFE0E4800F056FF204600F02DF900F0A7FC0B48A7
:4001400000F084FE284600F025F941F2883000F01DFDFFF797FF00BF5C81FF1F7081FF1F4D020000710100008D010000ED01000008B500F095FB00F073FD034A136843F072
:400180000103136008BD00BF5C81FF1F08B500F0D7FE00F033FF124B1B7813B1012B08D019E000F08FFC0F4B588001220C4B1A7008BD00F087FC0B4A53889BB243EA002041
:4001C00080B250800022064B1A70074A136843F40063136008BD0022014B1A7008BD00BF3C81FF1F7481FF1F5C81FF1F08B500F061FC00F039FE124B5B7813B1012B08D0D4
:4002000019E000F05FFC0F4B588001220C4B5A7008BD00F057FC0B4A53889BB243EA002080B250800022064B5A70074A136843F40063136008BD0022014B5A7008BD00BF99
:400240003C81FF1F7481FF1F5C81FF1F08B500F03BFD00F0D9FD034A136843F00203136008BD00BF5C81FF1F10B54AE000F02CFB264B188010F47F4F08D000F003FDB0FAA5
:4002800080F0400900F0F2FC012010BDC0B21F4B9870DB78052B34D8DFE803F0030914192429EA282DD10122184BDA7029E0E32803D10222154BDA7023E00022134BDA70A3
:4002C000022010BD114B98800322DA7019E00F4CA38843EA0020A080002100F073F80423E3700EE0094BD8800522DA7009E0074CE38843EA0020E080012100F063F800235B
:40030000E37000F0F9FA0028B0D110BD4081FF1F08B5A520012100F081F8A520022100F07DF808BD08B500F0ADFCB0FA80F0400900F09CFC154B1A88154802741A88C2F3A6
:40034000072242745A8882745A88C2F30722C2749A8802759A88C2F307224275DA888275DA88C2F30722C2751A8902761A89C2F3072242765A8982765B89C3F30723C37684
:4003800010300C2100F0F4FA08BD00BF7481FF1F4081FF1F08B5032812D8DFE800F002060A0EFF2000F0D4FD08BDFF2000F094FB08BDFF2000F05EFD08BDFF2000F026FE69
:4003C00008BD00BF00B583B040F6FC73984200D9184600F01F03403B8DF80430C0F346108DF80500032916D8DFE801F002070C1101A8022100F0C2FD0DE001A8022100F0E6
:4004000081FB08E001A8022100F04AFD03E001A8022100F011FE03B05DF804FB08B5A32803D0A52801D0B12810D103290ED8DFE801F00205080B00F08BFD08BD00F04CFB95
:4004400008BD00F017FD08BD00F0E0FD08BD00BFFEE700BF08B5104E104D16E029686B68AC68002204E051F8040B43F8040B0432A242F8D1E868002203E0002143F8041BB8
:4004800004328242F9D11035013E002EE6D100F0F5FDFFF733FEFEE7010000009C11000008B5124A124B1A60124A136843F40073136000230AE0032B03D80F4A52F82310A3
:4004C00000E00E490E4A42F8231001332F2BF2D90C4B1A780C4B1A70094A0C4B1A6000F0C9F800220A4B1A6008BD00BF0004FA050CED00E014ED00E0000000005104000081
:400500000080FF1FBC7600400481FF1F08ED00E00081FF1FFEE700BFF0B40022174611E050F82760F3B226F0FF0608E001EB420511F812406D78A5550132013BDBB2002BD1
:40054000F4D10137272FEBD9F0BC7047064B1B78DBB203F00701054A11701B09013213704422034B1A707047CF0100496E5800407658004008B50A46002100F0B0FD08BD39
:4005800038B519252F4B1D8018232F4A13700232158002321370023215800232137002321580023213704FF49C71023211800232137045F6BF51023211800232137002228B
:4005C000224B1A7008224FF040231A70032103F5007319701E4B1B78DBB21E490B701E4B1A8041F25122023B1A8000240CE01B4B1B7803F0010343EA440404F003044FF4F8
:40060000F07000F0B1FA013D0DB1032CEFD115B90320FFF77FFF124B4FF480721A8007221A7000220F490A704820023108701A700222033B1A700C4A137843F03F0313703A
:4006400038BD00BF80400040824000400043004008010049A146004022420040254200400440004006400040A243004008B500F02BFD08BD38B572B6354A137843F004035B
:40068000137000240CE0334963001A1952000A4423445B00C8589188FFF76CFF0134E4B20C2CF0D9002410E02A49A3001A1952000A4452F8500F23445B000B445168B3F8B2
:4006C0005820FFF7D3FF0134E4B2042CECD94FF090402149FFF720FF204A137843F0020313701032137843F0020313701C4C237843F040032370A2F58632513A137843F090
:4007000010031370174818490A22FFF7AFFF174817490A22FFF7AAFF164817490822FFF7A5FF164A137843F008031370144D61232B70FFF725FF81232B700122114B1A70F9
:40074000FFF704FF104821460E22FFF78FFF38BDE8460040F4100000A000004803500140A0430040C0510040000F0048105100400C0F004822510040180F00482243004094
:400780000048004004000840B043004008B50A200D4900F011FA0A20072100F021FA00230A4A137072210A4A11702021A2F5807211700621613A117047211032117002F58B
:4007C000A972137008BD00BF990900006081FF1F8965004010B500F0CFF904460C4A137843F020031370A2F58072137843F0100313704FF48062074B1A60074A137843F0AA
:400800001003137000F092F9204600F0B9F910BD9965004000E100E09A65004008B5054B5B7823B9FFF7B2FF0122024B5A70FFF7D1FF08BD6081FF1F4FF48062134B1A6070
:40084000134A9378DBB2D178C9B2127912F0FF0F01D18B4211D00F4AD05CC0B20133DBB2132B00D900230A4A9370137913F0FF0F06D00022064B1A7102E0074B1878C0B2B4
:400880004FF48062054B1A60704700BF80E100E06081FF1F8081FF1F4965004000E100E0074B187800F07F00064B5B7913F0FF0F04D040F080000022024B5A71704700BF0A
:4008C000696400406081FF1F10B54FF48063074A1360074A147800211170064A13602402FFF7AAFF204380B210BD00BF80E100E06081FF1F00E100E04FF48062134B1A6017
:40090000134A9378D278DBB2934206D1104B1B7913F0FF0F14D0142013E00D4A9378D278DBB2934205D20A4AD3789078181AC0B207E0074AD3789078181A1430C0B200E03E
:4009400000204FF48062034B1A60704780E100E06081FF1F00E100E0034B1B7813F0040FFAD1024B187070476A65004049640040084B5B7833B97047305DFFF7EDFF0134FB
:40098000E4B203E070B50D4606460024AC42F3D370BD00BF6081FF1F1C4B1B78DBB213F01E0F05D01A4803F01E0201780A43027003F0200303F0FF022BB3164B1978C9B2A9
:4009C000154B1B78DBB21548C154154B1B7813F0FF0F02D00121134B19700F490B780133DBB20B700B78DBB2132B02D900210A4B1970094B1B780C490978DBB28B4202D1FD
:400A00000121074B1970002AC6D17047696400406081FF1F496500406381FF1F8081FF1F6481FF1F6581FF1F6281FF1F7222084B1A702022A3F580731A7006225E3B1A700B
:400A4000472210331A70002254331A70704700BF8565004010B500F08FF804460A4A137843F020031370A2F58072137843F0100313700632137843F01003137000F064F87A
:400A8000204600F07DF810BD9565004008B5054B1B7823B9FFF7CAFF0122024B1A70FFF7D9FF08BD6781FF1F014B1878704700BF46640040024B187800F07F00704700BF98
:400AC0006564004010B5FFF7F5FF0402FFF7ECFF204380B210BD00BF024B1B780BB1024B187070476781FF1F4B640040034B1B7813F0040FFAD1024B187070476B640040BC
:400B00004B640040084B1B7833B97047305DFFF7EDFF0134E4B203E070B50D4606460024AC42F3D370BD00BF6781FF1F054A137843F0100313701032137843F01003137059
:400B4000704700BFA2430040054A137843F0080313701032137843F008031370704700BFA2430040000000000230800803D000BF01380046FCD17047EFF3108072B6704776
:400B800080F31088704700BF01BE704710B5044605E0084B1868FFF7E7FFA4F50044B4F5004FF6D8034B586800FB04F0FFF7DCFF10BD00BF0C81FF1F70B504460E46074BDE
:400BC0001D681F2802D90020FFF7DEFF04F01F04103455F8240045F8246070BD08ED00E038B504460D46072902D90020FFF7CCFF1F2C02D90020FFF7C7FF04F01F0000F150
:400C0000604000F564406D01EDB2057038BD00BF014B1B681864704708ED00E04001C0B2014B1870704700BF00E400E00122014B1A60704700E100E00122014B1A607047AC
:400C400080E100E010B50446FFF7F6FF2046FFF7DFFF0720FFF7E2FFFFF7E8FF10BD00BF0122014B1A60704780E200E0044A137803F0FD03400000F0020018431070704726
:400C800020510040024B1878C0F34000704700BF21510040084A137843F0010313701032137843F00103137002F64D32137843F001031370704700BFA3430040014B187041
:400CC000704700BF034F0040014B1878704700BF034F004010B50446094B1B7813F0010F02D00020FFF750FF054B1A7842F001021A70044A14801A7802F0FE021A7010BD6A
:400D0000A3430040064F0040014B1880704700BF044F004008B5154A137803F0010313700232137803F0FC031370013A137843F0010313700E4B1A7802F0CF021A701A786C
:400D400042F030021A701A7802F0F0021A701A7842F00F021A706420FFF7D6FF0020FFF7B9FF0820FFF7AAFF08BD00BF004F00400B4F004008B5054B1B7823B9FFF7CAFF5A
:400D80000122024B1A70FFF785FF08BD6981FF1F054A137843F0200313701032137843F020031370704700BFA2430040024B1B68C3F88400704700BF08ED00E04001C0B2F1
:400DC000014B1870704700BF11E400E04FF40032014B1A60704700BF00E100E04FF40032014B1A60704700BF80E100E010B50446FFF7F4FF2046FFF7D9FF0720FFF7DEFF4A
:400E0000FFF7E4FF10BD00BF4FF40032014B1A60704700BF80E200E0014B1B689865704708ED00E04001C0B2014B1870704700BF06E400E04022014B1A60704700E100E09B
:400E40004022014B1A60704780E100E010B50446FFF7F6FF2046FFF7DFFF0720FFF7E2FFFFF7E8FF10BD00BF4022014B1A60704780E200E0024B1B780BB1024B187070476E
:400E80006A81FF1F48650040034B1B7813F0040FFAD1024B187070476864004048650040084B1B7833B97047305DFFF7EDFF0134E4B203E070B50D4606460024AC42F3D3B3
:400EC00070BD00BF6A81FF1F7222074B1A702022013B1A700622693B1A70472210331A70002258331A7070478E64004010B5FFF743FE04460A4A137843F020031370013AA0
:400F0000137843F010031370013A137843F01003137000F0A5F82046FFF732FE10BD00BF9E64004008B5054B1B7823B9FFF7CCFF0122024B1A70FFF7D9FF08BD6C81FF1F12
:400F4000024B187800F07F00704700BF6D640040024B1B780BB1024B187070476C81FF1F4F640040034B1B7813F0040FFAD1024B187070476C6400404F640040084B1B7841
:400F800033B97047305DFFF7EDFF0134E4B203E070B50D4606460024AC42F3D370BD00BF6C81FF1F014B1B681866704708ED00E04001C0B2014B1870704700BF08E400E03C
:400FC0004FF48072014B1A60704700BF00E100E04FF48072014B1A60704700BF80E100E010B50446FFF7F4FF2046FFF7DBFF0720FFF7DEFFFFF7E4FF10BD00BF4FF480724B
:40100000014B1A60704700BF80E200E0024B1B780BB1024B187070476E81FF1F4D640040034B1B7813F0040FFAD1024B187070476A6400404D640040084B1B7833B9704736
:40104000305DFFF7EDFF0134E4B203E070B50D4606460024AC42F3D370BD00BF6E81FF1F054A137843F0010313701032137843F001031370704700BFA24300400E4B70B58A
:401080001E460E4C0025E41AA410A54204D056F8253098470135F8E700F06EF8084B094C1E46E41AA4100025A54204D056F8253098470135F8E770BD841100008411000067
:4010C000841100008C11000010B5431E0A44914204D011F8014B03F8014FF8E710BD03460244934202D003F8011BFAE77047000000000000004F00400C0000510040100036
:40110000305100404000F05100401000000001400006800601408007800E0140800100140140800000150140800100170140000500400140000A004C014000020050014084
:401140002000000060520040F80C0048060000060140000D00488000000E0140800D0048800080140140000E0048800080160140800E004880000000F8B500BFF8BC08BC8F
:401180009E4670474D000000A1040000F8B500BFF8BC08BC9E46704729000000B01100000881FF1F180000007800000000000000000000000000E02EC05D000018000000BF
:4011C00000366E010000000000000000000000000000000000000000000000000000000000000000000000000000000000000000000000000000000000000000000000004A
:4012000000000000000000000000000000000000000000000000000000000000000000000000000000000000000000000000000000000000000000000000000000000000AE
:40124000000000000000000000000000000000000000000000000000000000000000000000000000000000000000000000000000000000000000000000000000000000006E
:40128000000000000000000000000000000000000000000000000000000000000000000000000000000000000000000000000000000000000000000000000000000000002E
:4012C00000000000000000000000000000000000000000000000000000000000000000000000000000000000000000000000000000000000000000000000000000000000EE
:020000040003F7
:0200000480007A
:40000000024F00400352004009640040066500400201014004030140690401403D0501401D06014055070140680801404F0901405A0A0140500B01405B0C0140450D0140BE
:400040001A0E0140360F01401714014059150140111601404F1701406A1801404F190140601A01404E1B01400940014010410140174201400B43014004440140064501403C
:400080000246014001470140054801400B490140054C01400A4D0140075001400351014001500A4B081009100C2085388672880F89388A0F8B0F8C0F8D388E72843885725E
:4000C0008638877289728A0F8B04E2088D089308E201E6080514090C0B710E0814D11510160E17AC1A0C1B201C8C1E131F0321DC23222420264328D129092A062BD02D10AC
:400100002F4030C033E03430360F371F38223A803B083E014004454049FF4A074BFF4C404D204EF04F055008580459045A045F01604061A862406320805C822185E7880869
:400140008E23950296049715985C99449A229B2A9C7FA004A121A34AA418A867A9E7AA18AC10AD80B038B180B240B360B41FB507B718BAA2BE04BF40C002C540C9FFCA0732
:40018000CBFFCC40CD20CEF0CF05D008D418D604D804D904DA04DB04DC31DD32DF01E040E1A8E240E320008001800501060509080A0A0C400E251024140815011612184070
:4001C00019101A0A1B801D011E1D2108224023102402275429902B802F4A302432403520360837143B183D084040452048604C905C016620674180A087408E409308980466
:40020000A508AC04C0D1C2E7C4F6CABDCC6ECE46D021D680D8B0E005E220E611EA08EE028E0193019B019E01B001B701BA08BE01BF40C002C540C9FFCA07CBFFCC40CD209F
:40024000CEF0CF05D008D804D904DA04DC02DD03DF01E040E1A8E240E32000800501061207040A020C440E081410150116051A201B011D141E4223012401250227182C825D
:400280002D202E08310233203402360837503C283E804004410842204502475049024C094E2051205720581059105E10600861106D206E046F017616805882808740890216
:4002C0008D2090029210940195019701984099219B409C089E37A002A20CA504A610A70AA810AC02AF40B120B201B510C0F1C2E1C4F0CAF0CCF5CE70D0B4D230D620E20453
:40030000E80CEE01031C09610B160C010F23115C130319611B0E24022B08331A340135603602370F39203B883E503F104006470449FF4A074BFF4C404D204EF04F0550088D
:4003400054015604580459045A045B045C305D145F01604061A862406320806182168320850387148A088B208D538E238F0C9061920E94809B089C5C9D0A9E039F54A180E9
:40038000A315A61CAD53AF04B01AB110B280B320B460B5C0B60FB70FB820B920BA82BB80BE14BF05C014C105C50BC6E0C70CC819C9FFCAFFCBFFCEF0CF44D00CD418D6041C
:4003C000D804D904DA04DB04DC44DD44DF01E6C0EA40EB020280030A0480070209800A420B201220170419041A4A1B011C021E08214022A023902608271929402A012B015B
:400400002F04318032203711380839A23C203E013F804140430249404B044E04500453105601570A59025C805E085F2260046242644081208B048E208F40920197089C40E5
:400440009E209F01A010A120A60AA901AA01AE40B104B208B508C08BC20DC424CA29CCACCEBFD009D228D6F1D88DE080E440E860EE80034005180724111F1360151F1720C2
:400480001C011D521F24232D317832013303370439083A023B023E043F4454015604580459045B045C205D205F0181148280852089808C0A8E54911C93029453950C960C08
:4004C0009711980399109A449B0C9D409E089F03A109A310A420A645A853A910AA04B040B140B20FB380B480B520B630B71FB880BA08BE01BF15C023C106C50CC6C0C7BE4B
:40050000C839C9FFCAFFCBFFCEF0CF44D00CD401D604D804D904DA04DB04DC33DD33DF01E6C0EA40EB020408064007110A020B020C040E210F081510162019061C201D2005
:400540001E612107224024202681270829012B802E012F043102334436983701380A3C183F02440446204D104E084F085404571159045A825B105E405F1A6080633067404D
:4005800080808205840487028A048B408C108E02900A92089302942095029B449C409D0A9E0DA780AC80AE20AF40B621C090C2E1C460CAA1CCFBCEE3D060D220D6FFD881CC
:4005C000E010E220E61000130204031C0608080A0A140D210F161308140315211614170E1D1C1F232020214023032413260C2A153010310F3420351A360F376039803A8037
:400600003B223E1154015604580459045B045C205F0180098210859F899F8C108D098F329010920C942095149603972A99029B459D80A014A80CAA11AC1CAE02B180B21FE7
:40064000B318B420B507B760BE10BF40C041C103C5E0C60BC70CC816C9FFCAFFCBFFCEF0CF44D00CD418D604D804D904DA04DB04DC02DD02DF01E6C0EA40EB0201010201AC
:400680000301050806880A600E100F20108011201380166417021A281E881F40216823402402251027C42F80312832403745388239153A023E42410142404384450846109C
:4006C0004B02508459015E985F0262A26480820284408C108E809080911492809580974099019A409D029EB4A281A310A520B040B440C079C22CC47BCA80CCDECE9ED00B16
:40070000D6F1D88DE410820193019F01A601B601B701BE44BF40C032C104C6CEC7B0C82CC9FFCAFFCBFFCEF0CF44D00CD804D904DA04DF01E6C0EA40EB0200800120021026
:40074000040209A80A4010A813401508180219211A241C201E0221882388268028802962318832103602378038A83A0240804140425446A449404B405104520256405711B3
:400780005B0869146A8070BC720284108B018E108F80C017C20FC42FCA0DCC9ECE0FD0EFD208D602E280010A0351059F099F0D80151417491D011F26318033183560370783
:4007C0003A023F1054185604580459045B045C235D205F0104A007500C980E480F8011801201164A170818801E281F812044210822C024022540262827842D012F40310846
:400800003240340436283701380139543D203E044448462047804C015401564059025E206120620263026D086F0A748C7608822083408740881389088E029021915492443F
:4008400094C495019702984899029A029B599C079E099F04A130A301A485A504A680A78AA880AA02AD20AE40B401B602C0F0C2F0C4F0CA80CCEACE6FD0F0D210D621D80D8E
:40088000E202E610EE01030117011B02220123023201330237013F4454185604580459045B045C015D105F0100600108028008010A200B111008121613061501195A1A127B
:4008C0001B041E2020202120224823412508264028802A802B142F80325A3504362039023A143B403C0240444290484049404B10510159105E026520678269547008730623
:400900008F12902092649480950196029780984899049B599C069E099F04A110A221A301A4C4A50CA610A70AA804B010B308C00FC20DC41FCA8FCC6FCE8FD007D20CD6847A
:40094000D8B0EA04EE08000C02500A20104D12301301142816511B021C021E542301284D2A10303C310232033501364038083A023E403F104054410645E0460C47B048262D
:4009800049FF4AFF4BFF4EF04F44500C580459045A045C215D015F0166C06A406B0284058514862A8C808D108F0C9008912092549303949F981299099A299B109D1C9F027E
:4009C000A49FA910AD0CAF11B01CB11FB260B403B520B680BB08BE04BF10C025C106C204C403C6C0C7E0C828C9FFCAFFCBFFCC62CDA0CEF0CF41D00CD602D712D804D9044E
:400A0000DA04DB04DC44DD44DF01E640E702E910EA30EB10ED10EE10EF12000801400410064008800A650C400D020E200F4111041510160819401A541C301D031E01212061
:400A40002209240427402B092F80318032213602372039803B04410142104320444049404A084C404D104F40511052025440564057025A0869446A207080711073109180AA
:400A800093249484952299249B809C809D029F04A180A220A309A440A804A920AB08AC41AF20B240B310C055C2BEC444CA8CCCADCE0AD087D23CD602000C02D304D3051818
:400AC000060C093C0BC10C820D7C0F8210C314DF15FF180F19E71AD01B181C411D101E202008210424042704280C29082EC32FC330C0315832203320340F35983610371F93
:400B000038803A203BA03F0454015604580459045B045C445D405F01800182168320860889098A1C8B109170930C941C9603970399109E03A56CA711A801A95CAA0EAB025B
:400B4000AD14B20FB360B41AB51FB908BA28BF04C002C504C9FFCA07CBFFCC40CD20CEF0CF05D008D804D904DA04DC11DD01DF01E040E1A8E240E320000203210410050137
:400B8000071008840A400B040E200F011081121413101608190A1BA01E201F1420022151220423042724288129582A102E082F1630843208332035013620371439A03A047A
:400BC0003C303F0147204E204F0159245B826202860288849240931095029608970199759B839D029E089F04A090A208A302A404A610A7A0A920AB40B204B313B720C07D14
:400C0000C2AFC44FCA7FCCEECEAED020D60FD801E804EE10302032083502378038808601CCF0CE10E2103241364037043B2083048502920194809D029F80A420A608CCF0B6
:400C4000CE10E280E610024003203020538057085A01824086408A018C209201948096829F80A420A648AF10C010CC10D460D640E6C0EE40860894809F80A320A608A780CB
:400C8000AB08AE40E210E810EE8010207B02C408DC018F02A702B020B420E402EE0C8A02E0019A0294809F80A320AF80EE101240864087808C4094809F80AB20C410E0104E
:400CC000E240EC200D0866029A02C204D8011010762088109A20AA20B508C408DE04E204EE08001F0A0F0C1F0E05101E1A0E1C1600FF01FF023F0000888A00005500000050
:400D00000F00F0000C0C0000820F00F008FF0000001C00E3C3C300002CF3D30CFF0000F341080000F3040C00048200000041E3002C1C100F0F2CC0C0080020280000000037
:400D400021060400050EC00009FFFFFF62A0F0410C000000000002110404040431130001000000000000400200103010001010120000000000000000000000000000000004
:400D8000001000002218000073080C00110480007F0000000CBC7342330000040F9C706108FF0000040000000CE70018000033633038801F0F80405880002088000000100C
:400DC00025040300010000CE30FFFFFF62A0F0410C0000000000021204040404000000010000000000004002001030100010101200000000000000000000000000000000A3
:400E00000000030067CF180000CF04007F000000000180001804002A5C88225410000000004280945C00210008000000040000008030400E1FC0200180002000000005015B
:400E40002504030001000CE024FFFFFF62A0F0410C0000000000021104040404133100010000000000004002001030100010101200000000000000000000000000000000CD
:400E8000C3000080F3180C002F08D0000000D38082040000FF1C0061007F00003C1CC36208000004041000000C67001841000043C0200F5820801C1F00020888000010107D
:400EC0003406050002C000E022FFFFFF62A0F0410C000000000002110404040422220001000000000000400200103010001010120000000000000000000000000000000087
:400F0000AA0055AAAA00AA00000000001000201010001000000000000002020000000000000000000000000000000000000000000000000000000000000000000000000050
:400F40000000000000000000000000000000000000000000000000000000000000000000000000000000000000000000000000000000000000000000000000000000000071
:400F80000000000000000000000000000000000000000000000000000000000000000000000000000000000000000000000000000000000000000000000000000000000031
:400FC00000000000000000000000000000000000000000000000000000000000000000000000000000000000000000000000000000000000000000000000000000000000F1
:4010000000000000000000000000000000000000000000000000000000000000000000000000000000000000000000000000000000000000000000000000000000000000B0
:0200000490006A
:0400000000004005B7
:0200000490105A
:04000000BC90ACAF55
:0200000490303A
:02000000FEED13
:0200000490402A
:4000000000000000000000000000000000000000000000000000000000000000000000000000000000000000000000000000000000000000000000000000000000000000C0
:400040000000000000000000000000000000000000000000000000000000000000000000000000000000000000000000000000000000000000000000000000000000000080
:400080000000000000000000000000000000000000000000000000000000000000000000000000000000000000000000000000000000000000000000000000000000000040
:4000C0000000000000000000000000000000000000000000000000000000000000000000000000000000000000000000000000000000000000000000000000000000000000
:0200000490501A
:0C00000000012E16106900012E210F5681
:00000001FF