:400000000080002011000000590600005906000008B5044B1A6803F53F5302331A6000F01DFB00BFFA46004010B5054C237833B9044B13B10448AFF300800123237010BDA1
:400040002081FF1F0000000064150000084B10B51BB108480849AFF300800848036803B910BD074B002BFBD0BDE81040184700BF00000000641500002481FF1F0881FF1F1F
:400080000000000008B5244B1B68002BFBD0224B1B6813F0010F12D0204B1B78012B0ED11D4A136823F00103136000F0DBFEB0FA80F0400900F0CAFE00F074F9E3E7164BD5
:4000C0001B6813F0020F0ED0134C236823F0020323600022114B1A7000F018FA236843F470532360CFE70C4B1B6803F47053B3F5705FC8D1084A136823F47053136000F090
:4001000007FA00F0AFFEB0FA80F0400900F09EFE0122024B1A70B6E75481FF1F8181FF1F08B541F2883000F021FE00241F4B1C6001251F4B1D7062B6204600F087FE00F0C7
:4001400017FF00F007FF1B4800F040FF00F06AFC194800F067FE01F023F8184801F08EF8204600F037FA00F08FFD154800F05EFF284600F02FFA00F099FF124801F0AEF845
:40018000022000F027FA01F0EBF80F4801F052F9032000F01FFA00F0EBFE01F09BF940F2DC5001F06FF9FFF76DFF00BF5481FF1F8181FF1F69030000CD010000E90100000C
:4001C00049020000A90200000903000008B500F06BFC00F035FE034A136843F00103136008BD00BF5481FF1F08B500F0EDFF01F053F8124B1B7813B1012B09D01AE000F065
:40020000EBFFC0B20E4B188001220C4B1A7008BD00F0E2FF0A4A13889BB243EA002080B210800022054B1A70064A136843F48063136008BD0022014B1A7008BD3C81FF1FDB
:400240008881FF1F5481FF1F08B500F031FD00F0FBFE124B5B7813B1012B09D01AE000F02FFDC0B20E4B188001220C4B5A7008BD00F026FD0A4A13889BB243EA002080B257
:4002800010800022054B5A70064A136843F40063136008BD0022014B5A7008BD3C81FF1F8681FF1F5481FF1F08B500F013FF01F023F8124B9B7813B1012B09D01AE000F0F7
:4002C00011FFC0B20E4B188001220C4B9A7008BD00F008FF0A4A13889BB243EA002080B210800022054B9A70064A136843F48053136008BD0022014B9A7008BD3C81FF1F5F
:400300008A81FF1F5481FF1F08B501F03DF801F09FF8124BDB7813B1012B09D01AE001F03BF8C0B20E4B188001220C4BDA7008BD01F032F80A4A13889BB243EA002080B2DD
:4003400010800022054BDA70064A136843F40053136008BD0022014BDA7008BD3C81FF1F8481FF1F5481FF1F08B500F09DFD00F03BFE034A136843F00203136008BD00BFCF
:400380005481FF1F08B5B0F57A7F03D3B0F5FA6F03D804E04FF47A7001E04FF4FA6001F071F808BD10B590E000F092FB564B188010F47F4F40F0A380C0B29870DB780F2B6B
:4003C00000F28380DFE803F0080E191E292E393E494E595E666B7378EA2876D101224A4BDA7072E0E32803D10222474BDA706CE00022454BDA70022010BD434B988003229B
:40040000DA7062E0404CA38843EA0020A080002100F0F8F80423E37057E03B4BD8800522DA7052E0384CE38843EA0020E080012100F0E8F80623E37047E0334B1881072268
:40044000DA7042E0304C238943EA00202081022100F0D8F80823E37037E02B4B58810922DA7032E0284C638943EA00206081032100F0C8F80A23E37027E0234B98810B220F
:40048000DA7022E0204B9A8942EA002098810C22DA701AE01C4BD8810D22DA7015E01A4BDA8942EA0020D8810E22DA700DE0164B18820F22DA7008E0134C238A43EA0020D2
:4004C0002082FFF75FFF0023E37000F019FB00287FF46AAF00F0E8FA10F0200F7FF464AF00F00EFB20B900F0DFFA10F0200F08D0054A536943F001035361002010BD0120AB
:4005000010BD002010BD00BF4081FF1F704700BF70B5294883690133836128490A881A4492B20A809BB2264D2A8802EB430292B22A80244E328803EB4304224492B23280D5
:40054000214C228802EB83039BB22380E32303770B8843770B88C3F3072383772B88C3772B88C3F3072380F82030338880F821303388C3F3072380F82230238880F8233020
:400580002388C3F3072380F82430104B1A8880F825201B88C3F3072380F826300C4B1A8880F827201B88C3F3072380F828301C300D2100F0E1FA70BD4081FF1F8881FF1F56
:4005C0008681FF1F8A81FF1F8481FF1F8C81FF1F8281FF1F08B5032812D8DFE800F002060A0EFF2000F002FE08BDFF2000F072FB08BDFF2000F080FD08BDFF2000F0D6FE4C
:4006000008BD00BF08B540F6FC73984200D91846104A00F01F03403B1370C0F346105070032916D8DFE801F002070C110948022100F0F2FD08BD0748022100F061FB08BDFD
:400640000448022100F06EFD08BD0248022100F0C3FE08BD6C81FF1FFEE700BF08B5104E104D16E029686B68AC68002204E051F8040B43F8040B0432A242F8D1E868002276
:4006800003E0002143F8041B04328242F9D11035013E002EE6D100F02BFFFFF741FDFEE7010000003016000008B5124A124B1A60124A136843F40073136000230AE0032B16
:4006C00003D80F4A52F8231000E00E490E4A42F8231001332F2BF2D90C4B1A780C4B1A70094A0C4B1A6000F0C1F800220A4B1A6008BD00BF0004FA050CED00E014ED00E02B
:4007000000000000590600000080FF1FBC7600400481FF1F08ED00E00081FF1FFEE700BFF0B40022174611E050F82760F3B226F0FF0608E001EB420511F812406D78A55597
:400740000132013BDBB2002BF4D10137282FEBD9F0BC7047064B1B78DBB203F00701054A11701B09013213704422034B1A707047CF0100496E5800407658004008B50A4692
:40078000002100F0E6FE08BD38B517222B4B1A8018232B4A1370192502321580023213704FF49C71023211800232137045F6BF5102321180023213700222224B1A70082280
:4007C0004FF040231A70032103F5007319701E4B1B78DBB21D490B701D4B1A8041F25122023B1A8000240CE01A4B1B7803F0010343EA440404F003044FF4F07000F0A4FA2C
:40080000013D0DB1032CEFD115B90320FFF786FF114B4FF480721A8007221A7000220F490A704820023108701A700222033B1A700B4A137843F00F03137038BD8040004069
:40084000824000400043004008010049A146004022420040254200400440004006400040A243004008B500F069FE08BD38B572B6384A137843F00403137000240CE03649B9
:4008800063001A1952000A4423445B00C8589188FFF774FF0134E4B20D2CF0D9002410E02D49A3001A1952000A4452F8540F23445B000B445168B3F85C20FFF7D3FF013436
:4008C000E4B2072CECD94FF090402449FFF728FF234A137843F0020313701032137843F0020313701F4C237843F040032370A2F58632513A137843F0100313701A481B4993
:400900000822FFF7AFFF1A481A490A22FFF7AAFF19481A490A22FFF7A5FF194819490822FFF7A0FF184A137843F008031370174D61232B70FFF728FF81232B700122144B3E
:400940001A70FFF707FF134821460E22FFF78AFF38BD00BFE846004068150000A400004803500140A043004002510040B0130048C0510040B813004810510040C41300487C
:4009800022510040D0130048224300400048004004000840B043004008B50C200C4900F0FBF90C20072100F00BFA0023094A13707221094A11702021A2F58172117006216F
:4009C000653A11704721103211704D32137008BDA10B00007081FF1F8A65004010B500F0BBF904460C4A137843F020031370A2F58172137843F0100313704FF48052074B49
:400A00001A60074A137843F01003137000F08CF9204600F0A5F910BD9A65004000E100E09064004008B5054B5B7823B9FFF7B4FF0122024B5A70FFF7D1FF08BD7081FF1FF4
:400A40004FF48052134B1A60134A9378DBB2D178C9B2127912F0FF0F01D18B4211D00F4AD05CC0B20133DBB2132B00D900230A4A9370137913F0FF0F06D00022064B1A71FB
:400A800002E0074B1878C0B24FF48052054B1A60704700BF80E100E07081FF1F9081FF1F4A65004000E100E0074B187800F07F00064B5B7913F0FF0F04D040F0800000224F
:400AC000024B5A71704700BF686400407081FF1F10B54FF48053074A1360074A147800211170064A13602402FFF7AAFF204380B210BD00BF80E100E07081FF1F00E100E075
:400B00004FF48052134B1A60134A9378D278DBB2934206D1104B1B7913F0FF0F14D0142013E00D4A9378D278DBB2934205D20A4AD3789078181AC0B207E0074AD378907817
:400B4000181A1430C0B200E000204FF48052034B1A60704780E100E07081FF1F00E100E0034B1B7813F0040FFAD1024B187070476064004040640040084B5B7833B97047E9
:400B8000305DFFF7EDFF0134E4B203E070B50D4606460024AC42F3D370BD00BF7081FF1F1C4B1B78DBB213F01E0F05D01A4803F01E0201780A43027003F0200303F0FF023E
:400BC0002BB3164B1978C9B2154B1B78DBB21548C154154B1B7813F0FF0F02D00121134B19700F490B780133DBB20B700B78DBB2132B02D900210A4B1970094B1B780C495E
:400C00000978DBB28B4202D10121074B1970002AC6D17047686400407081FF1F4A6500407381FF1F9081FF1F7481FF1F7581FF1F7281FF1F7222074B1A702022033B1A7094
:400C400006225E3B1A70472210331A70002257331A7070478564004008B500F07DF8094A137843F020031370033A137843F0100313700932137843F01003137000F070F88C
:400C800008BD00BF9564004008B5054B1B7823B9FFF7D0FF0122024B1A70FFF7DDFF08BD7781FF1F014B1878704700BF42640040024B187800F07F00704700BF626400408F
:400CC00010B5FFF7F5FF0402FFF7ECFF204380B210BD00BF024B1B780BB1024B187070477781FF1F4A640040034B1B7813F0040FFAD1024B187070476B6400404A640040C6
:400D0000084B1B7833B97047305DFFF7EDFF0134E4B203E070B50D4606460024AC42F3D370BD00BF7781FF1F054A137843F0040313701032137843F004031370704700BFD8
:400D4000A2430040000000000230800803D000BF01380046FCD17047EFF3108072B6704780F31088704700BF01BE704710B5044605E0084B1868FFF7E7FFA4F50044B4F58E
:400D8000004FF6D8034B586800FB04F0FFF7DCFF10BD00BF0C81FF1F70B504460E46074B1D681F2802D90020FFF7DEFF04F01F04103455F8240045F8246070BD08ED00E0D3
:400DC00038B504460D46072902D90020FFF7CCFF1F2C02D90020FFF7C7FF04F01F0000F1604000F564406D01EDB2057038BD00BF014B1B681864704708ED00E04001C0B27E
:400E0000014B1870704700BF00E400E00122014B1A60704700E100E00122014B1A60704780E100E010B50446FFF7F6FF2046FFF7DFFF0720FFF7E2FFFFF7E8FF10BD00BFC7
:400E40000122014B1A60704780E200E0044A137803F0FD03400000F0020018431070704720510040024B1878C0F34000704700BF21510040084A137843F00103137010327E
:400E8000137843F00103137002F64D32137843F001031370704700BFA3430040014B1870704700BF034F0040014B1878704700BF034F004010B50446094B1B7813F0010FCC
:400EC00002D00020FFF750FF054B1A7842F001021A70044A14801A7802F0FE021A7010BDA3430040064F0040014B1880704700BF044F004008B5154A137803F00103137094
:400F00000232137803F0FC031370013A137843F0010313700E4B1A7802F0CF021A701A7842F030021A701A7802F0F0021A701A7842F00F021A706420FFF7D6FF6420FFF71D
:400F4000B9FF0820FFF7AAFF08BD00BF004F00400B4F004008B5054B1B7823B9FFF7CAFF0122024B1A70FFF785FF08BD7981FF1F054A137843F0010313701032137843F025
:400F800001031370704700BFA2430040024B1B68C3F88400704700BF08ED00E04001C0B2014B1870704700BF11E400E04FF40032014B1A60704700BF00E100E04FF40032FC
:400FC000014B1A60704700BF80E100E010B50446FFF7F4FF2046FFF7D9FF0720FFF7DEFFFFF7E4FF10BD00BF4FF40032014B1A60704700BF80E200E0014B1B689865704773
:4010000008ED00E04001C0B2014B1870704700BF06E400E04022014B1A60704700E100E04022014B1A60704780E100E010B50446FFF7F6FF2046FFF7DFFF0720FFF7E2FF22
:40104000FFF7E8FF10BD00BF4022014B1A60704780E200E07222084B1A70202201331A700622A3F5AC731A70472210331A7000224E331A70704700BF8565004008B5FFF756
:401080006BFE094A137843F0200313700132137843F010031370FA3A137843F010031370FFF75EFE08BD00BF9565004008B5054B1B7823B9FFF7CEFF0122024B1A70FFF7C2
:4010C000DDFF08BD7A81FF1F014B1878704700BF46650040024B187800F07F00704700BF6665004010B5FFF7F5FF0402FFF7ECFF204380B210BD00BF024B1B780BB1024B8C
:40110000187070477A81FF1F48650040034B1B7813F0040FFAD1024B187070476C64004048650040084B1B7833B97047305DFFF7EDFF0134E4B203E070B50D460646002491
:40114000AC42F3D370BD00BF7A81FF1F7222074B1A7020220E3B1A700622A6331A70472210331A700022B03B1A7070478F64004008B5FFF7F1FD094A137843F02003137097
:401180000E3A137843F0100313700632137843F010031370FFF7E4FD08BD00BF9F64004008B5054B1B7823B9FFF7D0FF0122024B1A70FFF7DDFF08BD7C81FF1F014B1878A0
:4011C000704700BF4F640040024B187800F07F00704700BF6164004010B5FFF7F5FF0402FFF7ECFF204380B210BD00BF024B1B780BB1024B187070477C81FF1F4B640040D6
:40120000034B1B7813F0040FFAD1024B18707047676400404B640040084B1B7833B97047305DFFF7EDFF0134E4B203E070B50D4606460024AC42F3D370BD00BF7C81FF1F1D
:40124000014B1B681866704708ED00E04001C0B2014B1870704700BF08E400E04FF48072014B1A60704700BF00E100E04FF48072014B1A60704700BF80E100E010B50446D9
:40128000FFF7F4FF2046FFF7DBFF0720FFF7DEFFFFF7E4FF10BD00BF4FF48072014B1A60704700BF80E200E0014B1B689864704708ED00E04001C0B2014B1870704700BFA9
:4012C00002E400E00422014B1A60704700E100E00422014B1A60704780E100E010B50446FFF7F6FF2046FFF7DFFF0720FFF7E2FFFFF7E8FF10BD00BF0422014B1A607047A2
:4013000080E200E07222084B1A702022A3F582731A700622A2331A70472210331A70002253331A70704700BF8765004008B5FFF713FD0A4A137843F020031370A2F582720A
:40134000137843F01003137002F20512137843F010031370FFF704FD08BD00BF9765004008B5054B1B7823B9FFF7CCFF0122024B1A70FFF7DBFF08BD7E81FF1F014B18783E
:40138000704700BF44650040024B187800F07F00704700BF6364004010B5FFF7F5FF0402FFF7ECFF204380B210BD00BF024B1B780BB1024B187070477E81FF1F4B65004019
:4013C000034B1B7813F0040FFAD1024B18707047686500404B650040084B1B7833B97047305DFFF7EDFF0134E4B203E070B50D4606460024AC42F3D370BD00BF7E81FF1F57
:40140000014B1B681865704708ED00E04001C0B2014B1870704700BF04E400E01022014B1A60704700E100E01022014B1A60704780E100E010B50446FFF7F6FF2046FFF759
:40144000DFFF0720FFF7E2FFFFF7E8FF10BD00BF1022014B1A60704780E200E0024A137843F080031370704776640040014B1880704700BF0C680040014B1880704700BFED
:401480008C680040014B1880704700BF4C68004008B50F4A137803F0C00343F0090313702032137843F0010313700132137843F00103137044F62060FFF7D8FF44F6206041
:4014C000FFF7DAFF40F2DC50FFF7DCFF08BD00BF7664004008B5054B1B7823B9FFF7D8FF0122024B1A70FFF7B9FF08BD8081FF1F0E4B70B51E460E4C0025E41AA410A54281
:4015000004D056F8253098470135F8E700F07EF8084B094C1E46E41AA4100025A54204D056F8253098470135F8E770BD1816000018160000181600002016000010B5431E92
:401540000A44914204D011F8014B03F8014FF8E710BD03460244934202D003F8011BFAE77047000000000000004F00400C00305100404000F05100401000000001400002D5
:40158000800201400006000901400003800C01400002000F01400001001401408004001901400001801A0140800100400140000A004C0140000200500140200060520040A8
:4015C000A0100048060000510140A8100048080000020140B0100048800080080140301100488000000C0140B01100488000800E014030120048800080180140B012004824
:401600008000001A0140301300488000F8B500BFF8BC08BC9E4670474D000000A9060000F8B500BFF8BC08BC9E46704729000000401600000881FF1F180000008800000004
:40164000000000000000E02EC05D00001800000000366E01000000000000000000000000000000000000000000000000000000000000000000000000000000000000000082
:40168000000000000000000000000000000000000000000000000000000000000000000000000000000000000000000000000000000000000000000000000000000000002A
:4016C00000000000000000000000000000000000000000000000000000000000000000000000000000000000000000000000000000000000000000000000000000000000EA
:4017000000000000000000000000000000000000000000000000000000000000000000000000000000000000000000000000000000000000000000000000000000000000A9
:401740000000000000000000000000000000000000000000000000000000000000000000000000000000000000000000000000000000000000000000000000000000000069
:020000040003F7
:0200000480007A
:40000000024F0040055200400D64004005650040630001403E010140320201405503014068040140550501406E060140570701402C080140510901406A0A01405B0B014003
:40004000390C0140560D0140210E01403A0F01406D140140571501406F16014055170140321801404E190140331A0140551B01400740014015410140124201400E430140C2
:40008000044401400B45014006460140034701400848014006490140084C01400C4D01400850014001300A1B014008800C6010501190800F813882388338840F8572870FBC
:4000C000883889728B0F8C0F8D388F72857286388772880F8A7200D30114020C048A06140740091C0B220F0310D31180120415101A081B201D301F0C20202245232024032B
:400100002604274029092B102D2C2F1130C0311F338034303540360F372038223A803E013F544014410545E046C047B0482A49FF4AFF4BFF4EF04F44500C54015604580499
:4001400059045A045B045C225D225F0166C06A406B02811F8514870A911F9201950296019705A509A712B001B307B518BE01C001C604C9FFCA07CBFFCC40CD20CEF0CF051D
:40018000D008D418D604D804D904DA04DB04DC10DD11DF01E040E1A8E240E32001080210038008020A440B800E800F2010F019201A041B821F012040224423042404260412
:4001C00028E229202F2030283101338034013604384039403A193C043F0240804380458049014B804F01502052015640581059015A885E016380658067448401874188207B
:40020000C00CC23AC40CCA4FCCCFCECFD019D208D68FD8B1E202E60880018216841C860389108B0C8D149001920E99209A1C9B039D099F10A11CA203A302A90CAA08AB1182
:40024000AD10B01AB120B20FB51FBA0ABF01C004C704C9FFCA07CBFFCC40CD20CEF0CF05D008D418D604D804D904DA04DB04DC12DD12DF01E040E1A8E240E3200108038065
:400280000424054106100A440F01108815201640174019081A401C041D811F042080221024082549271029012A502C222F48325033403710388039203D024302448045445C
:4002C00048804C144E01500857105A015C805E805F02628263046502670A81808202844089028E0291409206930396409A409D88A220A382A488A580A640A710AB40AE0980
:40030000B221B320B404B604C0FCC28AC4DACAFDCC2CCE8CD0D1D230D681D8BDE002E284E69CEA08EE020120034505530608070409530B0C0C710E06102C12431C801E136F
:400340001F082071210A220E2354260C2D032F44300F33403430350F36C0373038A039803A023B203E103F044001464049FF4A074BFF4C404D204EF04F0550085401560472
:40038000580459045A045B045C115D115F01604061A862406320818285D3870C890C8A018DC3950499DF9FC3A108A51CA7C3A91FABC0AD41AE01AF20B120B30FB510B6016B
:4003C000B7C0BB08BF10C031C102C5BCC60CC70EC817C9FFCAFFCBFFCEF0CF44D00CD602D711D804D904DA04DB04DC10DD11DF01E6C0EA40EB020080010804200A400B0280
:400400001010110117401A421B211E022110224425042614278229012A402C802D802F143240348036203704380439203A193B013D8A3E20420246194C404E10516054080E
:400440005640584059045A205B015E2062026C226F0874807620771482438440856886048860900C91409301948095A09681978499019A029D409F02A109A220A422A5240C
:40048000A6C0A708A940AD20C045C209C48CCAF9CC78CEF7D078D62FD801E00CE809EE010204030206A3083C0AC20B010C041301141C16E118E71A181C10240828182CFF84
:4004C000303831023298341F3640370138803A283F404010410649FF4AFF4BFF4DA04F0450185280580459045A045B045C015F01604062C06440654066C068C06AC06CC02F
:400500006EC084068B018C048D4C8E028F30954C971098069B019F20A354A402A50CA604A750A808A902AC01AD28AF50B006B13CB208B302B501B601B740BB02BE44BF542B
:40054000C010C106C610C702C818C9FFCAFFCBFFCDAFCE0FCF04D018D401D604D804D904DA04DB04DC11DD10DF01E040E2C0E440E540E6C0E8C0EAC0ECC0EEC000080302AD
:400580000408059007800A040C800E181028114014021640171519041A401B421D501E901F1420C0224423042741282029202A012B013004318032103501384039203C02E7
:4005C0003F20434047404A084E085010520858205A885B0262027401834088028A209008914094209601972E982499A09B949D4C9F40A088A180A224A321A440A6C0A884FB
:40060000AC08ADA0AF41B014B181B201B701C0F5C2E2C4E7CA0FCC8ECEACD018D224D60FD801E004E618EA04EE020514090C0B110D090F101510191C1B021D201F032910CD
:400640002B0C2F40311F332037403E403F044060410149FF4AFF4BFF4DA04F04501854185604580459045A045B045C105D205F01604062C06440654066C068C06AC06CC060
:400680006EC00024030208A20A201088120213081630180419551A011F802101221423022680276028A029102EA030843104321036283740382839823C803F184180458091
:4006C00049284D2051825A085D026440670A6954709C7308844088808A088F20931095019681972099209A509D099E019F02A040A228A420A502A902AB10AD04B010B208EC
:40070000B440B602B720C007C20FC40FCA37CC7ECE7FD018D224D682D8B0E024E610E860EC04EE8005280602071309280A060B150D400F09120413161608170219161B29D7
:400740001E082201260130043160320233073401351B360839023B283E5040244106450B460C47E0482549FF4AFF4BFF4EF04F44500C5280580459045A045B045C105D01EC
:400780005F0166C06A406B02801082AC84DC850C8622871188098AD08E0391099310940C95109671970C99149D209F03A010A110A240A51CA702A814AD40AE20B01FB2E074
:4007C000B320B540B71FBA08BF14C051C103C50EC7CBC831C9FFCAFFCBFFCEF0CF44D00CD401D604D804D904DA04DB04DC11DD11DF01E6C0EA40EB020128044006280780CC
:4008000009020A010B200D081020130215011606180419421B041C601D081F0120802104223523102680271828022B022C102F4232193691370439083A503C0841204280DD
:400840004508460248044A104D044E0250405302560457015C025E405F2864407002822087408A028B819240948496AA9702981099209AD09B049C409D419E01A004A12080
:40088000A209A402A704A880AA80AB04AC40AD05AF20B580C0F6C22DC4DCCAD0CCF7CE4ED055D214D6F0D880E280E420EC068473860C8B028C038E449301942A964497061A
:4008C00098739A049B049D089E08A255B040B102B20FB301B430B508B704B820BA08BE11BF10C030C106C501C650C702C819C9FFCAFFCBFFCDAFCE0FCF04D018D418D60450
:40090000D804D904DA04DB04DC01DD10DF01E040E2C0E440E540E6C0E8C0EAC0ECC0EEC0008001080211048005800620070408020AAA0E0210801240150816881840191870
:400940001C081E421F28218923082521269027142EA82F283020310A32403584361138203D503E043F0241084508460448285018520459015C425F2860846140678078108D
:400980007B088280831084408B4091509204970299249D10A080A102A208A301A402A501AF0AB034B189B304B410B641B704C0E5C287C478CA70CCFFCEF4D062D204D6F1F5
:4009C000D88DE002E680E840EAA0EC400B011C0227012B022E013002330334013B203E013F044006470449FF4A074BFF4C404D204EF04F0550085280580459045A045B04A5
:400A00005C105D015F01604061A8624063200508064007040B020D010E020F2810021601172A19201A801C201D041E021F2220082128222024402684270428202B042E80F2
:400A40002F243621370438203C403E2A452946C0488049104D804F22520857085E086D506E247102762A772A7B3086148A80C070C2F1C4F1CA76CCE0CEF4D0E0D234D640FF
:400A8000E28000020215042707011004120A170118272401260A2C2030073220361837013E403F40402341054206440146E0470C481849FF4AFF4BFF4C624DA04EF04F4101
:400AC000500C580459045A045C015D015F016640670269106A306B106D106E106F1280F3820C84C3850888FF89188C4190829303940F953C96F09742981C997F9AE39C081D
:400B00009F04A110A2F3A404A567A718A80CA93CAB41AD04AF80B01CB180B22CB31FB40FB520B6C0B740B980BA28BB08BF10C006C504C9FFCA07CBFFCC40CD20CEF0CF0518
:400B4000D008D602D711D804D904DA04DB04DC11DD11DF01E040E1A8E240E320000801020590064007100A440C800D080E080F80102011401729180119021A101D091E02E8
:400B80001F1422802402261427402C802D802F143008310435103624374138083E284025421048084B404D084E04500451105601580159025E2067306D046F0A7480762849
:400BC00077288201858887408A648B5090049140924494029524979099049B119C219D01A024A220A340A681A70AAC80AF80B020B202C0FCC2FAC475CAF0CCF2CE62D00E8A
:400C0000D22CD620E004E408EE08020105FC0D900F4919401A011BA22128235129FC2D043118320133E0350337043E043F104064410342054402450E46C0480949FF4AFF7A
:400C40004BFF4C624DA04EF04F41500C54185604580459045A045B045C105D115F016640670269106A306B106D106E106F12800F82F084F3860C89088C418D3C8F429082C2
:400C8000910494FF9518997F9AF39C1C9D3C9EE39F41A008A304A404A703A80CA967AB18ACC3AD10B02CB21CB320B40FB540B6C0B71FB920BA22BB80BF04C002C504C9FFED
:400CC000CA07CBFFCC40CD20CEF0CF05D008D602D712D804D904DA04DB04DC11DD11DF01E040E1A8E240E3200004020203400402082009040A400B010F0810891304180477
:400D000019141A811F04214022142301244025102711282029502B802F4A3018326233403710382039803C403D043F804320441045144701481049084E014F1852015301D6
:400D4000571059015A0A5E02648066406708680469406A04709871407304881092409520962597029A409D099E01A220A320A424A680A710AA02B120B302C01DC24FC40F93
:400D8000CABFCC2FCE5CD0E4D230D682D8B0E608EE0404040A01120115531602170C19201B451E021F082553270429032B442D0A2F54300131303202330F3404374039027C
:400DC0003A803B083E153F404034410645E047CB483249FF4AFF4BFF4EF04F44500C54015604580459045A045B045C125D115F0166C06A406B020004030604280508088044
:400E000009280B800E210F8010841344180419021A211E081F452060214022242648276028202D202E442F0832243608375039544040414042084650482049504E404F1080
:400E40005310560157045D205E885F02660279807A028602880289018A209154931095819680972A99509A589C229D029E81A280A430A602A704AB80B004B302C067C2BF25
:400E8000C40FCA72CC76CE0ED0CDD22CD6F0D880E4808110824C850C861387118914906C920395209703983199109A0E9B0C9D099E089F10A831AA46AD1CAF02B00FB230AA
:400EC000B44AB51FB720B808BA22BE04BF40C026C103C50EC6B0C70CC819C9FFCAFFCBFFCEF0CF44D00CD804D904DA04DC11DD01DF01E6C0EA40EB020004038207500884D2
:400F000009020A180B800C100E440F0210A8172019901A101B421E441F042040214422142344254027082E4032503768384039163E043F2240044146430444104720498051
:400F40004A104D084E0850105718591069146A8070A871288208831085408701888089018B04900493809420964497449B609C849D089F14A380A480A528A610A74AAE8025
:400F8000B020B280B404B610B782C03DC2DFC44ECA10CC7CCEEFD06FD228D604E002E280EE20328137183A808702CCF0CE10E64032043380361037023880632086048A10B8
:400FC0008B088E8096029B029E809F08A680AB10CCF0CE10D840E610EA20024032443720508056808330928094809602A680A790AA40C010CC70D460E280E680EE80630875
:4010000086848E809480960A9E80A680A780A880AE40D840E610E810EA2010407740C408DE0459085D04632064088604B040B740D603D803E808EA0192049D08A808AD0451
:40104000B710E80882209204A90887809602A780A840AB04E610EA80EE2012408640AE01C410E010EE4008400C015B015E0492049A20C206D60310107620870188109A20B8
:401080009F01B041C408DE04E204EA01EE04000708060A030C070E0310061A021C060000A28A000055000000FFFFFF03000000006C44032A31000E000000800000008000F7
:4010C000000000000000000000020015000013000021084A00E7000031E7460000804C000F6080074A803018800022000000444036050400010EC00009FFFFFF62A0F041CD
:401100000C000000180004000404040411110001000000000000400200103010001010120000000000000000000000000000000000000004F3180C00820800000F00F003E9
:40114000C30000001C3CE341413C0042FF100000087F0000040400800C6700180000F300C0802C200F1F1C400080282000000004600100000001025025FFFFFF00AF0F045B
:40118000180000000000021204040404111000014000C0004040C000C000C000C000C00000000000000000000000000000000000000000801640A900A84015000040800055
:4011C00000000008000000800033000C000316044000890000330204A82A13040000001580401B80070F60308080282000000144300200000000000000FFFFFF00A00004AA
:40120000180000000100040004040404111000014000C0004040C000C000C000C000C000000000000000000000000000000000000010F300410800001C18E30000000004B8
:40124000FF3C0041F33C0C42C37F00000F00F00008000000046700180C04008082000003C0801C200F1F2C400080A020000000046402050003C0000E12FFFFFF62A0F041BC
:401280000C000000000002120404040411110001000000000000400200103010001010120000000000000000000000000000000000000000E3E70C0000E7C3000F80E00028
:4012C000EF0000000C4400310401000E4100100008000000822200510C00E300C3000000C01810600F072080800020000000000161020500040EC00009FFFFFF62A0F04159
:401300000C000000000000000404040012010001000000000000400200103010001010120000000000000000000000000000000000090432E79F1800009F00003C02C145FD
:40134000FF000000BC0042000014C32A048000001000000008000000180000000000000058071F802018986000000A000000104023040500010EC00009FFFFFF62A0F041FF
:401380000C00000000000211040404042222000100000000000040020010301000101012000000000000000000000000000000000040400040000000AA0055AAAA00AA0038
:4013C0000000000090006090900090000000000000F2F200F00000000000000000000000000000000000000000000000000000000000000000000000000000000000000079
:4014000000000000000000000000000000000000000000000000000000000000000000000000000000000000000000000000000000000000000000000000000000000000AC
:40144000000000000000000000000000000000000000000000000000000000000000000000000000000000000000000000000000000000000000000000000000000000006C
:40148000000000000000000000000000000000000000000000000000000000000000000000000000000000000000000000000000000000000000000000000000000000002C
:4014C00000000000000000000000000000000000000000000000000000000000000000000000000000000000000000000000000000000000000000000000000000000000EC
:0200000490006A
:0400000000004005B7
:0200000490105A
:04000000BC90ACAF55
:0200000490303A
:02000000521399
:0200000490402A
:4000000000000000000000000000000000000000000000000000000000000000000000000000000000000000000000000000000000000000000000000000000000000000C0
:400040000000000000000000000000000000000000000000000000000000000000000000000000000000000000000000000000000000000000000000000000000000000080
:400080000000000000000000000000000000000000000000000000000000000000000000000000000000000000000000000000000000000000000000000000000000000040
:4000C0000000000000000000000000000000000000000000000000000000000000000000000000000000000000000000000000000000000000000000000000000000000000
:0200000490501A
:0C00000000012E16106900012E24627C05
:00000001FF