:400000000080002011000000190400001904000008B5044B1A6803F53F5302331A6000F0FDF900BFFA46004010B5054C237833B9044B13B10448AFF300800123237010BD47
:400040002081FF1F00000000F4140000084B10B51BB108480849AFF300800848036803B910BD074B002BFBD0BDE81040184700BF00000000F41400002481FF1F0881FF1F01
:400080000000000008B54FF4FA6000F011FF00F01DFDB0FA80F0400900F00CFD4FF47A6000F098FC40F2DC5000F002FF00F00EFDB0FA80F0400900F0FDFC4FF47A6000F03C
:4000C00089FC4FF47A7000F0F3FE00F0FFFCB0FA80F0400900F0EEFC4FF47A6000F07AFC40F2DC5000F0E4FE00F0F0FCB0FA80F0400900F0DFFC4FF47A6000F06BFCC2E76B
:4001000008B541F2883000F065FC00243B4B1C6001253B4B1D70204601F018F8204601F009F8204601F01EF8204601F027F8204601F030F8204601F039F8204600F0BAFCB2
:4001400062B600F061FB2F4800F0A0FC01F03AF800F05AFF40F2DC5000F024FF40F2DC5000F026FF00F0A4FF40F2DC5000F06EFF40F2DC5000F070FF00F064FD224800F012
:40018000AFFD204600F030F900F0D4FB1F4800F0BFFC284600F028F900F0FAFC1C4800F0CFFD022000F020F900F00AFE194800F051FE032000F018F900F0D2FE40F2DC50B9
:4001C00000F070FE40F2DC5000F072FE124800F09BFF01F067F840F2DC5001F01BF801F0D1F84FF47A7001F085F801F03BF940F2E24001F0EFF8FFF745FF00BF6481FF1FAB
:400200008D81FF1F1D0200003902000099020000F902000059030000B903000008B500F001FB00F041FC034A136843F00103136008BD00BF6481FF1F08B500F017FD00F00A
:400240005DFD124B1B7813B1012B09D01AE000F015FDC0B20E4B188001220C4B1A7008BD00F00CFD0A4A13889BB243EA002080B210800022054B1A70064A136843F480631E
:40028000136008BD0022014B1A7008BD3C81FF1F9481FF1F6481FF1F08B500F05FFB00F045FC124B5B7813B1012B09D01AE000F05DFBC0B20E4B188001220C4B5A7008BD59
:4002C00000F054FB0A4A13889BB243EA002080B210800022054B5A70064A136843F40063136008BD0022014B5A7008BD3C81FF1F9281FF1F6481FF1F08B500F05DFC00F099
:400300002DFD124B9B7813B1012B09D01AE000F05BFCC0B20E4B188001220C4B9A7008BD00F052FC0A4A13889BB243EA002080B210800022054B9A70064A136843F4805393
:40034000136008BD0022014B9A7008BD3C81FF1F9681FF1F6481FF1F08B500F045FD00F087FD124BDB7813B1012B09D01AE000F043FDC0B20E4B188001220C4BDA7008BD03
:4003800000F03AFD0A4A13889BB243EA002080B210800022054BDA70064A136843F40053136008BD0022014BDA7008BD3C81FF1F9081FF1F6481FF1F08B500F085FD00F0D9
:4003C000B1FE074A536801335360042B07D90022034B5A60034A136843F00203136008BD3C81FF1F6481FF1F08B5032812D8DFE800F002060A0EFF2000F04AFC08BDFF202A
:4004000000F0BEFA08BDFF2000F0E8FB08BDFF2000F0FCFC08BD00BFFEE700BF08B5104E104D16E029686B68AC68002204E051F8040B43F8040B0432A242F8D1E868002286
:4004400003E0002143F8041B04328242F9D11035013E002EE6D101F013F8FFF751FEFEE7010000009C15000008B5124A124B1A60124A136843F40073136000230AE0032BFA
:4004800003D80F4A52F8231000E00E490E4A42F8231001332F2BF2D90C4B1A780C4B1A70094A0C4B1A6000F0C1F800220A4B1A6008BD00BF0004FA050CED00E014ED00E06D
:4004C00000000000190400000080FF1FBC7600400481FF1F08ED00E00081FF1FFEE700BFF0B40022174611E050F82760F3B226F0FF0608E001EB420511F812406D78A5551C
:400500000132013BDBB2002BF4D10137282FEBD9F0BC7047064B1B78DBB203F00701054A11701B09013213704422034B1A707047CF0100496E5800407658004008B50A46D4
:40054000002100F0CEFF08BD38B517222B4B1A8018232B4A13701925023215800232137040F2371102321180023213704FF49C7102321180023213700222224B1A700822AA
:400580004FF040231A70032103F5007319701E4B1B78DBB21D490B701D4B1A8041F25122023B1A8000240CE01A4B1B7803F0010343EA440404F003044FF4F07000F0F8F91B
:4005C000013D0DB1032CEFD115B90320FFF786FF114B4FF480721A8007221A7000220F490A704820023108701A700222033B1A700B4A137843F00F03137038BD80400040AC
:40060000824000400043004008010049A146004022420040254200400440004006400040A243004008B500F051FF08BD38B572B63D4A137843F00403137000240CE03B4908
:4006400063001A1952000A4423445B00C8589188FFF774FF0134E4B20A2CF0D9002410E03249A3001A1952000A4452F8440F23445B000B445168B3F84C20FFF7D3FF013496
:40068000E4B2052CECD94FF090402949FFF728FF284A137843F0020313701032137843F002031370244C237843F040032370A2F58632513A137843F0100313701F482049BE
:4006C0000822FFF7AFFF1F481F490A22FFF7AAFF1E481F490822FFF7A5FF1E481E490A22FFF7A0FF1D481E490822FFF79BFF1D481D490822FFF796FF1C4A137843F008033D
:4007000013701B4D61232B70FFF71EFF81232B700122184B1A70FFF7FDFE174821460E22FFF780FF38BD00BFE8460040F8140000A400004803500140A0430040025100408D
:40074000CC130048C0510040D4130048F2510040E013004810510040E813004822510040F413004832510040FC130048224300400048004004000840B043004008B50C207F
:400780000C4900F03DF90C20072100F04DF90023094A13707221094A11702021A2F5807211700621A23211704721103211705132137008BD4D0800007881FF1F876500407F
:4007C00010B500F0FDF804460C4A137843F020031370A2F58072137843F0100313704FF48052074B1A60074A137843F01003137000F0D0F8204600F0E7F810BD97650040F2
:4008000000E100E09A65004008B5054B5B7823B9FFF7B4FF0122024B5A70FFF7D1FF08BD7881FF1F074B187800F07F00064B5B7913F0FF0F04D040F080000022024B5A7132
:40084000704700BF676400407881FF1F1C4B1B78DBB213F01E0F05D01A4803F01E0201780A43027003F0200303F0FF022BB3164B1978C9B2154B1B78DBB21548C154154B00
:400880001B7813F0FF0F02D00121134B19700F490B780133DBB20B700B78DBB2312B02D900210A4B1970094B1B780C490978DBB28B4202D10121074B1970002AC6D17047FD
:4008C000676400407881FF1F446500407B81FF1F9C81FF1F7C81FF1F7D81FF1F7A81FF1F7222074B1A702022033B1A700622533B1A70472210331A7000224D331A70704775
:400900008564004008B500F05BF8094A137843F020031370033A137843F0100313700A32137843F01003137000F04EF808BD00BF9564004008B5054B1B7823B9FFF7D0FF82
:400940000122024B1A70FFF7DDFF08BD7F81FF1F014B1878704700BF46640040024B187800F07F00704700BF6264004010B5FFF7F5FF0402FFF7ECFF204380B210BD00BF0D
:40098000024B1B780BB1024B187070477F81FF1F4B640040054A137843F0080313701032137843F008031370704700BFA24300400230800803D000BF01380046FCD17047EF
:4009C000EFF3108072B6704780F31088704700BF01BE704710B5044605E0084B1868FFF7E7FFA4F50044B4F5004FF6D8034B586800FB04F0FFF7DCFF10BD00BF0C81FF1F64
:400A000070B504460E46074B1D681F2802D90020FFF7DEFF04F01F04103455F8240045F8246070BD08ED00E038B504460D46072902D90020FFF7CCFF1F2C02D90020FFF7C6
:400A4000C7FF04F01F0000F1604000F564406D01EDB2057038BD00BF014B1B681864704708ED00E04001C0B2014B1870704700BF00E400E00122014B1A60704700E100E044
:400A80000122014B1A60704780E100E010B50446FFF7F6FF2046FFF7DFFF0720FFF7E2FFFFF7E8FF10BD00BF0122014B1A60704780E200E0044A137803F0FD03400000F0DC
:400AC000020018431070704720510040024B1878C0F34000704700BF21510040014B1B689865704708ED00E04001C0B2014B1870704700BF06E400E04022014B1A607047BB
:400B000000E100E04022014B1A60704780E100E010B50446FFF7F6FF2046FFF7DFFF0720FFF7E2FFFFF7E8FF10BD00BF4022014B1A60704780E200E07222084B1A70202265
:400B400001331A700622A3F5AE731A70472210331A7000224A331A70704700BF8565004008B5FFF72DFF094A137843F0200313700132137843F010031370A2F5817213781B
:400B800043F010031370FFF71FFF08BD9565004008B5054B1B7823B9FFF7CEFF0122024B1A70FFF7DDFF08BD8181FF1F014B1878704700BF45650040024B187800F07F00E1
:400BC000704700BF6665004010B5FFF7F5FF0402FFF7ECFF204380B210BD00BF024B1B780BB1024B187070478181FF1F476400407222074B1A702022013B1A7006226C3B43
:400C00001A70472210331A7000224F331A7070478E64004008B5FFF7D3FE094A137843F020031370013A137843F0100313700D3A137843F010031370FFF7C6FE08BD00BF3A
:400C40009E64004008B5054B1B7823B9FFF7D0FF0122024B1A70FFF7DDFF08BD8381FF1F014B1878704700BF4E640040024B187800F07F00704700BF6D64004010B5FFF76C
:400C8000F5FF0402FFF7ECFF204380B210BD00BF024B1B780BB1024B187070478381FF1F40640040014B1B681866704708ED00E04001C0B2014B1870704700BF08E400E068
:400CC0004FF48072014B1A60704700BF00E100E04FF48072014B1A60704700BF80E100E010B50446FFF7F4FF2046FFF7DBFF0720FFF7DEFFFFF7E4FF10BD00BF4FF480724E
:400D0000014B1A60704700BF80E200E0014B1B689864704708ED00E04001C0B2014B1870704700BF02E400E00422014B1A60704700E100E00422014B1A60704780E100E0D3
:400D400010B50446FFF7F6FF2046FFF7DFFF0720FFF7E2FFFFF7E8FF10BD00BF0422014B1A60704780E200E07222084B1A702022023B1A700622A3F267131A70472210330C
:400D80001A70002251331A70704700BF8B65004008B5FFF715FE094A137843F020031370023A137843F010031370A2F58372137843F010031370FFF707FE08BD9B650040E6
:400DC00008B5054B1B7823B9FFF7CEFF0122024B1A70FFF7DDFF08BD8581FF1F014B1878704700BF4B650040024B187800F07F00704700BF6965004010B5FFF7F5FF040238
:400E0000FFF7ECFF204380B210BD00BF024B1B780BB1024B187070478581FF1F43640040014B1B681865704708ED00E04001C0B2014B1870704700BF04E400E01022014B62
:400E40001A60704700E100E01022014B1A60704780E100E010B50446FFF7F6FF2046FFF7DFFF0720FFF7E2FFFFF7E8FF10BD00BF1022014B1A60704780E200E0024A13782D
:400E800043F080031370704778650040014B1880704700BF0C6A0040014B1880704700BF8C6A0040014B1880704700BF4C6A0040014B1880704700BF6C6A0040014B1870F1
:400EC000704700BF86640040014B1878704700BF66640040014B188880B27047AC6A004008B501E0FFF7F6FFFFF7EEFF10F0100FF8D108BD08B5184A137803F0C00343F01F
:400F0000090313701E32137843F0010313700132137843F00103137044F62060FFF7B6FF44F62060FFF7B8FF40F2DC50FFF7BAFF40F2DC50FFF7BCFF0420FFF7BFFFFFF75F
:400F40003FFD064A137843F010031370FFF73CFDFFF7C6FF08BD00BF786500409664004008B5054B1B7823B9FFF7C4FF0122024B1A70FFF783FF08BD8781FF1F024A137863
:400F800043F080031370704776640040014B1880704700BF08680040014B1880704700BF88680040014B1880704700BF48680040014B1880704700BF6868004008B5114AC7
:400FC000137803F0C00343F0090313701E32137843F0010313700132137843F00103137044F62060FFF7D2FF44F62060FFF7D4FF40F2DC50FFF7D6FF40F2DC50FFF7D8FF89
:4010000008BD00BF7664004008B5054B1B7823B9FFF7D4FF0122024B1A70FFF7AFFF08BD8881FF1F024A137843F08003137070477F640040014B1880704700BF186800403F
:40104000014B1880704700BF98680040014B1880704700BF58680040014B1880704700BF7868004008B5114A137803F0C00343F0090313701D32137843F001031370013220
:40108000137843F00103137044F62060FFF7D2FF44F62060FFF7D4FF40F2DC50FFF7D6FF40F2DC50FFF7D8FF08BD00BF7F64004008B5054B1B7823B9FFF7D4FF0122024B37
:4010C0001A70FFF7AFFF08BD8981FF1F014B1B685867704708ED00E04001C0B2014B1870704700BF0DE400E04FF40052014B1A60704700BF00E100E04FF40052014B1A6000
:40110000704700BF80E100E010B50446FFF7F4FF2046FFF7DBFF0720FFF7DEFFFFF7E4FF10BD00BF4FF40052014B1A60704700BF80E200E0044A137803F0FB03800000F01E
:40114000040018431070704730510040044A137803F0FD03400000F0020018431070704730510040044A137803F0F703C00000F0080018431070704730510040044A13781D
:4011800003F0EF03000100F0100018431070704730510040044A137803F0DF03400100F0200018431070704730510040044A137803F0BF03800100F04000184310707047D3
:4011C00030510040054A137843F0010313701032137843F001031370704700BFA2430040084A137843F0010313701032137843F00103137002F64D32137843F0010313709E
:40120000704700BFA3430040014B1880704700BF044F0040014B1880704700BF064F0040014B1870704700BF034F004008B51A4A137843F0020313700232137803F08F03AF
:4012400043F010031370154B1A7802F0CF021A701A7842F030021A701A7802F0F0021A701A7842F00F021A7044F62060FFF7CCFF40F2DC50FFF7CEFF0020FFF7D1FF084AB3
:40128000137843F00103137002F65E32137843F00103137008BD00BF004F00400B4F0040A343004008B5054B1B7823B9FFF7BEFF0122024B1A70FFF793FF08BD8A81FF1FAA
:4012C000084A137843F0040313701032137843F00403137002F66532137843F001031370704700BFA3430040014B1880704700BF1C4F0040014B1880704700BF1E4F00404E
:40130000014B1870704700BF1B4F004008B51A4A137843F0020313700232137803F08F0343F010031370154B1A7802F0CF021A701A7842F030021A701A7802F0F0021A7086
:401340001A7842F00F021A7044F62060FFF7CCFF40F2DC50FFF7CEFF0020FFF7D1FF084A137843F00403137002F67632137843F00103137008BD00BF184F0040234F004030
:40138000A343004008B5054B1B7823B9FFF7BEFF0122024B1A70FFF793FF08BD8B81FF1F084A137843F0020313701032137843F00203137002F65932137843F0010313707F
:4013C000704700BFA3430040014B1880704700BF104F0040014B1880704700BF124F0040014B1870704700BF0F4F004008B51A4A137843F0020313700232137803F08F03CA
:4014000043F010031370154B1A7802F0CF021A701A7842F030021A701A7802F0F0021A701A7842F00F021A7044F62060FFF7CCFF40F2DC50FFF7CEFF0020FFF7D1FF084AF1
:40144000137843F00203137002F66A32137843F00103137008BD00BF0C4F0040174F0040A343004008B5054B1B7823B9FFF7BEFF0122024B1A70FFF793FF08BD8C81FF1FC1
:401480000E4B70B51E460E4C0025E41AA410A54204D056F8253098470135F8E700F06CF8084B094C1E46E41AA4100025A54204D056F8253098470135F8E770BD8415000078
:4014C00084150000841500008C15000010B5431E0A44914204D011F8014B03F8014FF8E710BD03460244934202D003F8011BFAE77047000000000000004F00402400405189
:4015000000403000000001408008000901408003000D0140000300140140800000150140800100170140000500400140000A004C014000020050014020000000605200408E
:40154000BC110048060000510140C4110048080080080140CC1100488000800C01404C120048800080140140CC1200488000801601404C1300488000F8B500BFF8BC08BCDB
:401580009E4670474D00000069040000F8B500BFF8BC08BC9E46704729000000B01500000881FF1F18000000B000000000000000000000000000E02EC05D000018000000B7
:4015C00000366E0100000000000000000000000000000000000000000000000000000000000000000000000000000000000000000000000000000000000000000000000046
:4016000000000000000000000000000000000000000000000000000000000000000000000000000000000000000000000000000000000000000000000000000000000000AA
:40164000000000000000000000000000000000000000000000000000000000000000000000000000000000000000000000000000000000000000000000000000000000006A
:40168000000000000000000000000000000000000000000000000000000000000000000000000000000000000000000000000000000000000000000000000000000000002A
:4016C00000000000000000000000000000000000000000000000000000000000000000000000000000000000000000000000000000000000000000000000000000000000EA
:020000040003F7
:0200000480007A
:40000000034F0040095200400D640040066500406C0001403D010140690201404B030140710401405205014065060140590701403408014058090140630A01404C0B0140D0
:400040002C0C0140580D0140640E0140360F01403914014058150140281601404B17014076180140531901406A1A01405C1B01400840014011410140184201401A4301407C
:4000800006440140124501400A460140034701400B4801400D4901400B4C0140074D0140085001400A27162722270140089009100C6010501190180119817910800F823875
:4000C000830F840F8572860F8738880F89728A388C0F8D388E7285728638877289388A0F8B720608074009180B210C110D1B0E460F20104C121318111A0E1D501E4C1F2382
:4001000020202203258029042B292D1B2F60300F31013380344A350636303778388039203A223B803F054013410545EB46C0470E481B49FF4AFF4BFF4EF04F44500C54011B
:400140005604580459045A045B045C115D115F0166C06A406B0283088414870C8B138CDC8E229131930696039C0C9D2C9E719F03A010A131A240A30EA620A809AAD0AC10F3
:40018000AEACB21FB530B6E0B70FB920BA80BB88BF10C003C540C9FFCA07CBFFCC40CD20CEF0CF05D008D804D904DA04DC11DD01DF01E040E1A8E240E320020203200508DC
:4001C00007010A460E111102140215211620180819021A461E111F402110220423862688270528012A242C102F50328034033680370238203B843D013F244002422047043F
:4002000049094B804D0150105204531056205710581059015A085B80634082108740C0A5C2ABC4F8CA8ECC98CEEED04AD208D60FD801E00100FF0302040C08040B010C4150
:40024000100F12F018F31A0C1EE320082301240C26F328C32C82302C310232C0340F3501361038803A223F104003464049FF4A074BFF4C404D204EF04F0550085418560405
:40028000580459045A045B045C015D115F01604061A862406320801C8202840C85CD86118710890C8B118D02901091CD920C9330942096039C099E109F20A1A8A311A41070
:4002C000A814AF55B13CB21FB302B5C0B620B701B920BB02BE40BF54C054C102C6CEC70BC81CC9FFCAFFCBFFCEF0CF44D00CD401D604D804D904DA04DB04DC11DD11DF0118
:40030000E6C0EA40EB020004010205050606084009120A120B080E46102814201540171219801A101C401D101E441F882102224623082510274029122A202B022F8030409B
:400340003102382C3B803C023F204004430247084A02501853505420550157225AA95C026080654067487E107F1085808B408D018E08900892029902A208A501A602A720F0
:40038000B608C0FCC2DDC4F6CA89CC09CEAED045D208D68FD8B1E008E220E602012803510468054D06130710090C0B110C560E09150216291B20214D2202233026162980A7
:4003C0002B152C682E153060313C3302340735C0361B3701380239203AA03B023E013F444010410449FF4AFF4BFF4DA04F04501854015604580459045A045B045C115D1078
:400400005F01604062C06440654066C068C06AC06CC06EC082808301841888088C3C8E41907F9604987C9A029E43A010A467A618AA80AC04B058B220B41FB501B680BA2036
:40044000BE44C010C104C501C652C80DC9FFCAFFCBFFCDAFCE0FCF04D018D602D711D804D904DA04DB04DC11DD10DF01E040E2C0E440E540E6C0E8C0EAC0ECC0EEC0000472
:40048000018004400505064408280A040E66110212031304162A1702180619821C101D411E04210122562304261028082A013210330838263E0242814340468047404E2006
:4004C0005690580259105A885C1063406D046E106F017504760477028008824C861087408A018C808D01904095409A209B409C209D449E069F12A208A401A601A710AC0238
:40050000AF08B080B201B340C0F5C2F4C4FDCA05CC06CE87D099D62FD801E002E440E605EA2401090332060E099F0D140F2A118019021B451C08259F26052A01300831803E
:400540003201330734043560360237183E043F10403541024204440646E0470C481849FF4AFF4BFF4C624DA04EF04F41500C528054075604580459045A045B045C105D01A1
:400580005F016640670269106A306B106D106E106F12840C86118A408C1C8E029240942096039C10A014A409A610AB01AC10AE0CB21FB420B501B640B902BE50BF01C046B5
:4005C000C102C6CBC70EC81CC9FFCAFFCBFFCEF0CF44D00CD418D604D804D904DA04DB04DC01DD31DF01E6C0EA40EB020024018004200510061008800AA00C010D010E01D2
:40060000108113041604170819401A281D041E452102230824082540260327102B042D0437113DC03E1240044101440446604A044C044E025090530856085710590C5A0263
:400640005D085E605F0161416220678074018102860487408A048E08900491069210930494209540988099809A629B019D109E089F10A20CA401A601A718AA02B002B102FD
:40068000B308B620C027C28DC46DCA44CCA0CEB0D0E5D234D6F1D88DE280E602EE020340041405520609072408010A060B2D0C20111F1320143F151F176021182324240AB1
:4006C0002611283F30203218330334073578370439083B203F4440234104450E460C47B0482549FF4AFF4BFF4EF04F44500C54015604580459045A045B045C225D225F010F
:4007000066C06A406B0203210514070209010A040B010D041010112012011420151018021A801B211C081D141E101F022004218022152304251026482704282029522F804D
:4007400030803104321033023501370538283B803E243F0B400441804302441045104620470149204B804C204D04500A550157805A085C025EA8674069186B0270947128D3
:4007800087408C018D0493809603972499429C05A284A4ABA5A8A708AE20B020B608C0E5C22BC467CA8FCCCFCEEED0EDD20CD6F2D880E440E8900004041C06620A800C1CA2
:4007C0000E61107F1418170118081E041F012010246726182A232D022E80301F3101324034803502363838083A823E103F114003450449FF4A074BFF4C404D204EF04F0552
:40080000500854185604580459045A045B045C025D215F01604061A86240632081248340855089708A028B088C088D40980199409B309D029F0CA130A206A344A701AA0427
:40084000AB01B008B17CB202B401B502B604B701BE11BF50C024C101C5EBC70CC813C9FFCAFFCBFFCEF0CF44D00CD804D904DA04DC10DD01DF01E6C0EA40EB0200120180DA
:4008800003200480060809280A010B800C20108613041521181419C21C201E0A1F01234826A0274028012E022F183008318037503A403B403D863E204020444046024710E1
:4008C00049044C404D044F01500157045A0260846240808183088410851089038B208C088D048F019380970198409A229B109C08A141A601A704A820AB44B601C0CFC24F7F
:40090000C45FCAE8CC3ACEF0D0B2D601D80DE00CE210E4C003080503074419531B0C1D531F0421202345290A2B543130330F374039023A803B083F404040410649FF4AFF56
:400940004BFF4DA04F04501854015604580459045A045B045C125D105F01604062C06440654066C068C06AC06CC06EC0008A03080408050409080A400B0210A61240191500
:400980001A011B081F4020062245250126402750280429102A882B802C402E202F0430203108324135403710380839203A413B023D023F084104430147014B044E08510401
:4009C0005208532059015C285E805F0160046382674087408E0191209240930896099704984099409A8A9B019D109F50A0E6A148A381A720A804AB04B004B128B208B62091
:400A0000C00FC20DC40FCAAFCC3FCECFD083D220D6F1D88DE008E440E805EC4001200352057C0601097C0A020E05154817251A041E0229142BA9300231703201330C340487
:400A4000358037033E013F404064410342014405450C460E480549FF4AFF4BFF4C624DA04EF04F41500C56025712580459045A045B045C105D115F016640670269106A3030
:400A80006B106D106E106F1282168468861589018C688E13945696099E299F02A202A480A880AC80B080B21BB460B501B607B702B820BA88BE10BF10C002C604C9FFCA07DB
:400AC000CBFFCC40CD20CEF0CF05D008D280D804D904DA04DB04DC01DD01DF01E040E1A8E240E320002003210540060207500A010B040C400E200F011580164017281804C6
:400B000019081B011D601E601F04208221152208270529203208378039163D2042E14520481149104F015380554056405A0869946B2870A071087780811084028504C0B735
:400B4000C2A3C4F0CA04CC12CE27D02BD20CD60200800180049F0D210F4A10141102122A1315140215E7164519E71D441F2A249F2C092E3230183107320733183480358068
:400B8000366037603E403F044062410342044401450C460E480549FF4AFF4BFF4C624DA04EF04F41500C580459045A045C135D035F016640670269106A306B106D106E1066
:400BC0006F12000A0504068407010A600D200E210F801001110415021718180119101A641C401D241E021F14210122A12318261427422D802E022F143028328136243701DE
:400C000038023B803D033E28400142044306452146804708481049204D024F50524055045C405F426C29762C77117A807B40808085808613874088018901910594409664A7
:400C400099209B049C819D129E409F40A005A302A410A504A601AA01AB04AF40C0FCC2FCC475CAF0CCEFCEE9D0EFD234D680E601EE0407010F02100213021A071F01260181
:400C8000300431023202330136013B203F054030410649FF4AFF4BFF4DA04F04501854185604580459045A045B045C305D105F01604062C06440654066C068C06AC06CC011
:400CC0006EC0012802020480058009800A640E800F0410A113101408172819281A821B1A1EA01F40218222242480272428812B18319233043502374038283A423C403D0891
:400D00004020442047084A084B054E08521C5A085E026408658066016805690470B472027310820283049101968297019B089E14A410A630A704A901AC04AD01AE08C0076F
:400D4000C25FC42FCA0FCC9FCE5FD042D224D682D8B0E040E202E62000FF0110040C057F080409040B800D3C0F41100F12F0130314F3153C160C1742188219181EF31F0412
:400D800020C324412508281C29672AE32B182C08302C3180320F331F341C352036C0374039803A0A3B083F104006474049FF4A074BFF4C404D204EF04F0550085280580464
:400DC00059045A045B045C115D025F01604061A86240632082A086108723895C8B038C018D618E0E8F16924C931C95619620970E984C9A03A603A801AA46AB08AE08B04A4A
:400E0000B160B20FB31AB430B50FB680B902BA0ABB28BE10BF01C004C640C9FFCA07CBFFCC40CD20CEF0CF05D008D418D604D804D904DA04DB04DC32DD13DF01E040E1A8F2
:400E4000E240E320000A03020402060807100A940C180E42112012011304140415081602170119211A011B061D201E401F542040211822102310261427422A102C282E0858
:400E80002F0431083201340436053750388839243C203D083E4240404E08500452105621580262A26620670475027C027F4085028A029294960197209C219D219E21A004F0
:400EC000A114A288A401A70CAE10AF80B006B104B302C07DC2FEC4F7CA64CCF3CEFED001D220D601D80DE040E62004800514090C0B110C530E0C1303140A1654191C1B0261
:400F00001E08200321092244231024202645285329102A042D102F0C300F311F32803440363038803A023E144042410645CB46E0480B49FF4AFF4BFF4EF04F44500C54018C
:400F40005604580459045A045B045C335D335F0166C06A406B0288148A2A8C028E458F029302989FA409A632A89FAC80AF01B007B101B260B418B502B680BE04BF10C06446
:400F8000C105C202C403C60EC70CC814C9FFCAFFCBFFCC62CDA0CEF0CF41D00CD602D711D804D904DA04DB04DC31DD11DF01E640E702E910EA30EB10ED10EE10EF1203226E
:400FC0000440060807010A220E081104128013101558188819041A021B821C401D081E021F502202262027402A102B822C102E882F103001321237023A403B943F804204B3
:401000004302452846404A804B144C094D8053205748588059165D045E2461026D506E087420760277108110828083408502872089808A808C84910C922093109482960281
:401040009A109B029C119E029F11A008A120A210A420A502A621A708A902B031B104C0C5C245C4EECA1DCC85CE16D0E5D234D62FD801E480E6203040310137223A108710B6
:40108000CCF0CE10E64031803308352037083B2062028708892093209C409D019E109F22CCF0CE10D840E640050230023240341036085002518057805840824087028E40AD
:4010C0009C409D019E109F22A602AB08B180C020CCF0D460E6C0EA2019801A401C406B807380770483848410860A8B8096409C109D019E109F20A402A60AA780A902AD803B
:40110000C670DCE0E2D0E640EC20EE40141070087710C404DC01DE0450105B025D0262016710874099029A019F10A808AA01B010B102D404D603D803E801EA048310871004
:401140008C109380942097109F10B702E402E8088F019380E00287208A108C40904099809D019E109F20A802E240EA2016405D806310864093109980A901AF10C420D62060
:40118000D840E010EA3008400C04678279408D409382C206D601D801DC01E00210208820B044C408E604EA01EE01000F08030A0B0C070E07100F1A0B1C0F00008105000052
:4011C0006A000000FFFFFF0F000000000000000020180300000800004CFF1100140000E6008400001CE7421809101000003900C68042000050C60C00101F00E0C0C0000163
:401200001F1E2038020000200000400424050100060000EC30FFFFFF62A0F0410C0000000000021204040404222200010000000000004002001030100010101200000000FE
:401240000000000000000000000000001C7FE300413C00410F00F004C31000000000F3800C18000000080000FF3C00420800008004040000F3670C1882000003C0402C2061
:401280000F801C1F0002288000000014400300000001500219FFFFFF00AF0F04180000001800040004040404111000014000C0004040C000C000C000C000C0000000000092
:4012C000000000000000000000000000FF7F00000F08F0000418000008000000821000001C00E304F3000C0341000000C33C00420067F3180C3C0041000400801C402C80A5
:401300000F1FC02000022820000000402304050006C0000E12FFFFFF62A0F0410C0000000000021304040404111100010000000000004002001030100010101200000000BB
:40134000000000000000000000000000001000000F18F000F3080C00FF00008082000080C37F00000000F3031C3CE34208000004046700180C3C0041410400001C402C2004
:401380000F80C01F00022880000000143006000000D510021BFFFFFF00AF0F04180000000000021204040404333000014000C0004040C000C000C000C000C000000000002A
:4013C000000000000000000000000000004040004000000095006A959500950000000000001010001000000090006090900090000000000000FAFA00F800000000FFFF00B5
:40140000810000000000000000000000000000000000000000000000000000000000000000000000000000000000000000000000000000000000000000000000000000002B
:40144000000000000000000000000000000000000000000000000000000000000000000000000000000000000000000000000000000000000000000000000000000000006C
:40148000000000000000000000000000000000000000000000000000000000000000000000000000000000000000000000000000000000000000000000000000000000002C
:4014C00000000000000000000000000000000000000000000000000000000000000000000000000000000000000000000000000000000000000000000000000000000000EC
:4015000000000000000000000000000000000000000000000000000000000000000000000000000000000000000000000000000000000000000000000000000000000000AB
:0200000490006A
:0400000000004005B7
:0200000490105A
:04000000BC90ACAF55
:0200000490303A
:02000000FA4EB6
:0200000490402A
:4000000000000000000000000000000000000000000000000000000000000000000000000000000000000000000000000000000000000000000000000000000000000000C0
:400040000000000000000000000000000000000000000000000000000000000000000000000000000000000000000000000000000000000000000000000000000000000080
:400080000000000000000000000000000000000000000000000000000000000000000000000000000000000000000000000000000000000000000000000000000000000040
:4000C0000000000000000000000000000000000000000000000000000000000000000000000000000000000000000000000000000000000000000000000000000000000000
:0200000490501A
:0C00000000012E16106900012E240AB722
:00000001FF