:4000000000800020110000007D0800007D08000008B5044B1A6803F53F5302331A6000F02FFC00BFFA46004010B5054C237833B9044B13B10448AFF300800123237010BD42
:400040002081FF1F00000000441C0000084B10B51BB108480849AFF300800848036803B910BD074B002BFBD0BDE81040184700BF00000000441C00002481FF1F0881FF1F51
:400080000000000008B5002001F004F840F2DC5001F03CFB40F2DC5001F03EFB40F2DC5001F0E0FA40F2DC5001F0E2FA002000F0A3FB012000F0A0FB032000F09DFB0220ED
:4000C00000F09AFB40F2DC5001F040FA40F2DC5001F042FA08BD00BF08B5264B1B68002BFBD0244B1B6813F0010F15D0224B1B78012B11D11F4A136823F00103136000F0E6
:40010000D5FFB0FA80F0400900F0C4FF00221B4B1A6000F0EDF9E0E7164B1B6803F47053B3F5705F0AD1134A136823F47053136000F014FB0122104B1A70CEE70D4B1B688A
:4001400013F0020FC9D00B4A136823F0020313600A4A136801331360052B01DDFFF792FF0022054B1A70034A136843F470531360B3E700BF6C81FF1F9B81FF1F3C81FF1FC2
:4001800008B541F2883000F015FF0024354B1C600125354B1D70204600F07CFF62B600F067FD324800F062FF01F024FB01F08CFA40F2DC5001F056FA40F2DC5001F058FA71
:4001C00001F0D6FA40F2DC5001F0A0FA40F2DC5001F0A2FA01F024FA01F04AF8244801F0B5F8204600F008FB00F074FE214800F083FF284600F000FB00F0C0FF1E4801F029
:40020000D5F8022000F0F8FA01F00EF91B4801F075F9032000F0F0FA01F078FC184801F0B5FC01F0EFF940F2DC5001F08FF940F2DC5001F091F9134801F0C6FA01F04AFB04
:4002400040F2DC5001F0FEFA01F0B4FB4FF47A7001F068FB01F01EFC40F2E24001F0D2FBFFF73AFF6C81FF1F9B81FF1F89020000A50200000503000065030000C50300001B
:4002800025040000A104000008B500F033FD00F0FBFE034A136843F00103136008BD00BF6C81FF1F08B500F0F7FF01F05DF8124B1B7813B1012B09D01AE000F0F5FFC0B2B7
:4002C0000E4B188001220C4B1A7008BD00F0ECFF0A4A13889BB243EA002080B210800022054B1A70064A136843F48063136008BD0022014B1A7008BD4081FF1FA681FF1F24
:400300006C81FF1F08B500F0F9FD00F003FF124B5B7813B1012B09D01AE000F0F7FDC0B20E4B188001220C4B5A7008BD00F0EEFD0A4A13889BB243EA002080B21080002292
:40034000054B5A70064A136843F40063136008BD0022014B5A7008BD4081FF1FA481FF1F6C81FF1F08B500F01DFF01F02DF8124B9B7813B1012B09D01AE000F01BFFC0B20E
:400380000E4B188001220C4B9A7008BD00F012FF0A4A13889BB243EA002080B210800022054B9A70064A136843F48053136008BD0022014B9A7008BD4081FF1FA881FF1FCB
:4003C0006C81FF1F08B501F043F801F0A5F8124BDB7813B1012B09D01AE001F041F8C0B20E4B188001220C4BDA7008BD01F038F80A4A13889BB243EA002080B21080002264
:40040000054BDA70064A136843F40053136008BD0022014BDA7008BD4081FF1F9E81FF1F6C81FF1F08B501F085FB01F0BDFB01F089FBC0B2174B1B79032B2AD8DFE803F053
:400440000209161D40B280B2124BD88001221A7108BD104AD3889BB243EA0020D080D3889BB20D490B800223137108BD40B280B2084BD88003221A7108BD064AD3889BB220
:4004800043EA0020D080D3889BB204490B800023137108BD4081FF1FA081FF1FA281FF1F08B501F065F801F09DF9074A936801339360042B07D90022034B9A60034A13680E
:4004C00043F00203136008BD4081FF1F6C81FF1F08B5B0F57A7F03D3B0F5FA6F03D804E04FF47A7001E04FF4FA6001F02FF808BD38B513E100F012FC974B188010F47F4FF1
:4005000040F02681C0B29870DB781B2B00F20681DFE813F01C0023002800320037004100460051005600600004017D0082008D0092009D00A200AD00B200BD00C200CA0026
:40054000CF00D700DC00E600F600FB00EA2840F0E5800122804BDA70E0E07F4B98800222DA70DBE07C4CA38843EA0020A08001F079F80323E370D1E0774BD8800422DA7002
:40058000CCE0754CE38843EA0020E08001F070F80523E370C2E0704B18810622DA70BDE06D4C238943EA002020810725E57001F0ADF8E570B2E0684B58810822DA70ADE0FF
:4005C000654C638943EA0020608101F0A5F80923E370A3E0022808D003280BD001280ED14FF47A7001F00EFA0DE040F2E24001F009FA08E040F2DC5001F004FA03E04FF4DA
:400600007A7001F0FFF90B22534BDA7086E0524BD8810C22DA7081E04F4CE38943EA0020E081002100F000F90D23E37076E04A4B18820E22DA7071E0474C238A43EA00207E
:400640002082012100F0F0F80F23E37066E0424B58821022DA7061E03F4C638A43EA00206082022100F0E0F81123E37056E03A4B98821222DA7051E0374CA38A43EA002055
:40068000A082032100F0D0F81323E37046E0324BD8821422DA7041E02F4BDA8A42EA0020D8821522DA7039E02B4B18831622DA7034E0294B1A8B42EA002018831722DA70CD
:4006C0002CE0254B58831822DA7027E0224C638B43EA00206083FFF7FBFE1923E3701DE010F0400F04D04FF47A7001F0ABF803E04FF4FA6001F0A6F81A22174BDA700DE049
:40070000154B98831B22DA7008E0134CA38B43EA0020A08300F020FF0023E37000F016FB00287FF4E7AE00F0E5FA10F0200F7FF4E1AE00F00BFB20B900F0DCFA10F0200F58
:4007400008D0054A136A43F001031362002038BD012038BD002038BD4C81FF1F08B51F48E32380F824301E4B1A8880F825201B88C3F3072380F826301A4B1A8880F8272029
:400780001B88C3F3072380F82830174B1A8880F829201B88C3F3072380F82A30134B1A8880F82B201B88C3F3072380F82C30104B1A8880F82D201B8843F3072380F82E3017
:4007C0000C4B1A8880F82F201B8843F3072380F8303024300D2100F0F5FA08BD4C81FF1FA681FF1FA481FF1FA881FF1F9E81FF1FA081FF1FA281FF1F08B5032812D8DFE828
:4008000000F002060A0EFF2000F058FD08BDFF2000F086FB08BDFF2000F0D6FC08BDFF2000F028FE08BD00BF08B540F6FC73984200D91846104A00F01F03403B1370C0F33B
:4008400046105070032916D8DFE801F002070C110948022100F048FD08BD0748022100F075FB08BD0448022100F0C4FC08BD0248022100F015FE08BD8081FF1FFEE700BF89
:4008800008B5104E104D16E029686B68AC68002204E051F8040B43F8040B0432A242F8D1E868002203E0002143F8041B04328242F9D11035013E002EE6D101F089F9FFF761
:4008C0005FFCFEE701000000FC1C000008B5124A124B1A60124A136843F40073136000230AE0032B03D80F4A52F8231000E00E490E4A42F8231001332F2BF2D90C4B1A7891
:400900000C4B1A70094A0C4B1A6000F0C3F800220A4B1A6008BD00BF0004FA050CED00E014ED00E0000000007D0800000080FF1FBC7600400481FF1F08ED00E00081FF1F29
:40094000FEE700BFF0B40022174611E050F82760F3B226F0FF0608E001EB420511F812406D78A5550132013BDBB2002BF4D10137282FEBD9F0BC7047064B1B78DBB203F0D5
:400980000701054A11701B09013213704422034B1A707047CF0100496E5800407658004008B50A46002101F044F908BD38B517222A4B1A8018232A4A1370192502321580D4
:4009C000023213704FF49C7226490A8002310B7002310A80244A13700222244B1A7008224FF040231A70032103F500731970204B1B78DBB21F490B701F4B1A8041F25122F7
:400A0000023B1A8000240CE01C4B1B7803F0010343EA440404F003044FF4F07000F0B8FA013D0DB1032CEFD115B90320FFF788FF134B4FF480721A8007221A700022114974
:400A40000A704820023108701A700222033B1A700D4A137843F00F03137038BD8040004082400040884000408E4000400043004008010049A1460040224200402542004075
:400A80000440004006400040A243004008B501F0C5F808BD38B572B63D4A137843F00403137000240CE03B4963001A1952000A4423445B00C8589188FFF772FF0134E4B2FC
:400AC0000B2CF0D9002410E03249A3001A1952000A4452F8480F23445B000B445168B3F85020FFF7D3FF0134E4B2062CECD94FF090402949FFF726FF284A137843F0020310
:400B000013701032137843F002031370244C237843F040032370A2F58632513A137843F0100313701F4820490822FFF7AFFF1F481F490A22FFF7AAFF1E481F490822FFF742
:400B4000A5FF1E481E490A22FFF7A0FF1D481E490822FFF79BFF1D481D490822FFF796FF1C4A137843F0080313701B4D61232B70FFF71CFF81232B700122184B1A70FFF7AE
:400B8000FBFE174821460E22FFF780FF38BD00BFE8460040481C0000A400004803500140A04300400251004040140048C051004048140048F25100405414004810510040B0
:400BC0005C14004822510040681400483251004070140048224300400048004004000840B043004008B50C200C4900F0F9F90C20072100F009FA0023094A13707221094A45
:400C000011702021033211700621613A11704721103211704F32137008BD00BFED0D00008481FF1F8865004010B500F0B9F904460C4A137843F0200313700332137843F09E
:400C4000100313704FF48052074B1A60074A137843F01003137000F08DF9204600F0A4F910BD00BF9865004000E100E09965004008B5054B5B7823B9FFF7B4FF0122024B52
:400C80005A70FFF7D1FF08BD8481FF1F4FF48052134B1A60134A9378DBB2D178C9B2127912F0FF0F01D18B4211D00F4AD05CC0B20133DBB2312B00D900230A4A9370137908
:400CC00013F0FF0F06D00022064B1A7102E0074B1878C0B24FF48052054B1A60704700BF80E100E08481FF1FAC81FF1F4465004000E100E0074B187800F07F00064B5B79B5
:400D000013F0FF0F04D040F080000022024B5A71704700BF6B6500408481FF1F10B54FF48053074A1360074A147800211170064A13602402FFF7AAFF204380B210BD00BF74
:400D400080E100E08481FF1F00E100E04FF48052134B1A60134A9378D278DBB2934206D1104B1B7913F0FF0F14D0322013E00D4A9378D278DBB2934205D20A4AD3789078C1
:400D8000181AC0B207E0074AD3789078181A3230C0B200E000204FF48052034B1A60704780E100E08481FF1F00E100E0034B1B7813F0040FFAD1024B1870704769650040E9
:400DC0004B650040084B5B7833B97047305DFFF7EDFF0134E4B203E070B50D4606460024AC42F3D370BD00BF8481FF1F1C4B1B78DBB213F01E0F05D01A4803F01E020178F8
:400E00000A43027003F0200303F0FF022BB3164B1978C9B2154B1B78DBB21548C154154B1B7813F0FF0F02D00121134B19700F490B780133DBB20B700B78DBB2312B02D96F
:400E400000210A4B1970094B1B780C490978DBB28B4202D10121074B1970002AC6D170476B6500408481FF1F446500408781FF1FAC81FF1F8881FF1F8981FF1F8681FF1F13
:400E80007222074B1A70202202331A700622663B1A70472210331A7000224F331A7070478564004008B500F07BF8094A137843F0200313700232137843F010031370073A8A
:400EC000137843F01003137000F06EF808BD00BF9564004008B5054B1B7823B9FFF7D0FF0122024B1A70FFF7DDFF08BD8B81FF1F014B1878704700BF45640040024B187877
:400F000000F07F00704700BF6764004010B5FFF7F5FF0402FFF7ECFF204380B210BD00BF024B1B780BB1024B187070478B81FF1F40640040034B1B7813F0040FFAD1024BC5
:400F4000187070476064004040640040084B1B7833B97047305DFFF7EDFF0134E4B203E070B50D4606460024AC42F3D370BD00BF8B81FF1F054A137843F008031370103215
:400F8000137843F008031370704700BFA24300400230800803D000BF01380046FCD17047EFF3108072B6704780F31088704700BF01BE704710B5044605E0084B1868FFF7F6
:400FC000E7FFA4F50044B4F5004FF6D8034B586800FB04F0FFF7DCFF10BD00BF0C81FF1F70B504460E46074B1D681F2802D90020FFF7DEFF04F01F04103455F8240045F8AB
:40100000246070BD08ED00E038B504460D46072902D90020FFF7CCFF1F2C02D90020FFF7C7FF04F01F0000F1604000F564406D01EDB2057038BD00BF014B1B68186470473D
:4010400008ED00E04001C0B2014B1870704700BF00E400E00122014B1A60704700E100E00122014B1A60704780E100E010B50446FFF7F6FF2046FFF7DFFF0720FFF7E2FF66
:40108000FFF7E8FF10BD00BF0122014B1A60704780E200E0044A137803F0FD03400000F0020018431070704720510040024B1878C0F34000704700BF21510040014B1B68DD
:4010C0001866704708ED00E04001C0B2014B1870704700BF08E400E04FF48072014B1A60704700BF00E100E04FF48072014B1A60704700BF80E100E010B50446FFF7F4FF41
:401100002046FFF7DBFF0720FFF7DEFFFFF7E4FF10BD00BF4FF48072014B1A60704700BF80E200E07222084B1A702022A3F205131A700622533B1A70472210331A700022E5
:4011400051331A70704700BF8665004008B5FFF727FF094A137843F020031370A2F20512137843F0100313700E32137843F010031370FFF719FF08BD9665004008B5054B82
:401180001B7823B9FFF7CEFF0122024B1A70FFF7DDFF08BD8D81FF1F014B1878704700BF45650040024B187800F07F00704700BF6164004010B5FFF7F5FF0402FFF7ECFFA7
:4011C000204380B210BD00BF024B1B780BB1024B187070478D81FF1F4F640040034B1B7813F0040FFAD1024B187070476F6400404F640040084B1B7833B97047305DFFF727
:40120000EDFF0134E4B203E070B50D4606460024AC42F3D370BD00BF8D81FF1F7222074B1A70202201331A7006226C3B1A70472210331A70002251331A7070478D64004049
:4012400008B5FFF7ADFE094A137843F0200313700132137843F0100313700B3A137843F010031370FFF7A0FE08BD00BF9D64004008B5054B1B7823B9FFF7D0FF0122024B2F
:401280001A70FFF7DDFF08BD8F81FF1F014B1878704700BF4D640040024B187800F07F00704700BF6E64004010B5FFF7F5FF0402FFF7ECFF204380B210BD00BF024B1B7831
:4012C0000BB1024B187070478F81FF1F43640040034B1B7813F0040FFAD1024B187070476364004043640040084B1B7833B97047305DFFF7EDFF0134E4B203E070B50D4637
:4013000006460024AC42F3D370BD00BF8F81FF1F014B1B689866704708ED00E04001C0B2014B1870704700BF0AE400E04FF48062014B1A60704700BF00E100E04FF4806204
:40134000014B1A60704700BF80E100E010B50446FFF7F4FF2046FFF7DBFF0720FFF7DEFFFFF7E4FF10BD00BF4FF48062014B1A60704700BF80E200E0014B1B68986470473E
:4013800008ED00E04001C0B2014B1870704700BF02E400E00422014B1A60704700E100E00422014B1A60704780E100E010B50446FFF7F6FF2046FFF7DFFF0720FFF7E2FF1B
:4013C000FFF7E8FF10BD00BF0422014B1A60704780E200E07222074B1A70202201331A700622663B1A70472210331A70002258331A7070478964004008B5FFF7D1FD094AB7
:40140000137843F0200313700132137843F0100313700232137843F010031370FFF7C4FD08BD00BF9964004008B5054B1B7823B9FFF7D0FF0122024B1A70FFF7DDFF08BDEF
:401440009181FF1F014B1878704700BF49650040024B187800F07F00704700BF6A64004010B5FFF7F5FF0402FFF7ECFF204380B210BD00BF024B1B780BB1024B187070474D
:401480009181FF1F4C640040034B1B7813F0040FFAD1024B187070476C6400404C640040084B1B7833B97047305DFFF7EDFF0134E4B203E070B50D4606460024AC42F3D37C
:4014C00070BD00BF9181FF1F014B1B681865704708ED00E04001C0B2014B1870704700BF04E400E01022014B1A60704700E100E01022014B1A60704780E100E010B50446C4
:40150000FFF7F6FF2046FFF7DFFF0720FFF7E2FFFFF7E8FF10BD00BF1022014B1A60704780E200E0024A137843F080031370704775650040014B1880704700BF0C6A00403D
:40154000014B1880704700BF8C6A0040014B1880704700BF4C6A0040014B1880704700BF6C6A0040014B1870704700BF87650040014B1878704700BF67650040014B18885B
:4015800080B27047AC6A004008B501E0FFF7F6FFFFF7EEFF10F0100FF8D108BD10B5174A137803F0C00343F0090313702132137843F001031370124C237843F0010323704F
:4015C00044F62060FFF7B6FF44F62060FFF7B8FF40F2DC50FFF7BAFF40F2DC50FFF7BCFF0420FFF7BFFFFFF7DBFC237843F010032370FFF7D9FCFFF7C7FF10BD756500407C
:401600009765004008B5054B1B7823B9FFF7C6FF0122024B1A70FFF785FF08BD9381FF1F054A137843F0020313701032137843F002031370704700BFA2430040024A13783D
:4016400043F080031370704774640040014B1880704700BF14680040014B1880704700BF94680040014B1880704700BF54680040014B1880704700BF7468004008B5114AD2
:40168000137803F0C00343F0090313702632137843F0010313700132137843F00103137044F62060FFF7D2FF44F62060FFF7D4FF40F2DC50FFF7D6FF40F2DC50FFF7D8FFBA
:4016C00008BD00BF7464004008B5054B1B7823B9FFF7D4FF0122024B1A70FFF7AFFF08BD9481FF1F024A137843F080031370704778640040014B1880704700BF0E68004080
:40170000014B1880704700BF8E680040014B1880704700BF4E680040014B1880704700BF6E68004008B5114A137803F0C00343F0090313701F32137843F001031370013275
:40174000137843F00103137044F62060FFF7D2FF44F62060FFF7D4FF40F2DC50FFF7D6FF40F2DC50FFF7D8FF08BD00BF7864004008B5054B1B7823B9FFF7D4FF0122024B77
:401780001A70FFF7AFFF08BD9581FF1F014B1B685867704708ED00E04001C0B2014B1870704700BF0DE400E04FF40052014B1A60704700BF00E100E04FF40052014B1A602D
:4017C000704700BF80E100E010B50446FFF7F4FF2046FFF7DBFF0720FFF7DEFFFFF7E4FF10BD00BF4FF40052014B1A60704700BF80E200E0054A137843F0010313701032BC
:40180000137843F001031370704700BFA2430040084A137843F0010313701032137843F00103137002F64D32137843F001031370704700BFA3430040014B1880704700BFF8
:40184000044F0040014B1880704700BF064F0040014B1870704700BF034F004008B51A4A137843F0020313700232137803F08F0343F010031370154B1A7802F0CF021A7057
:401880001A7842F030021A701A7802F0F0021A701A7842F00F021A7044F62060FFF7CCFF40F2DC50FFF7CEFF0020FFF7D1FF084A137843F00103137002F65E32137843F0EA
:4018C0000103137008BD00BF004F00400B4F0040A343004008B5054B1B7823B9FFF7BEFF0122024B1A70FFF793FF08BD9681FF1F084A137843F0040313701032137843F049
:401900000403137002F66532137843F001031370704700BFA3430040014B1880704700BF1C4F0040014B1880704700BF1E4F0040014B1870704700BF1B4F004008B51A4A8C
:40194000137843F0020313700232137803F08F0343F010031370154B1A7802F0CF021A701A7842F030021A701A7802F0F0021A701A7842F00F021A7044F62060FFF7CCFF7B
:4019800040F2DC50FFF7CEFF0020FFF7D1FF084A137843F00403137002F67632137843F00103137008BD00BF184F0040234F0040A343004008B5054B1B7823B9FFF7BEFF6F
:4019C0000122024B1A70FFF793FF08BD9781FF1F084A137843F0020313701032137843F00203137002F65932137843F001031370704700BFA3430040014B1880704700BF8C
:401A0000104F0040014B1880704700BF124F0040014B1870704700BF0F4F004008B51A4A137843F0020313700232137803F08F0343F010031370154B1A7802F0CF021A7071
:401A40001A7842F030021A701A7802F0F0021A701A7842F00F021A7044F62060FFF7CCFF40F2DC50FFF7CEFF0020FFF7D1FF084A137843F00203137002F66A32137843F01B
:401A80000103137008BD00BF0C4F0040174F0040A343004008B5054B1B7823B9FFF7BEFF0122024B1A70FFF793FF08BD9881FF1F7222074B1A702022043B1A700622A6338B
:401AC0001A70472210331A700022AD3B1A7070478664004010B5FFF763FA04460A4A137843F020031370043A137843F0100313700932137843F01003137000F05BF82046CD
:401B0000FFF752FA10BD00BF9664004008B5054B1B7823B9FFF7CCFF0122024B1A70FFF7D9FF08BD9981FF1F014B1878704700BF46640040024B187800F07F00704700BF9D
:401B40006264004010B5FFF7F5FF0402FFF7ECFF204380B210BD00BF014B1B689865704708ED00E04001C0B2014B1870704700BF06E400E04022014B1A60704700E100E0E9
:401B80004022014B1A60704780E100E010B50446FFF7F6FF2046FFF7DFFF0720FFF7E2FFFFF7E8FF10BD00BF4022014B1A60704780E200E0054A137843F004031370103270
:401BC000137843F004031370704700BFA24300400E4B70B51E460E4C0025E41AA410A54204D056F8253098470135F8E700F074F8084B094C1E46E41AA4100025A54204D0A3
:401C000056F8253098470135F8E770BDE41C0000E41C0000E41C0000EC1C000010B5431E0A44914204D011F8014B03F8014FF8E710BD03460244934202D003F8011BFAE743
:401C40007047000000000000004F00402400405100403000000001408004000501408007000D01400003001401408000001501400001801601400002001901400003004074
:401C80000140000A004C0140000200500140200060520040B0110048060000510140B8110048080080040140C01100488000800C014040120048800080140140C0120048B9
:401CC00080000016014040130048800080180140C013004880000000F8B500BFF8BC08BC9E4670474D000000CD080000F8B500BFF8BC08BC9E46704729000000101D000008
:401D00000881FF1F18000000C000000000000000000000000000E02EC05D00001800000000366E01000000000000000000000000000000000000000000000000000000003C
:401D40000000000000000000000000000000000000000000000000000000000000000000000000000000000000000000000000000000000000000000000000000000000063
:401D80000000000000000000000000000000000000000000000000000000000000000000000000000000000000000000000000000000000000000000000000000000000023
:401DC00000000000000000000000000000000000000000000000000000000000000000000000000000000000000000000000000000000000000000000000000000000000E3
:401E000000000000000000000000000000000000000000000000000000000000000000000000000000000000000000000000000000000000000000000000000000000000A2
:020000040003F7
:0200000480007A
:40000000034F0040085200400E640040056500406800014039010140680201404F030140290401405505014068060140580701407808014057090140690A01404D0B0140CF
:400040001E0C0140580D0140760E0140430F014039140140691501402916014056170140301801405C190140721A01405F1B01400B40014016410140224201401143014077
:40008000044401400B4501400746014007470140064801400F490140074C01400B4D0140085001400A4B164B224B014008100C20104011C0188019911C08800F81388238EA
:4000C000830F85728672873889728A388B0F8C0F8D728E388F0F8672870F8872890F8B380431058006C607150CAC0E43155316081704183019201A401F082503265327145E
:4001000029532A8C2B0C2C312D0A2E4E2F54300F3110332034F0350F37C039803A223B203F0540624103450C46E0470B481949FF4AFF4BFF4EF04F44500C540156045804BA
:4001400059045A045B045C115D115F0166C06A406B028202831686048729915693099568971399689A049B15A202A702AC01B004B202B360B507B601B71BB908BBA0BE4544
:40018000BF04C002C640C9FFCA07CBFFCC40CD20CEF0CF05D008D418D604D804D904DA04DB04DC10DD11DF01E040E1A8E240E32000040302040908280F0810291642180420
:4001C0001B021E021F052180223423812726281229142F2031A0330434023510362037063B043E043F05410442044304472049144F04513052045610572058105A085B81D2
:400200005D016340678A84018740C035C246C497CA4ECCEECEC2D026D204D68FD8B1E20AE6010204072309610A010B0E115C13031561160217161B1C23082A022E0130024E
:40024000320133603404351A370F39083BA03E053F044002454049FF4A074BFF4C404D204EF04F05500854185604580459045A045B045C105D215F01604061A86240632068
:400280008020840C85338611870489408A038B158C1C8D038E028F1494149533970C9B08A010A409A610A810A980AA0CAD0AAF34B180B220B30FB41FB560B710B920BB08C9
:4002C000BE04BF41C063C102C5E0C6BCC80EC9FFCAFFCBFFCEF0CF44D00CD401D604D804D904DA04DB04DC11DD11DF01E6C0EA40EB02000401220301060807400B200C10ED
:400300000E040F201080122815A019241E041F0520802268240425102711280129202C80322834013628370138A43D203F0440044108471049024A084C904F0450405390D9
:40034000582059065A805E026202674A84408B02910892209409950198029A149C089E40A180A302A420A704A828AD10AE02AF41B404B601C05FC224C4CECA8CCCE6CE6E12
:40038000D026D204D68FD8B1E002E602EA11EE0C050C071109101120130319101A011B0C1D091F1025142D1C2E012F023001311F35203E013F104004464049FF4A074BFF88
:4003C0004C404D204EF04F0550085280580459045A045B045C105D015F01604061A8624063200480051109100E4D120114401514160217281B011D111E201F402221248017
:4004000025142604270128022A042DA02E043180321134403511360839093A103B023C403D143E02408044404519482049044E084F84532056015E206C086D406F107280BE
:400440007602772880088268832087408A8091089220940995A198129A149C089E489F40A180A202A420A601A714AD08AF44B020B380C0D0C2D2C4F1CA7ACCFDCEF6D0E1AF
:40048000D230D620E28DE404EA08EE04043F081209E70A490C080D800E94143F1501170E19441B311C051E4A25E72C202D222F51301C311832C033073403356036203780A5
:4004C0003E043F01403541064204440146C0470E481849FF4AFF4BFF4C624DA04EF04F41500C56025711580459045A045B045C215D225F016640670269106A306B106D102C
:400500006E106F12810886018A088B0C920495029A04A60BA703AA02B001B104B202B301B404B508B608B702BE14C020C106C9FFCAFFCBFFCDA0CF04D018D418D604D80459
:40054000D904DA04DB04DD10DF01E040E2C0E440E540E6C0E8C0EAC0ECC0EEC0001001080440053007100B840C080E01101012041540180419851C421D18210122542402C6
:400580002664278029082E802F20320434083624383039023C023D023E5041204506478048044C014D10560857105B015E20608463026E506F2076027724808084448592D2
:4005C0008D01914092019384944995A0974298109B119D209E489F40A008A208A301A509A601A714A904AB40AC80AD80AE01B202B504C0E6C2AAC486CA52CC62CE35D0D4D1
:40060000D234D621D80DE420E642EE22006C02030320054D0710090C0A080B500E13112813511831194D1A0E1B30224C28312A462D022F54300F3230333C344A3540370317
:40064000380839803A223B083E043F1040304102450146054702481549FF4AFF4BFF4DAF4E0F4F0450185280580459045A045B045C225F01604062C06440654066C068C0F9
:400680006AC06CC06EC0841885188622882089088C388DE78E048F18959C9606976199FF9A019DBC9F42A012A104A220A428A704A820AA18AB23AD10AE01B138B23EB38099
:4006C000B401B540B71FB920BB80BE10BF04C065C102C5ECC6B0C80BC9FFCAFFCBFFCEF0CF44D00CD602D712D804D904DA04DB04DC12DD12DF01E6C0EA40EB02000802042C
:4007000003020581060509200A100E041101121213201501172118041A101C081D091E041F022121228426042725288029482A202D8030103110328833803404350137281B
:40074000382839803C203D013E044104422446084708481049804A544B014F045210568857085A0868286A8070947140774087088C01900291089404952296829709981001
:400780009C049E809F04A428A650A901AF08B148B520B702C0D7C246C45FCA1FCCAECEEED064D20CD602E420E814000203020B020E01120C1501160119011D012A042E0859
:4007C0003004320133013408360237023E443F404050410149FF4AFF4BFF4DA04F04501854185604580459045A045B045C105D105F01604062C06440654066C068C06AC063
:400800006CC06EC08406850987D08E0290019303950C961097719A089B209C04A1DCA210A322A406A514A910ABACAD10AF40B010B206B3E0B401B608B71FB808BB28BE1410
:40084000C050C104C612C750C82CC9FFCAFFCBFFCDAFCE0FCF04D018D401D604D804D904DA04DB04DC10DD20DF01E040E2C0E440E540E6C0E8C0EAC0ECC0EEC00180028003
:40088000072209080B400C040E810F041120120116A01802190A1B101D011E061F082184268827292D402E293028324035203608370139223D0843804410464047084A0163
:4008C0004B404F405510564157805A025E245F8160046182678081428318874489028B048F84920199809A289C109D609F20A10CAB80AF40B110B320B512B610B780C0A96B
:40090000C2FCC433CAF0CCEECE45D088D218D6F1D88DE280E42905011C013401350138803E503F104036410245EE46C0470B481B49FF4AFF4BFF4EF04F44500C540156041D
:40094000580459045A045B045D115F0166C06A406B0200200106030108020A220F021080139419951A101E081FC0200222162708281029102A822B082C102D042E04318443
:40098000321238283F08408241C0420443084620472048044A204D214F08510856085720588059805A085C405D115F0867406820696070947202731487408A0190409180D4
:4009C0009202956096019AA09B019D619F20A014A104A301A421A624A720AB24AE80B008B280B301B402B620C00FC28DC40FCA0FCC0FCE46D06FD224D6F2D880E002E48076
:400A0000EC4001200220035805420620072509F30D800E0210C81213149615111609172618C819F31A151E16224930073170321B33033420350C36C0378038803A0A3E50B0
:400A40003F104005454049FF4A074BFF4C404D204EF04F05500854185604580459045A045B045C115D115F01604061A8624063208004822983A08510870C881B891C8A60A6
:400A80008B028D10901B910C9220931194509514962399A09F03A109A240A310A418A621A780A940AB80ADA0B180B201B478B560B606B71FB880B920BA20BE04BF01C024FB
:400AC000C101C50BC6C0C7E0C829C9FFCAFFCBFFCEF0CF44D00CD401D604D804D904DA04DB04DC11DD11DF01E6C0EA40EB020082022005100640084209900A540E50108073
:400B000014601610180419801A501D901E041F082028214522012440268027042C422D202F2030283402350836803720396A3C803E154402451446404704484049804D0856
:400B4000508052405610570159015C205E0A5F406084614067807A017B01808087608B48C05DC23FC438CAF0CCF6CEFFD0B0D208D6F1D88D00800C9F0D210F4A100211029B
:400B8000124513151544172A181419E71A2A1C9F29E72C092D802E32300731073260336034183518368037803E043F10406141024205440345C047E0482249FF4AFF4BFF91
:400BC0004C624DA04EF04F41500C580459045A045C135D035F016640670269106A306B106D106E106F120282040A0512062208800A440B080E880F2010011410168017244C
:400C000018101A441B801C811D101E2021082201230A2408250426052B0A2C102D022EA0310932013310340836603B803D483E1240104208438044404520470A4881492049
:400C40004E084F40510156405704582059105E105F206608671077408020816082808301858187C0880189048B418C018D4090029104931095809640970998889A029B3472
:400C80009C409D839EC09F40A001A120A2EAA31BA4C0A50CA611A704A820ACA1B310B640C0F9C27BC471CAFCCC77CEF8D0EED23CE280E40AE601EE069E029F01A701A80188
:400CC000B001B402B501BA80BB08BE01BF10C020C103C501C65DC702C81DC9FFCAFFCBFFCDAFCE0FCF04D018D407D604D804D904DA04DB04DC32DF01E040E2C0E440E5407E
:400D0000E6C0E8C0EAC0ECC0EEC00591061008010B810C400D0A0E0811201609170118021B111C211D301F112110231024582502270128202C402DA02F1030903320360CFB
:400D40003701380839053A013C683D01410443204410460449085010510452045340580159045AA05C1063406F1A7404752076198282851289108B048D1092A09429959013
:400D80009742981899049A029B249D089EC49F40A268A440A504A611A704AD20C0F0C2F1C4D2CAF2CCC8CEF0D066D62FD801E241E604EA28EC800108050409FF0DC311F372
:400DC000130C151F17E0190C1A0223E3253C27C329822A022D412E01310F3202332C3510360137C03B023F104003470449FF4A074BFF4C404D204EF04F05500856025711BD
:400E0000580459045A045B045C305D325F01604061A86240632000080A410F0410281404174019091A451F442120228423802615270229202A102C402D102E802F2031209A
:400E40003280330835043601371038843B203C203E0A3F804020414542044508491051105202560559225A085B805C025E2160406C016D247580760A7718800181108801A0
:400E800089108C408E109028910A9230930495A0960297C8980499109B409C809D089E05A0A8A108A60AAA10AB80AF48B340C004C249C4C6CAF4CCEECEFED04FD204D62FCC
:400EC000D801E080E240E420E610EA20EC800461050C060E09040D730F0C1142145C150F160317701861190C1A161B731D081E082121221C26232773297F2D63306031600B
:400F0000320F331C341A370F38023A283B883E014004454049FF4A074BFF4C404D204EF04F055008580459045A045C135D035F01604061A8624063208004841887808A0497
:400F40008B408C108D14907F91209303941C95109661970C9C679D099E189F10A223A380A408A50CA711A81CA91CAA62AB02AD10B120B238B380B41FB540B640B71FB88060
:400F8000BA28BF05C025C106C5E0C6CBC80EC9FFCAFFCBFFCEF0CF44D00CD418D604D804D904DA04DB04DC33DD33DF01E6C0EA40EB02000405800680071409200A100B0259
:400FC0000C020E221020128014401520170818441A1C1B081D041E211F20214022092501272528A229102E052F093080310132183404352036803721382839803C803D248C
:40100000404041104320440445204B024C404D024E0650205310544056105F0264016520674080208203844085048A808D1190289220948495809602976098A399919B1A3A
:401040009C409D069E90A082A120A281A608A728AA04AD04B096B740C0F4C2B7C47CCAFFCCDFCE7ED021D230D680D8B0E620ECC03010330235103708388082408718CCF026
:40108000CE10E210E6C030023180352036013B205280638085809280932094809C109D10A310AF02B710CCF0CE10D420D840E640EA100240324033083722500457105B08AD
:4010C0005F0863088044840287028A80928094809B089C109D10A314A402A681A740AB04AD20AF08C010CCF0D460D6C0D840E290E6C0EA10EE6018021B021C8082018710C6
:4011000088408F409C109D10A601A748AE40B320C670E210E680E81010207280C408DC01510458026008662086809E80B020D404D602D803EE0451088002840895089C0A5F
:401140009E20D40489088F019508A508AA20E002E4048D10900293109D10B010B30A0704124050016020671083048640882090029310C080C410D480D8C0E0900F406702E7
:401180009302B104C204D601EC011020774088208C208F40B340C408DE04E008E60CEA04000708070A070C070E02100F1A0F1C0F828A000055000000FFFFFF0F00000000BE
:4011C0003C08C100000400003C0CC20000C30400FF0F00D000DF0000E71C18C3040000D30000830008D3000C18820000104100209820200F1F1C40C080002208000004005E
:4012000054060200030E00C021FFFFFF62A0F0410C00000000000211040404041111000100000000000040020010301000101012000000000000000000000000000000001A
:40124000F3000C00FF18000082080000410000000000F3041C3CE341003C0042C300000308100000047F00000C6700180F04F080C0802C200F1F1C4000802820000000044B
:4012800031020400060E000C11FFFFFF62A0F0410C00000000000212040404041111000100000000000040020010301000101012000000000000000000000000000000007F
:4012C000FF0800003C73C10CBC0C4200100C00730000830000630400E742180000000073047F000008040000180F0070002100009860200F1F1C400080002028000004007F
:401300002406050003000E0C14FFFFFF62A0F0410C008000000000000404040422010001000000000000400200103010001010120000000000000000000000000000000099
:40134000C31000000C180000D3000C04419C20610FDCD02282FF0000DF0000000000C3000C00D36300E700180408000008040000C03820800F58101F800020820000000488
:40138000300200000000000000FFFFFF00A00004180000000000021104040404111000014000C0004040C000C000C000C000C00000000000000000000000000000000000BD
:4013C000000000000953B204002000450080000014002A00000A00540053000C02004508000000001F0000001F0300440000000018408080600F0730008000200000100574
:40140000130604000200C0E028FFFFFF62A0F0410C00000001000400040404043131000100000000000040020010301000101012000000000000000000000000000000004D
:401440000042420042000000AA0055AAAA00AA0000000000001010001000000010002010100010000000000000E3E300E100000008919100910000000000000000000000B7
:40148000000000000000000000000000000000000000000000000000000000000000000000000000000000000000000000000000000000000000000000000000000000002C
:4014C00000000000000000000000000000000000000000000000000000000000000000000000000000000000000000000000000000000000000000000000000000000000EC
:4015000000000000000000000000000000000000000000000000000000000000000000000000000000000000000000000000000000000000000000000000000000000000AB
:40154000000000000000000000000000000000000000000000000000000000000000000000000000000000000000000000000000000000000000000000000000000000006B
:0200000490006A
:0400000000004005B7
:0200000490105A
:04000000BC90ACAF55
:0200000490303A
:020000004BEDC6
:0200000490402A
:4000000000000000000000000000000000000000000000000000000000000000000000000000000000000000000000000000000000000000000000000000000000000000C0
:400040000000000000000000000000000000000000000000000000000000000000000000000000000000000000000000000000000000000000000000000000000000000080
:400080000000000000000000000000000000000000000000000000000000000000000000000000000000000000000000000000000000000000000000000000000000000040
:4000C0000000000000000000000000000000000000000000000000000000000000000000000000000000000000000000000000000000000000000000000000000000000000
:0200000490501A
:0C00000000012E16106900012E275C562E
:00000001FF