:400000000080002011000000F1030000F103000008B5044B1A6803F53F5302331A6000F0E9F900BFFA46004010B5054C237833B9044B13B10448AFF300800123237010BDAD
:400040002081FF1F0000000004120000084B10B51BB108480849AFF300800848036803B910BD074B002BFBD0BDE81040184700BF00000000041200002481FF1F0881FF1FE5
:400080000000000008B500F0FDFCB0FA80F0400900F0ECFC002001F031F8002001F022F8002001F037F8002001F040F8002001F049F8002001F052F84FF4FA6000F066FCD5
:4000C00000F0E0FCB0FA80F0400900F0CFFC012001F014F8012001F005F8012001F01AF8012001F023F8012001F02CF8012001F035F84FF4FA6000F049FCC4E708B541F2B6
:40010000883000F043FC0024324B1C600125324B1D70204600F0F2FF204600F0E3FF204600F0F8FF204601F001F8204601F00AF8204601F013F8204600F098FC62B600F0C2
:400140003FFB264800F07EFC01F014F800F034FF40F2DC5000F0FEFE40F2DC5000F000FF00F07EFF40F2DC5000F048FF40F2DC5000F04AFF00F040FD194800F08BFD2046B1
:4001800000F01EF900F0B2FB164800F09DFC284600F016F900F0D6FC134800F0ABFD022000F00EF900F0E6FD104800F02DFE032000F006F900F0ACFE40F2DC5000F04CFEEF
:4001C00040F2DC5000F04EFE094800F075FFFFF759FF00BF5881FF1F8281FF1FF50100001102000071020000D1020000310300009103000008B500F0F1FA00F031FC034A72
:40020000136843F00103136008BD00BF5881FF1F08B500F005FD00F04BFD124B1B7813B1012B09D01AE000F003FDC0B20E4B188001220C4B1A7008BD00F0FAFC0A4A138893
:400240009BB243EA002080B210800022054B1A70064A136843F48063136008BD0022014B1A7008BD3C81FF1F8A81FF1F5881FF1F08B500F04FFB00F035FC124B5B7813B145
:40028000012B09D01AE000F04DFBC0B20E4B188001220C4B5A7008BD00F044FB0A4A13889BB243EA002080B210800022054B5A70064A136843F40063136008BD0022014BDA
:4002C0005A7008BD3C81FF1F8881FF1F5881FF1F08B500F04BFC00F01BFD124B9B7813B1012B09D01AE000F049FCC0B20E4B188001220C4B9A7008BD00F040FC0A4A13884B
:400300009BB243EA002080B210800022054B9A70064A136843F48053136008BD0022014B9A7008BD3C81FF1F8C81FF1F5881FF1F08B500F033FD00F075FD124BDB7813B1EB
:40034000012B09D01AE000F031FDC0B20E4B188001220C4BDA7008BD00F028FD0A4A13889BB243EA002080B210800022054BDA70064A136843F40053136008BD0022014B5D
:40038000DA7008BD3C81FF1F8681FF1F5881FF1F08B500F073FD00F09DFE074A536801335360042B07D90022034B5A60034A136843F00203136008BD3C81FF1F5881FF1F59
:4003C00008B5032812D8DFE800F002060A0EFF2000F038FC08BDFF2000F0AEFA08BDFF2000F0D6FB08BDFF2000F0EAFC08BD00BFFEE700BF08B5104E104D16E029686B683C
:40040000AC68002204E051F8040B43F8040B0432A242F8D1E868002203E0002143F8041B04328242F9D11035013E002EE6D100F0AFFEFFF763FEFEE701000000AC12000088
:4004400008B5124A124B1A60124A136843F40073136000230AE0032B03D80F4A52F8231000E00E490E4A42F8231001332F2BF2D90C4B1A780C4B1A70094A0C4B1A6000F079
:40048000BBF800220A4B1A6008BD00BF0004FA050CED00E014ED00E000000000F10300000080FF1FBC7600400481FF1F08ED00E00081FF1FFEE700BFF0B40022174611E084
:4004C00050F82760F3B226F0FF0608E001EB420511F812406D78A5550132013BDBB2002BF4D10137262FEBD9F0BC7047064B1B78DBB203F00701054A11701B090132137062
:400500004422034B1A707047CF0100496E5800407658004008B50A46002100F06AFE08BD38B51722284B1A801823284A1370192502321580023213704FF49C710232118018
:40054000023213700222224B1A7008224FF040231A70032103F5007319701E4B1B78DBB21D490B701D4B1A8041F25122023B1A8000240CE01A4B1B7803F0010343EA4404DE
:4005800004F003044FF4F07000F0EEF9013D0DB1032CEFD115B90320FFF78CFF114B4FF480721A8007221A7000220F490A704820023108701A700222033B1A700B4A13782E
:4005C00043F00703137038BD80400040824000400043004008010049A146004022420040254200400440004006400040A243004008B500F0F3FD08BD38B572B63A4A137848
:4006000043F00403137000240CE0384963001A1952000A4423445B00C8589188FFF77AFF0134E4B20A2CF0D9002410E02F49A3001A1952000A4452F8440F23445B000B4452
:400640005168B3F84C20FFF7D3FF0134E4B2052CECD94FF090402649FFF72EFF254A137843F0020313701032137843F002031370214C237843F040032370A2F58632513A58
:40068000137843F0100313701C481D490822FFF7AFFF1C481C490A22FFF7AAFF1B481C490A22FFF7A5FF1B481B490822FFF7A0FF1A481B490822FFF79BFF1A4A137843F004
:4006C00008031370184D61232B70FFF729FF81232B700122154B1A70FFF708FF144821460E22FFF785FF38BDE8460040081200009C00004803500140A04300400251004069
:40070000B4130048C0510040BC13004810510040C813004822510040D413004832510040DC130048224300400048004004000840B043004008B50C200C4900F03DF90C2066
:40074000072100F04DF90023094A13707221094A11702021033211700621663A11704721103211704C32137008BD00BF050800007081FF1F8864004010B500F0FDF8044690
:400780000C4A137843F0200313700332137843F0100313704FF48052074B1A60074A137843F01003137000F0D1F8204600F0E8F810BD00BF9864004000E100E091640040C3
:4007C00008B5054B5B7823B9FFF7B4FF0122024B5A70FFF7D1FF08BD7081FF1F074B187800F07F00064B5B7913F0FF0F04D040F080000022024B5A71704700BF6B640040F6
:400800007081FF1F1C4B1B78DBB213F01E0F05D01A4803F01E0201780A43027003F0200303F0FF022BB3164B1978C9B2154B1B78DBB21548C154154B1B7813F0FF0F02D053
:400840000121134B19700F490B780133DBB20B700B78DBB2132B02D900210A4B1970094B1B780C490978DBB28B4202D10121074B1970002AC6D170476B6400407081FF1FB3
:400880004B6500407381FF1F9081FF1F7481FF1F7581FF1F7281FF1F7222074B1A702022033B1A700622553B1A70472210331A70002250331A7070478564004008B500F021
:4008C0005BF8094A137843F020031370033A137843F0100313700B32137843F01003137000F04EF808BD00BF9564004008B5054B1B7823B9FFF7D0FF0122024B1A70FFF7A8
:40090000DDFF08BD7781FF1F014B1878704700BF42640040024B187800F07F00704700BF6264004010B5FFF7F5FF0402FFF7ECFF204380B210BD00BF024B1B780BB1024B60
:40094000187070477781FF1F4C640040054A137843F0040313701032137843F004031370704700BFA24300400230800803D000BF01380046FCD17047EFF3108072B67047D6
:4009800080F31088704700BF01BE704710B5044605E0084B1868FFF7E7FFA4F50044B4F5004FF6D8034B586800FB04F0FFF7DCFF10BD00BF0C81FF1F70B504460E46074BE0
:4009C0001D681F2802D90020FFF7DEFF04F01F04103455F8240045F8246070BD08ED00E038B504460D46072902D90020FFF7CCFF1F2C02D90020FFF7C7FF04F01F0000F152
:400A0000604000F564406D01EDB2057038BD00BF014B1B681864704708ED00E04001C0B2014B1870704700BF00E400E00122014B1A60704700E100E00122014B1A607047AE
:400A400080E100E010B50446FFF7F6FF2046FFF7DFFF0720FFF7E2FFFFF7E8FF10BD00BF0122014B1A60704780E200E0044A137803F0FD03400000F0020018431070704728
:400A800020510040024B1878C0F34000704700BF21510040014B1B689865704708ED00E04001C0B2014B1870704700BF06E400E04022014B1A60704700E100E04022014B20
:400AC0001A60704780E100E010B50446FFF7F6FF2046FFF7DFFF0720FFF7E2FFFFF7E8FF10BD00BF4022014B1A60704780E200E07222074B1A702022FD3B1A700622A33356
:400B00001A70472210331A7000224E331A7070478465004008B5FFF72FFF094A137843F020031370FD3A137843F01003137002F20112137843F010031370FFF721FF08BD8F
:400B40009465004008B5054B1B7823B9FFF7D0FF0122024B1A70FFF7DDFF08BD7981FF1F014B1878704700BF47650040024B187800F07F00704700BF6764004010B5FFF78C
:400B8000F5FF0402FFF7ECFF204380B210BD00BF024B1B780BB1024B187070477981FF1F486500407222074B1A7020220E331A70062298331A70472210331A700022AA3BD5
:400BC0001A7070478064004008B5FFF7D5FE094A137843F0200313700E32137843F010031370023A137843F010031370FFF7C8FE08BD00BF9064004008B5054B1B7823B93F
:400C0000FFF7D0FF0122024B1A70FFF7DDFF08BD7B81FF1F014B1878704700BF40640040024B187800F07F00704700BF6E64004010B5FFF7F5FF0402FFF7ECFF204380B20F
:400C400010BD00BF024B1B780BB1024B187070477B81FF1F44640040014B1B681866704708ED00E04001C0B2014B1870704700BF08E400E04FF48072014B1A60704700BFAB
:400C800000E100E04FF48072014B1A60704700BF80E100E010B50446FFF7F4FF2046FFF7DBFF0720FFF7DEFFFFF7E4FF10BD00BF4FF48072014B1A60704700BF80E200E081
:400CC000014B1B689864704708ED00E04001C0B2014B1870704700BF02E400E00422014B1A60704700E100E00422014B1A60704780E100E010B50446FFF7F6FF2046FFF73C
:400D0000DFFF0720FFF7E2FFFFF7E8FF10BD00BF0422014B1A60704780E200E07222084B1A70202201331A700622A3F5AE731A70472210331A7000224F331A70704700BFD3
:400D40008665004008B5FFF717FE094A137843F0200313700132137843F010031370FD3A137843F010031370FFF70AFE08BD00BF9665004008B5054B1B7823B9FFF7CEFFBB
:400D80000122024B1A70FFF7DDFF08BD7D81FF1F014B1878704700BF45650040024B187800F07F00704700BF6765004010B5FFF7F5FF0402FFF7ECFF204380B210BD00BFC5
:400DC000024B1B780BB1024B187070477D81FF1F4A640040014B1B681865704708ED00E04001C0B2014B1870704700BF04E400E01022014B1A60704700E100E01022014B36
:400E00001A60704780E100E010B50446FFF7F6FF2046FFF7DFFF0720FFF7E2FFFFF7E8FF10BD00BF1022014B1A60704780E200E0024A137843F080031370704776640040D3
:400E4000014B1880704700BF0C680040014B1880704700BF8C680040014B1880704700BF4C680040014B1880704700BF6C680040014B1870704700BF86640040014B1878CA
:400E8000704700BF66640040014B188880B27047AC68004008B501E0FFF7F6FFFFF7EEFF10F0100FF8D108BD10B5174A137803F0C00343F009031370144C237843F0010315
:400EC00023702132137843F00103137044F62060FFF7B6FF44F62060FFF7B8FF40F2DC50FFF7BAFF40F2DC50FFF7BCFF0420FFF7BFFFFFF741FD237843F010032370FFF769
:400F00003FFDFFF7C7FF10BD766400409664004008B5054B1B7823B9FFF7C6FF0122024B1A70FFF785FF08BD7F81FF1F024A137843F08003137070477F640040014B18803C
:400F4000704700BF10680040014B1880704700BF90680040014B1880704700BF50680040014B1880704700BF7068004008B5114A137803F0C00343F00903137019321378FC
:400F800043F0010313700132137843F00103137044F62060FFF7D2FF44F62060FFF7D4FF40F2DC50FFF7D6FF40F2DC50FFF7D8FF08BD00BF7F64004008B5054B1B7823B984
:400FC000FFF7D4FF0122024B1A70FFF7AFFF08BD8081FF1F024A137843F080031370704779650040014B1880704700BF1C680040014B1880704700BF9C680040014B188021
:40100000704700BF5C680040014B1880704700BF7C68004008B5114A137803F0C00343F009031370DB3A137843F0010313700132137843F00103137044F62060FFF7D2FF4A
:4010400044F62060FFF7D4FF40F2DC50FFF7D6FF40F2DC50FFF7D8FF08BD00BF7965004008B5054B1B7823B9FFF7D4FF0122024B1A70FFF7AFFF08BD8181FF1F014B1B6860
:401080005867704708ED00E04001C0B2014B1870704700BF0DE400E04FF40052014B1A60704700BF00E100E04FF40052014B1A60704700BF80E100E010B50446FFF7F4FF7B
:4010C0002046FFF7DBFF0720FFF7DEFFFFF7E4FF10BD00BF4FF40052014B1A60704700BF80E200E0044A137803F0DF03400100F0200018431070704730510040044A13781D
:4011000003F0BF03800100F0400018431070704730510040044A137803F0EF03000100F0100018431070704730510040044A137803F0F703C00000F00800184310707047D4
:4011400030510040044A137803F0FB03800000F0040018431070704730510040044A137803F0FD03400000F0020018431070704730510040054A137843F0010313701032F6
:40118000137843F001031370704700BFA24300400E4B70B51E460E4C0025E41AA410A54204D056F8253098470135F8E700F06CF8084B094C1E46E41AA4100025A54204D0F8
:4011C00056F8253098470135F8E770BD9412000094120000941200009C12000010B5431E0A44914204D011F8014B03F8014FF8E710BD03460244934202D003F8011BFAE7F6
:401200007047000000000000405100403000F05100401000000001400002800201400004000701408007000F0140000100140140000280160140800500400140000A004CB1
:4012400001400002005001402000000060520040A4110048060000510140AC110048080000020140B4110048800080060140341200488000800E0140B412004880000016CE
:401280000140341300488000F8B500BFF8BC08BC9E4670474D00000041040000F8B500BFF8BC08BC9E46704729000000C01200000881FF1F1800000088000000000000000C
:4012C000000000000000E02EC05D00001800000000366E01000000000000000000000000000000000000000000000000000000000000000000000000000000000000000006
:4013000000000000000000000000000000000000000000000000000000000000000000000000000000000000000000000000000000000000000000000000000000000000AD
:40134000000000000000000000000000000000000000000000000000000000000000000000000000000000000000000000000000000000000000000000000000000000006D
:40138000000000000000000000000000000000000000000000000000000000000000000000000000000000000000000000000000000000000000000000000000000000002D
:4013C00000000000000000000000000000000000000000000000000000000000000000000000000000000000000000000000000000000000000000000000000000000000ED
:020000040003F7
:0200000480007A
:40000000075200400E640040056500406C000140440101402C02014053030140710401405E0501402B0601404A0701406F08014052090140640A01404D0B01406B0C0140E0
:40004000530D0140280E01403A0F014074140140551501402A160140471701407918014059190140771A01405C1B01400840014011410140184201400C4301400A44014065
:400080001245014003470140034801400C4901400B4C0140084D0140085001400040089009100C60106011C018018072810F8238830F8572860F8738887289388A0F8B384D
:4000C0008C0F8D0F8E38847286728738880F8A72059F0601099F0D020F451514172A1D8022012D092F32300131073318356037803E013F10404541014206440245C0470E0F
:40010000481249FF4AFF4BFF4C624DA04EF04F41500C56025713580459045A045B045C105D115F016640670269106A306B106D106E106F128208830884D38511860C8746D9
:4001400088208A458C8A8E14914C931394D396049713980399119A049B0EA520AB10AF4CB030B110B2C0B34AB40FB520B70FB80ABA20BB88BE04BF11C032C106C50EC6B03A
:40018000C70CC819C9FFCAFFCBFFCEF0CF44D00CD401D604D804D904DA04DB04DC22DD22DF01E6C0EA40EB0200080108040405010614070509040A100D080F081080190281
:4001C0001C041D011E141F01205221102205230125082688279928012C202D202F0932443715384039143C043D014151461448854C204E0853045510570C5A015C015D2018
:400200005F88674069146A80700871407208802185028740880889408A09C0F4C260C408CA78CCEACECED06DD22CD6F1D880E408844D861089018C4D8E3090029254962019
:400240009C289E51A40CA650B03CB203B301B440B808BA02BE10BF04C045C102C50CC6E0C70BC819C9FFCAFFCBFFCEF0CF44D00CD401D604D804D904DA04DB04DC01DD11E5
:40028000DF01E6C0EA40EB02004404220A220B800D080E010F08103014081724184019081A201B201C801D2A1E012204262027602C802D802E042F0935013688371039A0F4
:4002C0003A403D213F0440444420452248204B804C804D804F24511458505A085B015C205E025F106340640A65028040880489028A408B5092049308958199019B109E041D
:40030000A114A280A908AB01AD01B001B201B410C055C2EDC424CAF0CCF0CEE4D0E5D238D68FD8B1E001E2B0E801EA04EE060514060C09100B400C310D100E060FAC170322
:400340001831190C1A0E1B711C2C1E031F202213250927D02A082DDC2F22331F343035E0360F38203A803B203E1040524104450B46CE480D49FF4AFF4BFF4EF04F44500C6A
:40038000580459045A045C115D015F0166C06A406B02801C811082E3840C850888048B048C0F8EF08F03913C93429482951898419CC39D7FA2F3A4F3A567A60CA718A8FF40
:4003C000A93CAB41AC08AD04AF80B01CB11FB22CB340B40FB580B6C0B720B908BA28BB02BF40C003C540C9FFCA07CBFFCC40CD20CEF0CF05D008D602D713D804D904DA04A0
:40040000DB04DC11DD12DF01E040E1A8E240E3200040010805400610074809200A020D080E010F081280131014041504168119901A021E021F252024212022042510260A3A
:40044000274229882D442F2431203284344035043602384039283B103C803D203E8A42444440450446404B444D01506056045F026C116F047504761B77087B307E807F40AB
:40048000870490409108920194A6950196029782980499089A409E049F04A040A10CA609A714AB48AC42AE20AF20B110B305C0F5C2E3C4FACA7ACCDECEFED045D208D680D3
:4004C000E002E208E609EA08EC01EE4002010E0411081502160E1B0C230326082A02300231023201330834083501360437043E014030410649FF4AFF4BFF4DA04F045018F1
:40050000528054075604580459045A045B045F01604062C06440654066C068C06AC06CC06EC001880683082009100A560D081118161419441A501B121D081F912201234413
:400540002440272928202B022E023020310432403620370939183B404108450849024A084E08523D59015C405D025E085F20614063846780768083C087408A018E509110FE
:4005800095209644974099109A40A020A680A940AB04AC10AD40AF04B110B420C095C22FC466CA8ACCEECE0ED042D224D6F1D88DE602E808EE4002C304FF050208F309027A
:4005C0000A0C101F110212E01482181C1AE31CC3200823012404280C2C412F0130C03102320F34103620370138803A083B083E103F404030410249FF4AFF4BFF4DA04F04B8
:40060000501856025712580459045A045B045C225D205F01604062C06440654066C068C06AC06CC06EC085108601870C89098A018B108F409180930399149D1C9F02A10C52
:40064000A311A720A910AF40B11FB340B401B520B780BE10BF44C030C102C505C620C701C819C9FFCAFFCBFFCDAFCE0FCF04D018D418D604D804D904DA04DB04DC10DD1072
:40068000DF01E040E2C0E440E540E6C0E8C0EAC0ECC0EEC0002804100610075008040A200D020E220F081602172A18041C101D801E88229925402750282029412A202F82A0
:4006C000304032213701380839A03E14412845284904512459025E086014624063606E146F017480772A79017A407D807F01874089208C088D8090089120954D964097027F
:40070000984099019A209DA49E019F04A108A220A408A580AC04B211B601B721C076C2F0C4F0CA9FCC8DCE6ED066D641D80DE020E450EA80EC10EE400461053A06960B08E5
:400740000C610E8E1120130A161C1A081C5C1E83213A2460268029042AA32B182D01301A3108330134F03506360F373039A03AA23F4540264104450B46CE480D49FF4AFFD5
:400780004BFF4EF04F44500C54015604580459045A045B045C115D115F0166C06A406B028320851489098B108D1093039580972099709B0C9E02A602A801A91CAB62AD6C31
:4007C000AF11B11FB202B5C0B601B720B920BE44BF40C004C640C9FFCA07CBFFCC40CD20CEF0CF05D008D418D604D804D904DA04DB04DC10DD21DF01E040E1A8E240E32074
:4008000000040302084009200A220D801030120414041504180C19011A021B021E011F0421102214238225102652280129012A402B042C082D803201352036023704382864
:400840003D203E443F0140044302470248044A2050305240540455205624570458115A085B805D0160806602678A80808606874095489D049F20A108A642AB02AF40B0086B
:40088000B501C005C287C466CA3DCCE1CEF6D085D204D68FD8B1E880EE4001100201050907100C020D141110130C1D201E081F032404250C2711291C2A082B023008312038
:4008C000320134043602371F3B203E513F014052410645EC460B47C0482749FF4AFF4BFF4EF04F44500C54015604580459045A045B045C105D115F0166C06A406B028103DC
:40090000838484688520861387858C688D938E158F0C9456960999939A169B049E02A629A708A90AAB94AD40B060B10FB21BB340B407B530B780B802B920BA28BB02BE01CF
:40094000BF44C004C540C9FFCA07CBFFCC40CD20CEF0CF05D008D401D604D804D904DA04DB04DC11DD11DF01E040E1A8E240E3200080032107420A140B010E0210201408C4
:4009800017041A501B381C021D081E081F0220C8224524082501268027082A082B092F2833203680370138403A053B083C083E0C3F814240460448204B094D024E114F2272
:4009C0005601574059025AA85C015E885F20610167808005830688018B088D01940C95489B409D04A201A508A602A801A901AB01AE08AF08B20CB410B702C095C287C4648B
:400A0000CA6ECC94CEDBD021D230D6FFD881E210E680E838EE2007040C040F01120317061E0127022E023004310132023302340135043E014040410349FF4AFF4BFF4DA0F1
:400A40004F04501854185604580459045A045B045D105F01604062C06440654066C068C06AC06CC06EC0020204090502072909420E240F42120116181702186019201D2077
:400A80001E211F092112220825102605270929042D022E042F0831083604372139483D203F464102422045024620554056215A016004614177408120855089208A108B45F0
:400AC0008C40C0F1C2F9C471CAE2CCE2CEFAD0C3D601D80DE0A2E421E680001C02E30482051808F309080A0C0D040EF310FF130314C3180F193C1AF01B421C081D102041C2
:400B000023042404253C2741280C29672B182D7F30C0322C3320340F351F361C374039803A283B203F044006464049FF4A074BFF4C404D204EF04F05500856025712580481
:400B400059045A045B045C115D115F01604061A862406320811183228402853F8645910894149502962A970599249B129C099E32A49FA89FA93FAC80B080B218B307B407E6
:400B8000B530B660B708BE40C064C105C202C401C6C0C70EC818C9FFCAFFCBFFCC62CDA0CEF0CF41D00CD804D904DA04DC11DD01DF01E640E702E910EA30EB10ED10EE10D5
:400BC000EF1201200220038104060640081009080A010B800D400E20102013211540171419A91C041DA61E6022542508262427012810292A2A402B082E10308032103301FB
:400C00003624370238A83D043F014404458249104C014E0851105280560457205A0869046A106B0270B4720173208040821083818A4091C09380952096C097019804991263
:400C40009A409B149D859E049F01A208A528A6A0A728A820B540B602C02FC2AFC4EECA2FCCEDCECED0B0D234D602EE0683018602870196049E03B001B406B501BE10BF1047
:400C8000C034C101C205C406C50CC70EC811C9FFCAFFCBFFCC62CDA0CEF0CF41D00CD418D604D804D904DA04DB04DC01DD11DF01E640E702E910EA30EB10ED10EE10EF12CE
:400CC000022004800504074809080B010D600E4015041681172019221E091F0523042412261027402C042E802FE53420360E374038823A443B803E6A438949A84C104F2093
:400D0000510455105A015D045E28608263046D406F14762B772880128B108C80932094209528968099109A409D89A310A510A680AA04AB01B410B514C0F4C2D5C4F0CAF0B4
:400D4000CCF0CEF3D00BD22CD621D80DE230013002630344047F0501070C08670A180D500E04101C126115241740185C19701A221B081C10208021402408254027302818D6
:400D80002B022C043038321F337C34803501365837023A0A3E103F104032410545E0460B470C481649FF4AFF4BFF4EF04F44500C54015604580459045A045B045C125D11F4
:400DC0005F0166C06A406B028101830E8416862989E7902891809213954496169731982899E79A159E02A522A751A840AA09B007B107B260B360B41BB518B780B808BA22E3
:400E0000BF10C064C103C205C402C50EC60CC805C9FFCAFFCBFFCC62CDA0CEF0CF41D00CD280D804D904DA04DB04DC11DD01DF01E640E702E910EA30EB10ED10EE10EF12D0
:400E4000000404100610074208500A200B400C800D020F081204150116021728188419281A201B011D021E081F8821292241250426A028202C582F40310833113528388071
:400E800039123B403D083F8240804120422044104604481049504D014F4051405608574058805A805D015E485F106609671070017B0C7D027F808A129010921495C4980499
:400EC0009A109B689C209D429E03A080A310A414A502A611A786B248B6C0B704C0F4C2DFC4F2CAE2CC67CED5D067D21CD6F0D880EC5002F304410504080F09080AF00CFF4C
:400F0000101C113C12E3134214F3160C170419671B181CC31F032008211024042518280C293C2B412C822D7F30C0311F322C3320340F3540361C39203A283B023F04400360
:400F4000460449FF4A074BFF4C404D204EF04F05500856025712580459045A045B045C115D115F01604061A862406320810983B2851F8608882A891F8A448C738E049102E4
:400F80009345987399149A0C9B2AA655A803AA44B040B107B230B360B40FB518B780B808BA20BE05BF04C061C105C204C402C50EC7C0C821C9FFCAFFCBFFCC62CDA0CEF0B4
:400FC000CF41D00CD804D904DA04DC21DD02DF01E640E702E910EA30EB10ED10EE10EF1200040180028003080480052809020A220C100E0810C113141508160819521B08AC
:401000001D081E4820082102220426112722284029842B083004311232D0361138243B083C023E144108450147604D044E024F2051045204534057025A0869106B117090C9
:4010400071047314880189808A22908092969308951496409780980599289A089B409C109D529E269F13A101A202A310A404A611A702AA80AC01AD08AE20B020B304B40942
:40108000B540C0EFC24DC46FCA0FCCAFCEE6D0B2D230D602E480EE1033823640370838108640CCF0CE10E6403248350136103A205D0289208A108E08941099019F08A782B6
:4010C000A901CCF0CE10D680EA200320300232203520360856088240840287809410968099209A089D029F08A782AE20B608C010CCF0D440E210E690EA108102830286289D
:4011000094109D02A628A702AB20B708E230E660EC20102075087B01801084018D08C408DC01DE04E00258015F08601065018B019010980199019B08A701AF08B020B5014A
:40114000D603D803E001EC02EE049101B101EC018B088C109410102057087E0180209202A308AE01C410D440DE20E080EE4008400D085D01660291019A02B602C206D6013E
:40118000D801E80210408840B040B508C408E201EA01EE08000708060A070C070E0310071A021C072A08000055000000FFFFFF0F000000008010000000000020E714000039
:4011C000000000000009001044002A40210C4A11021C150200000040E710000C0000000300000020801F60401820070000000000000010146403050002EC000003FFFFFF09
:4012000062A0F0410C0000001800040004040404211100010000000000004002001030100010101200000000000000000000000000000000000000000000401000000008F4
:401240000003400C31000E00AC0A03040003130431008610000000000000080500008C00000300048A0F0F003010400020000A02000050103006000000D050123AFFFFFF4F
:4012800000AF0F04180000001800040004040404111000014000C0004040C000C000C000C000C000000000000000000000000000000000000010D300FF1800003C1CC3624F
:4012C0002F08D000041C0061F3000C04417F000008000000820000230C040080C3670018000000001C400F80201FC038000208A00000100040030000000021502CFFFFFF6B
:4013000000AF0F04180080000000000004040404110000014000C0004040C000C000C000C000C000000000000000000000000000000000001C10E30082080000041800003C
:40134000FF0000030004F30000670018C3000004413C00420F7FF000F3000C800C000080083C00412C1F1C800F20C0400080220200000014060000000004000000FF07FF84
:401380004020F0050800000000000211040404041111000140A84020000000000000000000000000000000000000000000000000000000000040400040000000AA0055AAD9
:4013C000AA00AA000000000090006090900090000000000000F2F200F0000000007F7F00010000000000000000000000000000000000000000000000000000000000000026
:4014000000000000000000000000000000000000000000000000000000000000000000000000000000000000000000000000000000000000000000000000000000000000AC
:40144000000000000000000000000000000000000000000000000000000000000000000000000000000000000000000000000000000000000000000000000000000000006C
:40148000000000000000000000000000000000000000000000000000000000000000000000000000000000000000000000000000000000000000000000000000000000002C
:4014C00000000000000000000000000000000000000000000000000000000000000000000000000000000000000000000000000000000000000000000000000000000000EC
:0200000490006A
:0400000000004005B7
:0200000490105A
:04000000BC90ACAF55
:0200000490303A
:0200000013EFFC
:0200000490402A
:4000000000000000000000000000000000000000000000000000000000000000000000000000000000000000000000000000000000000000000000000000000000000000C0
:400040000000000000000000000000000000000000000000000000000000000000000000000000000000000000000000000000000000000000000000000000000000000080
:400080000000000000000000000000000000000000000000000000000000000000000000000000000000000000000000000000000000000000000000000000000000000040
:4000C0000000000000000000000000000000000000000000000000000000000000000000000000000000000000000000000000000000000000000000000000000000000000
:0200000490501A
:0C00000000012E16106900012E23245868
:00000001FF